{
	"contracts/nft-market.sol": {
		"Market": {
			"abi": [
				{
					"inputs": [
						{
							"internalType": "address",
							"name": "_erc20",
							"type": "address"
						},
						{
							"internalType": "address",
							"name": "_erc721",
							"type": "address"
						}
					],
					"stateMutability": "nonpayable",
					"type": "constructor"
				},
				{
					"anonymous": false,
					"inputs": [
						{
							"indexed": false,
							"internalType": "address",
							"name": "seller",
							"type": "address"
						},
						{
							"indexed": false,
							"internalType": "address",
							"name": "buyer",
							"type": "address"
						},
						{
							"indexed": false,
							"internalType": "uint256",
							"name": "tokenId",
							"type": "uint256"
						},
						{
							"indexed": false,
							"internalType": "uint256",
							"name": "price",
							"type": "uint256"
						}
					],
					"name": "Deal",
					"type": "event"
				},
				{
					"anonymous": false,
					"inputs": [
						{
							"indexed": false,
							"internalType": "address",
							"name": "seller",
							"type": "address"
						},
						{
							"indexed": false,
							"internalType": "uint256",
							"name": "tokenId",
							"type": "uint256"
						},
						{
							"indexed": false,
							"internalType": "uint256",
							"name": "price",
							"type": "uint256"
						}
					],
					"name": "NewOrder",
					"type": "event"
				},
				{
					"anonymous": false,
					"inputs": [
						{
							"indexed": false,
							"internalType": "address",
							"name": "seller",
							"type": "address"
						},
						{
							"indexed": false,
							"internalType": "uint256",
							"name": "tokenId",
							"type": "uint256"
						}
					],
					"name": "OrderCancelled",
					"type": "event"
				},
				{
					"anonymous": false,
					"inputs": [
						{
							"indexed": false,
							"internalType": "address",
							"name": "seller",
							"type": "address"
						},
						{
							"indexed": false,
							"internalType": "uint256",
							"name": "tokenId",
							"type": "uint256"
						},
						{
							"indexed": false,
							"internalType": "uint256",
							"name": "previousPrice",
							"type": "uint256"
						},
						{
							"indexed": false,
							"internalType": "uint256",
							"name": "price",
							"type": "uint256"
						}
					],
					"name": "PriceChanged",
					"type": "event"
				},
				{
					"inputs": [
						{
							"internalType": "uint256",
							"name": "_tokenId",
							"type": "uint256"
						}
					],
					"name": "buy",
					"outputs": [],
					"stateMutability": "nonpayable",
					"type": "function"
				},
				{
					"inputs": [
						{
							"internalType": "uint256",
							"name": "_tokenId",
							"type": "uint256"
						}
					],
					"name": "cancelOrder",
					"outputs": [],
					"stateMutability": "nonpayable",
					"type": "function"
				},
				{
					"inputs": [
						{
							"internalType": "uint256",
							"name": "_tokenId",
							"type": "uint256"
						},
						{
							"internalType": "uint256",
							"name": "_price",
							"type": "uint256"
						}
					],
					"name": "changePrice",
					"outputs": [],
					"stateMutability": "nonpayable",
					"type": "function"
				},
				{
					"inputs": [],
					"name": "erc20",
					"outputs": [
						{
							"internalType": "contract IERC20",
							"name": "",
							"type": "address"
						}
					],
					"stateMutability": "view",
					"type": "function"
				},
				{
					"inputs": [],
					"name": "erc721",
					"outputs": [
						{
							"internalType": "contract IERC721",
							"name": "",
							"type": "address"
						}
					],
					"stateMutability": "view",
					"type": "function"
				},
				{
					"inputs": [
						{
							"internalType": "uint256",
							"name": "",
							"type": "uint256"
						}
					],
					"name": "idToOrderIndex",
					"outputs": [
						{
							"internalType": "uint256",
							"name": "",
							"type": "uint256"
						}
					],
					"stateMutability": "view",
					"type": "function"
				},
				{
					"inputs": [
						{
							"internalType": "address",
							"name": "operator",
							"type": "address"
						},
						{
							"internalType": "address",
							"name": "from",
							"type": "address"
						},
						{
							"internalType": "uint256",
							"name": "tokenId",
							"type": "uint256"
						},
						{
							"internalType": "bytes",
							"name": "data",
							"type": "bytes"
						}
					],
					"name": "onERC721Received",
					"outputs": [
						{
							"internalType": "bytes4",
							"name": "",
							"type": "bytes4"
						}
					],
					"stateMutability": "nonpayable",
					"type": "function"
				},
				{
					"inputs": [
						{
							"internalType": "uint256",
							"name": "",
							"type": "uint256"
						}
					],
					"name": "orderOfId",
					"outputs": [
						{
							"internalType": "address",
							"name": "seller",
							"type": "address"
						},
						{
							"internalType": "uint256",
							"name": "tokenId",
							"type": "uint256"
						},
						{
							"internalType": "uint256",
							"name": "price",
							"type": "uint256"
						}
					],
					"stateMutability": "view",
					"type": "function"
				},
				{
					"inputs": [
						{
							"internalType": "uint256",
							"name": "",
							"type": "uint256"
						}
					],
					"name": "orders",
					"outputs": [
						{
							"internalType": "address",
							"name": "seller",
							"type": "address"
						},
						{
							"internalType": "uint256",
							"name": "tokenId",
							"type": "uint256"
						},
						{
							"internalType": "uint256",
							"name": "price",
							"type": "uint256"
						}
					],
					"stateMutability": "view",
					"type": "function"
				},
				{
					"inputs": [
						{
							"internalType": "bytes",
							"name": "_bytes",
							"type": "bytes"
						},
						{
							"internalType": "uint256",
							"name": "_start",
							"type": "uint256"
						}
					],
					"name": "toUint256",
					"outputs": [
						{
							"internalType": "uint256",
							"name": "",
							"type": "uint256"
						}
					],
					"stateMutability": "pure",
					"type": "function"
				}
			],
			"devdoc": {
				"kind": "dev",
				"methods": {},
				"version": 1
			},
			"evm": {
				"assembly": "    /* \"contracts/nft-market.sol\":172:4350  contract Market {... */\n  mstore(0x40, 0x80)\n    /* \"contracts/nft-market.sol\":937:1167  constructor(address _erc20, address _erc721) {... */\n  callvalue\n  dup1\n  iszero\n  tag_1\n  jumpi\n  0x00\n  dup1\n  revert\ntag_1:\n  pop\n  mload(0x40)\n  sub(codesize, bytecodeSize)\n  dup1\n  bytecodeSize\n  dup4\n  codecopy\n  dup2\n  dup2\n  add\n  0x40\n  mstore\n  dup2\n  add\n  swap1\n  tag_2\n  swap2\n  swap1\n  tag_3\n  jump\t// in\ntag_2:\n    /* \"contracts/nft-market.sol\":1018:1019  0 */\n  0x00\n    /* \"contracts/nft-market.sol\":1000:1020  _erc20 != address(0) */\n  0xffffffffffffffffffffffffffffffffffffffff\n  and\n    /* \"contracts/nft-market.sol\":1000:1006  _erc20 */\n  dup3\n    /* \"contracts/nft-market.sol\":1000:1020  _erc20 != address(0) */\n  0xffffffffffffffffffffffffffffffffffffffff\n  and\n  sub\n    /* \"contracts/nft-market.sol\":992:1037  require(_erc20 != address(0), \"zero address\") */\n  tag_6\n  jumpi\n  mload(0x40)\n  0x08c379a000000000000000000000000000000000000000000000000000000000\n  dup2\n  mstore\n  0x04\n  add\n  tag_7\n  swap1\n  tag_8\n  jump\t// in\ntag_7:\n  mload(0x40)\n  dup1\n  swap2\n  sub\n  swap1\n  revert\ntag_6:\n    /* \"contracts/nft-market.sol\":1074:1075  0 */\n  0x00\n    /* \"contracts/nft-market.sol\":1055:1076  _erc721 != address(0) */\n  0xffffffffffffffffffffffffffffffffffffffff\n  and\n    /* \"contracts/nft-market.sol\":1055:1062  _erc721 */\n  dup2\n    /* \"contracts/nft-market.sol\":1055:1076  _erc721 != address(0) */\n  0xffffffffffffffffffffffffffffffffffffffff\n  and\n  sub\n    /* \"contracts/nft-market.sol\":1047:1093  require(_erc721 != address(0), \"zero address\") */\n  tag_9\n  jumpi\n  mload(0x40)\n  0x08c379a000000000000000000000000000000000000000000000000000000000\n  dup2\n  mstore\n  0x04\n  add\n  tag_10\n  swap1\n  tag_8\n  jump\t// in\ntag_10:\n  mload(0x40)\n  dup1\n  swap2\n  sub\n  swap1\n  revert\ntag_9:\n    /* \"contracts/nft-market.sol\":1118:1124  _erc20 */\n  dup2\n    /* \"contracts/nft-market.sol\":1103:1108  erc20 */\n  0x00\n  dup1\n    /* \"contracts/nft-market.sol\":1103:1125  erc20 = IERC20(_erc20) */\n  0x0100\n  exp\n  dup2\n  sload\n  dup2\n  0xffffffffffffffffffffffffffffffffffffffff\n  mul\n  not\n  and\n  swap1\n  dup4\n  0xffffffffffffffffffffffffffffffffffffffff\n  and\n  mul\n  or\n  swap1\n  sstore\n  pop\n    /* \"contracts/nft-market.sol\":1152:1159  _erc721 */\n  dup1\n    /* \"contracts/nft-market.sol\":1135:1141  erc721 */\n  0x01\n  0x00\n    /* \"contracts/nft-market.sol\":1135:1160  erc721 = IERC721(_erc721) */\n  0x0100\n  exp\n  dup2\n  sload\n  dup2\n  0xffffffffffffffffffffffffffffffffffffffff\n  mul\n  not\n  and\n  swap1\n  dup4\n  0xffffffffffffffffffffffffffffffffffffffff\n  and\n  mul\n  or\n  swap1\n  sstore\n  pop\n    /* \"contracts/nft-market.sol\":937:1167  constructor(address _erc20, address _erc721) {... */\n  pop\n  pop\n    /* \"contracts/nft-market.sol\":172:4350  contract Market {... */\n  jump(tag_11)\n    /* \"#utility.yul\":88:205   */\ntag_13:\n    /* \"#utility.yul\":197:198   */\n  0x00\n    /* \"#utility.yul\":194:195   */\n  dup1\n    /* \"#utility.yul\":187:199   */\n  revert\n    /* \"#utility.yul\":334:460   */\ntag_15:\n    /* \"#utility.yul\":371:378   */\n  0x00\n    /* \"#utility.yul\":411:453   */\n  0xffffffffffffffffffffffffffffffffffffffff\n    /* \"#utility.yul\":404:409   */\n  dup3\n    /* \"#utility.yul\":400:454   */\n  and\n    /* \"#utility.yul\":389:454   */\n  swap1\n  pop\n    /* \"#utility.yul\":334:460   */\n  swap2\n  swap1\n  pop\n  jump\t// out\n    /* \"#utility.yul\":466:562   */\ntag_16:\n    /* \"#utility.yul\":503:510   */\n  0x00\n    /* \"#utility.yul\":532:556   */\n  tag_28\n    /* \"#utility.yul\":550:555   */\n  dup3\n    /* \"#utility.yul\":532:556   */\n  tag_15\n  jump\t// in\ntag_28:\n    /* \"#utility.yul\":521:556   */\n  swap1\n  pop\n    /* \"#utility.yul\":466:562   */\n  swap2\n  swap1\n  pop\n  jump\t// out\n    /* \"#utility.yul\":568:690   */\ntag_17:\n    /* \"#utility.yul\":641:665   */\n  tag_30\n    /* \"#utility.yul\":659:664   */\n  dup2\n    /* \"#utility.yul\":641:665   */\n  tag_16\n  jump\t// in\ntag_30:\n    /* \"#utility.yul\":634:639   */\n  dup2\n    /* \"#utility.yul\":631:666   */\n  eq\n    /* \"#utility.yul\":621:684   */\n  tag_31\n  jumpi\n    /* \"#utility.yul\":680:681   */\n  0x00\n    /* \"#utility.yul\":677:678   */\n  dup1\n    /* \"#utility.yul\":670:682   */\n  revert\n    /* \"#utility.yul\":621:684   */\ntag_31:\n    /* \"#utility.yul\":568:690   */\n  pop\n  jump\t// out\n    /* \"#utility.yul\":696:839   */\ntag_18:\n    /* \"#utility.yul\":753:758   */\n  0x00\n    /* \"#utility.yul\":784:790   */\n  dup2\n    /* \"#utility.yul\":778:791   */\n  mload\n    /* \"#utility.yul\":769:791   */\n  swap1\n  pop\n    /* \"#utility.yul\":800:833   */\n  tag_33\n    /* \"#utility.yul\":827:832   */\n  dup2\n    /* \"#utility.yul\":800:833   */\n  tag_17\n  jump\t// in\ntag_33:\n    /* \"#utility.yul\":696:839   */\n  swap3\n  swap2\n  pop\n  pop\n  jump\t// out\n    /* \"#utility.yul\":845:1352   */\ntag_3:\n    /* \"#utility.yul\":924:930   */\n  0x00\n    /* \"#utility.yul\":932:938   */\n  dup1\n    /* \"#utility.yul\":981:983   */\n  0x40\n    /* \"#utility.yul\":969:978   */\n  dup4\n    /* \"#utility.yul\":960:967   */\n  dup6\n    /* \"#utility.yul\":956:979   */\n  sub\n    /* \"#utility.yul\":952:984   */\n  slt\n    /* \"#utility.yul\":949:1068   */\n  iszero\n  tag_35\n  jumpi\n    /* \"#utility.yul\":987:1066   */\n  tag_36\n  tag_13\n  jump\t// in\ntag_36:\n    /* \"#utility.yul\":949:1068   */\ntag_35:\n    /* \"#utility.yul\":1107:1108   */\n  0x00\n    /* \"#utility.yul\":1132:1196   */\n  tag_37\n    /* \"#utility.yul\":1188:1195   */\n  dup6\n    /* \"#utility.yul\":1179:1185   */\n  dup3\n    /* \"#utility.yul\":1168:1177   */\n  dup7\n    /* \"#utility.yul\":1164:1186   */\n  add\n    /* \"#utility.yul\":1132:1196   */\n  tag_18\n  jump\t// in\ntag_37:\n    /* \"#utility.yul\":1122:1196   */\n  swap3\n  pop\n    /* \"#utility.yul\":1078:1206   */\n  pop\n    /* \"#utility.yul\":1245:1247   */\n  0x20\n    /* \"#utility.yul\":1271:1335   */\n  tag_38\n    /* \"#utility.yul\":1327:1334   */\n  dup6\n    /* \"#utility.yul\":1318:1324   */\n  dup3\n    /* \"#utility.yul\":1307:1316   */\n  dup7\n    /* \"#utility.yul\":1303:1325   */\n  add\n    /* \"#utility.yul\":1271:1335   */\n  tag_18\n  jump\t// in\ntag_38:\n    /* \"#utility.yul\":1261:1335   */\n  swap2\n  pop\n    /* \"#utility.yul\":1216:1345   */\n  pop\n    /* \"#utility.yul\":845:1352   */\n  swap3\n  pop\n  swap3\n  swap1\n  pop\n  jump\t// out\n    /* \"#utility.yul\":1358:1527   */\ntag_19:\n    /* \"#utility.yul\":1442:1453   */\n  0x00\n    /* \"#utility.yul\":1476:1482   */\n  dup3\n    /* \"#utility.yul\":1471:1474   */\n  dup3\n    /* \"#utility.yul\":1464:1483   */\n  mstore\n    /* \"#utility.yul\":1516:1520   */\n  0x20\n    /* \"#utility.yul\":1511:1514   */\n  dup3\n    /* \"#utility.yul\":1507:1521   */\n  add\n    /* \"#utility.yul\":1492:1521   */\n  swap1\n  pop\n    /* \"#utility.yul\":1358:1527   */\n  swap3\n  swap2\n  pop\n  pop\n  jump\t// out\n    /* \"#utility.yul\":1533:1695   */\ntag_20:\n    /* \"#utility.yul\":1673:1687   */\n  0x7a65726f20616464726573730000000000000000000000000000000000000000\n    /* \"#utility.yul\":1669:1670   */\n  0x00\n    /* \"#utility.yul\":1661:1667   */\n  dup3\n    /* \"#utility.yul\":1657:1671   */\n  add\n    /* \"#utility.yul\":1650:1688   */\n  mstore\n    /* \"#utility.yul\":1533:1695   */\n  pop\n  jump\t// out\n    /* \"#utility.yul\":1701:2067   */\ntag_21:\n    /* \"#utility.yul\":1843:1846   */\n  0x00\n    /* \"#utility.yul\":1864:1931   */\n  tag_42\n    /* \"#utility.yul\":1928:1930   */\n  0x0c\n    /* \"#utility.yul\":1923:1926   */\n  dup4\n    /* \"#utility.yul\":1864:1931   */\n  tag_19\n  jump\t// in\ntag_42:\n    /* \"#utility.yul\":1857:1931   */\n  swap2\n  pop\n    /* \"#utility.yul\":1940:2033   */\n  tag_43\n    /* \"#utility.yul\":2029:2032   */\n  dup3\n    /* \"#utility.yul\":1940:2033   */\n  tag_20\n  jump\t// in\ntag_43:\n    /* \"#utility.yul\":2058:2060   */\n  0x20\n    /* \"#utility.yul\":2053:2056   */\n  dup3\n    /* \"#utility.yul\":2049:2061   */\n  add\n    /* \"#utility.yul\":2042:2061   */\n  swap1\n  pop\n    /* \"#utility.yul\":1701:2067   */\n  swap2\n  swap1\n  pop\n  jump\t// out\n    /* \"#utility.yul\":2073:2492   */\ntag_8:\n    /* \"#utility.yul\":2239:2243   */\n  0x00\n    /* \"#utility.yul\":2277:2279   */\n  0x20\n    /* \"#utility.yul\":2266:2275   */\n  dup3\n    /* \"#utility.yul\":2262:2280   */\n  add\n    /* \"#utility.yul\":2254:2280   */\n  swap1\n  pop\n    /* \"#utility.yul\":2326:2335   */\n  dup2\n    /* \"#utility.yul\":2320:2324   */\n  dup2\n    /* \"#utility.yul\":2316:2336   */\n  sub\n    /* \"#utility.yul\":2312:2313   */\n  0x00\n    /* \"#utility.yul\":2301:2310   */\n  dup4\n    /* \"#utility.yul\":2297:2314   */\n  add\n    /* \"#utility.yul\":2290:2337   */\n  mstore\n    /* \"#utility.yul\":2354:2485   */\n  tag_45\n    /* \"#utility.yul\":2480:2484   */\n  dup2\n    /* \"#utility.yul\":2354:2485   */\n  tag_21\n  jump\t// in\ntag_45:\n    /* \"#utility.yul\":2346:2485   */\n  swap1\n  pop\n    /* \"#utility.yul\":2073:2492   */\n  swap2\n  swap1\n  pop\n  jump\t// out\n    /* \"contracts/nft-market.sol\":172:4350  contract Market {... */\ntag_11:\n  dataSize(sub_0)\n  dup1\n  dataOffset(sub_0)\n  0x00\n  codecopy\n  0x00\n  return\nstop\n\nsub_0: assembly {\n        /* \"contracts/nft-market.sol\":172:4350  contract Market {... */\n      mstore(0x40, 0x80)\n      callvalue\n      dup1\n      iszero\n      tag_1\n      jumpi\n      0x00\n      dup1\n      revert\n    tag_1:\n      pop\n      jumpi(tag_2, lt(calldatasize, 0x04))\n      shr(0xe0, calldataload(0x00))\n      dup1\n      0xb3de019c\n      gt\n      tag_13\n      jumpi\n      dup1\n      0xb3de019c\n      eq\n      tag_8\n      jumpi\n      dup1\n      0xb5cdf924\n      eq\n      tag_9\n      jumpi\n      dup1\n      0xbca6ce64\n      eq\n      tag_10\n      jumpi\n      dup1\n      0xd96a094a\n      eq\n      tag_11\n      jumpi\n      dup1\n      0xda694df0\n      eq\n      tag_12\n      jumpi\n      jump(tag_2)\n    tag_13:\n      dup1\n      0x150b7a02\n      eq\n      tag_3\n      jumpi\n      dup1\n      0x394a9077\n      eq\n      tag_4\n      jumpi\n      dup1\n      0x514fcac7\n      eq\n      tag_5\n      jumpi\n      dup1\n      0x785e9e86\n      eq\n      tag_6\n      jumpi\n      dup1\n      0xa85c38ef\n      eq\n      tag_7\n      jumpi\n    tag_2:\n      0x00\n      dup1\n      revert\n        /* \"contracts/nft-market.sol\":2570:3281  function onERC721Received(... */\n    tag_3:\n      tag_14\n      0x04\n      dup1\n      calldatasize\n      sub\n      dup2\n      add\n      swap1\n      tag_15\n      swap2\n      swap1\n      tag_16\n      jump\t// in\n    tag_15:\n      tag_17\n      jump\t// in\n    tag_14:\n      mload(0x40)\n      tag_18\n      swap2\n      swap1\n      tag_19\n      jump\t// in\n    tag_18:\n      mload(0x40)\n      dup1\n      swap2\n      sub\n      swap1\n      return\n        /* \"contracts/nft-market.sol\":414:456  mapping(uint256 => Order) public orderOfId */\n    tag_4:\n      tag_20\n      0x04\n      dup1\n      calldatasize\n      sub\n      dup2\n      add\n      swap1\n      tag_21\n      swap2\n      swap1\n      tag_22\n      jump\t// in\n    tag_21:\n      tag_23\n      jump\t// in\n    tag_20:\n      mload(0x40)\n      tag_24\n      swap4\n      swap3\n      swap2\n      swap1\n      tag_25\n      jump\t// in\n    tag_24:\n      mload(0x40)\n      dup1\n      swap2\n      sub\n      swap1\n      return\n        /* \"contracts/nft-market.sol\":1731:2065  function cancelOrder(uint256 _tokenId) external {... */\n    tag_5:\n      tag_26\n      0x04\n      dup1\n      calldatasize\n      sub\n      dup2\n      add\n      swap1\n      tag_27\n      swap2\n      swap1\n      tag_22\n      jump\t// in\n    tag_27:\n      tag_28\n      jump\t// in\n    tag_26:\n      stop\n        /* \"contracts/nft-market.sol\":194:213  IERC20 public erc20 */\n    tag_6:\n      tag_29\n      tag_30\n      jump\t// in\n    tag_29:\n      mload(0x40)\n      tag_31\n      swap2\n      swap1\n      tag_32\n      jump\t// in\n    tag_31:\n      mload(0x40)\n      dup1\n      swap2\n      sub\n      swap1\n      return\n        /* \"contracts/nft-market.sol\":483:504  Order[] public orders */\n    tag_7:\n      tag_33\n      0x04\n      dup1\n      calldatasize\n      sub\n      dup2\n      add\n      swap1\n      tag_34\n      swap2\n      swap1\n      tag_22\n      jump\t// in\n    tag_34:\n      tag_35\n      jump\t// in\n    tag_33:\n      mload(0x40)\n      tag_36\n      swap4\n      swap3\n      swap2\n      swap1\n      tag_25\n      jump\t// in\n    tag_36:\n      mload(0x40)\n      dup1\n      swap2\n      sub\n      swap1\n      return\n        /* \"contracts/nft-market.sol\":2071:2564  function changePrice(uint256 _tokenId, uint256 _price) external {... */\n    tag_8:\n      tag_37\n      0x04\n      dup1\n      calldatasize\n      sub\n      dup2\n      add\n      swap1\n      tag_38\n      swap2\n      swap1\n      tag_39\n      jump\t// in\n    tag_38:\n      tag_40\n      jump\t// in\n    tag_37:\n      stop\n        /* \"contracts/nft-market.sol\":3939:4348  function toUint256(... */\n    tag_9:\n      tag_41\n      0x04\n      dup1\n      calldatasize\n      sub\n      dup2\n      add\n      swap1\n      tag_42\n      swap2\n      swap1\n      tag_43\n      jump\t// in\n    tag_42:\n      tag_44\n      jump\t// in\n    tag_41:\n      mload(0x40)\n      tag_45\n      swap2\n      swap1\n      tag_46\n      jump\t// in\n    tag_45:\n      mload(0x40)\n      dup1\n      swap2\n      sub\n      swap1\n      return\n        /* \"contracts/nft-market.sol\":219:240  IERC721 public erc721 */\n    tag_10:\n      tag_47\n      tag_48\n      jump\t// in\n    tag_47:\n      mload(0x40)\n      tag_49\n      swap2\n      swap1\n      tag_50\n      jump\t// in\n    tag_49:\n      mload(0x40)\n      dup1\n      swap2\n      sub\n      swap1\n      return\n        /* \"contracts/nft-market.sol\":1173:1725  function buy(uint256 _tokenId) external {... */\n    tag_11:\n      tag_51\n      0x04\n      dup1\n      calldatasize\n      sub\n      dup2\n      add\n      swap1\n      tag_52\n      swap2\n      swap1\n      tag_22\n      jump\t// in\n    tag_52:\n      tag_53\n      jump\t// in\n    tag_51:\n      stop\n        /* \"contracts/nft-market.sol\":510:559  mapping(uint256 => uint256) public idToOrderIndex */\n    tag_12:\n      tag_54\n      0x04\n      dup1\n      calldatasize\n      sub\n      dup2\n      add\n      swap1\n      tag_55\n      swap2\n      swap1\n      tag_22\n      jump\t// in\n    tag_55:\n      tag_56\n      jump\t// in\n    tag_54:\n      mload(0x40)\n      tag_57\n      swap2\n      swap1\n      tag_46\n      jump\t// in\n    tag_57:\n      mload(0x40)\n      dup1\n      swap2\n      sub\n      swap1\n      return\n        /* \"contracts/nft-market.sol\":2570:3281  function onERC721Received(... */\n    tag_17:\n        /* \"contracts/nft-market.sol\":2722:2728  bytes4 */\n      0x00\n        /* \"contracts/nft-market.sol\":2770:2776  erc721 */\n      0x01\n      0x00\n      swap1\n      sload\n      swap1\n      0x0100\n      exp\n      swap1\n      div\n      0xffffffffffffffffffffffffffffffffffffffff\n      and\n        /* \"contracts/nft-market.sol\":2748:2777  msg.sender == address(erc721) */\n      0xffffffffffffffffffffffffffffffffffffffff\n      and\n        /* \"contracts/nft-market.sol\":2748:2758  msg.sender */\n      caller\n        /* \"contracts/nft-market.sol\":2748:2777  msg.sender == address(erc721) */\n      0xffffffffffffffffffffffffffffffffffffffff\n      and\n      eq\n        /* \"contracts/nft-market.sol\":2740:2796  require(msg.sender == address(erc721), \"invalid sender\") */\n      tag_59\n      jumpi\n      mload(0x40)\n      0x08c379a000000000000000000000000000000000000000000000000000000000\n      dup2\n      mstore\n      0x04\n      add\n      tag_60\n      swap1\n      tag_61\n      jump\t// in\n    tag_60:\n      mload(0x40)\n      dup1\n      swap2\n      sub\n      swap1\n      revert\n    tag_59:\n        /* \"contracts/nft-market.sol\":2862:2866  this */\n      address\n        /* \"contracts/nft-market.sol\":2827:2867  erc721.ownerOf(tokenId) == address(this) */\n      0xffffffffffffffffffffffffffffffffffffffff\n      and\n        /* \"contracts/nft-market.sol\":2827:2833  erc721 */\n      0x01\n      0x00\n      swap1\n      sload\n      swap1\n      0x0100\n      exp\n      swap1\n      div\n      0xffffffffffffffffffffffffffffffffffffffff\n      and\n        /* \"contracts/nft-market.sol\":2827:2841  erc721.ownerOf */\n      0xffffffffffffffffffffffffffffffffffffffff\n      and\n      0x6352211e\n        /* \"contracts/nft-market.sol\":2842:2849  tokenId */\n      dup7\n        /* \"contracts/nft-market.sol\":2827:2850  erc721.ownerOf(tokenId) */\n      mload(0x40)\n      dup3\n      0xffffffff\n      and\n      0xe0\n      shl\n      dup2\n      mstore\n      0x04\n      add\n      tag_62\n      swap2\n      swap1\n      tag_46\n      jump\t// in\n    tag_62:\n      0x20\n      mload(0x40)\n      dup1\n      dup4\n      sub\n      dup2\n      dup7\n      gas\n      staticcall\n      iszero\n      dup1\n      iszero\n      tag_64\n      jumpi\n      returndatasize\n      0x00\n      dup1\n      returndatacopy\n      revert(0x00, returndatasize)\n    tag_64:\n      pop\n      pop\n      pop\n      pop\n      mload(0x40)\n      returndatasize\n      not(0x1f)\n      0x1f\n      dup3\n      add\n      and\n      dup3\n      add\n      dup1\n      0x40\n      mstore\n      pop\n      dup2\n      add\n      swap1\n      tag_65\n      swap2\n      swap1\n      tag_66\n      jump\t// in\n    tag_65:\n        /* \"contracts/nft-market.sol\":2827:2867  erc721.ownerOf(tokenId) == address(this) */\n      0xffffffffffffffffffffffffffffffffffffffff\n      and\n      eq\n        /* \"contracts/nft-market.sol\":2806:2919  require(... */\n      tag_67\n      jumpi\n      mload(0x40)\n      0x08c379a000000000000000000000000000000000000000000000000000000000\n      dup2\n      mstore\n      0x04\n      add\n      tag_68\n      swap1\n      tag_69\n      jump\t// in\n    tag_68:\n      mload(0x40)\n      dup1\n      swap2\n      sub\n      swap1\n      revert\n    tag_67:\n        /* \"contracts/nft-market.sol\":2929:2942  uint256 price */\n      0x00\n        /* \"contracts/nft-market.sol\":2945:2963  toUint256(data, 0) */\n      tag_70\n        /* \"contracts/nft-market.sol\":2955:2959  data */\n      dup5\n      dup5\n        /* \"contracts/nft-market.sol\":2945:2963  toUint256(data, 0) */\n      dup1\n      dup1\n      0x1f\n      add\n      0x20\n      dup1\n      swap2\n      div\n      mul\n      0x20\n      add\n      mload(0x40)\n      swap1\n      dup2\n      add\n      0x40\n      mstore\n      dup1\n      swap4\n      swap3\n      swap2\n      swap1\n      dup2\n      dup2\n      mstore\n      0x20\n      add\n      dup4\n      dup4\n      dup1\n      dup3\n      dup5\n      calldatacopy\n      0x00\n      dup2\n      dup5\n      add\n      mstore\n      not(0x1f)\n      0x1f\n      dup3\n      add\n      and\n      swap1\n      pop\n      dup1\n      dup4\n      add\n      swap3\n      pop\n      pop\n      pop\n      pop\n      pop\n      pop\n      pop\n        /* \"contracts/nft-market.sol\":2961:2962  0 */\n      0x00\n        /* \"contracts/nft-market.sol\":2945:2954  toUint256 */\n      tag_44\n        /* \"contracts/nft-market.sol\":2945:2963  toUint256(data, 0) */\n      jump\t// in\n    tag_70:\n        /* \"contracts/nft-market.sol\":2929:2963  uint256 price = toUint256(data, 0) */\n      swap1\n      pop\n        /* \"contracts/nft-market.sol\":2989:2990  0 */\n      0x00\n        /* \"contracts/nft-market.sol\":2981:2986  price */\n      dup2\n        /* \"contracts/nft-market.sol\":2981:2990  price > 0 */\n      gt\n        /* \"contracts/nft-market.sol\":2973:3008  require(price > 0, \"price is zero\") */\n      tag_71\n      jumpi\n      mload(0x40)\n      0x08c379a000000000000000000000000000000000000000000000000000000000\n      dup2\n      mstore\n      0x04\n      add\n      tag_72\n      swap1\n      tag_73\n      jump\t// in\n    tag_72:\n      mload(0x40)\n      dup1\n      swap2\n      sub\n      swap1\n      revert\n    tag_71:\n        /* \"contracts/nft-market.sol\":3036:3042  orders */\n      0x03\n        /* \"contracts/nft-market.sol\":3048:3075  Order(from, tokenId, price) */\n      mload(0x40)\n      dup1\n      0x60\n      add\n      0x40\n      mstore\n      dup1\n        /* \"contracts/nft-market.sol\":3054:3058  from */\n      dup9\n        /* \"contracts/nft-market.sol\":3048:3075  Order(from, tokenId, price) */\n      0xffffffffffffffffffffffffffffffffffffffff\n      and\n      dup2\n      mstore\n      0x20\n      add\n        /* \"contracts/nft-market.sol\":3060:3067  tokenId */\n      dup8\n        /* \"contracts/nft-market.sol\":3048:3075  Order(from, tokenId, price) */\n      dup2\n      mstore\n      0x20\n      add\n        /* \"contracts/nft-market.sol\":3069:3074  price */\n      dup4\n        /* \"contracts/nft-market.sol\":3048:3075  Order(from, tokenId, price) */\n      dup2\n      mstore\n      pop\n        /* \"contracts/nft-market.sol\":3036:3076  orders.push(Order(from, tokenId, price)) */\n      swap1\n      dup1\n      0x01\n      dup2\n      sload\n      add\n      dup1\n      dup3\n      sstore\n      dup1\n      swap2\n      pop\n      pop\n      0x01\n      swap1\n      sub\n      swap1\n      0x00\n      mstore\n      keccak256(0x00, 0x20)\n      swap1\n      0x03\n      mul\n      add\n      0x00\n      swap1\n      swap2\n      swap1\n      swap2\n      swap1\n      swap2\n      pop\n      0x00\n      dup3\n      add\n      mload\n      dup2\n      0x00\n      add\n      exp(0x0100, 0x00)\n      dup2\n      sload\n      dup2\n      0xffffffffffffffffffffffffffffffffffffffff\n      mul\n      not\n      and\n      swap1\n      dup4\n      0xffffffffffffffffffffffffffffffffffffffff\n      and\n      mul\n      or\n      swap1\n      sstore\n      pop\n      0x20\n      dup3\n      add\n      mload\n      dup2\n      0x01\n      add\n      sstore\n      0x40\n      dup3\n      add\n      mload\n      dup2\n      0x02\n      add\n      sstore\n      pop\n      pop\n        /* \"contracts/nft-market.sol\":3107:3134  Order(from, tokenId, price) */\n      mload(0x40)\n      dup1\n      0x60\n      add\n      0x40\n      mstore\n      dup1\n        /* \"contracts/nft-market.sol\":3113:3117  from */\n      dup8\n        /* \"contracts/nft-market.sol\":3107:3134  Order(from, tokenId, price) */\n      0xffffffffffffffffffffffffffffffffffffffff\n      and\n      dup2\n      mstore\n      0x20\n      add\n        /* \"contracts/nft-market.sol\":3119:3126  tokenId */\n      dup7\n        /* \"contracts/nft-market.sol\":3107:3134  Order(from, tokenId, price) */\n      dup2\n      mstore\n      0x20\n      add\n        /* \"contracts/nft-market.sol\":3128:3133  price */\n      dup3\n        /* \"contracts/nft-market.sol\":3107:3134  Order(from, tokenId, price) */\n      dup2\n      mstore\n      pop\n        /* \"contracts/nft-market.sol\":3086:3095  orderOfId */\n      0x02\n        /* \"contracts/nft-market.sol\":3086:3104  orderOfId[tokenId] */\n      0x00\n        /* \"contracts/nft-market.sol\":3096:3103  tokenId */\n      dup8\n        /* \"contracts/nft-market.sol\":3086:3104  orderOfId[tokenId] */\n      dup2\n      mstore\n      0x20\n      add\n      swap1\n      dup2\n      mstore\n      0x20\n      add\n      0x00\n      keccak256\n        /* \"contracts/nft-market.sol\":3086:3134  orderOfId[tokenId] = Order(from, tokenId, price) */\n      0x00\n      dup3\n      add\n      mload\n      dup2\n      0x00\n      add\n      exp(0x0100, 0x00)\n      dup2\n      sload\n      dup2\n      0xffffffffffffffffffffffffffffffffffffffff\n      mul\n      not\n      and\n      swap1\n      dup4\n      0xffffffffffffffffffffffffffffffffffffffff\n      and\n      mul\n      or\n      swap1\n      sstore\n      pop\n      0x20\n      dup3\n      add\n      mload\n      dup2\n      0x01\n      add\n      sstore\n      0x40\n      dup3\n      add\n      mload\n      dup2\n      0x02\n      add\n      sstore\n      swap1\n      pop\n      pop\n        /* \"contracts/nft-market.sol\":3186:3187  1 */\n      0x01\n        /* \"contracts/nft-market.sol\":3170:3176  orders */\n      0x03\n        /* \"contracts/nft-market.sol\":3170:3183  orders.length */\n      dup1\n      sload\n      swap1\n      pop\n        /* \"contracts/nft-market.sol\":3170:3187  orders.length - 1 */\n      tag_75\n      swap2\n      swap1\n      tag_76\n      jump\t// in\n    tag_75:\n        /* \"contracts/nft-market.sol\":3144:3158  idToOrderIndex */\n      0x04\n        /* \"contracts/nft-market.sol\":3144:3167  idToOrderIndex[tokenId] */\n      0x00\n        /* \"contracts/nft-market.sol\":3159:3166  tokenId */\n      dup8\n        /* \"contracts/nft-market.sol\":3144:3167  idToOrderIndex[tokenId] */\n      dup2\n      mstore\n      0x20\n      add\n      swap1\n      dup2\n      mstore\n      0x20\n      add\n      0x00\n      keccak256\n        /* \"contracts/nft-market.sol\":3144:3187  idToOrderIndex[tokenId] = orders.length - 1 */\n      dup2\n      swap1\n      sstore\n      pop\n        /* \"contracts/nft-market.sol\":3202:3232  NewOrder(from, tokenId, price) */\n      0xd5b509e657d5ec37ae4bdcab658b7340c0453bb630516d26623359a34c1cecf3\n        /* \"contracts/nft-market.sol\":3211:3215  from */\n      dup7\n        /* \"contracts/nft-market.sol\":3217:3224  tokenId */\n      dup7\n        /* \"contracts/nft-market.sol\":3226:3231  price */\n      dup4\n        /* \"contracts/nft-market.sol\":3202:3232  NewOrder(from, tokenId, price) */\n      mload(0x40)\n      tag_77\n      swap4\n      swap3\n      swap2\n      swap1\n      tag_25\n      jump\t// in\n    tag_77:\n      mload(0x40)\n      dup1\n      swap2\n      sub\n      swap1\n      log1\n        /* \"contracts/nft-market.sol\":299:309  0x150b7a02 */\n      0x150b7a02\n        /* \"contracts/nft-market.sol\":3250:3274  MAGIC_ON_ERC721_RECEIVED */\n      0xe0\n      shl\n        /* \"contracts/nft-market.sol\":3243:3274  return MAGIC_ON_ERC721_RECEIVED */\n      swap2\n      pop\n      pop\n        /* \"contracts/nft-market.sol\":2570:3281  function onERC721Received(... */\n      swap6\n      swap5\n      pop\n      pop\n      pop\n      pop\n      pop\n      jump\t// out\n        /* \"contracts/nft-market.sol\":414:456  mapping(uint256 => Order) public orderOfId */\n    tag_23:\n      mstore(0x20, 0x02)\n      dup1\n      0x00\n      mstore\n      keccak256(0x00, 0x40)\n      0x00\n      swap2\n      pop\n      swap1\n      pop\n      dup1\n      0x00\n      add\n      0x00\n      swap1\n      sload\n      swap1\n      0x0100\n      exp\n      swap1\n      div\n      0xffffffffffffffffffffffffffffffffffffffff\n      and\n      swap1\n      dup1\n      0x01\n      add\n      sload\n      swap1\n      dup1\n      0x02\n      add\n      sload\n      swap1\n      pop\n      dup4\n      jump\t// out\n        /* \"contracts/nft-market.sol\":1731:2065  function cancelOrder(uint256 _tokenId) external {... */\n    tag_28:\n        /* \"contracts/nft-market.sol\":1789:1803  address seller */\n      0x00\n        /* \"contracts/nft-market.sol\":1806:1815  orderOfId */\n      0x02\n        /* \"contracts/nft-market.sol\":1806:1825  orderOfId[_tokenId] */\n      0x00\n        /* \"contracts/nft-market.sol\":1816:1824  _tokenId */\n      dup4\n        /* \"contracts/nft-market.sol\":1806:1825  orderOfId[_tokenId] */\n      dup2\n      mstore\n      0x20\n      add\n      swap1\n      dup2\n      mstore\n      0x20\n      add\n      0x00\n      keccak256\n        /* \"contracts/nft-market.sol\":1806:1832  orderOfId[_tokenId].seller */\n      0x00\n      add\n      0x00\n      swap1\n      sload\n      swap1\n      0x0100\n      exp\n      swap1\n      div\n      0xffffffffffffffffffffffffffffffffffffffff\n      and\n        /* \"contracts/nft-market.sol\":1789:1832  address seller = orderOfId[_tokenId].seller */\n      swap1\n      pop\n        /* \"contracts/nft-market.sol\":1860:1870  msg.sender */\n      caller\n        /* \"contracts/nft-market.sol\":1850:1870  seller == msg.sender */\n      0xffffffffffffffffffffffffffffffffffffffff\n      and\n        /* \"contracts/nft-market.sol\":1850:1856  seller */\n      dup2\n        /* \"contracts/nft-market.sol\":1850:1870  seller == msg.sender */\n      0xffffffffffffffffffffffffffffffffffffffff\n      and\n      eq\n        /* \"contracts/nft-market.sol\":1842:1889  require(seller == msg.sender, \"not the seller\") */\n      tag_79\n      jumpi\n      mload(0x40)\n      0x08c379a000000000000000000000000000000000000000000000000000000000\n      dup2\n      mstore\n      0x04\n      add\n      tag_80\n      swap1\n      tag_81\n      jump\t// in\n    tag_80:\n      mload(0x40)\n      dup1\n      swap2\n      sub\n      swap1\n      revert\n    tag_79:\n        /* \"contracts/nft-market.sol\":1899:1905  erc721 */\n      0x01\n      0x00\n      swap1\n      sload\n      swap1\n      0x0100\n      exp\n      swap1\n      div\n      0xffffffffffffffffffffffffffffffffffffffff\n      and\n        /* \"contracts/nft-market.sol\":1899:1922  erc721.safeTransferFrom */\n      0xffffffffffffffffffffffffffffffffffffffff\n      and\n      0x42842e0e\n        /* \"contracts/nft-market.sol\":1931:1935  this */\n      address\n        /* \"contracts/nft-market.sol\":1938:1944  seller */\n      dup4\n        /* \"contracts/nft-market.sol\":1946:1954  _tokenId */\n      dup6\n        /* \"contracts/nft-market.sol\":1899:1955  erc721.safeTransferFrom(address(this), seller, _tokenId) */\n      mload(0x40)\n      dup5\n      0xffffffff\n      and\n      0xe0\n      shl\n      dup2\n      mstore\n      0x04\n      add\n      tag_82\n      swap4\n      swap3\n      swap2\n      swap1\n      tag_83\n      jump\t// in\n    tag_82:\n      0x00\n      mload(0x40)\n      dup1\n      dup4\n      sub\n      dup2\n      0x00\n      dup8\n      dup1\n      extcodesize\n      iszero\n      dup1\n      iszero\n      tag_84\n      jumpi\n      0x00\n      dup1\n      revert\n    tag_84:\n      pop\n      gas\n      call\n      iszero\n      dup1\n      iszero\n      tag_86\n      jumpi\n      returndatasize\n      0x00\n      dup1\n      returndatacopy\n      revert(0x00, returndatasize)\n    tag_86:\n      pop\n      pop\n      pop\n      pop\n        /* \"contracts/nft-market.sol\":1990:2011  removeOrder(_tokenId) */\n      tag_87\n        /* \"contracts/nft-market.sol\":2002:2010  _tokenId */\n      dup3\n        /* \"contracts/nft-market.sol\":1990:2001  removeOrder */\n      tag_88\n        /* \"contracts/nft-market.sol\":1990:2011  removeOrder(_tokenId) */\n      jump\t// in\n    tag_87:\n        /* \"contracts/nft-market.sol\":2026:2058  OrderCancelled(seller, _tokenId) */\n      0xdd003742fb214507783ce004fe55f5ac14f89c6de4a7cd7487e47eb091c62265\n        /* \"contracts/nft-market.sol\":2041:2047  seller */\n      dup2\n        /* \"contracts/nft-market.sol\":2049:2057  _tokenId */\n      dup4\n        /* \"contracts/nft-market.sol\":2026:2058  OrderCancelled(seller, _tokenId) */\n      mload(0x40)\n      tag_89\n      swap3\n      swap2\n      swap1\n      tag_90\n      jump\t// in\n    tag_89:\n      mload(0x40)\n      dup1\n      swap2\n      sub\n      swap1\n      log1\n        /* \"contracts/nft-market.sol\":1779:2065  {... */\n      pop\n        /* \"contracts/nft-market.sol\":1731:2065  function cancelOrder(uint256 _tokenId) external {... */\n      pop\n      jump\t// out\n        /* \"contracts/nft-market.sol\":194:213  IERC20 public erc20 */\n    tag_30:\n      0x00\n      dup1\n      sload\n      swap1\n      0x0100\n      exp\n      swap1\n      div\n      0xffffffffffffffffffffffffffffffffffffffff\n      and\n      dup2\n      jump\t// out\n        /* \"contracts/nft-market.sol\":483:504  Order[] public orders */\n    tag_35:\n      0x03\n      dup2\n      dup2\n      sload\n      dup2\n      lt\n      tag_91\n      jumpi\n      0x00\n      dup1\n      revert\n    tag_91:\n      swap1\n      0x00\n      mstore\n      keccak256(0x00, 0x20)\n      swap1\n      0x03\n      mul\n      add\n      0x00\n      swap2\n      pop\n      swap1\n      pop\n      dup1\n      0x00\n      add\n      0x00\n      swap1\n      sload\n      swap1\n      0x0100\n      exp\n      swap1\n      div\n      0xffffffffffffffffffffffffffffffffffffffff\n      and\n      swap1\n      dup1\n      0x01\n      add\n      sload\n      swap1\n      dup1\n      0x02\n      add\n      sload\n      swap1\n      pop\n      dup4\n      jump\t// out\n        /* \"contracts/nft-market.sol\":2071:2564  function changePrice(uint256 _tokenId, uint256 _price) external {... */\n    tag_40:\n        /* \"contracts/nft-market.sol\":2145:2159  address seller */\n      0x00\n        /* \"contracts/nft-market.sol\":2162:2171  orderOfId */\n      0x02\n        /* \"contracts/nft-market.sol\":2162:2181  orderOfId[_tokenId] */\n      0x00\n        /* \"contracts/nft-market.sol\":2172:2180  _tokenId */\n      dup5\n        /* \"contracts/nft-market.sol\":2162:2181  orderOfId[_tokenId] */\n      dup2\n      mstore\n      0x20\n      add\n      swap1\n      dup2\n      mstore\n      0x20\n      add\n      0x00\n      keccak256\n        /* \"contracts/nft-market.sol\":2162:2188  orderOfId[_tokenId].seller */\n      0x00\n      add\n      0x00\n      swap1\n      sload\n      swap1\n      0x0100\n      exp\n      swap1\n      div\n      0xffffffffffffffffffffffffffffffffffffffff\n      and\n        /* \"contracts/nft-market.sol\":2145:2188  address seller = orderOfId[_tokenId].seller */\n      swap1\n      pop\n        /* \"contracts/nft-market.sol\":2216:2226  msg.sender */\n      caller\n        /* \"contracts/nft-market.sol\":2206:2226  seller == msg.sender */\n      0xffffffffffffffffffffffffffffffffffffffff\n      and\n        /* \"contracts/nft-market.sol\":2206:2212  seller */\n      dup2\n        /* \"contracts/nft-market.sol\":2206:2226  seller == msg.sender */\n      0xffffffffffffffffffffffffffffffffffffffff\n      and\n      eq\n        /* \"contracts/nft-market.sol\":2198:2245  require(seller == msg.sender, \"not the seller\") */\n      tag_94\n      jumpi\n      mload(0x40)\n      0x08c379a000000000000000000000000000000000000000000000000000000000\n      dup2\n      mstore\n      0x04\n      add\n      tag_95\n      swap1\n      tag_81\n      jump\t// in\n    tag_95:\n      mload(0x40)\n      dup1\n      swap2\n      sub\n      swap1\n      revert\n    tag_94:\n        /* \"contracts/nft-market.sol\":2272:2273  0 */\n      0x00\n        /* \"contracts/nft-market.sol\":2263:2269  _price */\n      dup3\n        /* \"contracts/nft-market.sol\":2263:2273  _price > 0 */\n      gt\n        /* \"contracts/nft-market.sol\":2255:2291  require(_price > 0, \"price is zero\") */\n      tag_96\n      jumpi\n      mload(0x40)\n      0x08c379a000000000000000000000000000000000000000000000000000000000\n      dup2\n      mstore\n      0x04\n      add\n      tag_97\n      swap1\n      tag_73\n      jump\t// in\n    tag_97:\n      mload(0x40)\n      dup1\n      swap2\n      sub\n      swap1\n      revert\n    tag_96:\n        /* \"contracts/nft-market.sol\":2301:2322  uint256 previousPrice */\n      0x00\n        /* \"contracts/nft-market.sol\":2325:2334  orderOfId */\n      0x02\n        /* \"contracts/nft-market.sol\":2325:2344  orderOfId[_tokenId] */\n      0x00\n        /* \"contracts/nft-market.sol\":2335:2343  _tokenId */\n      dup6\n        /* \"contracts/nft-market.sol\":2325:2344  orderOfId[_tokenId] */\n      dup2\n      mstore\n      0x20\n      add\n      swap1\n      dup2\n      mstore\n      0x20\n      add\n      0x00\n      keccak256\n        /* \"contracts/nft-market.sol\":2325:2350  orderOfId[_tokenId].price */\n      0x02\n      add\n      sload\n        /* \"contracts/nft-market.sol\":2301:2350  uint256 previousPrice = orderOfId[_tokenId].price */\n      swap1\n      pop\n        /* \"contracts/nft-market.sol\":2388:2394  _price */\n      dup3\n        /* \"contracts/nft-market.sol\":2360:2369  orderOfId */\n      0x02\n        /* \"contracts/nft-market.sol\":2360:2379  orderOfId[_tokenId] */\n      0x00\n        /* \"contracts/nft-market.sol\":2370:2378  _tokenId */\n      dup7\n        /* \"contracts/nft-market.sol\":2360:2379  orderOfId[_tokenId] */\n      dup2\n      mstore\n      0x20\n      add\n      swap1\n      dup2\n      mstore\n      0x20\n      add\n      0x00\n      keccak256\n        /* \"contracts/nft-market.sol\":2360:2385  orderOfId[_tokenId].price */\n      0x02\n      add\n        /* \"contracts/nft-market.sol\":2360:2394  orderOfId[_tokenId].price = _price */\n      dup2\n      swap1\n      sstore\n      pop\n        /* \"contracts/nft-market.sol\":2405:2424  Order storage order */\n      0x00\n        /* \"contracts/nft-market.sol\":2427:2433  orders */\n      0x03\n        /* \"contracts/nft-market.sol\":2434:2448  idToOrderIndex */\n      0x04\n        /* \"contracts/nft-market.sol\":2434:2458  idToOrderIndex[_tokenId] */\n      0x00\n        /* \"contracts/nft-market.sol\":2449:2457  _tokenId */\n      dup8\n        /* \"contracts/nft-market.sol\":2434:2458  idToOrderIndex[_tokenId] */\n      dup2\n      mstore\n      0x20\n      add\n      swap1\n      dup2\n      mstore\n      0x20\n      add\n      0x00\n      keccak256\n      sload\n        /* \"contracts/nft-market.sol\":2427:2459  orders[idToOrderIndex[_tokenId]] */\n      dup2\n      sload\n      dup2\n      lt\n      tag_98\n      jumpi\n      tag_99\n      tag_100\n      jump\t// in\n    tag_99:\n    tag_98:\n      swap1\n      0x00\n      mstore\n      keccak256(0x00, 0x20)\n      swap1\n      0x03\n      mul\n      add\n        /* \"contracts/nft-market.sol\":2405:2459  Order storage order = orders[idToOrderIndex[_tokenId]] */\n      swap1\n      pop\n        /* \"contracts/nft-market.sol\":2483:2489  _price */\n      dup4\n        /* \"contracts/nft-market.sol\":2469:2474  order */\n      dup2\n        /* \"contracts/nft-market.sol\":2469:2480  order.price */\n      0x02\n      add\n        /* \"contracts/nft-market.sol\":2469:2489  order.price = _price */\n      dup2\n      swap1\n      sstore\n      pop\n        /* \"contracts/nft-market.sol\":2504:2557  PriceChanged(seller, _tokenId, previousPrice, _price) */\n      0xdac6aecd066304d15a41e8e590fc5ab5bf93634f43cba363f743d5e158d79988\n        /* \"contracts/nft-market.sol\":2517:2523  seller */\n      dup4\n        /* \"contracts/nft-market.sol\":2525:2533  _tokenId */\n      dup7\n        /* \"contracts/nft-market.sol\":2535:2548  previousPrice */\n      dup5\n        /* \"contracts/nft-market.sol\":2550:2556  _price */\n      dup8\n        /* \"contracts/nft-market.sol\":2504:2557  PriceChanged(seller, _tokenId, previousPrice, _price) */\n      mload(0x40)\n      tag_102\n      swap5\n      swap4\n      swap3\n      swap2\n      swap1\n      tag_103\n      jump\t// in\n    tag_102:\n      mload(0x40)\n      dup1\n      swap2\n      sub\n      swap1\n      log1\n        /* \"contracts/nft-market.sol\":2135:2564  {... */\n      pop\n      pop\n      pop\n        /* \"contracts/nft-market.sol\":2071:2564  function changePrice(uint256 _tokenId, uint256 _price) external {... */\n      pop\n      pop\n      jump\t// out\n        /* \"contracts/nft-market.sol\":3939:4348  function toUint256(... */\n    tag_44:\n        /* \"contracts/nft-market.sol\":4038:4045  uint256 */\n      0x00\n        /* \"contracts/nft-market.sol\":4080:4086  _start */\n      dup2\n        /* \"contracts/nft-market.sol\":4074:4076  32 */\n      0x20\n        /* \"contracts/nft-market.sol\":4065:4071  _start */\n      dup4\n        /* \"contracts/nft-market.sol\":4065:4076  _start + 32 */\n      tag_105\n      swap2\n      swap1\n      tag_106\n      jump\t// in\n    tag_105:\n        /* \"contracts/nft-market.sol\":4065:4086  _start + 32 >= _start */\n      lt\n      iszero\n        /* \"contracts/nft-market.sol\":4057:4117  require(_start + 32 >= _start, \"Market: toUint256_overflow\") */\n      tag_107\n      jumpi\n      mload(0x40)\n      0x08c379a000000000000000000000000000000000000000000000000000000000\n      dup2\n      mstore\n      0x04\n      add\n      tag_108\n      swap1\n      tag_109\n      jump\t// in\n    tag_108:\n      mload(0x40)\n      dup1\n      swap2\n      sub\n      swap1\n      revert\n    tag_107:\n        /* \"contracts/nft-market.sol\":4161:4163  32 */\n      0x20\n        /* \"contracts/nft-market.sol\":4152:4158  _start */\n      dup3\n        /* \"contracts/nft-market.sol\":4152:4163  _start + 32 */\n      tag_110\n      swap2\n      swap1\n      tag_106\n      jump\t// in\n    tag_110:\n        /* \"contracts/nft-market.sol\":4135:4141  _bytes */\n      dup4\n        /* \"contracts/nft-market.sol\":4135:4148  _bytes.length */\n      mload\n        /* \"contracts/nft-market.sol\":4135:4163  _bytes.length >= _start + 32 */\n      lt\n      iszero\n        /* \"contracts/nft-market.sol\":4127:4197  require(_bytes.length >= _start + 32, \"Market: toUint256_outOfBounds\") */\n      tag_111\n      jumpi\n      mload(0x40)\n      0x08c379a000000000000000000000000000000000000000000000000000000000\n      dup2\n      mstore\n      0x04\n      add\n      tag_112\n      swap1\n      tag_113\n      jump\t// in\n    tag_112:\n      mload(0x40)\n      dup1\n      swap2\n      sub\n      swap1\n      revert\n    tag_111:\n        /* \"contracts/nft-market.sol\":4207:4223  uint256 tempUint */\n      0x00\n        /* \"contracts/nft-market.sol\":4298:4304  _start */\n      dup3\n        /* \"contracts/nft-market.sol\":4291:4295  0x20 */\n      0x20\n        /* \"contracts/nft-market.sol\":4283:4289  _bytes */\n      dup6\n        /* \"contracts/nft-market.sol\":4279:4296  add(_bytes, 0x20) */\n      add\n        /* \"contracts/nft-market.sol\":4275:4305  add(add(_bytes, 0x20), _start) */\n      add\n        /* \"contracts/nft-market.sol\":4269:4306  mload(add(add(_bytes, 0x20), _start)) */\n      mload\n        /* \"contracts/nft-market.sol\":4257:4306  tempUint := mload(add(add(_bytes, 0x20), _start)) */\n      swap1\n      pop\n        /* \"contracts/nft-market.sol\":4333:4341  tempUint */\n      dup1\n        /* \"contracts/nft-market.sol\":4326:4341  return tempUint */\n      swap2\n      pop\n      pop\n        /* \"contracts/nft-market.sol\":3939:4348  function toUint256(... */\n      swap3\n      swap2\n      pop\n      pop\n      jump\t// out\n        /* \"contracts/nft-market.sol\":219:240  IERC721 public erc721 */\n    tag_48:\n      0x01\n      0x00\n      swap1\n      sload\n      swap1\n      0x0100\n      exp\n      swap1\n      div\n      0xffffffffffffffffffffffffffffffffffffffff\n      and\n      dup2\n      jump\t// out\n        /* \"contracts/nft-market.sol\":1173:1725  function buy(uint256 _tokenId) external {... */\n    tag_53:\n        /* \"contracts/nft-market.sol\":1223:1237  address seller */\n      0x00\n        /* \"contracts/nft-market.sol\":1240:1249  orderOfId */\n      0x02\n        /* \"contracts/nft-market.sol\":1240:1259  orderOfId[_tokenId] */\n      0x00\n        /* \"contracts/nft-market.sol\":1250:1258  _tokenId */\n      dup4\n        /* \"contracts/nft-market.sol\":1240:1259  orderOfId[_tokenId] */\n      dup2\n      mstore\n      0x20\n      add\n      swap1\n      dup2\n      mstore\n      0x20\n      add\n      0x00\n      keccak256\n        /* \"contracts/nft-market.sol\":1240:1266  orderOfId[_tokenId].seller */\n      0x00\n      add\n      0x00\n      swap1\n      sload\n      swap1\n      0x0100\n      exp\n      swap1\n      div\n      0xffffffffffffffffffffffffffffffffffffffff\n      and\n        /* \"contracts/nft-market.sol\":1223:1266  address seller = orderOfId[_tokenId].seller */\n      swap1\n      pop\n        /* \"contracts/nft-market.sol\":1276:1289  address buyer */\n      0x00\n        /* \"contracts/nft-market.sol\":1292:1302  msg.sender */\n      caller\n        /* \"contracts/nft-market.sol\":1276:1302  address buyer = msg.sender */\n      swap1\n      pop\n        /* \"contracts/nft-market.sol\":1312:1325  uint256 price */\n      0x00\n        /* \"contracts/nft-market.sol\":1328:1337  orderOfId */\n      0x02\n        /* \"contracts/nft-market.sol\":1328:1347  orderOfId[_tokenId] */\n      0x00\n        /* \"contracts/nft-market.sol\":1338:1346  _tokenId */\n      dup6\n        /* \"contracts/nft-market.sol\":1328:1347  orderOfId[_tokenId] */\n      dup2\n      mstore\n      0x20\n      add\n      swap1\n      dup2\n      mstore\n      0x20\n      add\n      0x00\n      keccak256\n        /* \"contracts/nft-market.sol\":1328:1353  orderOfId[_tokenId].price */\n      0x02\n      add\n      sload\n        /* \"contracts/nft-market.sol\":1312:1353  uint256 price = orderOfId[_tokenId].price */\n      swap1\n      pop\n        /* \"contracts/nft-market.sol\":1382:1387  buyer */\n      dup2\n        /* \"contracts/nft-market.sol\":1372:1387  seller != buyer */\n      0xffffffffffffffffffffffffffffffffffffffff\n      and\n        /* \"contracts/nft-market.sol\":1372:1378  seller */\n      dup4\n        /* \"contracts/nft-market.sol\":1372:1387  seller != buyer */\n      0xffffffffffffffffffffffffffffffffffffffff\n      and\n      sub\n        /* \"contracts/nft-market.sol\":1364:1421  require(seller != buyer, \"seller and buyer are the same\") */\n      tag_115\n      jumpi\n      mload(0x40)\n      0x08c379a000000000000000000000000000000000000000000000000000000000\n      dup2\n      mstore\n      0x04\n      add\n      tag_116\n      swap1\n      tag_117\n      jump\t// in\n    tag_116:\n      mload(0x40)\n      dup1\n      swap2\n      sub\n      swap1\n      revert\n    tag_115:\n        /* \"contracts/nft-market.sol\":1447:1448  0 */\n      0x00\n        /* \"contracts/nft-market.sol\":1439:1444  price */\n      dup2\n        /* \"contracts/nft-market.sol\":1439:1448  price > 0 */\n      gt\n        /* \"contracts/nft-market.sol\":1431:1466  require(price > 0, \"price is zero\") */\n      tag_118\n      jumpi\n      mload(0x40)\n      0x08c379a000000000000000000000000000000000000000000000000000000000\n      dup2\n      mstore\n      0x04\n      add\n      tag_119\n      swap1\n      tag_73\n      jump\t// in\n    tag_119:\n      mload(0x40)\n      dup1\n      swap2\n      sub\n      swap1\n      revert\n    tag_118:\n        /* \"contracts/nft-market.sol\":1485:1490  erc20 */\n      0x00\n      dup1\n      sload\n      swap1\n      0x0100\n      exp\n      swap1\n      div\n      0xffffffffffffffffffffffffffffffffffffffff\n      and\n        /* \"contracts/nft-market.sol\":1485:1503  erc20.transferFrom */\n      0xffffffffffffffffffffffffffffffffffffffff\n      and\n      0x23b872dd\n        /* \"contracts/nft-market.sol\":1504:1509  buyer */\n      dup4\n        /* \"contracts/nft-market.sol\":1511:1517  seller */\n      dup6\n        /* \"contracts/nft-market.sol\":1519:1524  price */\n      dup5\n        /* \"contracts/nft-market.sol\":1485:1525  erc20.transferFrom(buyer, seller, price) */\n      mload(0x40)\n      dup5\n      0xffffffff\n      and\n      0xe0\n      shl\n      dup2\n      mstore\n      0x04\n      add\n      tag_120\n      swap4\n      swap3\n      swap2\n      swap1\n      tag_83\n      jump\t// in\n    tag_120:\n      0x20\n      mload(0x40)\n      dup1\n      dup4\n      sub\n      dup2\n      0x00\n      dup8\n      gas\n      call\n      iszero\n      dup1\n      iszero\n      tag_122\n      jumpi\n      returndatasize\n      0x00\n      dup1\n      returndatacopy\n      revert(0x00, returndatasize)\n    tag_122:\n      pop\n      pop\n      pop\n      pop\n      mload(0x40)\n      returndatasize\n      not(0x1f)\n      0x1f\n      dup3\n      add\n      and\n      dup3\n      add\n      dup1\n      0x40\n      mstore\n      pop\n      dup2\n      add\n      swap1\n      tag_123\n      swap2\n      swap1\n      tag_124\n      jump\t// in\n    tag_123:\n        /* \"contracts/nft-market.sol\":1477:1545  require(erc20.transferFrom(buyer, seller, price), \"transfer failed\") */\n      tag_125\n      jumpi\n      mload(0x40)\n      0x08c379a000000000000000000000000000000000000000000000000000000000\n      dup2\n      mstore\n      0x04\n      add\n      tag_126\n      swap1\n      tag_127\n      jump\t// in\n    tag_126:\n      mload(0x40)\n      dup1\n      swap2\n      sub\n      swap1\n      revert\n    tag_125:\n        /* \"contracts/nft-market.sol\":1555:1561  erc721 */\n      0x01\n      0x00\n      swap1\n      sload\n      swap1\n      0x0100\n      exp\n      swap1\n      div\n      0xffffffffffffffffffffffffffffffffffffffff\n      and\n        /* \"contracts/nft-market.sol\":1555:1578  erc721.safeTransferFrom */\n      0xffffffffffffffffffffffffffffffffffffffff\n      and\n      0x42842e0e\n        /* \"contracts/nft-market.sol\":1587:1591  this */\n      address\n        /* \"contracts/nft-market.sol\":1594:1599  buyer */\n      dup5\n        /* \"contracts/nft-market.sol\":1601:1609  _tokenId */\n      dup8\n        /* \"contracts/nft-market.sol\":1555:1610  erc721.safeTransferFrom(address(this), buyer, _tokenId) */\n      mload(0x40)\n      dup5\n      0xffffffff\n      and\n      0xe0\n      shl\n      dup2\n      mstore\n      0x04\n      add\n      tag_128\n      swap4\n      swap3\n      swap2\n      swap1\n      tag_83\n      jump\t// in\n    tag_128:\n      0x00\n      mload(0x40)\n      dup1\n      dup4\n      sub\n      dup2\n      0x00\n      dup8\n      dup1\n      extcodesize\n      iszero\n      dup1\n      iszero\n      tag_129\n      jumpi\n      0x00\n      dup1\n      revert\n    tag_129:\n      pop\n      gas\n      call\n      iszero\n      dup1\n      iszero\n      tag_131\n      jumpi\n      returndatasize\n      0x00\n      dup1\n      returndatacopy\n      revert(0x00, returndatasize)\n    tag_131:\n      pop\n      pop\n      pop\n      pop\n        /* \"contracts/nft-market.sol\":1646:1667  removeOrder(_tokenId) */\n      tag_132\n        /* \"contracts/nft-market.sol\":1658:1666  _tokenId */\n      dup5\n        /* \"contracts/nft-market.sol\":1646:1657  removeOrder */\n      tag_88\n        /* \"contracts/nft-market.sol\":1646:1667  removeOrder(_tokenId) */\n      jump\t// in\n    tag_132:\n        /* \"contracts/nft-market.sol\":1682:1718  Deal(seller, buyer, _tokenId, price) */\n      0x424d5e5f0192c7dacdbe646ca31b00299146d883d76a95ef5cddbac7cd342eab\n        /* \"contracts/nft-market.sol\":1687:1693  seller */\n      dup4\n        /* \"contracts/nft-market.sol\":1695:1700  buyer */\n      dup4\n        /* \"contracts/nft-market.sol\":1702:1710  _tokenId */\n      dup7\n        /* \"contracts/nft-market.sol\":1712:1717  price */\n      dup5\n        /* \"contracts/nft-market.sol\":1682:1718  Deal(seller, buyer, _tokenId, price) */\n      mload(0x40)\n      tag_133\n      swap5\n      swap4\n      swap3\n      swap2\n      swap1\n      tag_134\n      jump\t// in\n    tag_133:\n      mload(0x40)\n      dup1\n      swap2\n      sub\n      swap1\n      log1\n        /* \"contracts/nft-market.sol\":1213:1725  {... */\n      pop\n      pop\n      pop\n        /* \"contracts/nft-market.sol\":1173:1725  function buy(uint256 _tokenId) external {... */\n      pop\n      jump\t// out\n        /* \"contracts/nft-market.sol\":510:559  mapping(uint256 => uint256) public idToOrderIndex */\n    tag_56:\n      mstore(0x20, 0x04)\n      dup1\n      0x00\n      mstore\n      keccak256(0x00, 0x40)\n      0x00\n      swap2\n      pop\n      swap1\n      pop\n      sload\n      dup2\n      jump\t// out\n        /* \"contracts/nft-market.sol\":3287:3815  function removeOrder(uint256 _tokenId) internal {... */\n    tag_88:\n        /* \"contracts/nft-market.sol\":3427:3440  uint256 index */\n      0x00\n        /* \"contracts/nft-market.sol\":3443:3457  idToOrderIndex */\n      0x04\n        /* \"contracts/nft-market.sol\":3443:3467  idToOrderIndex[_tokenId] */\n      0x00\n        /* \"contracts/nft-market.sol\":3458:3466  _tokenId */\n      dup4\n        /* \"contracts/nft-market.sol\":3443:3467  idToOrderIndex[_tokenId] */\n      dup2\n      mstore\n      0x20\n      add\n      swap1\n      dup2\n      mstore\n      0x20\n      add\n      0x00\n      keccak256\n      sload\n        /* \"contracts/nft-market.sol\":3427:3467  uint256 index = idToOrderIndex[_tokenId] */\n      swap1\n      pop\n        /* \"contracts/nft-market.sol\":3477:3494  uint256 lastIndex */\n      0x00\n        /* \"contracts/nft-market.sol\":3513:3514  1 */\n      0x01\n        /* \"contracts/nft-market.sol\":3497:3503  orders */\n      0x03\n        /* \"contracts/nft-market.sol\":3497:3510  orders.length */\n      dup1\n      sload\n      swap1\n      pop\n        /* \"contracts/nft-market.sol\":3497:3514  orders.length - 1 */\n      tag_136\n      swap2\n      swap1\n      tag_76\n      jump\t// in\n    tag_136:\n        /* \"contracts/nft-market.sol\":3477:3514  uint256 lastIndex = orders.length - 1 */\n      swap1\n      pop\n        /* \"contracts/nft-market.sol\":3537:3546  lastIndex */\n      dup1\n        /* \"contracts/nft-market.sol\":3528:3533  index */\n      dup3\n        /* \"contracts/nft-market.sol\":3528:3546  index != lastIndex */\n      eq\n        /* \"contracts/nft-market.sol\":3524:3710  if (index != lastIndex) {... */\n      tag_137\n      jumpi\n        /* \"contracts/nft-market.sol\":3562:3585  Order storage lastOrder */\n      0x00\n        /* \"contracts/nft-market.sol\":3588:3594  orders */\n      0x03\n        /* \"contracts/nft-market.sol\":3595:3604  lastIndex */\n      dup3\n        /* \"contracts/nft-market.sol\":3588:3605  orders[lastIndex] */\n      dup2\n      sload\n      dup2\n      lt\n      tag_138\n      jumpi\n      tag_139\n      tag_100\n      jump\t// in\n    tag_139:\n    tag_138:\n      swap1\n      0x00\n      mstore\n      keccak256(0x00, 0x20)\n      swap1\n      0x03\n      mul\n      add\n        /* \"contracts/nft-market.sol\":3562:3605  Order storage lastOrder = orders[lastIndex] */\n      swap1\n      pop\n        /* \"contracts/nft-market.sol\":3655:3660  index */\n      dup3\n        /* \"contracts/nft-market.sol\":3619:3633  idToOrderIndex */\n      0x04\n        /* \"contracts/nft-market.sol\":3619:3652  idToOrderIndex[lastOrder.tokenId] */\n      0x00\n        /* \"contracts/nft-market.sol\":3634:3643  lastOrder */\n      dup4\n        /* \"contracts/nft-market.sol\":3634:3651  lastOrder.tokenId */\n      0x01\n      add\n      sload\n        /* \"contracts/nft-market.sol\":3619:3652  idToOrderIndex[lastOrder.tokenId] */\n      dup2\n      mstore\n      0x20\n      add\n      swap1\n      dup2\n      mstore\n      0x20\n      add\n      0x00\n      keccak256\n        /* \"contracts/nft-market.sol\":3619:3660  idToOrderIndex[lastOrder.tokenId] = index */\n      dup2\n      swap1\n      sstore\n      pop\n        /* \"contracts/nft-market.sol\":3690:3699  lastOrder */\n      dup1\n        /* \"contracts/nft-market.sol\":3674:3680  orders */\n      0x03\n        /* \"contracts/nft-market.sol\":3681:3686  index */\n      dup5\n        /* \"contracts/nft-market.sol\":3674:3687  orders[index] */\n      dup2\n      sload\n      dup2\n      lt\n      tag_141\n      jumpi\n      tag_142\n      tag_100\n      jump\t// in\n    tag_142:\n    tag_141:\n      swap1\n      0x00\n      mstore\n      keccak256(0x00, 0x20)\n      swap1\n      0x03\n      mul\n      add\n        /* \"contracts/nft-market.sol\":3674:3699  orders[index] = lastOrder */\n      0x00\n      dup3\n      add\n      0x00\n      swap1\n      sload\n      swap1\n      0x0100\n      exp\n      swap1\n      div\n      0xffffffffffffffffffffffffffffffffffffffff\n      and\n      dup2\n      0x00\n      add\n      exp(0x0100, 0x00)\n      dup2\n      sload\n      dup2\n      0xffffffffffffffffffffffffffffffffffffffff\n      mul\n      not\n      and\n      swap1\n      dup4\n      0xffffffffffffffffffffffffffffffffffffffff\n      and\n      mul\n      or\n      swap1\n      sstore\n      pop\n      0x01\n      dup3\n      add\n      sload\n      dup2\n      0x01\n      add\n      sstore\n      0x02\n      dup3\n      add\n      sload\n      dup2\n      0x02\n      add\n      sstore\n      swap1\n      pop\n      pop\n        /* \"contracts/nft-market.sol\":3548:3710  {... */\n      pop\n        /* \"contracts/nft-market.sol\":3524:3710  if (index != lastIndex) {... */\n    tag_137:\n        /* \"contracts/nft-market.sol\":3719:3725  orders */\n      0x03\n        /* \"contracts/nft-market.sol\":3719:3731  orders.pop() */\n      dup1\n      sload\n      dup1\n      tag_144\n      jumpi\n      tag_145\n      tag_146\n      jump\t// in\n    tag_145:\n    tag_144:\n      0x01\n      swap1\n      sub\n      dup2\n      dup2\n      swap1\n      0x00\n      mstore\n      keccak256(0x00, 0x20)\n      swap1\n      0x03\n      mul\n      add\n      0x00\n      dup1\n      dup3\n      add\n      exp(0x0100, 0x00)\n      dup2\n      sload\n      swap1\n      0xffffffffffffffffffffffffffffffffffffffff\n      mul\n      not\n      and\n      swap1\n      sstore\n      0x01\n      dup3\n      add\n      0x00\n      swap1\n      sstore\n      0x02\n      dup3\n      add\n      0x00\n      swap1\n      sstore\n      pop\n      pop\n      swap1\n      sstore\n        /* \"contracts/nft-market.sol\":3748:3757  orderOfId */\n      0x02\n        /* \"contracts/nft-market.sol\":3748:3767  orderOfId[_tokenId] */\n      0x00\n        /* \"contracts/nft-market.sol\":3758:3766  _tokenId */\n      dup5\n        /* \"contracts/nft-market.sol\":3748:3767  orderOfId[_tokenId] */\n      dup2\n      mstore\n      0x20\n      add\n      swap1\n      dup2\n      mstore\n      0x20\n      add\n      0x00\n      keccak256\n      0x00\n        /* \"contracts/nft-market.sol\":3741:3767  delete orderOfId[_tokenId] */\n      dup1\n      dup3\n      add\n      exp(0x0100, 0x00)\n      dup2\n      sload\n      swap1\n      0xffffffffffffffffffffffffffffffffffffffff\n      mul\n      not\n      and\n      swap1\n      sstore\n      0x01\n      dup3\n      add\n      0x00\n      swap1\n      sstore\n      0x02\n      dup3\n      add\n      0x00\n      swap1\n      sstore\n      pop\n      pop\n        /* \"contracts/nft-market.sol\":3784:3798  idToOrderIndex */\n      0x04\n        /* \"contracts/nft-market.sol\":3784:3808  idToOrderIndex[_tokenId] */\n      0x00\n        /* \"contracts/nft-market.sol\":3799:3807  _tokenId */\n      dup5\n        /* \"contracts/nft-market.sol\":3784:3808  idToOrderIndex[_tokenId] */\n      dup2\n      mstore\n      0x20\n      add\n      swap1\n      dup2\n      mstore\n      0x20\n      add\n      0x00\n      keccak256\n        /* \"contracts/nft-market.sol\":3777:3808  delete idToOrderIndex[_tokenId] */\n      0x00\n      swap1\n      sstore\n        /* \"contracts/nft-market.sol\":3335:3815  {... */\n      pop\n      pop\n        /* \"contracts/nft-market.sol\":3287:3815  function removeOrder(uint256 _tokenId) internal {... */\n      pop\n      jump\t// out\n        /* \"#utility.yul\":7:82   */\n    tag_148:\n        /* \"#utility.yul\":40:46   */\n      0x00\n        /* \"#utility.yul\":73:75   */\n      0x40\n        /* \"#utility.yul\":67:76   */\n      mload\n        /* \"#utility.yul\":57:76   */\n      swap1\n      pop\n        /* \"#utility.yul\":7:82   */\n      swap1\n      jump\t// out\n        /* \"#utility.yul\":88:205   */\n    tag_149:\n        /* \"#utility.yul\":197:198   */\n      0x00\n        /* \"#utility.yul\":194:195   */\n      dup1\n        /* \"#utility.yul\":187:199   */\n      revert\n        /* \"#utility.yul\":211:328   */\n    tag_150:\n        /* \"#utility.yul\":320:321   */\n      0x00\n        /* \"#utility.yul\":317:318   */\n      dup1\n        /* \"#utility.yul\":310:322   */\n      revert\n        /* \"#utility.yul\":334:460   */\n    tag_151:\n        /* \"#utility.yul\":371:378   */\n      0x00\n        /* \"#utility.yul\":411:453   */\n      0xffffffffffffffffffffffffffffffffffffffff\n        /* \"#utility.yul\":404:409   */\n      dup3\n        /* \"#utility.yul\":400:454   */\n      and\n        /* \"#utility.yul\":389:454   */\n      swap1\n      pop\n        /* \"#utility.yul\":334:460   */\n      swap2\n      swap1\n      pop\n      jump\t// out\n        /* \"#utility.yul\":466:562   */\n    tag_152:\n        /* \"#utility.yul\":503:510   */\n      0x00\n        /* \"#utility.yul\":532:556   */\n      tag_210\n        /* \"#utility.yul\":550:555   */\n      dup3\n        /* \"#utility.yul\":532:556   */\n      tag_151\n      jump\t// in\n    tag_210:\n        /* \"#utility.yul\":521:556   */\n      swap1\n      pop\n        /* \"#utility.yul\":466:562   */\n      swap2\n      swap1\n      pop\n      jump\t// out\n        /* \"#utility.yul\":568:690   */\n    tag_153:\n        /* \"#utility.yul\":641:665   */\n      tag_212\n        /* \"#utility.yul\":659:664   */\n      dup2\n        /* \"#utility.yul\":641:665   */\n      tag_152\n      jump\t// in\n    tag_212:\n        /* \"#utility.yul\":634:639   */\n      dup2\n        /* \"#utility.yul\":631:666   */\n      eq\n        /* \"#utility.yul\":621:684   */\n      tag_213\n      jumpi\n        /* \"#utility.yul\":680:681   */\n      0x00\n        /* \"#utility.yul\":677:678   */\n      dup1\n        /* \"#utility.yul\":670:682   */\n      revert\n        /* \"#utility.yul\":621:684   */\n    tag_213:\n        /* \"#utility.yul\":568:690   */\n      pop\n      jump\t// out\n        /* \"#utility.yul\":696:835   */\n    tag_154:\n        /* \"#utility.yul\":742:747   */\n      0x00\n        /* \"#utility.yul\":780:786   */\n      dup2\n        /* \"#utility.yul\":767:787   */\n      calldataload\n        /* \"#utility.yul\":758:787   */\n      swap1\n      pop\n        /* \"#utility.yul\":796:829   */\n      tag_215\n        /* \"#utility.yul\":823:828   */\n      dup2\n        /* \"#utility.yul\":796:829   */\n      tag_153\n      jump\t// in\n    tag_215:\n        /* \"#utility.yul\":696:835   */\n      swap3\n      swap2\n      pop\n      pop\n      jump\t// out\n        /* \"#utility.yul\":841:918   */\n    tag_155:\n        /* \"#utility.yul\":878:885   */\n      0x00\n        /* \"#utility.yul\":907:912   */\n      dup2\n        /* \"#utility.yul\":896:912   */\n      swap1\n      pop\n        /* \"#utility.yul\":841:918   */\n      swap2\n      swap1\n      pop\n      jump\t// out\n        /* \"#utility.yul\":924:1046   */\n    tag_156:\n        /* \"#utility.yul\":997:1021   */\n      tag_218\n        /* \"#utility.yul\":1015:1020   */\n      dup2\n        /* \"#utility.yul\":997:1021   */\n      tag_155\n      jump\t// in\n    tag_218:\n        /* \"#utility.yul\":990:995   */\n      dup2\n        /* \"#utility.yul\":987:1022   */\n      eq\n        /* \"#utility.yul\":977:1040   */\n      tag_219\n      jumpi\n        /* \"#utility.yul\":1036:1037   */\n      0x00\n        /* \"#utility.yul\":1033:1034   */\n      dup1\n        /* \"#utility.yul\":1026:1038   */\n      revert\n        /* \"#utility.yul\":977:1040   */\n    tag_219:\n        /* \"#utility.yul\":924:1046   */\n      pop\n      jump\t// out\n        /* \"#utility.yul\":1052:1191   */\n    tag_157:\n        /* \"#utility.yul\":1098:1103   */\n      0x00\n        /* \"#utility.yul\":1136:1142   */\n      dup2\n        /* \"#utility.yul\":1123:1143   */\n      calldataload\n        /* \"#utility.yul\":1114:1143   */\n      swap1\n      pop\n        /* \"#utility.yul\":1152:1185   */\n      tag_221\n        /* \"#utility.yul\":1179:1184   */\n      dup2\n        /* \"#utility.yul\":1152:1185   */\n      tag_156\n      jump\t// in\n    tag_221:\n        /* \"#utility.yul\":1052:1191   */\n      swap3\n      swap2\n      pop\n      pop\n      jump\t// out\n        /* \"#utility.yul\":1197:1314   */\n    tag_158:\n        /* \"#utility.yul\":1306:1307   */\n      0x00\n        /* \"#utility.yul\":1303:1304   */\n      dup1\n        /* \"#utility.yul\":1296:1308   */\n      revert\n        /* \"#utility.yul\":1320:1437   */\n    tag_159:\n        /* \"#utility.yul\":1429:1430   */\n      0x00\n        /* \"#utility.yul\":1426:1427   */\n      dup1\n        /* \"#utility.yul\":1419:1431   */\n      revert\n        /* \"#utility.yul\":1443:1560   */\n    tag_160:\n        /* \"#utility.yul\":1552:1553   */\n      0x00\n        /* \"#utility.yul\":1549:1550   */\n      dup1\n        /* \"#utility.yul\":1542:1554   */\n      revert\n        /* \"#utility.yul\":1579:2131   */\n    tag_161:\n        /* \"#utility.yul\":1636:1644   */\n      0x00\n        /* \"#utility.yul\":1646:1652   */\n      dup1\n        /* \"#utility.yul\":1696:1699   */\n      dup4\n        /* \"#utility.yul\":1689:1693   */\n      0x1f\n        /* \"#utility.yul\":1681:1687   */\n      dup5\n        /* \"#utility.yul\":1677:1694   */\n      add\n        /* \"#utility.yul\":1673:1700   */\n      slt\n        /* \"#utility.yul\":1663:1785   */\n      tag_226\n      jumpi\n        /* \"#utility.yul\":1704:1783   */\n      tag_227\n      tag_158\n      jump\t// in\n    tag_227:\n        /* \"#utility.yul\":1663:1785   */\n    tag_226:\n        /* \"#utility.yul\":1817:1823   */\n      dup3\n        /* \"#utility.yul\":1804:1824   */\n      calldataload\n        /* \"#utility.yul\":1794:1824   */\n      swap1\n      pop\n        /* \"#utility.yul\":1847:1865   */\n      0xffffffffffffffff\n        /* \"#utility.yul\":1839:1845   */\n      dup2\n        /* \"#utility.yul\":1836:1866   */\n      gt\n        /* \"#utility.yul\":1833:1950   */\n      iszero\n      tag_228\n      jumpi\n        /* \"#utility.yul\":1869:1948   */\n      tag_229\n      tag_159\n      jump\t// in\n    tag_229:\n        /* \"#utility.yul\":1833:1950   */\n    tag_228:\n        /* \"#utility.yul\":1983:1987   */\n      0x20\n        /* \"#utility.yul\":1975:1981   */\n      dup4\n        /* \"#utility.yul\":1971:1988   */\n      add\n        /* \"#utility.yul\":1959:1988   */\n      swap2\n      pop\n        /* \"#utility.yul\":2037:2040   */\n      dup4\n        /* \"#utility.yul\":2029:2033   */\n      0x01\n        /* \"#utility.yul\":2021:2027   */\n      dup3\n        /* \"#utility.yul\":2017:2034   */\n      mul\n        /* \"#utility.yul\":2007:2015   */\n      dup4\n        /* \"#utility.yul\":2003:2035   */\n      add\n        /* \"#utility.yul\":2000:2041   */\n      gt\n        /* \"#utility.yul\":1997:2125   */\n      iszero\n      tag_230\n      jumpi\n        /* \"#utility.yul\":2044:2123   */\n      tag_231\n      tag_160\n      jump\t// in\n    tag_231:\n        /* \"#utility.yul\":1997:2125   */\n    tag_230:\n        /* \"#utility.yul\":1579:2131   */\n      swap3\n      pop\n      swap3\n      swap1\n      pop\n      jump\t// out\n        /* \"#utility.yul\":2137:3100   */\n    tag_16:\n        /* \"#utility.yul\":2234:2240   */\n      0x00\n        /* \"#utility.yul\":2242:2248   */\n      dup1\n        /* \"#utility.yul\":2250:2256   */\n      0x00\n        /* \"#utility.yul\":2258:2264   */\n      dup1\n        /* \"#utility.yul\":2266:2272   */\n      0x00\n        /* \"#utility.yul\":2315:2318   */\n      0x80\n        /* \"#utility.yul\":2303:2312   */\n      dup7\n        /* \"#utility.yul\":2294:2301   */\n      dup9\n        /* \"#utility.yul\":2290:2313   */\n      sub\n        /* \"#utility.yul\":2286:2319   */\n      slt\n        /* \"#utility.yul\":2283:2403   */\n      iszero\n      tag_233\n      jumpi\n        /* \"#utility.yul\":2322:2401   */\n      tag_234\n      tag_149\n      jump\t// in\n    tag_234:\n        /* \"#utility.yul\":2283:2403   */\n    tag_233:\n        /* \"#utility.yul\":2442:2443   */\n      0x00\n        /* \"#utility.yul\":2467:2520   */\n      tag_235\n        /* \"#utility.yul\":2512:2519   */\n      dup9\n        /* \"#utility.yul\":2503:2509   */\n      dup3\n        /* \"#utility.yul\":2492:2501   */\n      dup10\n        /* \"#utility.yul\":2488:2510   */\n      add\n        /* \"#utility.yul\":2467:2520   */\n      tag_154\n      jump\t// in\n    tag_235:\n        /* \"#utility.yul\":2457:2520   */\n      swap6\n      pop\n        /* \"#utility.yul\":2413:2530   */\n      pop\n        /* \"#utility.yul\":2569:2571   */\n      0x20\n        /* \"#utility.yul\":2595:2648   */\n      tag_236\n        /* \"#utility.yul\":2640:2647   */\n      dup9\n        /* \"#utility.yul\":2631:2637   */\n      dup3\n        /* \"#utility.yul\":2620:2629   */\n      dup10\n        /* \"#utility.yul\":2616:2638   */\n      add\n        /* \"#utility.yul\":2595:2648   */\n      tag_154\n      jump\t// in\n    tag_236:\n        /* \"#utility.yul\":2585:2648   */\n      swap5\n      pop\n        /* \"#utility.yul\":2540:2658   */\n      pop\n        /* \"#utility.yul\":2697:2699   */\n      0x40\n        /* \"#utility.yul\":2723:2776   */\n      tag_237\n        /* \"#utility.yul\":2768:2775   */\n      dup9\n        /* \"#utility.yul\":2759:2765   */\n      dup3\n        /* \"#utility.yul\":2748:2757   */\n      dup10\n        /* \"#utility.yul\":2744:2766   */\n      add\n        /* \"#utility.yul\":2723:2776   */\n      tag_157\n      jump\t// in\n    tag_237:\n        /* \"#utility.yul\":2713:2776   */\n      swap4\n      pop\n        /* \"#utility.yul\":2668:2786   */\n      pop\n        /* \"#utility.yul\":2853:2855   */\n      0x60\n        /* \"#utility.yul\":2842:2851   */\n      dup7\n        /* \"#utility.yul\":2838:2856   */\n      add\n        /* \"#utility.yul\":2825:2857   */\n      calldataload\n        /* \"#utility.yul\":2884:2902   */\n      0xffffffffffffffff\n        /* \"#utility.yul\":2876:2882   */\n      dup2\n        /* \"#utility.yul\":2873:2903   */\n      gt\n        /* \"#utility.yul\":2870:2987   */\n      iszero\n      tag_238\n      jumpi\n        /* \"#utility.yul\":2906:2985   */\n      tag_239\n      tag_150\n      jump\t// in\n    tag_239:\n        /* \"#utility.yul\":2870:2987   */\n    tag_238:\n        /* \"#utility.yul\":3019:3083   */\n      tag_240\n        /* \"#utility.yul\":3075:3082   */\n      dup9\n        /* \"#utility.yul\":3066:3072   */\n      dup3\n        /* \"#utility.yul\":3055:3064   */\n      dup10\n        /* \"#utility.yul\":3051:3073   */\n      add\n        /* \"#utility.yul\":3019:3083   */\n      tag_161\n      jump\t// in\n    tag_240:\n        /* \"#utility.yul\":3001:3083   */\n      swap3\n      pop\n      swap3\n      pop\n        /* \"#utility.yul\":2796:3093   */\n      pop\n        /* \"#utility.yul\":2137:3100   */\n      swap3\n      swap6\n      pop\n      swap3\n      swap6\n      swap1\n      swap4\n      pop\n      jump\t// out\n        /* \"#utility.yul\":3106:3255   */\n    tag_162:\n        /* \"#utility.yul\":3142:3149   */\n      0x00\n        /* \"#utility.yul\":3182:3248   */\n      0xffffffff00000000000000000000000000000000000000000000000000000000\n        /* \"#utility.yul\":3175:3180   */\n      dup3\n        /* \"#utility.yul\":3171:3249   */\n      and\n        /* \"#utility.yul\":3160:3249   */\n      swap1\n      pop\n        /* \"#utility.yul\":3106:3255   */\n      swap2\n      swap1\n      pop\n      jump\t// out\n        /* \"#utility.yul\":3261:3376   */\n    tag_163:\n        /* \"#utility.yul\":3346:3369   */\n      tag_243\n        /* \"#utility.yul\":3363:3368   */\n      dup2\n        /* \"#utility.yul\":3346:3369   */\n      tag_162\n      jump\t// in\n    tag_243:\n        /* \"#utility.yul\":3341:3344   */\n      dup3\n        /* \"#utility.yul\":3334:3370   */\n      mstore\n        /* \"#utility.yul\":3261:3376   */\n      pop\n      pop\n      jump\t// out\n        /* \"#utility.yul\":3382:3600   */\n    tag_19:\n        /* \"#utility.yul\":3473:3477   */\n      0x00\n        /* \"#utility.yul\":3511:3513   */\n      0x20\n        /* \"#utility.yul\":3500:3509   */\n      dup3\n        /* \"#utility.yul\":3496:3514   */\n      add\n        /* \"#utility.yul\":3488:3514   */\n      swap1\n      pop\n        /* \"#utility.yul\":3524:3593   */\n      tag_245\n        /* \"#utility.yul\":3590:3591   */\n      0x00\n        /* \"#utility.yul\":3579:3588   */\n      dup4\n        /* \"#utility.yul\":3575:3592   */\n      add\n        /* \"#utility.yul\":3566:3572   */\n      dup5\n        /* \"#utility.yul\":3524:3593   */\n      tag_163\n      jump\t// in\n    tag_245:\n        /* \"#utility.yul\":3382:3600   */\n      swap3\n      swap2\n      pop\n      pop\n      jump\t// out\n        /* \"#utility.yul\":3606:3935   */\n    tag_22:\n        /* \"#utility.yul\":3665:3671   */\n      0x00\n        /* \"#utility.yul\":3714:3716   */\n      0x20\n        /* \"#utility.yul\":3702:3711   */\n      dup3\n        /* \"#utility.yul\":3693:3700   */\n      dup5\n        /* \"#utility.yul\":3689:3712   */\n      sub\n        /* \"#utility.yul\":3685:3717   */\n      slt\n        /* \"#utility.yul\":3682:3801   */\n      iszero\n      tag_247\n      jumpi\n        /* \"#utility.yul\":3720:3799   */\n      tag_248\n      tag_149\n      jump\t// in\n    tag_248:\n        /* \"#utility.yul\":3682:3801   */\n    tag_247:\n        /* \"#utility.yul\":3840:3841   */\n      0x00\n        /* \"#utility.yul\":3865:3918   */\n      tag_249\n        /* \"#utility.yul\":3910:3917   */\n      dup5\n        /* \"#utility.yul\":3901:3907   */\n      dup3\n        /* \"#utility.yul\":3890:3899   */\n      dup6\n        /* \"#utility.yul\":3886:3908   */\n      add\n        /* \"#utility.yul\":3865:3918   */\n      tag_157\n      jump\t// in\n    tag_249:\n        /* \"#utility.yul\":3855:3918   */\n      swap2\n      pop\n        /* \"#utility.yul\":3811:3928   */\n      pop\n        /* \"#utility.yul\":3606:3935   */\n      swap3\n      swap2\n      pop\n      pop\n      jump\t// out\n        /* \"#utility.yul\":3941:4059   */\n    tag_164:\n        /* \"#utility.yul\":4028:4052   */\n      tag_251\n        /* \"#utility.yul\":4046:4051   */\n      dup2\n        /* \"#utility.yul\":4028:4052   */\n      tag_152\n      jump\t// in\n    tag_251:\n        /* \"#utility.yul\":4023:4026   */\n      dup3\n        /* \"#utility.yul\":4016:4053   */\n      mstore\n        /* \"#utility.yul\":3941:4059   */\n      pop\n      pop\n      jump\t// out\n        /* \"#utility.yul\":4065:4183   */\n    tag_165:\n        /* \"#utility.yul\":4152:4176   */\n      tag_253\n        /* \"#utility.yul\":4170:4175   */\n      dup2\n        /* \"#utility.yul\":4152:4176   */\n      tag_155\n      jump\t// in\n    tag_253:\n        /* \"#utility.yul\":4147:4150   */\n      dup3\n        /* \"#utility.yul\":4140:4177   */\n      mstore\n        /* \"#utility.yul\":4065:4183   */\n      pop\n      pop\n      jump\t// out\n        /* \"#utility.yul\":4189:4631   */\n    tag_25:\n        /* \"#utility.yul\":4338:4342   */\n      0x00\n        /* \"#utility.yul\":4376:4378   */\n      0x60\n        /* \"#utility.yul\":4365:4374   */\n      dup3\n        /* \"#utility.yul\":4361:4379   */\n      add\n        /* \"#utility.yul\":4353:4379   */\n      swap1\n      pop\n        /* \"#utility.yul\":4389:4460   */\n      tag_255\n        /* \"#utility.yul\":4457:4458   */\n      0x00\n        /* \"#utility.yul\":4446:4455   */\n      dup4\n        /* \"#utility.yul\":4442:4459   */\n      add\n        /* \"#utility.yul\":4433:4439   */\n      dup7\n        /* \"#utility.yul\":4389:4460   */\n      tag_164\n      jump\t// in\n    tag_255:\n        /* \"#utility.yul\":4470:4542   */\n      tag_256\n        /* \"#utility.yul\":4538:4540   */\n      0x20\n        /* \"#utility.yul\":4527:4536   */\n      dup4\n        /* \"#utility.yul\":4523:4541   */\n      add\n        /* \"#utility.yul\":4514:4520   */\n      dup6\n        /* \"#utility.yul\":4470:4542   */\n      tag_165\n      jump\t// in\n    tag_256:\n        /* \"#utility.yul\":4552:4624   */\n      tag_257\n        /* \"#utility.yul\":4620:4622   */\n      0x40\n        /* \"#utility.yul\":4609:4618   */\n      dup4\n        /* \"#utility.yul\":4605:4623   */\n      add\n        /* \"#utility.yul\":4596:4602   */\n      dup5\n        /* \"#utility.yul\":4552:4624   */\n      tag_165\n      jump\t// in\n    tag_257:\n        /* \"#utility.yul\":4189:4631   */\n      swap5\n      swap4\n      pop\n      pop\n      pop\n      pop\n      jump\t// out\n        /* \"#utility.yul\":4637:4697   */\n    tag_166:\n        /* \"#utility.yul\":4665:4668   */\n      0x00\n        /* \"#utility.yul\":4686:4691   */\n      dup2\n        /* \"#utility.yul\":4679:4691   */\n      swap1\n      pop\n        /* \"#utility.yul\":4637:4697   */\n      swap2\n      swap1\n      pop\n      jump\t// out\n        /* \"#utility.yul\":4703:4845   */\n    tag_167:\n        /* \"#utility.yul\":4753:4762   */\n      0x00\n        /* \"#utility.yul\":4786:4839   */\n      tag_260\n        /* \"#utility.yul\":4804:4838   */\n      tag_261\n        /* \"#utility.yul\":4813:4837   */\n      tag_262\n        /* \"#utility.yul\":4831:4836   */\n      dup5\n        /* \"#utility.yul\":4813:4837   */\n      tag_151\n      jump\t// in\n    tag_262:\n        /* \"#utility.yul\":4804:4838   */\n      tag_166\n      jump\t// in\n    tag_261:\n        /* \"#utility.yul\":4786:4839   */\n      tag_151\n      jump\t// in\n    tag_260:\n        /* \"#utility.yul\":4773:4839   */\n      swap1\n      pop\n        /* \"#utility.yul\":4703:4845   */\n      swap2\n      swap1\n      pop\n      jump\t// out\n        /* \"#utility.yul\":4851:4977   */\n    tag_168:\n        /* \"#utility.yul\":4901:4910   */\n      0x00\n        /* \"#utility.yul\":4934:4971   */\n      tag_264\n        /* \"#utility.yul\":4965:4970   */\n      dup3\n        /* \"#utility.yul\":4934:4971   */\n      tag_167\n      jump\t// in\n    tag_264:\n        /* \"#utility.yul\":4921:4971   */\n      swap1\n      pop\n        /* \"#utility.yul\":4851:4977   */\n      swap2\n      swap1\n      pop\n      jump\t// out\n        /* \"#utility.yul\":4983:5122   */\n    tag_169:\n        /* \"#utility.yul\":5046:5055   */\n      0x00\n        /* \"#utility.yul\":5079:5116   */\n      tag_266\n        /* \"#utility.yul\":5110:5115   */\n      dup3\n        /* \"#utility.yul\":5079:5116   */\n      tag_168\n      jump\t// in\n    tag_266:\n        /* \"#utility.yul\":5066:5116   */\n      swap1\n      pop\n        /* \"#utility.yul\":4983:5122   */\n      swap2\n      swap1\n      pop\n      jump\t// out\n        /* \"#utility.yul\":5128:5285   */\n    tag_170:\n        /* \"#utility.yul\":5228:5278   */\n      tag_268\n        /* \"#utility.yul\":5272:5277   */\n      dup2\n        /* \"#utility.yul\":5228:5278   */\n      tag_169\n      jump\t// in\n    tag_268:\n        /* \"#utility.yul\":5223:5226   */\n      dup3\n        /* \"#utility.yul\":5216:5279   */\n      mstore\n        /* \"#utility.yul\":5128:5285   */\n      pop\n      pop\n      jump\t// out\n        /* \"#utility.yul\":5291:5539   */\n    tag_32:\n        /* \"#utility.yul\":5397:5401   */\n      0x00\n        /* \"#utility.yul\":5435:5437   */\n      0x20\n        /* \"#utility.yul\":5424:5433   */\n      dup3\n        /* \"#utility.yul\":5420:5438   */\n      add\n        /* \"#utility.yul\":5412:5438   */\n      swap1\n      pop\n        /* \"#utility.yul\":5448:5532   */\n      tag_270\n        /* \"#utility.yul\":5529:5530   */\n      0x00\n        /* \"#utility.yul\":5518:5527   */\n      dup4\n        /* \"#utility.yul\":5514:5531   */\n      add\n        /* \"#utility.yul\":5505:5511   */\n      dup5\n        /* \"#utility.yul\":5448:5532   */\n      tag_170\n      jump\t// in\n    tag_270:\n        /* \"#utility.yul\":5291:5539   */\n      swap3\n      swap2\n      pop\n      pop\n      jump\t// out\n        /* \"#utility.yul\":5545:6019   */\n    tag_39:\n        /* \"#utility.yul\":5613:5619   */\n      0x00\n        /* \"#utility.yul\":5621:5627   */\n      dup1\n        /* \"#utility.yul\":5670:5672   */\n      0x40\n        /* \"#utility.yul\":5658:5667   */\n      dup4\n        /* \"#utility.yul\":5649:5656   */\n      dup6\n        /* \"#utility.yul\":5645:5668   */\n      sub\n        /* \"#utility.yul\":5641:5673   */\n      slt\n        /* \"#utility.yul\":5638:5757   */\n      iszero\n      tag_272\n      jumpi\n        /* \"#utility.yul\":5676:5755   */\n      tag_273\n      tag_149\n      jump\t// in\n    tag_273:\n        /* \"#utility.yul\":5638:5757   */\n    tag_272:\n        /* \"#utility.yul\":5796:5797   */\n      0x00\n        /* \"#utility.yul\":5821:5874   */\n      tag_274\n        /* \"#utility.yul\":5866:5873   */\n      dup6\n        /* \"#utility.yul\":5857:5863   */\n      dup3\n        /* \"#utility.yul\":5846:5855   */\n      dup7\n        /* \"#utility.yul\":5842:5864   */\n      add\n        /* \"#utility.yul\":5821:5874   */\n      tag_157\n      jump\t// in\n    tag_274:\n        /* \"#utility.yul\":5811:5874   */\n      swap3\n      pop\n        /* \"#utility.yul\":5767:5884   */\n      pop\n        /* \"#utility.yul\":5923:5925   */\n      0x20\n        /* \"#utility.yul\":5949:6002   */\n      tag_275\n        /* \"#utility.yul\":5994:6001   */\n      dup6\n        /* \"#utility.yul\":5985:5991   */\n      dup3\n        /* \"#utility.yul\":5974:5983   */\n      dup7\n        /* \"#utility.yul\":5970:5992   */\n      add\n        /* \"#utility.yul\":5949:6002   */\n      tag_157\n      jump\t// in\n    tag_275:\n        /* \"#utility.yul\":5939:6002   */\n      swap2\n      pop\n        /* \"#utility.yul\":5894:6012   */\n      pop\n        /* \"#utility.yul\":5545:6019   */\n      swap3\n      pop\n      swap3\n      swap1\n      pop\n      jump\t// out\n        /* \"#utility.yul\":6025:6142   */\n    tag_171:\n        /* \"#utility.yul\":6134:6135   */\n      0x00\n        /* \"#utility.yul\":6131:6132   */\n      dup1\n        /* \"#utility.yul\":6124:6136   */\n      revert\n        /* \"#utility.yul\":6148:6250   */\n    tag_172:\n        /* \"#utility.yul\":6189:6195   */\n      0x00\n        /* \"#utility.yul\":6240:6242   */\n      0x1f\n        /* \"#utility.yul\":6236:6243   */\n      not\n        /* \"#utility.yul\":6231:6233   */\n      0x1f\n        /* \"#utility.yul\":6224:6229   */\n      dup4\n        /* \"#utility.yul\":6220:6234   */\n      add\n        /* \"#utility.yul\":6216:6244   */\n      and\n        /* \"#utility.yul\":6206:6244   */\n      swap1\n      pop\n        /* \"#utility.yul\":6148:6250   */\n      swap2\n      swap1\n      pop\n      jump\t// out\n        /* \"#utility.yul\":6256:6436   */\n    tag_173:\n        /* \"#utility.yul\":6304:6381   */\n      0x4e487b7100000000000000000000000000000000000000000000000000000000\n        /* \"#utility.yul\":6301:6302   */\n      0x00\n        /* \"#utility.yul\":6294:6382   */\n      mstore\n        /* \"#utility.yul\":6401:6405   */\n      0x41\n        /* \"#utility.yul\":6398:6399   */\n      0x04\n        /* \"#utility.yul\":6391:6406   */\n      mstore\n        /* \"#utility.yul\":6425:6429   */\n      0x24\n        /* \"#utility.yul\":6422:6423   */\n      0x00\n        /* \"#utility.yul\":6415:6430   */\n      revert\n        /* \"#utility.yul\":6442:6723   */\n    tag_174:\n        /* \"#utility.yul\":6525:6552   */\n      tag_280\n        /* \"#utility.yul\":6547:6551   */\n      dup3\n        /* \"#utility.yul\":6525:6552   */\n      tag_172\n      jump\t// in\n    tag_280:\n        /* \"#utility.yul\":6517:6523   */\n      dup2\n        /* \"#utility.yul\":6513:6553   */\n      add\n        /* \"#utility.yul\":6655:6661   */\n      dup2\n        /* \"#utility.yul\":6643:6653   */\n      dup2\n        /* \"#utility.yul\":6640:6662   */\n      lt\n        /* \"#utility.yul\":6619:6637   */\n      0xffffffffffffffff\n        /* \"#utility.yul\":6607:6617   */\n      dup3\n        /* \"#utility.yul\":6604:6638   */\n      gt\n        /* \"#utility.yul\":6601:6663   */\n      or\n        /* \"#utility.yul\":6598:6686   */\n      iszero\n      tag_281\n      jumpi\n        /* \"#utility.yul\":6666:6684   */\n      tag_282\n      tag_173\n      jump\t// in\n    tag_282:\n        /* \"#utility.yul\":6598:6686   */\n    tag_281:\n        /* \"#utility.yul\":6706:6716   */\n      dup1\n        /* \"#utility.yul\":6702:6704   */\n      0x40\n        /* \"#utility.yul\":6695:6717   */\n      mstore\n        /* \"#utility.yul\":6485:6723   */\n      pop\n        /* \"#utility.yul\":6442:6723   */\n      pop\n      pop\n      jump\t// out\n        /* \"#utility.yul\":6729:6858   */\n    tag_175:\n        /* \"#utility.yul\":6763:6769   */\n      0x00\n        /* \"#utility.yul\":6790:6810   */\n      tag_284\n      tag_148\n      jump\t// in\n    tag_284:\n        /* \"#utility.yul\":6780:6810   */\n      swap1\n      pop\n        /* \"#utility.yul\":6819:6852   */\n      tag_285\n        /* \"#utility.yul\":6847:6851   */\n      dup3\n        /* \"#utility.yul\":6839:6845   */\n      dup3\n        /* \"#utility.yul\":6819:6852   */\n      tag_174\n      jump\t// in\n    tag_285:\n        /* \"#utility.yul\":6729:6858   */\n      swap2\n      swap1\n      pop\n      jump\t// out\n        /* \"#utility.yul\":6864:7171   */\n    tag_176:\n        /* \"#utility.yul\":6925:6929   */\n      0x00\n        /* \"#utility.yul\":7015:7033   */\n      0xffffffffffffffff\n        /* \"#utility.yul\":7007:7013   */\n      dup3\n        /* \"#utility.yul\":7004:7034   */\n      gt\n        /* \"#utility.yul\":7001:7057   */\n      iszero\n      tag_287\n      jumpi\n        /* \"#utility.yul\":7037:7055   */\n      tag_288\n      tag_173\n      jump\t// in\n    tag_288:\n        /* \"#utility.yul\":7001:7057   */\n    tag_287:\n        /* \"#utility.yul\":7075:7104   */\n      tag_289\n        /* \"#utility.yul\":7097:7103   */\n      dup3\n        /* \"#utility.yul\":7075:7104   */\n      tag_172\n      jump\t// in\n    tag_289:\n        /* \"#utility.yul\":7067:7104   */\n      swap1\n      pop\n        /* \"#utility.yul\":7159:7163   */\n      0x20\n        /* \"#utility.yul\":7153:7157   */\n      dup2\n        /* \"#utility.yul\":7149:7164   */\n      add\n        /* \"#utility.yul\":7141:7164   */\n      swap1\n      pop\n        /* \"#utility.yul\":6864:7171   */\n      swap2\n      swap1\n      pop\n      jump\t// out\n        /* \"#utility.yul\":7177:7323   */\n    tag_177:\n        /* \"#utility.yul\":7274:7280   */\n      dup3\n        /* \"#utility.yul\":7269:7272   */\n      dup2\n        /* \"#utility.yul\":7264:7267   */\n      dup4\n        /* \"#utility.yul\":7251:7281   */\n      calldatacopy\n        /* \"#utility.yul\":7315:7316   */\n      0x00\n        /* \"#utility.yul\":7306:7312   */\n      dup4\n        /* \"#utility.yul\":7301:7304   */\n      dup4\n        /* \"#utility.yul\":7297:7313   */\n      add\n        /* \"#utility.yul\":7290:7317   */\n      mstore\n        /* \"#utility.yul\":7177:7323   */\n      pop\n      pop\n      pop\n      jump\t// out\n        /* \"#utility.yul\":7329:7752   */\n    tag_178:\n        /* \"#utility.yul\":7406:7411   */\n      0x00\n        /* \"#utility.yul\":7431:7496   */\n      tag_292\n        /* \"#utility.yul\":7447:7495   */\n      tag_293\n        /* \"#utility.yul\":7488:7494   */\n      dup5\n        /* \"#utility.yul\":7447:7495   */\n      tag_176\n      jump\t// in\n    tag_293:\n        /* \"#utility.yul\":7431:7496   */\n      tag_175\n      jump\t// in\n    tag_292:\n        /* \"#utility.yul\":7422:7496   */\n      swap1\n      pop\n        /* \"#utility.yul\":7519:7525   */\n      dup3\n        /* \"#utility.yul\":7512:7517   */\n      dup2\n        /* \"#utility.yul\":7505:7526   */\n      mstore\n        /* \"#utility.yul\":7557:7561   */\n      0x20\n        /* \"#utility.yul\":7550:7555   */\n      dup2\n        /* \"#utility.yul\":7546:7562   */\n      add\n        /* \"#utility.yul\":7595:7598   */\n      dup5\n        /* \"#utility.yul\":7586:7592   */\n      dup5\n        /* \"#utility.yul\":7581:7584   */\n      dup5\n        /* \"#utility.yul\":7577:7593   */\n      add\n        /* \"#utility.yul\":7574:7599   */\n      gt\n        /* \"#utility.yul\":7571:7683   */\n      iszero\n      tag_294\n      jumpi\n        /* \"#utility.yul\":7602:7681   */\n      tag_295\n      tag_171\n      jump\t// in\n    tag_295:\n        /* \"#utility.yul\":7571:7683   */\n    tag_294:\n        /* \"#utility.yul\":7692:7746   */\n      tag_296\n        /* \"#utility.yul\":7739:7745   */\n      dup5\n        /* \"#utility.yul\":7734:7737   */\n      dup3\n        /* \"#utility.yul\":7729:7732   */\n      dup6\n        /* \"#utility.yul\":7692:7746   */\n      tag_177\n      jump\t// in\n    tag_296:\n        /* \"#utility.yul\":7412:7752   */\n      pop\n        /* \"#utility.yul\":7329:7752   */\n      swap4\n      swap3\n      pop\n      pop\n      pop\n      jump\t// out\n        /* \"#utility.yul\":7771:8109   */\n    tag_179:\n        /* \"#utility.yul\":7826:7831   */\n      0x00\n        /* \"#utility.yul\":7875:7878   */\n      dup3\n        /* \"#utility.yul\":7868:7872   */\n      0x1f\n        /* \"#utility.yul\":7860:7866   */\n      dup4\n        /* \"#utility.yul\":7856:7873   */\n      add\n        /* \"#utility.yul\":7852:7879   */\n      slt\n        /* \"#utility.yul\":7842:7964   */\n      tag_298\n      jumpi\n        /* \"#utility.yul\":7883:7962   */\n      tag_299\n      tag_158\n      jump\t// in\n    tag_299:\n        /* \"#utility.yul\":7842:7964   */\n    tag_298:\n        /* \"#utility.yul\":8000:8006   */\n      dup2\n        /* \"#utility.yul\":7987:8007   */\n      calldataload\n        /* \"#utility.yul\":8025:8103   */\n      tag_300\n        /* \"#utility.yul\":8099:8102   */\n      dup5\n        /* \"#utility.yul\":8091:8097   */\n      dup3\n        /* \"#utility.yul\":8084:8088   */\n      0x20\n        /* \"#utility.yul\":8076:8082   */\n      dup7\n        /* \"#utility.yul\":8072:8089   */\n      add\n        /* \"#utility.yul\":8025:8103   */\n      tag_178\n      jump\t// in\n    tag_300:\n        /* \"#utility.yul\":8016:8103   */\n      swap2\n      pop\n        /* \"#utility.yul\":7832:8109   */\n      pop\n        /* \"#utility.yul\":7771:8109   */\n      swap3\n      swap2\n      pop\n      pop\n      jump\t// out\n        /* \"#utility.yul\":8115:8767   */\n    tag_43:\n        /* \"#utility.yul\":8192:8198   */\n      0x00\n        /* \"#utility.yul\":8200:8206   */\n      dup1\n        /* \"#utility.yul\":8249:8251   */\n      0x40\n        /* \"#utility.yul\":8237:8246   */\n      dup4\n        /* \"#utility.yul\":8228:8235   */\n      dup6\n        /* \"#utility.yul\":8224:8247   */\n      sub\n        /* \"#utility.yul\":8220:8252   */\n      slt\n        /* \"#utility.yul\":8217:8336   */\n      iszero\n      tag_302\n      jumpi\n        /* \"#utility.yul\":8255:8334   */\n      tag_303\n      tag_149\n      jump\t// in\n    tag_303:\n        /* \"#utility.yul\":8217:8336   */\n    tag_302:\n        /* \"#utility.yul\":8403:8404   */\n      0x00\n        /* \"#utility.yul\":8392:8401   */\n      dup4\n        /* \"#utility.yul\":8388:8405   */\n      add\n        /* \"#utility.yul\":8375:8406   */\n      calldataload\n        /* \"#utility.yul\":8433:8451   */\n      0xffffffffffffffff\n        /* \"#utility.yul\":8425:8431   */\n      dup2\n        /* \"#utility.yul\":8422:8452   */\n      gt\n        /* \"#utility.yul\":8419:8536   */\n      iszero\n      tag_304\n      jumpi\n        /* \"#utility.yul\":8455:8534   */\n      tag_305\n      tag_150\n      jump\t// in\n    tag_305:\n        /* \"#utility.yul\":8419:8536   */\n    tag_304:\n        /* \"#utility.yul\":8560:8622   */\n      tag_306\n        /* \"#utility.yul\":8614:8621   */\n      dup6\n        /* \"#utility.yul\":8605:8611   */\n      dup3\n        /* \"#utility.yul\":8594:8603   */\n      dup7\n        /* \"#utility.yul\":8590:8612   */\n      add\n        /* \"#utility.yul\":8560:8622   */\n      tag_179\n      jump\t// in\n    tag_306:\n        /* \"#utility.yul\":8550:8622   */\n      swap3\n      pop\n        /* \"#utility.yul\":8346:8632   */\n      pop\n        /* \"#utility.yul\":8671:8673   */\n      0x20\n        /* \"#utility.yul\":8697:8750   */\n      tag_307\n        /* \"#utility.yul\":8742:8749   */\n      dup6\n        /* \"#utility.yul\":8733:8739   */\n      dup3\n        /* \"#utility.yul\":8722:8731   */\n      dup7\n        /* \"#utility.yul\":8718:8740   */\n      add\n        /* \"#utility.yul\":8697:8750   */\n      tag_157\n      jump\t// in\n    tag_307:\n        /* \"#utility.yul\":8687:8750   */\n      swap2\n      pop\n        /* \"#utility.yul\":8642:8760   */\n      pop\n        /* \"#utility.yul\":8115:8767   */\n      swap3\n      pop\n      swap3\n      swap1\n      pop\n      jump\t// out\n        /* \"#utility.yul\":8773:8995   */\n    tag_46:\n        /* \"#utility.yul\":8866:8870   */\n      0x00\n        /* \"#utility.yul\":8904:8906   */\n      0x20\n        /* \"#utility.yul\":8893:8902   */\n      dup3\n        /* \"#utility.yul\":8889:8907   */\n      add\n        /* \"#utility.yul\":8881:8907   */\n      swap1\n      pop\n        /* \"#utility.yul\":8917:8988   */\n      tag_309\n        /* \"#utility.yul\":8985:8986   */\n      0x00\n        /* \"#utility.yul\":8974:8983   */\n      dup4\n        /* \"#utility.yul\":8970:8987   */\n      add\n        /* \"#utility.yul\":8961:8967   */\n      dup5\n        /* \"#utility.yul\":8917:8988   */\n      tag_165\n      jump\t// in\n    tag_309:\n        /* \"#utility.yul\":8773:8995   */\n      swap3\n      swap2\n      pop\n      pop\n      jump\t// out\n        /* \"#utility.yul\":9001:9142   */\n    tag_180:\n        /* \"#utility.yul\":9066:9075   */\n      0x00\n        /* \"#utility.yul\":9099:9136   */\n      tag_311\n        /* \"#utility.yul\":9130:9135   */\n      dup3\n        /* \"#utility.yul\":9099:9136   */\n      tag_168\n      jump\t// in\n    tag_311:\n        /* \"#utility.yul\":9086:9136   */\n      swap1\n      pop\n        /* \"#utility.yul\":9001:9142   */\n      swap2\n      swap1\n      pop\n      jump\t// out\n        /* \"#utility.yul\":9148:9309   */\n    tag_181:\n        /* \"#utility.yul\":9250:9302   */\n      tag_313\n        /* \"#utility.yul\":9296:9301   */\n      dup2\n        /* \"#utility.yul\":9250:9302   */\n      tag_180\n      jump\t// in\n    tag_313:\n        /* \"#utility.yul\":9245:9248   */\n      dup3\n        /* \"#utility.yul\":9238:9303   */\n      mstore\n        /* \"#utility.yul\":9148:9309   */\n      pop\n      pop\n      jump\t// out\n        /* \"#utility.yul\":9315:9567   */\n    tag_50:\n        /* \"#utility.yul\":9423:9427   */\n      0x00\n        /* \"#utility.yul\":9461:9463   */\n      0x20\n        /* \"#utility.yul\":9450:9459   */\n      dup3\n        /* \"#utility.yul\":9446:9464   */\n      add\n        /* \"#utility.yul\":9438:9464   */\n      swap1\n      pop\n        /* \"#utility.yul\":9474:9560   */\n      tag_315\n        /* \"#utility.yul\":9557:9558   */\n      0x00\n        /* \"#utility.yul\":9546:9555   */\n      dup4\n        /* \"#utility.yul\":9542:9559   */\n      add\n        /* \"#utility.yul\":9533:9539   */\n      dup5\n        /* \"#utility.yul\":9474:9560   */\n      tag_181\n      jump\t// in\n    tag_315:\n        /* \"#utility.yul\":9315:9567   */\n      swap3\n      swap2\n      pop\n      pop\n      jump\t// out\n        /* \"#utility.yul\":9573:9742   */\n    tag_182:\n        /* \"#utility.yul\":9657:9668   */\n      0x00\n        /* \"#utility.yul\":9691:9697   */\n      dup3\n        /* \"#utility.yul\":9686:9689   */\n      dup3\n        /* \"#utility.yul\":9679:9698   */\n      mstore\n        /* \"#utility.yul\":9731:9735   */\n      0x20\n        /* \"#utility.yul\":9726:9729   */\n      dup3\n        /* \"#utility.yul\":9722:9736   */\n      add\n        /* \"#utility.yul\":9707:9736   */\n      swap1\n      pop\n        /* \"#utility.yul\":9573:9742   */\n      swap3\n      swap2\n      pop\n      pop\n      jump\t// out\n        /* \"#utility.yul\":9748:9912   */\n    tag_183:\n        /* \"#utility.yul\":9888:9904   */\n      0x696e76616c69642073656e646572000000000000000000000000000000000000\n        /* \"#utility.yul\":9884:9885   */\n      0x00\n        /* \"#utility.yul\":9876:9882   */\n      dup3\n        /* \"#utility.yul\":9872:9886   */\n      add\n        /* \"#utility.yul\":9865:9905   */\n      mstore\n        /* \"#utility.yul\":9748:9912   */\n      pop\n      jump\t// out\n        /* \"#utility.yul\":9918:10284   */\n    tag_184:\n        /* \"#utility.yul\":10060:10063   */\n      0x00\n        /* \"#utility.yul\":10081:10148   */\n      tag_319\n        /* \"#utility.yul\":10145:10147   */\n      0x0e\n        /* \"#utility.yul\":10140:10143   */\n      dup4\n        /* \"#utility.yul\":10081:10148   */\n      tag_182\n      jump\t// in\n    tag_319:\n        /* \"#utility.yul\":10074:10148   */\n      swap2\n      pop\n        /* \"#utility.yul\":10157:10250   */\n      tag_320\n        /* \"#utility.yul\":10246:10249   */\n      dup3\n        /* \"#utility.yul\":10157:10250   */\n      tag_183\n      jump\t// in\n    tag_320:\n        /* \"#utility.yul\":10275:10277   */\n      0x20\n        /* \"#utility.yul\":10270:10273   */\n      dup3\n        /* \"#utility.yul\":10266:10278   */\n      add\n        /* \"#utility.yul\":10259:10278   */\n      swap1\n      pop\n        /* \"#utility.yul\":9918:10284   */\n      swap2\n      swap1\n      pop\n      jump\t// out\n        /* \"#utility.yul\":10290:10709   */\n    tag_61:\n        /* \"#utility.yul\":10456:10460   */\n      0x00\n        /* \"#utility.yul\":10494:10496   */\n      0x20\n        /* \"#utility.yul\":10483:10492   */\n      dup3\n        /* \"#utility.yul\":10479:10497   */\n      add\n        /* \"#utility.yul\":10471:10497   */\n      swap1\n      pop\n        /* \"#utility.yul\":10543:10552   */\n      dup2\n        /* \"#utility.yul\":10537:10541   */\n      dup2\n        /* \"#utility.yul\":10533:10553   */\n      sub\n        /* \"#utility.yul\":10529:10530   */\n      0x00\n        /* \"#utility.yul\":10518:10527   */\n      dup4\n        /* \"#utility.yul\":10514:10531   */\n      add\n        /* \"#utility.yul\":10507:10554   */\n      mstore\n        /* \"#utility.yul\":10571:10702   */\n      tag_322\n        /* \"#utility.yul\":10697:10701   */\n      dup2\n        /* \"#utility.yul\":10571:10702   */\n      tag_184\n      jump\t// in\n    tag_322:\n        /* \"#utility.yul\":10563:10702   */\n      swap1\n      pop\n        /* \"#utility.yul\":10290:10709   */\n      swap2\n      swap1\n      pop\n      jump\t// out\n        /* \"#utility.yul\":10715:10858   */\n    tag_185:\n        /* \"#utility.yul\":10772:10777   */\n      0x00\n        /* \"#utility.yul\":10803:10809   */\n      dup2\n        /* \"#utility.yul\":10797:10810   */\n      mload\n        /* \"#utility.yul\":10788:10810   */\n      swap1\n      pop\n        /* \"#utility.yul\":10819:10852   */\n      tag_324\n        /* \"#utility.yul\":10846:10851   */\n      dup2\n        /* \"#utility.yul\":10819:10852   */\n      tag_153\n      jump\t// in\n    tag_324:\n        /* \"#utility.yul\":10715:10858   */\n      swap3\n      swap2\n      pop\n      pop\n      jump\t// out\n        /* \"#utility.yul\":10864:11215   */\n    tag_66:\n        /* \"#utility.yul\":10934:10940   */\n      0x00\n        /* \"#utility.yul\":10983:10985   */\n      0x20\n        /* \"#utility.yul\":10971:10980   */\n      dup3\n        /* \"#utility.yul\":10962:10969   */\n      dup5\n        /* \"#utility.yul\":10958:10981   */\n      sub\n        /* \"#utility.yul\":10954:10986   */\n      slt\n        /* \"#utility.yul\":10951:11070   */\n      iszero\n      tag_326\n      jumpi\n        /* \"#utility.yul\":10989:11068   */\n      tag_327\n      tag_149\n      jump\t// in\n    tag_327:\n        /* \"#utility.yul\":10951:11070   */\n    tag_326:\n        /* \"#utility.yul\":11109:11110   */\n      0x00\n        /* \"#utility.yul\":11134:11198   */\n      tag_328\n        /* \"#utility.yul\":11190:11197   */\n      dup5\n        /* \"#utility.yul\":11181:11187   */\n      dup3\n        /* \"#utility.yul\":11170:11179   */\n      dup6\n        /* \"#utility.yul\":11166:11188   */\n      add\n        /* \"#utility.yul\":11134:11198   */\n      tag_185\n      jump\t// in\n    tag_328:\n        /* \"#utility.yul\":11124:11198   */\n      swap2\n      pop\n        /* \"#utility.yul\":11080:11208   */\n      pop\n        /* \"#utility.yul\":10864:11215   */\n      swap3\n      swap2\n      pop\n      pop\n      jump\t// out\n        /* \"#utility.yul\":11221:11397   */\n    tag_186:\n        /* \"#utility.yul\":11361:11389   */\n      0x6e6f74206f776e6564206279207468697320636f6e7472616374000000000000\n        /* \"#utility.yul\":11357:11358   */\n      0x00\n        /* \"#utility.yul\":11349:11355   */\n      dup3\n        /* \"#utility.yul\":11345:11359   */\n      add\n        /* \"#utility.yul\":11338:11390   */\n      mstore\n        /* \"#utility.yul\":11221:11397   */\n      pop\n      jump\t// out\n        /* \"#utility.yul\":11403:11769   */\n    tag_187:\n        /* \"#utility.yul\":11545:11548   */\n      0x00\n        /* \"#utility.yul\":11566:11633   */\n      tag_331\n        /* \"#utility.yul\":11630:11632   */\n      0x1a\n        /* \"#utility.yul\":11625:11628   */\n      dup4\n        /* \"#utility.yul\":11566:11633   */\n      tag_182\n      jump\t// in\n    tag_331:\n        /* \"#utility.yul\":11559:11633   */\n      swap2\n      pop\n        /* \"#utility.yul\":11642:11735   */\n      tag_332\n        /* \"#utility.yul\":11731:11734   */\n      dup3\n        /* \"#utility.yul\":11642:11735   */\n      tag_186\n      jump\t// in\n    tag_332:\n        /* \"#utility.yul\":11760:11762   */\n      0x20\n        /* \"#utility.yul\":11755:11758   */\n      dup3\n        /* \"#utility.yul\":11751:11763   */\n      add\n        /* \"#utility.yul\":11744:11763   */\n      swap1\n      pop\n        /* \"#utility.yul\":11403:11769   */\n      swap2\n      swap1\n      pop\n      jump\t// out\n        /* \"#utility.yul\":11775:12194   */\n    tag_69:\n        /* \"#utility.yul\":11941:11945   */\n      0x00\n        /* \"#utility.yul\":11979:11981   */\n      0x20\n        /* \"#utility.yul\":11968:11977   */\n      dup3\n        /* \"#utility.yul\":11964:11982   */\n      add\n        /* \"#utility.yul\":11956:11982   */\n      swap1\n      pop\n        /* \"#utility.yul\":12028:12037   */\n      dup2\n        /* \"#utility.yul\":12022:12026   */\n      dup2\n        /* \"#utility.yul\":12018:12038   */\n      sub\n        /* \"#utility.yul\":12014:12015   */\n      0x00\n        /* \"#utility.yul\":12003:12012   */\n      dup4\n        /* \"#utility.yul\":11999:12016   */\n      add\n        /* \"#utility.yul\":11992:12039   */\n      mstore\n        /* \"#utility.yul\":12056:12187   */\n      tag_334\n        /* \"#utility.yul\":12182:12186   */\n      dup2\n        /* \"#utility.yul\":12056:12187   */\n      tag_187\n      jump\t// in\n    tag_334:\n        /* \"#utility.yul\":12048:12187   */\n      swap1\n      pop\n        /* \"#utility.yul\":11775:12194   */\n      swap2\n      swap1\n      pop\n      jump\t// out\n        /* \"#utility.yul\":12200:12363   */\n    tag_188:\n        /* \"#utility.yul\":12340:12355   */\n      0x7072696365206973207a65726f00000000000000000000000000000000000000\n        /* \"#utility.yul\":12336:12337   */\n      0x00\n        /* \"#utility.yul\":12328:12334   */\n      dup3\n        /* \"#utility.yul\":12324:12338   */\n      add\n        /* \"#utility.yul\":12317:12356   */\n      mstore\n        /* \"#utility.yul\":12200:12363   */\n      pop\n      jump\t// out\n        /* \"#utility.yul\":12369:12735   */\n    tag_189:\n        /* \"#utility.yul\":12511:12514   */\n      0x00\n        /* \"#utility.yul\":12532:12599   */\n      tag_337\n        /* \"#utility.yul\":12596:12598   */\n      0x0d\n        /* \"#utility.yul\":12591:12594   */\n      dup4\n        /* \"#utility.yul\":12532:12599   */\n      tag_182\n      jump\t// in\n    tag_337:\n        /* \"#utility.yul\":12525:12599   */\n      swap2\n      pop\n        /* \"#utility.yul\":12608:12701   */\n      tag_338\n        /* \"#utility.yul\":12697:12700   */\n      dup3\n        /* \"#utility.yul\":12608:12701   */\n      tag_188\n      jump\t// in\n    tag_338:\n        /* \"#utility.yul\":12726:12728   */\n      0x20\n        /* \"#utility.yul\":12721:12724   */\n      dup3\n        /* \"#utility.yul\":12717:12729   */\n      add\n        /* \"#utility.yul\":12710:12729   */\n      swap1\n      pop\n        /* \"#utility.yul\":12369:12735   */\n      swap2\n      swap1\n      pop\n      jump\t// out\n        /* \"#utility.yul\":12741:13160   */\n    tag_73:\n        /* \"#utility.yul\":12907:12911   */\n      0x00\n        /* \"#utility.yul\":12945:12947   */\n      0x20\n        /* \"#utility.yul\":12934:12943   */\n      dup3\n        /* \"#utility.yul\":12930:12948   */\n      add\n        /* \"#utility.yul\":12922:12948   */\n      swap1\n      pop\n        /* \"#utility.yul\":12994:13003   */\n      dup2\n        /* \"#utility.yul\":12988:12992   */\n      dup2\n        /* \"#utility.yul\":12984:13004   */\n      sub\n        /* \"#utility.yul\":12980:12981   */\n      0x00\n        /* \"#utility.yul\":12969:12978   */\n      dup4\n        /* \"#utility.yul\":12965:12982   */\n      add\n        /* \"#utility.yul\":12958:13005   */\n      mstore\n        /* \"#utility.yul\":13022:13153   */\n      tag_340\n        /* \"#utility.yul\":13148:13152   */\n      dup2\n        /* \"#utility.yul\":13022:13153   */\n      tag_189\n      jump\t// in\n    tag_340:\n        /* \"#utility.yul\":13014:13153   */\n      swap1\n      pop\n        /* \"#utility.yul\":12741:13160   */\n      swap2\n      swap1\n      pop\n      jump\t// out\n        /* \"#utility.yul\":13166:13346   */\n    tag_190:\n        /* \"#utility.yul\":13214:13291   */\n      0x4e487b7100000000000000000000000000000000000000000000000000000000\n        /* \"#utility.yul\":13211:13212   */\n      0x00\n        /* \"#utility.yul\":13204:13292   */\n      mstore\n        /* \"#utility.yul\":13311:13315   */\n      0x11\n        /* \"#utility.yul\":13308:13309   */\n      0x04\n        /* \"#utility.yul\":13301:13316   */\n      mstore\n        /* \"#utility.yul\":13335:13339   */\n      0x24\n        /* \"#utility.yul\":13332:13333   */\n      0x00\n        /* \"#utility.yul\":13325:13340   */\n      revert\n        /* \"#utility.yul\":13352:13546   */\n    tag_76:\n        /* \"#utility.yul\":13392:13396   */\n      0x00\n        /* \"#utility.yul\":13412:13432   */\n      tag_343\n        /* \"#utility.yul\":13430:13431   */\n      dup3\n        /* \"#utility.yul\":13412:13432   */\n      tag_155\n      jump\t// in\n    tag_343:\n        /* \"#utility.yul\":13407:13432   */\n      swap2\n      pop\n        /* \"#utility.yul\":13446:13466   */\n      tag_344\n        /* \"#utility.yul\":13464:13465   */\n      dup4\n        /* \"#utility.yul\":13446:13466   */\n      tag_155\n      jump\t// in\n    tag_344:\n        /* \"#utility.yul\":13441:13466   */\n      swap3\n      pop\n        /* \"#utility.yul\":13490:13491   */\n      dup3\n        /* \"#utility.yul\":13487:13488   */\n      dup3\n        /* \"#utility.yul\":13483:13492   */\n      sub\n        /* \"#utility.yul\":13475:13492   */\n      swap1\n      pop\n        /* \"#utility.yul\":13514:13515   */\n      dup2\n        /* \"#utility.yul\":13508:13512   */\n      dup2\n        /* \"#utility.yul\":13505:13516   */\n      gt\n        /* \"#utility.yul\":13502:13539   */\n      iszero\n      tag_345\n      jumpi\n        /* \"#utility.yul\":13519:13537   */\n      tag_346\n      tag_190\n      jump\t// in\n    tag_346:\n        /* \"#utility.yul\":13502:13539   */\n    tag_345:\n        /* \"#utility.yul\":13352:13546   */\n      swap3\n      swap2\n      pop\n      pop\n      jump\t// out\n        /* \"#utility.yul\":13552:13716   */\n    tag_191:\n        /* \"#utility.yul\":13692:13708   */\n      0x6e6f74207468652073656c6c6572000000000000000000000000000000000000\n        /* \"#utility.yul\":13688:13689   */\n      0x00\n        /* \"#utility.yul\":13680:13686   */\n      dup3\n        /* \"#utility.yul\":13676:13690   */\n      add\n        /* \"#utility.yul\":13669:13709   */\n      mstore\n        /* \"#utility.yul\":13552:13716   */\n      pop\n      jump\t// out\n        /* \"#utility.yul\":13722:14088   */\n    tag_192:\n        /* \"#utility.yul\":13864:13867   */\n      0x00\n        /* \"#utility.yul\":13885:13952   */\n      tag_349\n        /* \"#utility.yul\":13949:13951   */\n      0x0e\n        /* \"#utility.yul\":13944:13947   */\n      dup4\n        /* \"#utility.yul\":13885:13952   */\n      tag_182\n      jump\t// in\n    tag_349:\n        /* \"#utility.yul\":13878:13952   */\n      swap2\n      pop\n        /* \"#utility.yul\":13961:14054   */\n      tag_350\n        /* \"#utility.yul\":14050:14053   */\n      dup3\n        /* \"#utility.yul\":13961:14054   */\n      tag_191\n      jump\t// in\n    tag_350:\n        /* \"#utility.yul\":14079:14081   */\n      0x20\n        /* \"#utility.yul\":14074:14077   */\n      dup3\n        /* \"#utility.yul\":14070:14082   */\n      add\n        /* \"#utility.yul\":14063:14082   */\n      swap1\n      pop\n        /* \"#utility.yul\":13722:14088   */\n      swap2\n      swap1\n      pop\n      jump\t// out\n        /* \"#utility.yul\":14094:14513   */\n    tag_81:\n        /* \"#utility.yul\":14260:14264   */\n      0x00\n        /* \"#utility.yul\":14298:14300   */\n      0x20\n        /* \"#utility.yul\":14287:14296   */\n      dup3\n        /* \"#utility.yul\":14283:14301   */\n      add\n        /* \"#utility.yul\":14275:14301   */\n      swap1\n      pop\n        /* \"#utility.yul\":14347:14356   */\n      dup2\n        /* \"#utility.yul\":14341:14345   */\n      dup2\n        /* \"#utility.yul\":14337:14357   */\n      sub\n        /* \"#utility.yul\":14333:14334   */\n      0x00\n        /* \"#utility.yul\":14322:14331   */\n      dup4\n        /* \"#utility.yul\":14318:14335   */\n      add\n        /* \"#utility.yul\":14311:14358   */\n      mstore\n        /* \"#utility.yul\":14375:14506   */\n      tag_352\n        /* \"#utility.yul\":14501:14505   */\n      dup2\n        /* \"#utility.yul\":14375:14506   */\n      tag_192\n      jump\t// in\n    tag_352:\n        /* \"#utility.yul\":14367:14506   */\n      swap1\n      pop\n        /* \"#utility.yul\":14094:14513   */\n      swap2\n      swap1\n      pop\n      jump\t// out\n        /* \"#utility.yul\":14519:14961   */\n    tag_83:\n        /* \"#utility.yul\":14668:14672   */\n      0x00\n        /* \"#utility.yul\":14706:14708   */\n      0x60\n        /* \"#utility.yul\":14695:14704   */\n      dup3\n        /* \"#utility.yul\":14691:14709   */\n      add\n        /* \"#utility.yul\":14683:14709   */\n      swap1\n      pop\n        /* \"#utility.yul\":14719:14790   */\n      tag_354\n        /* \"#utility.yul\":14787:14788   */\n      0x00\n        /* \"#utility.yul\":14776:14785   */\n      dup4\n        /* \"#utility.yul\":14772:14789   */\n      add\n        /* \"#utility.yul\":14763:14769   */\n      dup7\n        /* \"#utility.yul\":14719:14790   */\n      tag_164\n      jump\t// in\n    tag_354:\n        /* \"#utility.yul\":14800:14872   */\n      tag_355\n        /* \"#utility.yul\":14868:14870   */\n      0x20\n        /* \"#utility.yul\":14857:14866   */\n      dup4\n        /* \"#utility.yul\":14853:14871   */\n      add\n        /* \"#utility.yul\":14844:14850   */\n      dup6\n        /* \"#utility.yul\":14800:14872   */\n      tag_164\n      jump\t// in\n    tag_355:\n        /* \"#utility.yul\":14882:14954   */\n      tag_356\n        /* \"#utility.yul\":14950:14952   */\n      0x40\n        /* \"#utility.yul\":14939:14948   */\n      dup4\n        /* \"#utility.yul\":14935:14953   */\n      add\n        /* \"#utility.yul\":14926:14932   */\n      dup5\n        /* \"#utility.yul\":14882:14954   */\n      tag_165\n      jump\t// in\n    tag_356:\n        /* \"#utility.yul\":14519:14961   */\n      swap5\n      swap4\n      pop\n      pop\n      pop\n      pop\n      jump\t// out\n        /* \"#utility.yul\":14967:15299   */\n    tag_90:\n        /* \"#utility.yul\":15088:15092   */\n      0x00\n        /* \"#utility.yul\":15126:15128   */\n      0x40\n        /* \"#utility.yul\":15115:15124   */\n      dup3\n        /* \"#utility.yul\":15111:15129   */\n      add\n        /* \"#utility.yul\":15103:15129   */\n      swap1\n      pop\n        /* \"#utility.yul\":15139:15210   */\n      tag_358\n        /* \"#utility.yul\":15207:15208   */\n      0x00\n        /* \"#utility.yul\":15196:15205   */\n      dup4\n        /* \"#utility.yul\":15192:15209   */\n      add\n        /* \"#utility.yul\":15183:15189   */\n      dup6\n        /* \"#utility.yul\":15139:15210   */\n      tag_164\n      jump\t// in\n    tag_358:\n        /* \"#utility.yul\":15220:15292   */\n      tag_359\n        /* \"#utility.yul\":15288:15290   */\n      0x20\n        /* \"#utility.yul\":15277:15286   */\n      dup4\n        /* \"#utility.yul\":15273:15291   */\n      add\n        /* \"#utility.yul\":15264:15270   */\n      dup5\n        /* \"#utility.yul\":15220:15292   */\n      tag_165\n      jump\t// in\n    tag_359:\n        /* \"#utility.yul\":14967:15299   */\n      swap4\n      swap3\n      pop\n      pop\n      pop\n      jump\t// out\n        /* \"#utility.yul\":15305:15485   */\n    tag_100:\n        /* \"#utility.yul\":15353:15430   */\n      0x4e487b7100000000000000000000000000000000000000000000000000000000\n        /* \"#utility.yul\":15350:15351   */\n      0x00\n        /* \"#utility.yul\":15343:15431   */\n      mstore\n        /* \"#utility.yul\":15450:15454   */\n      0x32\n        /* \"#utility.yul\":15447:15448   */\n      0x04\n        /* \"#utility.yul\":15440:15455   */\n      mstore\n        /* \"#utility.yul\":15474:15478   */\n      0x24\n        /* \"#utility.yul\":15471:15472   */\n      0x00\n        /* \"#utility.yul\":15464:15479   */\n      revert\n        /* \"#utility.yul\":15491:16044   */\n    tag_103:\n        /* \"#utility.yul\":15668:15672   */\n      0x00\n        /* \"#utility.yul\":15706:15709   */\n      0x80\n        /* \"#utility.yul\":15695:15704   */\n      dup3\n        /* \"#utility.yul\":15691:15710   */\n      add\n        /* \"#utility.yul\":15683:15710   */\n      swap1\n      pop\n        /* \"#utility.yul\":15720:15791   */\n      tag_362\n        /* \"#utility.yul\":15788:15789   */\n      0x00\n        /* \"#utility.yul\":15777:15786   */\n      dup4\n        /* \"#utility.yul\":15773:15790   */\n      add\n        /* \"#utility.yul\":15764:15770   */\n      dup8\n        /* \"#utility.yul\":15720:15791   */\n      tag_164\n      jump\t// in\n    tag_362:\n        /* \"#utility.yul\":15801:15873   */\n      tag_363\n        /* \"#utility.yul\":15869:15871   */\n      0x20\n        /* \"#utility.yul\":15858:15867   */\n      dup4\n        /* \"#utility.yul\":15854:15872   */\n      add\n        /* \"#utility.yul\":15845:15851   */\n      dup7\n        /* \"#utility.yul\":15801:15873   */\n      tag_165\n      jump\t// in\n    tag_363:\n        /* \"#utility.yul\":15883:15955   */\n      tag_364\n        /* \"#utility.yul\":15951:15953   */\n      0x40\n        /* \"#utility.yul\":15940:15949   */\n      dup4\n        /* \"#utility.yul\":15936:15954   */\n      add\n        /* \"#utility.yul\":15927:15933   */\n      dup6\n        /* \"#utility.yul\":15883:15955   */\n      tag_165\n      jump\t// in\n    tag_364:\n        /* \"#utility.yul\":15965:16037   */\n      tag_365\n        /* \"#utility.yul\":16033:16035   */\n      0x60\n        /* \"#utility.yul\":16022:16031   */\n      dup4\n        /* \"#utility.yul\":16018:16036   */\n      add\n        /* \"#utility.yul\":16009:16015   */\n      dup5\n        /* \"#utility.yul\":15965:16037   */\n      tag_165\n      jump\t// in\n    tag_365:\n        /* \"#utility.yul\":15491:16044   */\n      swap6\n      swap5\n      pop\n      pop\n      pop\n      pop\n      pop\n      jump\t// out\n        /* \"#utility.yul\":16050:16241   */\n    tag_106:\n        /* \"#utility.yul\":16090:16093   */\n      0x00\n        /* \"#utility.yul\":16109:16129   */\n      tag_367\n        /* \"#utility.yul\":16127:16128   */\n      dup3\n        /* \"#utility.yul\":16109:16129   */\n      tag_155\n      jump\t// in\n    tag_367:\n        /* \"#utility.yul\":16104:16129   */\n      swap2\n      pop\n        /* \"#utility.yul\":16143:16163   */\n      tag_368\n        /* \"#utility.yul\":16161:16162   */\n      dup4\n        /* \"#utility.yul\":16143:16163   */\n      tag_155\n      jump\t// in\n    tag_368:\n        /* \"#utility.yul\":16138:16163   */\n      swap3\n      pop\n        /* \"#utility.yul\":16186:16187   */\n      dup3\n        /* \"#utility.yul\":16183:16184   */\n      dup3\n        /* \"#utility.yul\":16179:16188   */\n      add\n        /* \"#utility.yul\":16172:16188   */\n      swap1\n      pop\n        /* \"#utility.yul\":16207:16210   */\n      dup1\n        /* \"#utility.yul\":16204:16205   */\n      dup3\n        /* \"#utility.yul\":16201:16211   */\n      gt\n        /* \"#utility.yul\":16198:16234   */\n      iszero\n      tag_369\n      jumpi\n        /* \"#utility.yul\":16214:16232   */\n      tag_370\n      tag_190\n      jump\t// in\n    tag_370:\n        /* \"#utility.yul\":16198:16234   */\n    tag_369:\n        /* \"#utility.yul\":16050:16241   */\n      swap3\n      swap2\n      pop\n      pop\n      jump\t// out\n        /* \"#utility.yul\":16247:16423   */\n    tag_193:\n        /* \"#utility.yul\":16387:16415   */\n      0x4d61726b65743a20746f55696e743235365f6f766572666c6f77000000000000\n        /* \"#utility.yul\":16383:16384   */\n      0x00\n        /* \"#utility.yul\":16375:16381   */\n      dup3\n        /* \"#utility.yul\":16371:16385   */\n      add\n        /* \"#utility.yul\":16364:16416   */\n      mstore\n        /* \"#utility.yul\":16247:16423   */\n      pop\n      jump\t// out\n        /* \"#utility.yul\":16429:16795   */\n    tag_194:\n        /* \"#utility.yul\":16571:16574   */\n      0x00\n        /* \"#utility.yul\":16592:16659   */\n      tag_373\n        /* \"#utility.yul\":16656:16658   */\n      0x1a\n        /* \"#utility.yul\":16651:16654   */\n      dup4\n        /* \"#utility.yul\":16592:16659   */\n      tag_182\n      jump\t// in\n    tag_373:\n        /* \"#utility.yul\":16585:16659   */\n      swap2\n      pop\n        /* \"#utility.yul\":16668:16761   */\n      tag_374\n        /* \"#utility.yul\":16757:16760   */\n      dup3\n        /* \"#utility.yul\":16668:16761   */\n      tag_193\n      jump\t// in\n    tag_374:\n        /* \"#utility.yul\":16786:16788   */\n      0x20\n        /* \"#utility.yul\":16781:16784   */\n      dup3\n        /* \"#utility.yul\":16777:16789   */\n      add\n        /* \"#utility.yul\":16770:16789   */\n      swap1\n      pop\n        /* \"#utility.yul\":16429:16795   */\n      swap2\n      swap1\n      pop\n      jump\t// out\n        /* \"#utility.yul\":16801:17220   */\n    tag_109:\n        /* \"#utility.yul\":16967:16971   */\n      0x00\n        /* \"#utility.yul\":17005:17007   */\n      0x20\n        /* \"#utility.yul\":16994:17003   */\n      dup3\n        /* \"#utility.yul\":16990:17008   */\n      add\n        /* \"#utility.yul\":16982:17008   */\n      swap1\n      pop\n        /* \"#utility.yul\":17054:17063   */\n      dup2\n        /* \"#utility.yul\":17048:17052   */\n      dup2\n        /* \"#utility.yul\":17044:17064   */\n      sub\n        /* \"#utility.yul\":17040:17041   */\n      0x00\n        /* \"#utility.yul\":17029:17038   */\n      dup4\n        /* \"#utility.yul\":17025:17042   */\n      add\n        /* \"#utility.yul\":17018:17065   */\n      mstore\n        /* \"#utility.yul\":17082:17213   */\n      tag_376\n        /* \"#utility.yul\":17208:17212   */\n      dup2\n        /* \"#utility.yul\":17082:17213   */\n      tag_194\n      jump\t// in\n    tag_376:\n        /* \"#utility.yul\":17074:17213   */\n      swap1\n      pop\n        /* \"#utility.yul\":16801:17220   */\n      swap2\n      swap1\n      pop\n      jump\t// out\n        /* \"#utility.yul\":17226:17405   */\n    tag_195:\n        /* \"#utility.yul\":17366:17397   */\n      0x4d61726b65743a20746f55696e743235365f6f75744f66426f756e6473000000\n        /* \"#utility.yul\":17362:17363   */\n      0x00\n        /* \"#utility.yul\":17354:17360   */\n      dup3\n        /* \"#utility.yul\":17350:17364   */\n      add\n        /* \"#utility.yul\":17343:17398   */\n      mstore\n        /* \"#utility.yul\":17226:17405   */\n      pop\n      jump\t// out\n        /* \"#utility.yul\":17411:17777   */\n    tag_196:\n        /* \"#utility.yul\":17553:17556   */\n      0x00\n        /* \"#utility.yul\":17574:17641   */\n      tag_379\n        /* \"#utility.yul\":17638:17640   */\n      0x1d\n        /* \"#utility.yul\":17633:17636   */\n      dup4\n        /* \"#utility.yul\":17574:17641   */\n      tag_182\n      jump\t// in\n    tag_379:\n        /* \"#utility.yul\":17567:17641   */\n      swap2\n      pop\n        /* \"#utility.yul\":17650:17743   */\n      tag_380\n        /* \"#utility.yul\":17739:17742   */\n      dup3\n        /* \"#utility.yul\":17650:17743   */\n      tag_195\n      jump\t// in\n    tag_380:\n        /* \"#utility.yul\":17768:17770   */\n      0x20\n        /* \"#utility.yul\":17763:17766   */\n      dup3\n        /* \"#utility.yul\":17759:17771   */\n      add\n        /* \"#utility.yul\":17752:17771   */\n      swap1\n      pop\n        /* \"#utility.yul\":17411:17777   */\n      swap2\n      swap1\n      pop\n      jump\t// out\n        /* \"#utility.yul\":17783:18202   */\n    tag_113:\n        /* \"#utility.yul\":17949:17953   */\n      0x00\n        /* \"#utility.yul\":17987:17989   */\n      0x20\n        /* \"#utility.yul\":17976:17985   */\n      dup3\n        /* \"#utility.yul\":17972:17990   */\n      add\n        /* \"#utility.yul\":17964:17990   */\n      swap1\n      pop\n        /* \"#utility.yul\":18036:18045   */\n      dup2\n        /* \"#utility.yul\":18030:18034   */\n      dup2\n        /* \"#utility.yul\":18026:18046   */\n      sub\n        /* \"#utility.yul\":18022:18023   */\n      0x00\n        /* \"#utility.yul\":18011:18020   */\n      dup4\n        /* \"#utility.yul\":18007:18024   */\n      add\n        /* \"#utility.yul\":18000:18047   */\n      mstore\n        /* \"#utility.yul\":18064:18195   */\n      tag_382\n        /* \"#utility.yul\":18190:18194   */\n      dup2\n        /* \"#utility.yul\":18064:18195   */\n      tag_196\n      jump\t// in\n    tag_382:\n        /* \"#utility.yul\":18056:18195   */\n      swap1\n      pop\n        /* \"#utility.yul\":17783:18202   */\n      swap2\n      swap1\n      pop\n      jump\t// out\n        /* \"#utility.yul\":18208:18387   */\n    tag_197:\n        /* \"#utility.yul\":18348:18379   */\n      0x73656c6c657220616e6420627579657220617265207468652073616d65000000\n        /* \"#utility.yul\":18344:18345   */\n      0x00\n        /* \"#utility.yul\":18336:18342   */\n      dup3\n        /* \"#utility.yul\":18332:18346   */\n      add\n        /* \"#utility.yul\":18325:18380   */\n      mstore\n        /* \"#utility.yul\":18208:18387   */\n      pop\n      jump\t// out\n        /* \"#utility.yul\":18393:18759   */\n    tag_198:\n        /* \"#utility.yul\":18535:18538   */\n      0x00\n        /* \"#utility.yul\":18556:18623   */\n      tag_385\n        /* \"#utility.yul\":18620:18622   */\n      0x1d\n        /* \"#utility.yul\":18615:18618   */\n      dup4\n        /* \"#utility.yul\":18556:18623   */\n      tag_182\n      jump\t// in\n    tag_385:\n        /* \"#utility.yul\":18549:18623   */\n      swap2\n      pop\n        /* \"#utility.yul\":18632:18725   */\n      tag_386\n        /* \"#utility.yul\":18721:18724   */\n      dup3\n        /* \"#utility.yul\":18632:18725   */\n      tag_197\n      jump\t// in\n    tag_386:\n        /* \"#utility.yul\":18750:18752   */\n      0x20\n        /* \"#utility.yul\":18745:18748   */\n      dup3\n        /* \"#utility.yul\":18741:18753   */\n      add\n        /* \"#utility.yul\":18734:18753   */\n      swap1\n      pop\n        /* \"#utility.yul\":18393:18759   */\n      swap2\n      swap1\n      pop\n      jump\t// out\n        /* \"#utility.yul\":18765:19184   */\n    tag_117:\n        /* \"#utility.yul\":18931:18935   */\n      0x00\n        /* \"#utility.yul\":18969:18971   */\n      0x20\n        /* \"#utility.yul\":18958:18967   */\n      dup3\n        /* \"#utility.yul\":18954:18972   */\n      add\n        /* \"#utility.yul\":18946:18972   */\n      swap1\n      pop\n        /* \"#utility.yul\":19018:19027   */\n      dup2\n        /* \"#utility.yul\":19012:19016   */\n      dup2\n        /* \"#utility.yul\":19008:19028   */\n      sub\n        /* \"#utility.yul\":19004:19005   */\n      0x00\n        /* \"#utility.yul\":18993:19002   */\n      dup4\n        /* \"#utility.yul\":18989:19006   */\n      add\n        /* \"#utility.yul\":18982:19029   */\n      mstore\n        /* \"#utility.yul\":19046:19177   */\n      tag_388\n        /* \"#utility.yul\":19172:19176   */\n      dup2\n        /* \"#utility.yul\":19046:19177   */\n      tag_198\n      jump\t// in\n    tag_388:\n        /* \"#utility.yul\":19038:19177   */\n      swap1\n      pop\n        /* \"#utility.yul\":18765:19184   */\n      swap2\n      swap1\n      pop\n      jump\t// out\n        /* \"#utility.yul\":19190:19280   */\n    tag_199:\n        /* \"#utility.yul\":19224:19231   */\n      0x00\n        /* \"#utility.yul\":19267:19272   */\n      dup2\n        /* \"#utility.yul\":19260:19273   */\n      iszero\n        /* \"#utility.yul\":19253:19274   */\n      iszero\n        /* \"#utility.yul\":19242:19274   */\n      swap1\n      pop\n        /* \"#utility.yul\":19190:19280   */\n      swap2\n      swap1\n      pop\n      jump\t// out\n        /* \"#utility.yul\":19286:19402   */\n    tag_200:\n        /* \"#utility.yul\":19356:19377   */\n      tag_391\n        /* \"#utility.yul\":19371:19376   */\n      dup2\n        /* \"#utility.yul\":19356:19377   */\n      tag_199\n      jump\t// in\n    tag_391:\n        /* \"#utility.yul\":19349:19354   */\n      dup2\n        /* \"#utility.yul\":19346:19378   */\n      eq\n        /* \"#utility.yul\":19336:19396   */\n      tag_392\n      jumpi\n        /* \"#utility.yul\":19392:19393   */\n      0x00\n        /* \"#utility.yul\":19389:19390   */\n      dup1\n        /* \"#utility.yul\":19382:19394   */\n      revert\n        /* \"#utility.yul\":19336:19396   */\n    tag_392:\n        /* \"#utility.yul\":19286:19402   */\n      pop\n      jump\t// out\n        /* \"#utility.yul\":19408:19545   */\n    tag_201:\n        /* \"#utility.yul\":19462:19467   */\n      0x00\n        /* \"#utility.yul\":19493:19499   */\n      dup2\n        /* \"#utility.yul\":19487:19500   */\n      mload\n        /* \"#utility.yul\":19478:19500   */\n      swap1\n      pop\n        /* \"#utility.yul\":19509:19539   */\n      tag_394\n        /* \"#utility.yul\":19533:19538   */\n      dup2\n        /* \"#utility.yul\":19509:19539   */\n      tag_200\n      jump\t// in\n    tag_394:\n        /* \"#utility.yul\":19408:19545   */\n      swap3\n      swap2\n      pop\n      pop\n      jump\t// out\n        /* \"#utility.yul\":19551:19896   */\n    tag_124:\n        /* \"#utility.yul\":19618:19624   */\n      0x00\n        /* \"#utility.yul\":19667:19669   */\n      0x20\n        /* \"#utility.yul\":19655:19664   */\n      dup3\n        /* \"#utility.yul\":19646:19653   */\n      dup5\n        /* \"#utility.yul\":19642:19665   */\n      sub\n        /* \"#utility.yul\":19638:19670   */\n      slt\n        /* \"#utility.yul\":19635:19754   */\n      iszero\n      tag_396\n      jumpi\n        /* \"#utility.yul\":19673:19752   */\n      tag_397\n      tag_149\n      jump\t// in\n    tag_397:\n        /* \"#utility.yul\":19635:19754   */\n    tag_396:\n        /* \"#utility.yul\":19793:19794   */\n      0x00\n        /* \"#utility.yul\":19818:19879   */\n      tag_398\n        /* \"#utility.yul\":19871:19878   */\n      dup5\n        /* \"#utility.yul\":19862:19868   */\n      dup3\n        /* \"#utility.yul\":19851:19860   */\n      dup6\n        /* \"#utility.yul\":19847:19869   */\n      add\n        /* \"#utility.yul\":19818:19879   */\n      tag_201\n      jump\t// in\n    tag_398:\n        /* \"#utility.yul\":19808:19879   */\n      swap2\n      pop\n        /* \"#utility.yul\":19764:19889   */\n      pop\n        /* \"#utility.yul\":19551:19896   */\n      swap3\n      swap2\n      pop\n      pop\n      jump\t// out\n        /* \"#utility.yul\":19902:20067   */\n    tag_202:\n        /* \"#utility.yul\":20042:20059   */\n      0x7472616e73666572206661696c65640000000000000000000000000000000000\n        /* \"#utility.yul\":20038:20039   */\n      0x00\n        /* \"#utility.yul\":20030:20036   */\n      dup3\n        /* \"#utility.yul\":20026:20040   */\n      add\n        /* \"#utility.yul\":20019:20060   */\n      mstore\n        /* \"#utility.yul\":19902:20067   */\n      pop\n      jump\t// out\n        /* \"#utility.yul\":20073:20439   */\n    tag_203:\n        /* \"#utility.yul\":20215:20218   */\n      0x00\n        /* \"#utility.yul\":20236:20303   */\n      tag_401\n        /* \"#utility.yul\":20300:20302   */\n      0x0f\n        /* \"#utility.yul\":20295:20298   */\n      dup4\n        /* \"#utility.yul\":20236:20303   */\n      tag_182\n      jump\t// in\n    tag_401:\n        /* \"#utility.yul\":20229:20303   */\n      swap2\n      pop\n        /* \"#utility.yul\":20312:20405   */\n      tag_402\n        /* \"#utility.yul\":20401:20404   */\n      dup3\n        /* \"#utility.yul\":20312:20405   */\n      tag_202\n      jump\t// in\n    tag_402:\n        /* \"#utility.yul\":20430:20432   */\n      0x20\n        /* \"#utility.yul\":20425:20428   */\n      dup3\n        /* \"#utility.yul\":20421:20433   */\n      add\n        /* \"#utility.yul\":20414:20433   */\n      swap1\n      pop\n        /* \"#utility.yul\":20073:20439   */\n      swap2\n      swap1\n      pop\n      jump\t// out\n        /* \"#utility.yul\":20445:20864   */\n    tag_127:\n        /* \"#utility.yul\":20611:20615   */\n      0x00\n        /* \"#utility.yul\":20649:20651   */\n      0x20\n        /* \"#utility.yul\":20638:20647   */\n      dup3\n        /* \"#utility.yul\":20634:20652   */\n      add\n        /* \"#utility.yul\":20626:20652   */\n      swap1\n      pop\n        /* \"#utility.yul\":20698:20707   */\n      dup2\n        /* \"#utility.yul\":20692:20696   */\n      dup2\n        /* \"#utility.yul\":20688:20708   */\n      sub\n        /* \"#utility.yul\":20684:20685   */\n      0x00\n        /* \"#utility.yul\":20673:20682   */\n      dup4\n        /* \"#utility.yul\":20669:20686   */\n      add\n        /* \"#utility.yul\":20662:20709   */\n      mstore\n        /* \"#utility.yul\":20726:20857   */\n      tag_404\n        /* \"#utility.yul\":20852:20856   */\n      dup2\n        /* \"#utility.yul\":20726:20857   */\n      tag_203\n      jump\t// in\n    tag_404:\n        /* \"#utility.yul\":20718:20857   */\n      swap1\n      pop\n        /* \"#utility.yul\":20445:20864   */\n      swap2\n      swap1\n      pop\n      jump\t// out\n        /* \"#utility.yul\":20870:21423   */\n    tag_134:\n        /* \"#utility.yul\":21047:21051   */\n      0x00\n        /* \"#utility.yul\":21085:21088   */\n      0x80\n        /* \"#utility.yul\":21074:21083   */\n      dup3\n        /* \"#utility.yul\":21070:21089   */\n      add\n        /* \"#utility.yul\":21062:21089   */\n      swap1\n      pop\n        /* \"#utility.yul\":21099:21170   */\n      tag_406\n        /* \"#utility.yul\":21167:21168   */\n      0x00\n        /* \"#utility.yul\":21156:21165   */\n      dup4\n        /* \"#utility.yul\":21152:21169   */\n      add\n        /* \"#utility.yul\":21143:21149   */\n      dup8\n        /* \"#utility.yul\":21099:21170   */\n      tag_164\n      jump\t// in\n    tag_406:\n        /* \"#utility.yul\":21180:21252   */\n      tag_407\n        /* \"#utility.yul\":21248:21250   */\n      0x20\n        /* \"#utility.yul\":21237:21246   */\n      dup4\n        /* \"#utility.yul\":21233:21251   */\n      add\n        /* \"#utility.yul\":21224:21230   */\n      dup7\n        /* \"#utility.yul\":21180:21252   */\n      tag_164\n      jump\t// in\n    tag_407:\n        /* \"#utility.yul\":21262:21334   */\n      tag_408\n        /* \"#utility.yul\":21330:21332   */\n      0x40\n        /* \"#utility.yul\":21319:21328   */\n      dup4\n        /* \"#utility.yul\":21315:21333   */\n      add\n        /* \"#utility.yul\":21306:21312   */\n      dup6\n        /* \"#utility.yul\":21262:21334   */\n      tag_165\n      jump\t// in\n    tag_408:\n        /* \"#utility.yul\":21344:21416   */\n      tag_409\n        /* \"#utility.yul\":21412:21414   */\n      0x60\n        /* \"#utility.yul\":21401:21410   */\n      dup4\n        /* \"#utility.yul\":21397:21415   */\n      add\n        /* \"#utility.yul\":21388:21394   */\n      dup5\n        /* \"#utility.yul\":21344:21416   */\n      tag_165\n      jump\t// in\n    tag_409:\n        /* \"#utility.yul\":20870:21423   */\n      swap6\n      swap5\n      pop\n      pop\n      pop\n      pop\n      pop\n      jump\t// out\n        /* \"#utility.yul\":21429:21609   */\n    tag_146:\n        /* \"#utility.yul\":21477:21554   */\n      0x4e487b7100000000000000000000000000000000000000000000000000000000\n        /* \"#utility.yul\":21474:21475   */\n      0x00\n        /* \"#utility.yul\":21467:21555   */\n      mstore\n        /* \"#utility.yul\":21574:21578   */\n      0x31\n        /* \"#utility.yul\":21571:21572   */\n      0x04\n        /* \"#utility.yul\":21564:21579   */\n      mstore\n        /* \"#utility.yul\":21598:21602   */\n      0x24\n        /* \"#utility.yul\":21595:21596   */\n      0x00\n        /* \"#utility.yul\":21588:21603   */\n      revert\n\n    auxdata: 0xa2646970667358221220e1bead81949d3bdd8e2fe368f515cfeb0ac71e963ab8bce13bd72cf3dfe4676d64736f6c63430008160033\n}\n",
				"bytecode": {
					"linkReferences": {},
					"object": "608060405234801562000010575f80fd5b5060405162001cf738038062001cf7833981810160405281019062000036919062000204565b5f73ffffffffffffffffffffffffffffffffffffffff168273ffffffffffffffffffffffffffffffffffffffff1603620000a7576040517f08c379a00000000000000000000000000000000000000000000000000000000081526004016200009e90620002a7565b60405180910390fd5b5f73ffffffffffffffffffffffffffffffffffffffff168173ffffffffffffffffffffffffffffffffffffffff160362000118576040517f08c379a00000000000000000000000000000000000000000000000000000000081526004016200010f90620002a7565b60405180910390fd5b815f806101000a81548173ffffffffffffffffffffffffffffffffffffffff021916908373ffffffffffffffffffffffffffffffffffffffff1602179055508060015f6101000a81548173ffffffffffffffffffffffffffffffffffffffff021916908373ffffffffffffffffffffffffffffffffffffffff1602179055505050620002c7565b5f80fd5b5f73ffffffffffffffffffffffffffffffffffffffff82169050919050565b5f620001ce82620001a3565b9050919050565b620001e081620001c2565b8114620001eb575f80fd5b50565b5f81519050620001fe81620001d5565b92915050565b5f80604083850312156200021d576200021c6200019f565b5b5f6200022c85828601620001ee565b92505060206200023f85828601620001ee565b9150509250929050565b5f82825260208201905092915050565b7f7a65726f206164647265737300000000000000000000000000000000000000005f82015250565b5f6200028f600c8362000249565b91506200029c8262000259565b602082019050919050565b5f6020820190508181035f830152620002c08162000281565b9050919050565b611a2280620002d55f395ff3fe608060405234801561000f575f80fd5b506004361061009c575f3560e01c8063b3de019c11610064578063b3de019c1461016e578063b5cdf9241461018a578063bca6ce64146101ba578063d96a094a146101d8578063da694df0146101f45761009c565b8063150b7a02146100a0578063394a9077146100d0578063514fcac714610102578063785e9e861461011e578063a85c38ef1461013c575b5f80fd5b6100ba60048036038101906100b59190611043565b610224565b6040516100c79190611101565b60405180910390f35b6100ea60048036038101906100e5919061111a565b610612565b6040516100f993929190611163565b60405180910390f35b61011c6004803603810190610117919061111a565b610657565b005b6101266107cc565b60405161013391906111f3565b60405180910390f35b6101566004803603810190610151919061111a565b6107ef565b60405161016593929190611163565b60405180910390f35b6101886004803603810190610183919061120c565b610843565b005b6101a4600480360381019061019f9190611382565b6109db565b6040516101b191906113dc565b60405180910390f35b6101c2610a8f565b6040516101cf9190611415565b60405180910390f35b6101f260048036038101906101ed919061111a565b610ab4565b005b61020e6004803603810190610209919061111a565b610d68565b60405161021b91906113dc565b60405180910390f35b5f60015f9054906101000a900473ffffffffffffffffffffffffffffffffffffffff1673ffffffffffffffffffffffffffffffffffffffff163373ffffffffffffffffffffffffffffffffffffffff16146102b4576040517f08c379a00000000000000000000000000000000000000000000000000000000081526004016102ab90611488565b60405180910390fd5b3073ffffffffffffffffffffffffffffffffffffffff1660015f9054906101000a900473ffffffffffffffffffffffffffffffffffffffff1673ffffffffffffffffffffffffffffffffffffffff16636352211e866040518263ffffffff1660e01b815260040161032591906113dc565b602060405180830381865afa158015610340573d5f803e3d5ffd5b505050506040513d601f19601f8201168201806040525081019061036491906114ba565b73ffffffffffffffffffffffffffffffffffffffff16146103ba576040517f08c379a00000000000000000000000000000000000000000000000000000000081526004016103b19061152f565b60405180910390fd5b5f61040884848080601f0160208091040260200160405190810160405280939291908181526020018383808284375f81840152601f19601f820116905080830192505050505050505f6109db565b90505f811161044c576040517f08c379a000000000000000000000000000000000000000000000000000000000815260040161044390611597565b60405180910390fd5b600360405180606001604052808873ffffffffffffffffffffffffffffffffffffffff16815260200187815260200183815250908060018154018082558091505060019003905f5260205f2090600302015f909190919091505f820151815f015f6101000a81548173ffffffffffffffffffffffffffffffffffffffff021916908373ffffffffffffffffffffffffffffffffffffffff1602179055506020820151816001015560408201518160020155505060405180606001604052808773ffffffffffffffffffffffffffffffffffffffff1681526020018681526020018281525060025f8781526020019081526020015f205f820151815f015f6101000a81548173ffffffffffffffffffffffffffffffffffffffff021916908373ffffffffffffffffffffffffffffffffffffffff160217905550602082015181600101556040820151816002015590505060016003805490506105ae91906115e2565b60045f8781526020019081526020015f20819055507fd5b509e657d5ec37ae4bdcab658b7340c0453bb630516d26623359a34c1cecf38686836040516105f693929190611163565b60405180910390a163150b7a0260e01b91505095945050505050565b6002602052805f5260405f205f91509050805f015f9054906101000a900473ffffffffffffffffffffffffffffffffffffffff16908060010154908060020154905083565b5f60025f8381526020019081526020015f205f015f9054906101000a900473ffffffffffffffffffffffffffffffffffffffff1690503373ffffffffffffffffffffffffffffffffffffffff168173ffffffffffffffffffffffffffffffffffffffff16146106fb576040517f08c379a00000000000000000000000000000000000000000000000000000000081526004016106f29061165f565b60405180910390fd5b60015f9054906101000a900473ffffffffffffffffffffffffffffffffffffffff1673ffffffffffffffffffffffffffffffffffffffff166342842e0e3083856040518463ffffffff1660e01b81526004016107599392919061167d565b5f604051808303815f87803b158015610770575f80fd5b505af1158015610782573d5f803e3d5ffd5b5050505061078f82610d7d565b7fdd003742fb214507783ce004fe55f5ac14f89c6de4a7cd7487e47eb091c6226581836040516107c09291906116b2565b60405180910390a15050565b5f8054906101000a900473ffffffffffffffffffffffffffffffffffffffff1681565b600381815481106107fe575f80fd5b905f5260205f2090600302015f91509050805f015f9054906101000a900473ffffffffffffffffffffffffffffffffffffffff16908060010154908060020154905083565b5f60025f8481526020019081526020015f205f015f9054906101000a900473ffffffffffffffffffffffffffffffffffffffff1690503373ffffffffffffffffffffffffffffffffffffffff168173ffffffffffffffffffffffffffffffffffffffff16146108e7576040517f08c379a00000000000000000000000000000000000000000000000000000000081526004016108de9061165f565b60405180910390fd5b5f8211610929576040517f08c379a000000000000000000000000000000000000000000000000000000000815260040161092090611597565b60405180910390fd5b5f60025f8581526020019081526020015f206002015490508260025f8681526020019081526020015f20600201819055505f600360045f8781526020019081526020015f2054815481106109805761097f6116d9565b5b905f5260205f20906003020190508381600201819055507fdac6aecd066304d15a41e8e590fc5ab5bf93634f43cba363f743d5e158d79988838684876040516109cc9493929190611706565b60405180910390a15050505050565b5f816020836109ea9190611749565b1015610a2b576040517f08c379a0000000000000000000000000000000000000000000000000000000008152600401610a22906117c6565b60405180910390fd5b602082610a389190611749565b83511015610a7b576040517f08c379a0000000000000000000000000000000000000000000000000000000008152600401610a729061182e565b60405180910390fd5b5f8260208501015190508091505092915050565b60015f9054906101000a900473ffffffffffffffffffffffffffffffffffffffff1681565b5f60025f8381526020019081526020015f205f015f9054906101000a900473ffffffffffffffffffffffffffffffffffffffff1690505f3390505f60025f8581526020019081526020015f206002015490508173ffffffffffffffffffffffffffffffffffffffff168373ffffffffffffffffffffffffffffffffffffffff1603610b74576040517f08c379a0000000000000000000000000000000000000000000000000000000008152600401610b6b90611896565b60405180910390fd5b5f8111610bb6576040517f08c379a0000000000000000000000000000000000000000000000000000000008152600401610bad90611597565b60405180910390fd5b5f8054906101000a900473ffffffffffffffffffffffffffffffffffffffff1673ffffffffffffffffffffffffffffffffffffffff166323b872dd8385846040518463ffffffff1660e01b8152600401610c129392919061167d565b6020604051808303815f875af1158015610c2e573d5f803e3d5ffd5b505050506040513d601f19601f82011682018060405250810190610c5291906118e9565b610c91576040517f08c379a0000000000000000000000000000000000000000000000000000000008152600401610c889061195e565b60405180910390fd5b60015f9054906101000a900473ffffffffffffffffffffffffffffffffffffffff1673ffffffffffffffffffffffffffffffffffffffff166342842e0e3084876040518463ffffffff1660e01b8152600401610cef9392919061167d565b5f604051808303815f87803b158015610d06575f80fd5b505af1158015610d18573d5f803e3d5ffd5b50505050610d2584610d7d565b7f424d5e5f0192c7dacdbe646ca31b00299146d883d76a95ef5cddbac7cd342eab83838684604051610d5a949392919061197c565b60405180910390a150505050565b6004602052805f5260405f205f915090505481565b5f60045f8381526020019081526020015f205490505f6001600380549050610da591906115e2565b9050808214610e88575f60038281548110610dc357610dc26116d9565b5b905f5260205f20906003020190508260045f836001015481526020019081526020015f20819055508060038481548110610e0057610dff6116d9565b5b905f5260205f2090600302015f82015f9054906101000a900473ffffffffffffffffffffffffffffffffffffffff16815f015f6101000a81548173ffffffffffffffffffffffffffffffffffffffff021916908373ffffffffffffffffffffffffffffffffffffffff1602179055506001820154816001015560028201548160020155905050505b6003805480610e9a57610e996119bf565b5b600190038181905f5260205f2090600302015f8082015f6101000a81549073ffffffffffffffffffffffffffffffffffffffff0219169055600182015f9055600282015f90555050905560025f8481526020019081526020015f205f8082015f6101000a81549073ffffffffffffffffffffffffffffffffffffffff0219169055600182015f9055600282015f9055505060045f8481526020019081526020015f205f9055505050565b5f604051905090565b5f80fd5b5f80fd5b5f73ffffffffffffffffffffffffffffffffffffffff82169050919050565b5f610f7e82610f55565b9050919050565b610f8e81610f74565b8114610f98575f80fd5b50565b5f81359050610fa981610f85565b92915050565b5f819050919050565b610fc181610faf565b8114610fcb575f80fd5b50565b5f81359050610fdc81610fb8565b92915050565b5f80fd5b5f80fd5b5f80fd5b5f8083601f84011261100357611002610fe2565b5b8235905067ffffffffffffffff8111156110205761101f610fe6565b5b60208301915083600182028301111561103c5761103b610fea565b5b9250929050565b5f805f805f6080868803121561105c5761105b610f4d565b5b5f61106988828901610f9b565b955050602061107a88828901610f9b565b945050604061108b88828901610fce565b935050606086013567ffffffffffffffff8111156110ac576110ab610f51565b5b6110b888828901610fee565b92509250509295509295909350565b5f7fffffffff0000000000000000000000000000000000000000000000000000000082169050919050565b6110fb816110c7565b82525050565b5f6020820190506111145f8301846110f2565b92915050565b5f6020828403121561112f5761112e610f4d565b5b5f61113c84828501610fce565b91505092915050565b61114e81610f74565b82525050565b61115d81610faf565b82525050565b5f6060820190506111765f830186611145565b6111836020830185611154565b6111906040830184611154565b949350505050565b5f819050919050565b5f6111bb6111b66111b184610f55565b611198565b610f55565b9050919050565b5f6111cc826111a1565b9050919050565b5f6111dd826111c2565b9050919050565b6111ed816111d3565b82525050565b5f6020820190506112065f8301846111e4565b92915050565b5f806040838503121561122257611221610f4d565b5b5f61122f85828601610fce565b925050602061124085828601610fce565b9150509250929050565b5f80fd5b5f601f19601f8301169050919050565b7f4e487b71000000000000000000000000000000000000000000000000000000005f52604160045260245ffd5b6112948261124e565b810181811067ffffffffffffffff821117156112b3576112b261125e565b5b80604052505050565b5f6112c5610f44565b90506112d1828261128b565b919050565b5f67ffffffffffffffff8211156112f0576112ef61125e565b5b6112f98261124e565b9050602081019050919050565b828183375f83830152505050565b5f611326611321846112d6565b6112bc565b9050828152602081018484840111156113425761134161124a565b5b61134d848285611306565b509392505050565b5f82601f83011261136957611368610fe2565b5b8135611379848260208601611314565b91505092915050565b5f806040838503121561139857611397610f4d565b5b5f83013567ffffffffffffffff8111156113b5576113b4610f51565b5b6113c185828601611355565b92505060206113d285828601610fce565b9150509250929050565b5f6020820190506113ef5f830184611154565b92915050565b5f6113ff826111c2565b9050919050565b61140f816113f5565b82525050565b5f6020820190506114285f830184611406565b92915050565b5f82825260208201905092915050565b7f696e76616c69642073656e6465720000000000000000000000000000000000005f82015250565b5f611472600e8361142e565b915061147d8261143e565b602082019050919050565b5f6020820190508181035f83015261149f81611466565b9050919050565b5f815190506114b481610f85565b92915050565b5f602082840312156114cf576114ce610f4d565b5b5f6114dc848285016114a6565b91505092915050565b7f6e6f74206f776e6564206279207468697320636f6e74726163740000000000005f82015250565b5f611519601a8361142e565b9150611524826114e5565b602082019050919050565b5f6020820190508181035f8301526115468161150d565b9050919050565b7f7072696365206973207a65726f000000000000000000000000000000000000005f82015250565b5f611581600d8361142e565b915061158c8261154d565b602082019050919050565b5f6020820190508181035f8301526115ae81611575565b9050919050565b7f4e487b71000000000000000000000000000000000000000000000000000000005f52601160045260245ffd5b5f6115ec82610faf565b91506115f783610faf565b925082820390508181111561160f5761160e6115b5565b5b92915050565b7f6e6f74207468652073656c6c65720000000000000000000000000000000000005f82015250565b5f611649600e8361142e565b915061165482611615565b602082019050919050565b5f6020820190508181035f8301526116768161163d565b9050919050565b5f6060820190506116905f830186611145565b61169d6020830185611145565b6116aa6040830184611154565b949350505050565b5f6040820190506116c55f830185611145565b6116d26020830184611154565b9392505050565b7f4e487b71000000000000000000000000000000000000000000000000000000005f52603260045260245ffd5b5f6080820190506117195f830187611145565b6117266020830186611154565b6117336040830185611154565b6117406060830184611154565b95945050505050565b5f61175382610faf565b915061175e83610faf565b9250828201905080821115611776576117756115b5565b5b92915050565b7f4d61726b65743a20746f55696e743235365f6f766572666c6f770000000000005f82015250565b5f6117b0601a8361142e565b91506117bb8261177c565b602082019050919050565b5f6020820190508181035f8301526117dd816117a4565b9050919050565b7f4d61726b65743a20746f55696e743235365f6f75744f66426f756e64730000005f82015250565b5f611818601d8361142e565b9150611823826117e4565b602082019050919050565b5f6020820190508181035f8301526118458161180c565b9050919050565b7f73656c6c657220616e6420627579657220617265207468652073616d650000005f82015250565b5f611880601d8361142e565b915061188b8261184c565b602082019050919050565b5f6020820190508181035f8301526118ad81611874565b9050919050565b5f8115159050919050565b6118c8816118b4565b81146118d2575f80fd5b50565b5f815190506118e3816118bf565b92915050565b5f602082840312156118fe576118fd610f4d565b5b5f61190b848285016118d5565b91505092915050565b7f7472616e73666572206661696c656400000000000000000000000000000000005f82015250565b5f611948600f8361142e565b915061195382611914565b602082019050919050565b5f6020820190508181035f8301526119758161193c565b9050919050565b5f60808201905061198f5f830187611145565b61199c6020830186611145565b6119a96040830185611154565b6119b66060830184611154565b95945050505050565b7f4e487b71000000000000000000000000000000000000000000000000000000005f52603160045260245ffdfea2646970667358221220e1bead81949d3bdd8e2fe368f515cfeb0ac71e963ab8bce13bd72cf3dfe4676d64736f6c63430008160033",
					"opcodes": "PUSH1 0x80 PUSH1 0x40 MSTORE CALLVALUE DUP1 ISZERO PUSH3 0x10 JUMPI PUSH0 DUP1 REVERT JUMPDEST POP PUSH1 0x40 MLOAD PUSH3 0x1CF7 CODESIZE SUB DUP1 PUSH3 0x1CF7 DUP4 CODECOPY DUP2 DUP2 ADD PUSH1 0x40 MSTORE DUP2 ADD SWAP1 PUSH3 0x36 SWAP2 SWAP1 PUSH3 0x204 JUMP JUMPDEST PUSH0 PUSH20 0xFFFFFFFFFFFFFFFFFFFFFFFFFFFFFFFFFFFFFFFF AND DUP3 PUSH20 0xFFFFFFFFFFFFFFFFFFFFFFFFFFFFFFFFFFFFFFFF AND SUB PUSH3 0xA7 JUMPI PUSH1 0x40 MLOAD PUSH32 0x8C379A000000000000000000000000000000000000000000000000000000000 DUP2 MSTORE PUSH1 0x4 ADD PUSH3 0x9E SWAP1 PUSH3 0x2A7 JUMP JUMPDEST PUSH1 0x40 MLOAD DUP1 SWAP2 SUB SWAP1 REVERT JUMPDEST PUSH0 PUSH20 0xFFFFFFFFFFFFFFFFFFFFFFFFFFFFFFFFFFFFFFFF AND DUP2 PUSH20 0xFFFFFFFFFFFFFFFFFFFFFFFFFFFFFFFFFFFFFFFF AND SUB PUSH3 0x118 JUMPI PUSH1 0x40 MLOAD PUSH32 0x8C379A000000000000000000000000000000000000000000000000000000000 DUP2 MSTORE PUSH1 0x4 ADD PUSH3 0x10F SWAP1 PUSH3 0x2A7 JUMP JUMPDEST PUSH1 0x40 MLOAD DUP1 SWAP2 SUB SWAP1 REVERT JUMPDEST DUP2 PUSH0 DUP1 PUSH2 0x100 EXP DUP2 SLOAD DUP2 PUSH20 0xFFFFFFFFFFFFFFFFFFFFFFFFFFFFFFFFFFFFFFFF MUL NOT AND SWAP1 DUP4 PUSH20 0xFFFFFFFFFFFFFFFFFFFFFFFFFFFFFFFFFFFFFFFF AND MUL OR SWAP1 SSTORE POP DUP1 PUSH1 0x1 PUSH0 PUSH2 0x100 EXP DUP2 SLOAD DUP2 PUSH20 0xFFFFFFFFFFFFFFFFFFFFFFFFFFFFFFFFFFFFFFFF MUL NOT AND SWAP1 DUP4 PUSH20 0xFFFFFFFFFFFFFFFFFFFFFFFFFFFFFFFFFFFFFFFF AND MUL OR SWAP1 SSTORE POP POP POP PUSH3 0x2C7 JUMP JUMPDEST PUSH0 DUP1 REVERT JUMPDEST PUSH0 PUSH20 0xFFFFFFFFFFFFFFFFFFFFFFFFFFFFFFFFFFFFFFFF DUP3 AND SWAP1 POP SWAP2 SWAP1 POP JUMP JUMPDEST PUSH0 PUSH3 0x1CE DUP3 PUSH3 0x1A3 JUMP JUMPDEST SWAP1 POP SWAP2 SWAP1 POP JUMP JUMPDEST PUSH3 0x1E0 DUP2 PUSH3 0x1C2 JUMP JUMPDEST DUP2 EQ PUSH3 0x1EB JUMPI PUSH0 DUP1 REVERT JUMPDEST POP JUMP JUMPDEST PUSH0 DUP2 MLOAD SWAP1 POP PUSH3 0x1FE DUP2 PUSH3 0x1D5 JUMP JUMPDEST SWAP3 SWAP2 POP POP JUMP JUMPDEST PUSH0 DUP1 PUSH1 0x40 DUP4 DUP6 SUB SLT ISZERO PUSH3 0x21D JUMPI PUSH3 0x21C PUSH3 0x19F JUMP JUMPDEST JUMPDEST PUSH0 PUSH3 0x22C DUP6 DUP3 DUP7 ADD PUSH3 0x1EE JUMP JUMPDEST SWAP3 POP POP PUSH1 0x20 PUSH3 0x23F DUP6 DUP3 DUP7 ADD PUSH3 0x1EE JUMP JUMPDEST SWAP2 POP POP SWAP3 POP SWAP3 SWAP1 POP JUMP JUMPDEST PUSH0 DUP3 DUP3 MSTORE PUSH1 0x20 DUP3 ADD SWAP1 POP SWAP3 SWAP2 POP POP JUMP JUMPDEST PUSH32 0x7A65726F20616464726573730000000000000000000000000000000000000000 PUSH0 DUP3 ADD MSTORE POP JUMP JUMPDEST PUSH0 PUSH3 0x28F PUSH1 0xC DUP4 PUSH3 0x249 JUMP JUMPDEST SWAP2 POP PUSH3 0x29C DUP3 PUSH3 0x259 JUMP JUMPDEST PUSH1 0x20 DUP3 ADD SWAP1 POP SWAP2 SWAP1 POP JUMP JUMPDEST PUSH0 PUSH1 0x20 DUP3 ADD SWAP1 POP DUP2 DUP2 SUB PUSH0 DUP4 ADD MSTORE PUSH3 0x2C0 DUP2 PUSH3 0x281 JUMP JUMPDEST SWAP1 POP SWAP2 SWAP1 POP JUMP JUMPDEST PUSH2 0x1A22 DUP1 PUSH3 0x2D5 PUSH0 CODECOPY PUSH0 RETURN INVALID PUSH1 0x80 PUSH1 0x40 MSTORE CALLVALUE DUP1 ISZERO PUSH2 0xF JUMPI PUSH0 DUP1 REVERT JUMPDEST POP PUSH1 0x4 CALLDATASIZE LT PUSH2 0x9C JUMPI PUSH0 CALLDATALOAD PUSH1 0xE0 SHR DUP1 PUSH4 0xB3DE019C GT PUSH2 0x64 JUMPI DUP1 PUSH4 0xB3DE019C EQ PUSH2 0x16E JUMPI DUP1 PUSH4 0xB5CDF924 EQ PUSH2 0x18A JUMPI DUP1 PUSH4 0xBCA6CE64 EQ PUSH2 0x1BA JUMPI DUP1 PUSH4 0xD96A094A EQ PUSH2 0x1D8 JUMPI DUP1 PUSH4 0xDA694DF0 EQ PUSH2 0x1F4 JUMPI PUSH2 0x9C JUMP JUMPDEST DUP1 PUSH4 0x150B7A02 EQ PUSH2 0xA0 JUMPI DUP1 PUSH4 0x394A9077 EQ PUSH2 0xD0 JUMPI DUP1 PUSH4 0x514FCAC7 EQ PUSH2 0x102 JUMPI DUP1 PUSH4 0x785E9E86 EQ PUSH2 0x11E JUMPI DUP1 PUSH4 0xA85C38EF EQ PUSH2 0x13C JUMPI JUMPDEST PUSH0 DUP1 REVERT JUMPDEST PUSH2 0xBA PUSH1 0x4 DUP1 CALLDATASIZE SUB DUP2 ADD SWAP1 PUSH2 0xB5 SWAP2 SWAP1 PUSH2 0x1043 JUMP JUMPDEST PUSH2 0x224 JUMP JUMPDEST PUSH1 0x40 MLOAD PUSH2 0xC7 SWAP2 SWAP1 PUSH2 0x1101 JUMP JUMPDEST PUSH1 0x40 MLOAD DUP1 SWAP2 SUB SWAP1 RETURN JUMPDEST PUSH2 0xEA PUSH1 0x4 DUP1 CALLDATASIZE SUB DUP2 ADD SWAP1 PUSH2 0xE5 SWAP2 SWAP1 PUSH2 0x111A JUMP JUMPDEST PUSH2 0x612 JUMP JUMPDEST PUSH1 0x40 MLOAD PUSH2 0xF9 SWAP4 SWAP3 SWAP2 SWAP1 PUSH2 0x1163 JUMP JUMPDEST PUSH1 0x40 MLOAD DUP1 SWAP2 SUB SWAP1 RETURN JUMPDEST PUSH2 0x11C PUSH1 0x4 DUP1 CALLDATASIZE SUB DUP2 ADD SWAP1 PUSH2 0x117 SWAP2 SWAP1 PUSH2 0x111A JUMP JUMPDEST PUSH2 0x657 JUMP JUMPDEST STOP JUMPDEST PUSH2 0x126 PUSH2 0x7CC JUMP JUMPDEST PUSH1 0x40 MLOAD PUSH2 0x133 SWAP2 SWAP1 PUSH2 0x11F3 JUMP JUMPDEST PUSH1 0x40 MLOAD DUP1 SWAP2 SUB SWAP1 RETURN JUMPDEST PUSH2 0x156 PUSH1 0x4 DUP1 CALLDATASIZE SUB DUP2 ADD SWAP1 PUSH2 0x151 SWAP2 SWAP1 PUSH2 0x111A JUMP JUMPDEST PUSH2 0x7EF JUMP JUMPDEST PUSH1 0x40 MLOAD PUSH2 0x165 SWAP4 SWAP3 SWAP2 SWAP1 PUSH2 0x1163 JUMP JUMPDEST PUSH1 0x40 MLOAD DUP1 SWAP2 SUB SWAP1 RETURN JUMPDEST PUSH2 0x188 PUSH1 0x4 DUP1 CALLDATASIZE SUB DUP2 ADD SWAP1 PUSH2 0x183 SWAP2 SWAP1 PUSH2 0x120C JUMP JUMPDEST PUSH2 0x843 JUMP JUMPDEST STOP JUMPDEST PUSH2 0x1A4 PUSH1 0x4 DUP1 CALLDATASIZE SUB DUP2 ADD SWAP1 PUSH2 0x19F SWAP2 SWAP1 PUSH2 0x1382 JUMP JUMPDEST PUSH2 0x9DB JUMP JUMPDEST PUSH1 0x40 MLOAD PUSH2 0x1B1 SWAP2 SWAP1 PUSH2 0x13DC JUMP JUMPDEST PUSH1 0x40 MLOAD DUP1 SWAP2 SUB SWAP1 RETURN JUMPDEST PUSH2 0x1C2 PUSH2 0xA8F JUMP JUMPDEST PUSH1 0x40 MLOAD PUSH2 0x1CF SWAP2 SWAP1 PUSH2 0x1415 JUMP JUMPDEST PUSH1 0x40 MLOAD DUP1 SWAP2 SUB SWAP1 RETURN JUMPDEST PUSH2 0x1F2 PUSH1 0x4 DUP1 CALLDATASIZE SUB DUP2 ADD SWAP1 PUSH2 0x1ED SWAP2 SWAP1 PUSH2 0x111A JUMP JUMPDEST PUSH2 0xAB4 JUMP JUMPDEST STOP JUMPDEST PUSH2 0x20E PUSH1 0x4 DUP1 CALLDATASIZE SUB DUP2 ADD SWAP1 PUSH2 0x209 SWAP2 SWAP1 PUSH2 0x111A JUMP JUMPDEST PUSH2 0xD68 JUMP JUMPDEST PUSH1 0x40 MLOAD PUSH2 0x21B SWAP2 SWAP1 PUSH2 0x13DC JUMP JUMPDEST PUSH1 0x40 MLOAD DUP1 SWAP2 SUB SWAP1 RETURN JUMPDEST PUSH0 PUSH1 0x1 PUSH0 SWAP1 SLOAD SWAP1 PUSH2 0x100 EXP SWAP1 DIV PUSH20 0xFFFFFFFFFFFFFFFFFFFFFFFFFFFFFFFFFFFFFFFF AND PUSH20 0xFFFFFFFFFFFFFFFFFFFFFFFFFFFFFFFFFFFFFFFF AND CALLER PUSH20 0xFFFFFFFFFFFFFFFFFFFFFFFFFFFFFFFFFFFFFFFF AND EQ PUSH2 0x2B4 JUMPI PUSH1 0x40 MLOAD PUSH32 0x8C379A000000000000000000000000000000000000000000000000000000000 DUP2 MSTORE PUSH1 0x4 ADD PUSH2 0x2AB SWAP1 PUSH2 0x1488 JUMP JUMPDEST PUSH1 0x40 MLOAD DUP1 SWAP2 SUB SWAP1 REVERT JUMPDEST ADDRESS PUSH20 0xFFFFFFFFFFFFFFFFFFFFFFFFFFFFFFFFFFFFFFFF AND PUSH1 0x1 PUSH0 SWAP1 SLOAD SWAP1 PUSH2 0x100 EXP SWAP1 DIV PUSH20 0xFFFFFFFFFFFFFFFFFFFFFFFFFFFFFFFFFFFFFFFF AND PUSH20 0xFFFFFFFFFFFFFFFFFFFFFFFFFFFFFFFFFFFFFFFF AND PUSH4 0x6352211E DUP7 PUSH1 0x40 MLOAD DUP3 PUSH4 0xFFFFFFFF AND PUSH1 0xE0 SHL DUP2 MSTORE PUSH1 0x4 ADD PUSH2 0x325 SWAP2 SWAP1 PUSH2 0x13DC JUMP JUMPDEST PUSH1 0x20 PUSH1 0x40 MLOAD DUP1 DUP4 SUB DUP2 DUP7 GAS STATICCALL ISZERO DUP1 ISZERO PUSH2 0x340 JUMPI RETURNDATASIZE PUSH0 DUP1 RETURNDATACOPY RETURNDATASIZE PUSH0 REVERT JUMPDEST POP POP POP POP PUSH1 0x40 MLOAD RETURNDATASIZE PUSH1 0x1F NOT PUSH1 0x1F DUP3 ADD AND DUP3 ADD DUP1 PUSH1 0x40 MSTORE POP DUP2 ADD SWAP1 PUSH2 0x364 SWAP2 SWAP1 PUSH2 0x14BA JUMP JUMPDEST PUSH20 0xFFFFFFFFFFFFFFFFFFFFFFFFFFFFFFFFFFFFFFFF AND EQ PUSH2 0x3BA JUMPI PUSH1 0x40 MLOAD PUSH32 0x8C379A000000000000000000000000000000000000000000000000000000000 DUP2 MSTORE PUSH1 0x4 ADD PUSH2 0x3B1 SWAP1 PUSH2 0x152F JUMP JUMPDEST PUSH1 0x40 MLOAD DUP1 SWAP2 SUB SWAP1 REVERT JUMPDEST PUSH0 PUSH2 0x408 DUP5 DUP5 DUP1 DUP1 PUSH1 0x1F ADD PUSH1 0x20 DUP1 SWAP2 DIV MUL PUSH1 0x20 ADD PUSH1 0x40 MLOAD SWAP1 DUP2 ADD PUSH1 0x40 MSTORE DUP1 SWAP4 SWAP3 SWAP2 SWAP1 DUP2 DUP2 MSTORE PUSH1 0x20 ADD DUP4 DUP4 DUP1 DUP3 DUP5 CALLDATACOPY PUSH0 DUP2 DUP5 ADD MSTORE PUSH1 0x1F NOT PUSH1 0x1F DUP3 ADD AND SWAP1 POP DUP1 DUP4 ADD SWAP3 POP POP POP POP POP POP POP PUSH0 PUSH2 0x9DB JUMP JUMPDEST SWAP1 POP PUSH0 DUP2 GT PUSH2 0x44C JUMPI PUSH1 0x40 MLOAD PUSH32 0x8C379A000000000000000000000000000000000000000000000000000000000 DUP2 MSTORE PUSH1 0x4 ADD PUSH2 0x443 SWAP1 PUSH2 0x1597 JUMP JUMPDEST PUSH1 0x40 MLOAD DUP1 SWAP2 SUB SWAP1 REVERT JUMPDEST PUSH1 0x3 PUSH1 0x40 MLOAD DUP1 PUSH1 0x60 ADD PUSH1 0x40 MSTORE DUP1 DUP9 PUSH20 0xFFFFFFFFFFFFFFFFFFFFFFFFFFFFFFFFFFFFFFFF AND DUP2 MSTORE PUSH1 0x20 ADD DUP8 DUP2 MSTORE PUSH1 0x20 ADD DUP4 DUP2 MSTORE POP SWAP1 DUP1 PUSH1 0x1 DUP2 SLOAD ADD DUP1 DUP3 SSTORE DUP1 SWAP2 POP POP PUSH1 0x1 SWAP1 SUB SWAP1 PUSH0 MSTORE PUSH1 0x20 PUSH0 KECCAK256 SWAP1 PUSH1 0x3 MUL ADD PUSH0 SWAP1 SWAP2 SWAP1 SWAP2 SWAP1 SWAP2 POP PUSH0 DUP3 ADD MLOAD DUP2 PUSH0 ADD PUSH0 PUSH2 0x100 EXP DUP2 SLOAD DUP2 PUSH20 0xFFFFFFFFFFFFFFFFFFFFFFFFFFFFFFFFFFFFFFFF MUL NOT AND SWAP1 DUP4 PUSH20 0xFFFFFFFFFFFFFFFFFFFFFFFFFFFFFFFFFFFFFFFF AND MUL OR SWAP1 SSTORE POP PUSH1 0x20 DUP3 ADD MLOAD DUP2 PUSH1 0x1 ADD SSTORE PUSH1 0x40 DUP3 ADD MLOAD DUP2 PUSH1 0x2 ADD SSTORE POP POP PUSH1 0x40 MLOAD DUP1 PUSH1 0x60 ADD PUSH1 0x40 MSTORE DUP1 DUP8 PUSH20 0xFFFFFFFFFFFFFFFFFFFFFFFFFFFFFFFFFFFFFFFF AND DUP2 MSTORE PUSH1 0x20 ADD DUP7 DUP2 MSTORE PUSH1 0x20 ADD DUP3 DUP2 MSTORE POP PUSH1 0x2 PUSH0 DUP8 DUP2 MSTORE PUSH1 0x20 ADD SWAP1 DUP2 MSTORE PUSH1 0x20 ADD PUSH0 KECCAK256 PUSH0 DUP3 ADD MLOAD DUP2 PUSH0 ADD PUSH0 PUSH2 0x100 EXP DUP2 SLOAD DUP2 PUSH20 0xFFFFFFFFFFFFFFFFFFFFFFFFFFFFFFFFFFFFFFFF MUL NOT AND SWAP1 DUP4 PUSH20 0xFFFFFFFFFFFFFFFFFFFFFFFFFFFFFFFFFFFFFFFF AND MUL OR SWAP1 SSTORE POP PUSH1 0x20 DUP3 ADD MLOAD DUP2 PUSH1 0x1 ADD SSTORE PUSH1 0x40 DUP3 ADD MLOAD DUP2 PUSH1 0x2 ADD SSTORE SWAP1 POP POP PUSH1 0x1 PUSH1 0x3 DUP1 SLOAD SWAP1 POP PUSH2 0x5AE SWAP2 SWAP1 PUSH2 0x15E2 JUMP JUMPDEST PUSH1 0x4 PUSH0 DUP8 DUP2 MSTORE PUSH1 0x20 ADD SWAP1 DUP2 MSTORE PUSH1 0x20 ADD PUSH0 KECCAK256 DUP2 SWAP1 SSTORE POP PUSH32 0xD5B509E657D5EC37AE4BDCAB658B7340C0453BB630516D26623359A34C1CECF3 DUP7 DUP7 DUP4 PUSH1 0x40 MLOAD PUSH2 0x5F6 SWAP4 SWAP3 SWAP2 SWAP1 PUSH2 0x1163 JUMP JUMPDEST PUSH1 0x40 MLOAD DUP1 SWAP2 SUB SWAP1 LOG1 PUSH4 0x150B7A02 PUSH1 0xE0 SHL SWAP2 POP POP SWAP6 SWAP5 POP POP POP POP POP JUMP JUMPDEST PUSH1 0x2 PUSH1 0x20 MSTORE DUP1 PUSH0 MSTORE PUSH1 0x40 PUSH0 KECCAK256 PUSH0 SWAP2 POP SWAP1 POP DUP1 PUSH0 ADD PUSH0 SWAP1 SLOAD SWAP1 PUSH2 0x100 EXP SWAP1 DIV PUSH20 0xFFFFFFFFFFFFFFFFFFFFFFFFFFFFFFFFFFFFFFFF AND SWAP1 DUP1 PUSH1 0x1 ADD SLOAD SWAP1 DUP1 PUSH1 0x2 ADD SLOAD SWAP1 POP DUP4 JUMP JUMPDEST PUSH0 PUSH1 0x2 PUSH0 DUP4 DUP2 MSTORE PUSH1 0x20 ADD SWAP1 DUP2 MSTORE PUSH1 0x20 ADD PUSH0 KECCAK256 PUSH0 ADD PUSH0 SWAP1 SLOAD SWAP1 PUSH2 0x100 EXP SWAP1 DIV PUSH20 0xFFFFFFFFFFFFFFFFFFFFFFFFFFFFFFFFFFFFFFFF AND SWAP1 POP CALLER PUSH20 0xFFFFFFFFFFFFFFFFFFFFFFFFFFFFFFFFFFFFFFFF AND DUP2 PUSH20 0xFFFFFFFFFFFFFFFFFFFFFFFFFFFFFFFFFFFFFFFF AND EQ PUSH2 0x6FB JUMPI PUSH1 0x40 MLOAD PUSH32 0x8C379A000000000000000000000000000000000000000000000000000000000 DUP2 MSTORE PUSH1 0x4 ADD PUSH2 0x6F2 SWAP1 PUSH2 0x165F JUMP JUMPDEST PUSH1 0x40 MLOAD DUP1 SWAP2 SUB SWAP1 REVERT JUMPDEST PUSH1 0x1 PUSH0 SWAP1 SLOAD SWAP1 PUSH2 0x100 EXP SWAP1 DIV PUSH20 0xFFFFFFFFFFFFFFFFFFFFFFFFFFFFFFFFFFFFFFFF AND PUSH20 0xFFFFFFFFFFFFFFFFFFFFFFFFFFFFFFFFFFFFFFFF AND PUSH4 0x42842E0E ADDRESS DUP4 DUP6 PUSH1 0x40 MLOAD DUP5 PUSH4 0xFFFFFFFF AND PUSH1 0xE0 SHL DUP2 MSTORE PUSH1 0x4 ADD PUSH2 0x759 SWAP4 SWAP3 SWAP2 SWAP1 PUSH2 0x167D JUMP JUMPDEST PUSH0 PUSH1 0x40 MLOAD DUP1 DUP4 SUB DUP2 PUSH0 DUP8 DUP1 EXTCODESIZE ISZERO DUP1 ISZERO PUSH2 0x770 JUMPI PUSH0 DUP1 REVERT JUMPDEST POP GAS CALL ISZERO DUP1 ISZERO PUSH2 0x782 JUMPI RETURNDATASIZE PUSH0 DUP1 RETURNDATACOPY RETURNDATASIZE PUSH0 REVERT JUMPDEST POP POP POP POP PUSH2 0x78F DUP3 PUSH2 0xD7D JUMP JUMPDEST PUSH32 0xDD003742FB214507783CE004FE55F5AC14F89C6DE4A7CD7487E47EB091C62265 DUP2 DUP4 PUSH1 0x40 MLOAD PUSH2 0x7C0 SWAP3 SWAP2 SWAP1 PUSH2 0x16B2 JUMP JUMPDEST PUSH1 0x40 MLOAD DUP1 SWAP2 SUB SWAP1 LOG1 POP POP JUMP JUMPDEST PUSH0 DUP1 SLOAD SWAP1 PUSH2 0x100 EXP SWAP1 DIV PUSH20 0xFFFFFFFFFFFFFFFFFFFFFFFFFFFFFFFFFFFFFFFF AND DUP2 JUMP JUMPDEST PUSH1 0x3 DUP2 DUP2 SLOAD DUP2 LT PUSH2 0x7FE JUMPI PUSH0 DUP1 REVERT JUMPDEST SWAP1 PUSH0 MSTORE PUSH1 0x20 PUSH0 KECCAK256 SWAP1 PUSH1 0x3 MUL ADD PUSH0 SWAP2 POP SWAP1 POP DUP1 PUSH0 ADD PUSH0 SWAP1 SLOAD SWAP1 PUSH2 0x100 EXP SWAP1 DIV PUSH20 0xFFFFFFFFFFFFFFFFFFFFFFFFFFFFFFFFFFFFFFFF AND SWAP1 DUP1 PUSH1 0x1 ADD SLOAD SWAP1 DUP1 PUSH1 0x2 ADD SLOAD SWAP1 POP DUP4 JUMP JUMPDEST PUSH0 PUSH1 0x2 PUSH0 DUP5 DUP2 MSTORE PUSH1 0x20 ADD SWAP1 DUP2 MSTORE PUSH1 0x20 ADD PUSH0 KECCAK256 PUSH0 ADD PUSH0 SWAP1 SLOAD SWAP1 PUSH2 0x100 EXP SWAP1 DIV PUSH20 0xFFFFFFFFFFFFFFFFFFFFFFFFFFFFFFFFFFFFFFFF AND SWAP1 POP CALLER PUSH20 0xFFFFFFFFFFFFFFFFFFFFFFFFFFFFFFFFFFFFFFFF AND DUP2 PUSH20 0xFFFFFFFFFFFFFFFFFFFFFFFFFFFFFFFFFFFFFFFF AND EQ PUSH2 0x8E7 JUMPI PUSH1 0x40 MLOAD PUSH32 0x8C379A000000000000000000000000000000000000000000000000000000000 DUP2 MSTORE PUSH1 0x4 ADD PUSH2 0x8DE SWAP1 PUSH2 0x165F JUMP JUMPDEST PUSH1 0x40 MLOAD DUP1 SWAP2 SUB SWAP1 REVERT JUMPDEST PUSH0 DUP3 GT PUSH2 0x929 JUMPI PUSH1 0x40 MLOAD PUSH32 0x8C379A000000000000000000000000000000000000000000000000000000000 DUP2 MSTORE PUSH1 0x4 ADD PUSH2 0x920 SWAP1 PUSH2 0x1597 JUMP JUMPDEST PUSH1 0x40 MLOAD DUP1 SWAP2 SUB SWAP1 REVERT JUMPDEST PUSH0 PUSH1 0x2 PUSH0 DUP6 DUP2 MSTORE PUSH1 0x20 ADD SWAP1 DUP2 MSTORE PUSH1 0x20 ADD PUSH0 KECCAK256 PUSH1 0x2 ADD SLOAD SWAP1 POP DUP3 PUSH1 0x2 PUSH0 DUP7 DUP2 MSTORE PUSH1 0x20 ADD SWAP1 DUP2 MSTORE PUSH1 0x20 ADD PUSH0 KECCAK256 PUSH1 0x2 ADD DUP2 SWAP1 SSTORE POP PUSH0 PUSH1 0x3 PUSH1 0x4 PUSH0 DUP8 DUP2 MSTORE PUSH1 0x20 ADD SWAP1 DUP2 MSTORE PUSH1 0x20 ADD PUSH0 KECCAK256 SLOAD DUP2 SLOAD DUP2 LT PUSH2 0x980 JUMPI PUSH2 0x97F PUSH2 0x16D9 JUMP JUMPDEST JUMPDEST SWAP1 PUSH0 MSTORE PUSH1 0x20 PUSH0 KECCAK256 SWAP1 PUSH1 0x3 MUL ADD SWAP1 POP DUP4 DUP2 PUSH1 0x2 ADD DUP2 SWAP1 SSTORE POP PUSH32 0xDAC6AECD066304D15A41E8E590FC5AB5BF93634F43CBA363F743D5E158D79988 DUP4 DUP7 DUP5 DUP8 PUSH1 0x40 MLOAD PUSH2 0x9CC SWAP5 SWAP4 SWAP3 SWAP2 SWAP1 PUSH2 0x1706 JUMP JUMPDEST PUSH1 0x40 MLOAD DUP1 SWAP2 SUB SWAP1 LOG1 POP POP POP POP POP JUMP JUMPDEST PUSH0 DUP2 PUSH1 0x20 DUP4 PUSH2 0x9EA SWAP2 SWAP1 PUSH2 0x1749 JUMP JUMPDEST LT ISZERO PUSH2 0xA2B JUMPI PUSH1 0x40 MLOAD PUSH32 0x8C379A000000000000000000000000000000000000000000000000000000000 DUP2 MSTORE PUSH1 0x4 ADD PUSH2 0xA22 SWAP1 PUSH2 0x17C6 JUMP JUMPDEST PUSH1 0x40 MLOAD DUP1 SWAP2 SUB SWAP1 REVERT JUMPDEST PUSH1 0x20 DUP3 PUSH2 0xA38 SWAP2 SWAP1 PUSH2 0x1749 JUMP JUMPDEST DUP4 MLOAD LT ISZERO PUSH2 0xA7B JUMPI PUSH1 0x40 MLOAD PUSH32 0x8C379A000000000000000000000000000000000000000000000000000000000 DUP2 MSTORE PUSH1 0x4 ADD PUSH2 0xA72 SWAP1 PUSH2 0x182E JUMP JUMPDEST PUSH1 0x40 MLOAD DUP1 SWAP2 SUB SWAP1 REVERT JUMPDEST PUSH0 DUP3 PUSH1 0x20 DUP6 ADD ADD MLOAD SWAP1 POP DUP1 SWAP2 POP POP SWAP3 SWAP2 POP POP JUMP JUMPDEST PUSH1 0x1 PUSH0 SWAP1 SLOAD SWAP1 PUSH2 0x100 EXP SWAP1 DIV PUSH20 0xFFFFFFFFFFFFFFFFFFFFFFFFFFFFFFFFFFFFFFFF AND DUP2 JUMP JUMPDEST PUSH0 PUSH1 0x2 PUSH0 DUP4 DUP2 MSTORE PUSH1 0x20 ADD SWAP1 DUP2 MSTORE PUSH1 0x20 ADD PUSH0 KECCAK256 PUSH0 ADD PUSH0 SWAP1 SLOAD SWAP1 PUSH2 0x100 EXP SWAP1 DIV PUSH20 0xFFFFFFFFFFFFFFFFFFFFFFFFFFFFFFFFFFFFFFFF AND SWAP1 POP PUSH0 CALLER SWAP1 POP PUSH0 PUSH1 0x2 PUSH0 DUP6 DUP2 MSTORE PUSH1 0x20 ADD SWAP1 DUP2 MSTORE PUSH1 0x20 ADD PUSH0 KECCAK256 PUSH1 0x2 ADD SLOAD SWAP1 POP DUP2 PUSH20 0xFFFFFFFFFFFFFFFFFFFFFFFFFFFFFFFFFFFFFFFF AND DUP4 PUSH20 0xFFFFFFFFFFFFFFFFFFFFFFFFFFFFFFFFFFFFFFFF AND SUB PUSH2 0xB74 JUMPI PUSH1 0x40 MLOAD PUSH32 0x8C379A000000000000000000000000000000000000000000000000000000000 DUP2 MSTORE PUSH1 0x4 ADD PUSH2 0xB6B SWAP1 PUSH2 0x1896 JUMP JUMPDEST PUSH1 0x40 MLOAD DUP1 SWAP2 SUB SWAP1 REVERT JUMPDEST PUSH0 DUP2 GT PUSH2 0xBB6 JUMPI PUSH1 0x40 MLOAD PUSH32 0x8C379A000000000000000000000000000000000000000000000000000000000 DUP2 MSTORE PUSH1 0x4 ADD PUSH2 0xBAD SWAP1 PUSH2 0x1597 JUMP JUMPDEST PUSH1 0x40 MLOAD DUP1 SWAP2 SUB SWAP1 REVERT JUMPDEST PUSH0 DUP1 SLOAD SWAP1 PUSH2 0x100 EXP SWAP1 DIV PUSH20 0xFFFFFFFFFFFFFFFFFFFFFFFFFFFFFFFFFFFFFFFF AND PUSH20 0xFFFFFFFFFFFFFFFFFFFFFFFFFFFFFFFFFFFFFFFF AND PUSH4 0x23B872DD DUP4 DUP6 DUP5 PUSH1 0x40 MLOAD DUP5 PUSH4 0xFFFFFFFF AND PUSH1 0xE0 SHL DUP2 MSTORE PUSH1 0x4 ADD PUSH2 0xC12 SWAP4 SWAP3 SWAP2 SWAP1 PUSH2 0x167D JUMP JUMPDEST PUSH1 0x20 PUSH1 0x40 MLOAD DUP1 DUP4 SUB DUP2 PUSH0 DUP8 GAS CALL ISZERO DUP1 ISZERO PUSH2 0xC2E JUMPI RETURNDATASIZE PUSH0 DUP1 RETURNDATACOPY RETURNDATASIZE PUSH0 REVERT JUMPDEST POP POP POP POP PUSH1 0x40 MLOAD RETURNDATASIZE PUSH1 0x1F NOT PUSH1 0x1F DUP3 ADD AND DUP3 ADD DUP1 PUSH1 0x40 MSTORE POP DUP2 ADD SWAP1 PUSH2 0xC52 SWAP2 SWAP1 PUSH2 0x18E9 JUMP JUMPDEST PUSH2 0xC91 JUMPI PUSH1 0x40 MLOAD PUSH32 0x8C379A000000000000000000000000000000000000000000000000000000000 DUP2 MSTORE PUSH1 0x4 ADD PUSH2 0xC88 SWAP1 PUSH2 0x195E JUMP JUMPDEST PUSH1 0x40 MLOAD DUP1 SWAP2 SUB SWAP1 REVERT JUMPDEST PUSH1 0x1 PUSH0 SWAP1 SLOAD SWAP1 PUSH2 0x100 EXP SWAP1 DIV PUSH20 0xFFFFFFFFFFFFFFFFFFFFFFFFFFFFFFFFFFFFFFFF AND PUSH20 0xFFFFFFFFFFFFFFFFFFFFFFFFFFFFFFFFFFFFFFFF AND PUSH4 0x42842E0E ADDRESS DUP5 DUP8 PUSH1 0x40 MLOAD DUP5 PUSH4 0xFFFFFFFF AND PUSH1 0xE0 SHL DUP2 MSTORE PUSH1 0x4 ADD PUSH2 0xCEF SWAP4 SWAP3 SWAP2 SWAP1 PUSH2 0x167D JUMP JUMPDEST PUSH0 PUSH1 0x40 MLOAD DUP1 DUP4 SUB DUP2 PUSH0 DUP8 DUP1 EXTCODESIZE ISZERO DUP1 ISZERO PUSH2 0xD06 JUMPI PUSH0 DUP1 REVERT JUMPDEST POP GAS CALL ISZERO DUP1 ISZERO PUSH2 0xD18 JUMPI RETURNDATASIZE PUSH0 DUP1 RETURNDATACOPY RETURNDATASIZE PUSH0 REVERT JUMPDEST POP POP POP POP PUSH2 0xD25 DUP5 PUSH2 0xD7D JUMP JUMPDEST PUSH32 0x424D5E5F0192C7DACDBE646CA31B00299146D883D76A95EF5CDDBAC7CD342EAB DUP4 DUP4 DUP7 DUP5 PUSH1 0x40 MLOAD PUSH2 0xD5A SWAP5 SWAP4 SWAP3 SWAP2 SWAP1 PUSH2 0x197C JUMP JUMPDEST PUSH1 0x40 MLOAD DUP1 SWAP2 SUB SWAP1 LOG1 POP POP POP POP JUMP JUMPDEST PUSH1 0x4 PUSH1 0x20 MSTORE DUP1 PUSH0 MSTORE PUSH1 0x40 PUSH0 KECCAK256 PUSH0 SWAP2 POP SWAP1 POP SLOAD DUP2 JUMP JUMPDEST PUSH0 PUSH1 0x4 PUSH0 DUP4 DUP2 MSTORE PUSH1 0x20 ADD SWAP1 DUP2 MSTORE PUSH1 0x20 ADD PUSH0 KECCAK256 SLOAD SWAP1 POP PUSH0 PUSH1 0x1 PUSH1 0x3 DUP1 SLOAD SWAP1 POP PUSH2 0xDA5 SWAP2 SWAP1 PUSH2 0x15E2 JUMP JUMPDEST SWAP1 POP DUP1 DUP3 EQ PUSH2 0xE88 JUMPI PUSH0 PUSH1 0x3 DUP3 DUP2 SLOAD DUP2 LT PUSH2 0xDC3 JUMPI PUSH2 0xDC2 PUSH2 0x16D9 JUMP JUMPDEST JUMPDEST SWAP1 PUSH0 MSTORE PUSH1 0x20 PUSH0 KECCAK256 SWAP1 PUSH1 0x3 MUL ADD SWAP1 POP DUP3 PUSH1 0x4 PUSH0 DUP4 PUSH1 0x1 ADD SLOAD DUP2 MSTORE PUSH1 0x20 ADD SWAP1 DUP2 MSTORE PUSH1 0x20 ADD PUSH0 KECCAK256 DUP2 SWAP1 SSTORE POP DUP1 PUSH1 0x3 DUP5 DUP2 SLOAD DUP2 LT PUSH2 0xE00 JUMPI PUSH2 0xDFF PUSH2 0x16D9 JUMP JUMPDEST JUMPDEST SWAP1 PUSH0 MSTORE PUSH1 0x20 PUSH0 KECCAK256 SWAP1 PUSH1 0x3 MUL ADD PUSH0 DUP3 ADD PUSH0 SWAP1 SLOAD SWAP1 PUSH2 0x100 EXP SWAP1 DIV PUSH20 0xFFFFFFFFFFFFFFFFFFFFFFFFFFFFFFFFFFFFFFFF AND DUP2 PUSH0 ADD PUSH0 PUSH2 0x100 EXP DUP2 SLOAD DUP2 PUSH20 0xFFFFFFFFFFFFFFFFFFFFFFFFFFFFFFFFFFFFFFFF MUL NOT AND SWAP1 DUP4 PUSH20 0xFFFFFFFFFFFFFFFFFFFFFFFFFFFFFFFFFFFFFFFF AND MUL OR SWAP1 SSTORE POP PUSH1 0x1 DUP3 ADD SLOAD DUP2 PUSH1 0x1 ADD SSTORE PUSH1 0x2 DUP3 ADD SLOAD DUP2 PUSH1 0x2 ADD SSTORE SWAP1 POP POP POP JUMPDEST PUSH1 0x3 DUP1 SLOAD DUP1 PUSH2 0xE9A JUMPI PUSH2 0xE99 PUSH2 0x19BF JUMP JUMPDEST JUMPDEST PUSH1 0x1 SWAP1 SUB DUP2 DUP2 SWAP1 PUSH0 MSTORE PUSH1 0x20 PUSH0 KECCAK256 SWAP1 PUSH1 0x3 MUL ADD PUSH0 DUP1 DUP3 ADD PUSH0 PUSH2 0x100 EXP DUP2 SLOAD SWAP1 PUSH20 0xFFFFFFFFFFFFFFFFFFFFFFFFFFFFFFFFFFFFFFFF MUL NOT AND SWAP1 SSTORE PUSH1 0x1 DUP3 ADD PUSH0 SWAP1 SSTORE PUSH1 0x2 DUP3 ADD PUSH0 SWAP1 SSTORE POP POP SWAP1 SSTORE PUSH1 0x2 PUSH0 DUP5 DUP2 MSTORE PUSH1 0x20 ADD SWAP1 DUP2 MSTORE PUSH1 0x20 ADD PUSH0 KECCAK256 PUSH0 DUP1 DUP3 ADD PUSH0 PUSH2 0x100 EXP DUP2 SLOAD SWAP1 PUSH20 0xFFFFFFFFFFFFFFFFFFFFFFFFFFFFFFFFFFFFFFFF MUL NOT AND SWAP1 SSTORE PUSH1 0x1 DUP3 ADD PUSH0 SWAP1 SSTORE PUSH1 0x2 DUP3 ADD PUSH0 SWAP1 SSTORE POP POP PUSH1 0x4 PUSH0 DUP5 DUP2 MSTORE PUSH1 0x20 ADD SWAP1 DUP2 MSTORE PUSH1 0x20 ADD PUSH0 KECCAK256 PUSH0 SWAP1 SSTORE POP POP POP JUMP JUMPDEST PUSH0 PUSH1 0x40 MLOAD SWAP1 POP SWAP1 JUMP JUMPDEST PUSH0 DUP1 REVERT JUMPDEST PUSH0 DUP1 REVERT JUMPDEST PUSH0 PUSH20 0xFFFFFFFFFFFFFFFFFFFFFFFFFFFFFFFFFFFFFFFF DUP3 AND SWAP1 POP SWAP2 SWAP1 POP JUMP JUMPDEST PUSH0 PUSH2 0xF7E DUP3 PUSH2 0xF55 JUMP JUMPDEST SWAP1 POP SWAP2 SWAP1 POP JUMP JUMPDEST PUSH2 0xF8E DUP2 PUSH2 0xF74 JUMP JUMPDEST DUP2 EQ PUSH2 0xF98 JUMPI PUSH0 DUP1 REVERT JUMPDEST POP JUMP JUMPDEST PUSH0 DUP2 CALLDATALOAD SWAP1 POP PUSH2 0xFA9 DUP2 PUSH2 0xF85 JUMP JUMPDEST SWAP3 SWAP2 POP POP JUMP JUMPDEST PUSH0 DUP2 SWAP1 POP SWAP2 SWAP1 POP JUMP JUMPDEST PUSH2 0xFC1 DUP2 PUSH2 0xFAF JUMP JUMPDEST DUP2 EQ PUSH2 0xFCB JUMPI PUSH0 DUP1 REVERT JUMPDEST POP JUMP JUMPDEST PUSH0 DUP2 CALLDATALOAD SWAP1 POP PUSH2 0xFDC DUP2 PUSH2 0xFB8 JUMP JUMPDEST SWAP3 SWAP2 POP POP JUMP JUMPDEST PUSH0 DUP1 REVERT JUMPDEST PUSH0 DUP1 REVERT JUMPDEST PUSH0 DUP1 REVERT JUMPDEST PUSH0 DUP1 DUP4 PUSH1 0x1F DUP5 ADD SLT PUSH2 0x1003 JUMPI PUSH2 0x1002 PUSH2 0xFE2 JUMP JUMPDEST JUMPDEST DUP3 CALLDATALOAD SWAP1 POP PUSH8 0xFFFFFFFFFFFFFFFF DUP2 GT ISZERO PUSH2 0x1020 JUMPI PUSH2 0x101F PUSH2 0xFE6 JUMP JUMPDEST JUMPDEST PUSH1 0x20 DUP4 ADD SWAP2 POP DUP4 PUSH1 0x1 DUP3 MUL DUP4 ADD GT ISZERO PUSH2 0x103C JUMPI PUSH2 0x103B PUSH2 0xFEA JUMP JUMPDEST JUMPDEST SWAP3 POP SWAP3 SWAP1 POP JUMP JUMPDEST PUSH0 DUP1 PUSH0 DUP1 PUSH0 PUSH1 0x80 DUP7 DUP9 SUB SLT ISZERO PUSH2 0x105C JUMPI PUSH2 0x105B PUSH2 0xF4D JUMP JUMPDEST JUMPDEST PUSH0 PUSH2 0x1069 DUP9 DUP3 DUP10 ADD PUSH2 0xF9B JUMP JUMPDEST SWAP6 POP POP PUSH1 0x20 PUSH2 0x107A DUP9 DUP3 DUP10 ADD PUSH2 0xF9B JUMP JUMPDEST SWAP5 POP POP PUSH1 0x40 PUSH2 0x108B DUP9 DUP3 DUP10 ADD PUSH2 0xFCE JUMP JUMPDEST SWAP4 POP POP PUSH1 0x60 DUP7 ADD CALLDATALOAD PUSH8 0xFFFFFFFFFFFFFFFF DUP2 GT ISZERO PUSH2 0x10AC JUMPI PUSH2 0x10AB PUSH2 0xF51 JUMP JUMPDEST JUMPDEST PUSH2 0x10B8 DUP9 DUP3 DUP10 ADD PUSH2 0xFEE JUMP JUMPDEST SWAP3 POP SWAP3 POP POP SWAP3 SWAP6 POP SWAP3 SWAP6 SWAP1 SWAP4 POP JUMP JUMPDEST PUSH0 PUSH32 0xFFFFFFFF00000000000000000000000000000000000000000000000000000000 DUP3 AND SWAP1 POP SWAP2 SWAP1 POP JUMP JUMPDEST PUSH2 0x10FB DUP2 PUSH2 0x10C7 JUMP JUMPDEST DUP3 MSTORE POP POP JUMP JUMPDEST PUSH0 PUSH1 0x20 DUP3 ADD SWAP1 POP PUSH2 0x1114 PUSH0 DUP4 ADD DUP5 PUSH2 0x10F2 JUMP JUMPDEST SWAP3 SWAP2 POP POP JUMP JUMPDEST PUSH0 PUSH1 0x20 DUP3 DUP5 SUB SLT ISZERO PUSH2 0x112F JUMPI PUSH2 0x112E PUSH2 0xF4D JUMP JUMPDEST JUMPDEST PUSH0 PUSH2 0x113C DUP5 DUP3 DUP6 ADD PUSH2 0xFCE JUMP JUMPDEST SWAP2 POP POP SWAP3 SWAP2 POP POP JUMP JUMPDEST PUSH2 0x114E DUP2 PUSH2 0xF74 JUMP JUMPDEST DUP3 MSTORE POP POP JUMP JUMPDEST PUSH2 0x115D DUP2 PUSH2 0xFAF JUMP JUMPDEST DUP3 MSTORE POP POP JUMP JUMPDEST PUSH0 PUSH1 0x60 DUP3 ADD SWAP1 POP PUSH2 0x1176 PUSH0 DUP4 ADD DUP7 PUSH2 0x1145 JUMP JUMPDEST PUSH2 0x1183 PUSH1 0x20 DUP4 ADD DUP6 PUSH2 0x1154 JUMP JUMPDEST PUSH2 0x1190 PUSH1 0x40 DUP4 ADD DUP5 PUSH2 0x1154 JUMP JUMPDEST SWAP5 SWAP4 POP POP POP POP JUMP JUMPDEST PUSH0 DUP2 SWAP1 POP SWAP2 SWAP1 POP JUMP JUMPDEST PUSH0 PUSH2 0x11BB PUSH2 0x11B6 PUSH2 0x11B1 DUP5 PUSH2 0xF55 JUMP JUMPDEST PUSH2 0x1198 JUMP JUMPDEST PUSH2 0xF55 JUMP JUMPDEST SWAP1 POP SWAP2 SWAP1 POP JUMP JUMPDEST PUSH0 PUSH2 0x11CC DUP3 PUSH2 0x11A1 JUMP JUMPDEST SWAP1 POP SWAP2 SWAP1 POP JUMP JUMPDEST PUSH0 PUSH2 0x11DD DUP3 PUSH2 0x11C2 JUMP JUMPDEST SWAP1 POP SWAP2 SWAP1 POP JUMP JUMPDEST PUSH2 0x11ED DUP2 PUSH2 0x11D3 JUMP JUMPDEST DUP3 MSTORE POP POP JUMP JUMPDEST PUSH0 PUSH1 0x20 DUP3 ADD SWAP1 POP PUSH2 0x1206 PUSH0 DUP4 ADD DUP5 PUSH2 0x11E4 JUMP JUMPDEST SWAP3 SWAP2 POP POP JUMP JUMPDEST PUSH0 DUP1 PUSH1 0x40 DUP4 DUP6 SUB SLT ISZERO PUSH2 0x1222 JUMPI PUSH2 0x1221 PUSH2 0xF4D JUMP JUMPDEST JUMPDEST PUSH0 PUSH2 0x122F DUP6 DUP3 DUP7 ADD PUSH2 0xFCE JUMP JUMPDEST SWAP3 POP POP PUSH1 0x20 PUSH2 0x1240 DUP6 DUP3 DUP7 ADD PUSH2 0xFCE JUMP JUMPDEST SWAP2 POP POP SWAP3 POP SWAP3 SWAP1 POP JUMP JUMPDEST PUSH0 DUP1 REVERT JUMPDEST PUSH0 PUSH1 0x1F NOT PUSH1 0x1F DUP4 ADD AND SWAP1 POP SWAP2 SWAP1 POP JUMP JUMPDEST PUSH32 0x4E487B7100000000000000000000000000000000000000000000000000000000 PUSH0 MSTORE PUSH1 0x41 PUSH1 0x4 MSTORE PUSH1 0x24 PUSH0 REVERT JUMPDEST PUSH2 0x1294 DUP3 PUSH2 0x124E JUMP JUMPDEST DUP2 ADD DUP2 DUP2 LT PUSH8 0xFFFFFFFFFFFFFFFF DUP3 GT OR ISZERO PUSH2 0x12B3 JUMPI PUSH2 0x12B2 PUSH2 0x125E JUMP JUMPDEST JUMPDEST DUP1 PUSH1 0x40 MSTORE POP POP POP JUMP JUMPDEST PUSH0 PUSH2 0x12C5 PUSH2 0xF44 JUMP JUMPDEST SWAP1 POP PUSH2 0x12D1 DUP3 DUP3 PUSH2 0x128B JUMP JUMPDEST SWAP2 SWAP1 POP JUMP JUMPDEST PUSH0 PUSH8 0xFFFFFFFFFFFFFFFF DUP3 GT ISZERO PUSH2 0x12F0 JUMPI PUSH2 0x12EF PUSH2 0x125E JUMP JUMPDEST JUMPDEST PUSH2 0x12F9 DUP3 PUSH2 0x124E JUMP JUMPDEST SWAP1 POP PUSH1 0x20 DUP2 ADD SWAP1 POP SWAP2 SWAP1 POP JUMP JUMPDEST DUP3 DUP2 DUP4 CALLDATACOPY PUSH0 DUP4 DUP4 ADD MSTORE POP POP POP JUMP JUMPDEST PUSH0 PUSH2 0x1326 PUSH2 0x1321 DUP5 PUSH2 0x12D6 JUMP JUMPDEST PUSH2 0x12BC JUMP JUMPDEST SWAP1 POP DUP3 DUP2 MSTORE PUSH1 0x20 DUP2 ADD DUP5 DUP5 DUP5 ADD GT ISZERO PUSH2 0x1342 JUMPI PUSH2 0x1341 PUSH2 0x124A JUMP JUMPDEST JUMPDEST PUSH2 0x134D DUP5 DUP3 DUP6 PUSH2 0x1306 JUMP JUMPDEST POP SWAP4 SWAP3 POP POP POP JUMP JUMPDEST PUSH0 DUP3 PUSH1 0x1F DUP4 ADD SLT PUSH2 0x1369 JUMPI PUSH2 0x1368 PUSH2 0xFE2 JUMP JUMPDEST JUMPDEST DUP2 CALLDATALOAD PUSH2 0x1379 DUP5 DUP3 PUSH1 0x20 DUP7 ADD PUSH2 0x1314 JUMP JUMPDEST SWAP2 POP POP SWAP3 SWAP2 POP POP JUMP JUMPDEST PUSH0 DUP1 PUSH1 0x40 DUP4 DUP6 SUB SLT ISZERO PUSH2 0x1398 JUMPI PUSH2 0x1397 PUSH2 0xF4D JUMP JUMPDEST JUMPDEST PUSH0 DUP4 ADD CALLDATALOAD PUSH8 0xFFFFFFFFFFFFFFFF DUP2 GT ISZERO PUSH2 0x13B5 JUMPI PUSH2 0x13B4 PUSH2 0xF51 JUMP JUMPDEST JUMPDEST PUSH2 0x13C1 DUP6 DUP3 DUP7 ADD PUSH2 0x1355 JUMP JUMPDEST SWAP3 POP POP PUSH1 0x20 PUSH2 0x13D2 DUP6 DUP3 DUP7 ADD PUSH2 0xFCE JUMP JUMPDEST SWAP2 POP POP SWAP3 POP SWAP3 SWAP1 POP JUMP JUMPDEST PUSH0 PUSH1 0x20 DUP3 ADD SWAP1 POP PUSH2 0x13EF PUSH0 DUP4 ADD DUP5 PUSH2 0x1154 JUMP JUMPDEST SWAP3 SWAP2 POP POP JUMP JUMPDEST PUSH0 PUSH2 0x13FF DUP3 PUSH2 0x11C2 JUMP JUMPDEST SWAP1 POP SWAP2 SWAP1 POP JUMP JUMPDEST PUSH2 0x140F DUP2 PUSH2 0x13F5 JUMP JUMPDEST DUP3 MSTORE POP POP JUMP JUMPDEST PUSH0 PUSH1 0x20 DUP3 ADD SWAP1 POP PUSH2 0x1428 PUSH0 DUP4 ADD DUP5 PUSH2 0x1406 JUMP JUMPDEST SWAP3 SWAP2 POP POP JUMP JUMPDEST PUSH0 DUP3 DUP3 MSTORE PUSH1 0x20 DUP3 ADD SWAP1 POP SWAP3 SWAP2 POP POP JUMP JUMPDEST PUSH32 0x696E76616C69642073656E646572000000000000000000000000000000000000 PUSH0 DUP3 ADD MSTORE POP JUMP JUMPDEST PUSH0 PUSH2 0x1472 PUSH1 0xE DUP4 PUSH2 0x142E JUMP JUMPDEST SWAP2 POP PUSH2 0x147D DUP3 PUSH2 0x143E JUMP JUMPDEST PUSH1 0x20 DUP3 ADD SWAP1 POP SWAP2 SWAP1 POP JUMP JUMPDEST PUSH0 PUSH1 0x20 DUP3 ADD SWAP1 POP DUP2 DUP2 SUB PUSH0 DUP4 ADD MSTORE PUSH2 0x149F DUP2 PUSH2 0x1466 JUMP JUMPDEST SWAP1 POP SWAP2 SWAP1 POP JUMP JUMPDEST PUSH0 DUP2 MLOAD SWAP1 POP PUSH2 0x14B4 DUP2 PUSH2 0xF85 JUMP JUMPDEST SWAP3 SWAP2 POP POP JUMP JUMPDEST PUSH0 PUSH1 0x20 DUP3 DUP5 SUB SLT ISZERO PUSH2 0x14CF JUMPI PUSH2 0x14CE PUSH2 0xF4D JUMP JUMPDEST JUMPDEST PUSH0 PUSH2 0x14DC DUP5 DUP3 DUP6 ADD PUSH2 0x14A6 JUMP JUMPDEST SWAP2 POP POP SWAP3 SWAP2 POP POP JUMP JUMPDEST PUSH32 0x6E6F74206F776E6564206279207468697320636F6E7472616374000000000000 PUSH0 DUP3 ADD MSTORE POP JUMP JUMPDEST PUSH0 PUSH2 0x1519 PUSH1 0x1A DUP4 PUSH2 0x142E JUMP JUMPDEST SWAP2 POP PUSH2 0x1524 DUP3 PUSH2 0x14E5 JUMP JUMPDEST PUSH1 0x20 DUP3 ADD SWAP1 POP SWAP2 SWAP1 POP JUMP JUMPDEST PUSH0 PUSH1 0x20 DUP3 ADD SWAP1 POP DUP2 DUP2 SUB PUSH0 DUP4 ADD MSTORE PUSH2 0x1546 DUP2 PUSH2 0x150D JUMP JUMPDEST SWAP1 POP SWAP2 SWAP1 POP JUMP JUMPDEST PUSH32 0x7072696365206973207A65726F00000000000000000000000000000000000000 PUSH0 DUP3 ADD MSTORE POP JUMP JUMPDEST PUSH0 PUSH2 0x1581 PUSH1 0xD DUP4 PUSH2 0x142E JUMP JUMPDEST SWAP2 POP PUSH2 0x158C DUP3 PUSH2 0x154D JUMP JUMPDEST PUSH1 0x20 DUP3 ADD SWAP1 POP SWAP2 SWAP1 POP JUMP JUMPDEST PUSH0 PUSH1 0x20 DUP3 ADD SWAP1 POP DUP2 DUP2 SUB PUSH0 DUP4 ADD MSTORE PUSH2 0x15AE DUP2 PUSH2 0x1575 JUMP JUMPDEST SWAP1 POP SWAP2 SWAP1 POP JUMP JUMPDEST PUSH32 0x4E487B7100000000000000000000000000000000000000000000000000000000 PUSH0 MSTORE PUSH1 0x11 PUSH1 0x4 MSTORE PUSH1 0x24 PUSH0 REVERT JUMPDEST PUSH0 PUSH2 0x15EC DUP3 PUSH2 0xFAF JUMP JUMPDEST SWAP2 POP PUSH2 0x15F7 DUP4 PUSH2 0xFAF JUMP JUMPDEST SWAP3 POP DUP3 DUP3 SUB SWAP1 POP DUP2 DUP2 GT ISZERO PUSH2 0x160F JUMPI PUSH2 0x160E PUSH2 0x15B5 JUMP JUMPDEST JUMPDEST SWAP3 SWAP2 POP POP JUMP JUMPDEST PUSH32 0x6E6F74207468652073656C6C6572000000000000000000000000000000000000 PUSH0 DUP3 ADD MSTORE POP JUMP JUMPDEST PUSH0 PUSH2 0x1649 PUSH1 0xE DUP4 PUSH2 0x142E JUMP JUMPDEST SWAP2 POP PUSH2 0x1654 DUP3 PUSH2 0x1615 JUMP JUMPDEST PUSH1 0x20 DUP3 ADD SWAP1 POP SWAP2 SWAP1 POP JUMP JUMPDEST PUSH0 PUSH1 0x20 DUP3 ADD SWAP1 POP DUP2 DUP2 SUB PUSH0 DUP4 ADD MSTORE PUSH2 0x1676 DUP2 PUSH2 0x163D JUMP JUMPDEST SWAP1 POP SWAP2 SWAP1 POP JUMP JUMPDEST PUSH0 PUSH1 0x60 DUP3 ADD SWAP1 POP PUSH2 0x1690 PUSH0 DUP4 ADD DUP7 PUSH2 0x1145 JUMP JUMPDEST PUSH2 0x169D PUSH1 0x20 DUP4 ADD DUP6 PUSH2 0x1145 JUMP JUMPDEST PUSH2 0x16AA PUSH1 0x40 DUP4 ADD DUP5 PUSH2 0x1154 JUMP JUMPDEST SWAP5 SWAP4 POP POP POP POP JUMP JUMPDEST PUSH0 PUSH1 0x40 DUP3 ADD SWAP1 POP PUSH2 0x16C5 PUSH0 DUP4 ADD DUP6 PUSH2 0x1145 JUMP JUMPDEST PUSH2 0x16D2 PUSH1 0x20 DUP4 ADD DUP5 PUSH2 0x1154 JUMP JUMPDEST SWAP4 SWAP3 POP POP POP JUMP JUMPDEST PUSH32 0x4E487B7100000000000000000000000000000000000000000000000000000000 PUSH0 MSTORE PUSH1 0x32 PUSH1 0x4 MSTORE PUSH1 0x24 PUSH0 REVERT JUMPDEST PUSH0 PUSH1 0x80 DUP3 ADD SWAP1 POP PUSH2 0x1719 PUSH0 DUP4 ADD DUP8 PUSH2 0x1145 JUMP JUMPDEST PUSH2 0x1726 PUSH1 0x20 DUP4 ADD DUP7 PUSH2 0x1154 JUMP JUMPDEST PUSH2 0x1733 PUSH1 0x40 DUP4 ADD DUP6 PUSH2 0x1154 JUMP JUMPDEST PUSH2 0x1740 PUSH1 0x60 DUP4 ADD DUP5 PUSH2 0x1154 JUMP JUMPDEST SWAP6 SWAP5 POP POP POP POP POP JUMP JUMPDEST PUSH0 PUSH2 0x1753 DUP3 PUSH2 0xFAF JUMP JUMPDEST SWAP2 POP PUSH2 0x175E DUP4 PUSH2 0xFAF JUMP JUMPDEST SWAP3 POP DUP3 DUP3 ADD SWAP1 POP DUP1 DUP3 GT ISZERO PUSH2 0x1776 JUMPI PUSH2 0x1775 PUSH2 0x15B5 JUMP JUMPDEST JUMPDEST SWAP3 SWAP2 POP POP JUMP JUMPDEST PUSH32 0x4D61726B65743A20746F55696E743235365F6F766572666C6F77000000000000 PUSH0 DUP3 ADD MSTORE POP JUMP JUMPDEST PUSH0 PUSH2 0x17B0 PUSH1 0x1A DUP4 PUSH2 0x142E JUMP JUMPDEST SWAP2 POP PUSH2 0x17BB DUP3 PUSH2 0x177C JUMP JUMPDEST PUSH1 0x20 DUP3 ADD SWAP1 POP SWAP2 SWAP1 POP JUMP JUMPDEST PUSH0 PUSH1 0x20 DUP3 ADD SWAP1 POP DUP2 DUP2 SUB PUSH0 DUP4 ADD MSTORE PUSH2 0x17DD DUP2 PUSH2 0x17A4 JUMP JUMPDEST SWAP1 POP SWAP2 SWAP1 POP JUMP JUMPDEST PUSH32 0x4D61726B65743A20746F55696E743235365F6F75744F66426F756E6473000000 PUSH0 DUP3 ADD MSTORE POP JUMP JUMPDEST PUSH0 PUSH2 0x1818 PUSH1 0x1D DUP4 PUSH2 0x142E JUMP JUMPDEST SWAP2 POP PUSH2 0x1823 DUP3 PUSH2 0x17E4 JUMP JUMPDEST PUSH1 0x20 DUP3 ADD SWAP1 POP SWAP2 SWAP1 POP JUMP JUMPDEST PUSH0 PUSH1 0x20 DUP3 ADD SWAP1 POP DUP2 DUP2 SUB PUSH0 DUP4 ADD MSTORE PUSH2 0x1845 DUP2 PUSH2 0x180C JUMP JUMPDEST SWAP1 POP SWAP2 SWAP1 POP JUMP JUMPDEST PUSH32 0x73656C6C657220616E6420627579657220617265207468652073616D65000000 PUSH0 DUP3 ADD MSTORE POP JUMP JUMPDEST PUSH0 PUSH2 0x1880 PUSH1 0x1D DUP4 PUSH2 0x142E JUMP JUMPDEST SWAP2 POP PUSH2 0x188B DUP3 PUSH2 0x184C JUMP JUMPDEST PUSH1 0x20 DUP3 ADD SWAP1 POP SWAP2 SWAP1 POP JUMP JUMPDEST PUSH0 PUSH1 0x20 DUP3 ADD SWAP1 POP DUP2 DUP2 SUB PUSH0 DUP4 ADD MSTORE PUSH2 0x18AD DUP2 PUSH2 0x1874 JUMP JUMPDEST SWAP1 POP SWAP2 SWAP1 POP JUMP JUMPDEST PUSH0 DUP2 ISZERO ISZERO SWAP1 POP SWAP2 SWAP1 POP JUMP JUMPDEST PUSH2 0x18C8 DUP2 PUSH2 0x18B4 JUMP JUMPDEST DUP2 EQ PUSH2 0x18D2 JUMPI PUSH0 DUP1 REVERT JUMPDEST POP JUMP JUMPDEST PUSH0 DUP2 MLOAD SWAP1 POP PUSH2 0x18E3 DUP2 PUSH2 0x18BF JUMP JUMPDEST SWAP3 SWAP2 POP POP JUMP JUMPDEST PUSH0 PUSH1 0x20 DUP3 DUP5 SUB SLT ISZERO PUSH2 0x18FE JUMPI PUSH2 0x18FD PUSH2 0xF4D JUMP JUMPDEST JUMPDEST PUSH0 PUSH2 0x190B DUP5 DUP3 DUP6 ADD PUSH2 0x18D5 JUMP JUMPDEST SWAP2 POP POP SWAP3 SWAP2 POP POP JUMP JUMPDEST PUSH32 0x7472616E73666572206661696C65640000000000000000000000000000000000 PUSH0 DUP3 ADD MSTORE POP JUMP JUMPDEST PUSH0 PUSH2 0x1948 PUSH1 0xF DUP4 PUSH2 0x142E JUMP JUMPDEST SWAP2 POP PUSH2 0x1953 DUP3 PUSH2 0x1914 JUMP JUMPDEST PUSH1 0x20 DUP3 ADD SWAP1 POP SWAP2 SWAP1 POP JUMP JUMPDEST PUSH0 PUSH1 0x20 DUP3 ADD SWAP1 POP DUP2 DUP2 SUB PUSH0 DUP4 ADD MSTORE PUSH2 0x1975 DUP2 PUSH2 0x193C JUMP JUMPDEST SWAP1 POP SWAP2 SWAP1 POP JUMP JUMPDEST PUSH0 PUSH1 0x80 DUP3 ADD SWAP1 POP PUSH2 0x198F PUSH0 DUP4 ADD DUP8 PUSH2 0x1145 JUMP JUMPDEST PUSH2 0x199C PUSH1 0x20 DUP4 ADD DUP7 PUSH2 0x1145 JUMP JUMPDEST PUSH2 0x19A9 PUSH1 0x40 DUP4 ADD DUP6 PUSH2 0x1154 JUMP JUMPDEST PUSH2 0x19B6 PUSH1 0x60 DUP4 ADD DUP5 PUSH2 0x1154 JUMP JUMPDEST SWAP6 SWAP5 POP POP POP POP POP JUMP JUMPDEST PUSH32 0x4E487B7100000000000000000000000000000000000000000000000000000000 PUSH0 MSTORE PUSH1 0x31 PUSH1 0x4 MSTORE PUSH1 0x24 PUSH0 REVERT INVALID LOG2 PUSH5 0x6970667358 0x22 SLT KECCAK256 0xE1 0xBE 0xAD DUP2 SWAP5 SWAP14 EXTCODESIZE 0xDD DUP15 0x2F 0xE3 PUSH9 0xF515CFEB0AC71E963A 0xB8 0xBC 0xE1 EXTCODESIZE 0xD7 0x2C RETURN 0xDF 0xE4 PUSH8 0x6D64736F6C634300 ADDMOD AND STOP CALLER "
				},
				"gasEstimates": {
					"creation": {
						"codeDepositCost": "1338000",
						"executionCost": "infinite",
						"totalCost": "infinite"
					},
					"external": {
						"buy(uint256)": "infinite",
						"cancelOrder(uint256)": "infinite",
						"changePrice(uint256,uint256)": "infinite",
						"erc20()": "infinite",
						"erc721()": "infinite",
						"idToOrderIndex(uint256)": "infinite",
						"onERC721Received(address,address,uint256,bytes)": "infinite",
						"orderOfId(uint256)": "infinite",
						"orders(uint256)": "infinite",
						"toUint256(bytes,uint256)": "infinite"
					},
					"internal": {
						"removeOrder(uint256)": "infinite"
					}
				},
				"methodIdentifiers": {
					"buy(uint256)": "d96a094a",
					"cancelOrder(uint256)": "514fcac7",
					"changePrice(uint256,uint256)": "b3de019c",
					"erc20()": "785e9e86",
					"erc721()": "bca6ce64",
					"idToOrderIndex(uint256)": "da694df0",
					"onERC721Received(address,address,uint256,bytes)": "150b7a02",
					"orderOfId(uint256)": "394a9077",
					"orders(uint256)": "a85c38ef",
					"toUint256(bytes,uint256)": "b5cdf924"
				}
			},
			"storageLayout": {
				"storage": [
					{
						"astId": 221,
						"contract": "contracts/nft-market.sol:Market",
						"label": "erc20",
						"offset": 0,
						"slot": "0",
						"type": "t_contract(IERC20)85"
					},
					{
						"astId": 224,
						"contract": "contracts/nft-market.sol:Market",
						"label": "erc721",
						"offset": 0,
						"slot": "1",
						"type": "t_contract(IERC721)202"
					},
					{
						"astId": 239,
						"contract": "contracts/nft-market.sol:Market",
						"label": "orderOfId",
						"offset": 0,
						"slot": "2",
						"type": "t_mapping(t_uint256,t_struct(Order)234_storage)"
					},
					{
						"astId": 243,
						"contract": "contracts/nft-market.sol:Market",
						"label": "orders",
						"offset": 0,
						"slot": "3",
						"type": "t_array(t_struct(Order)234_storage)dyn_storage"
					},
					{
						"astId": 247,
						"contract": "contracts/nft-market.sol:Market",
						"label": "idToOrderIndex",
						"offset": 0,
						"slot": "4",
						"type": "t_mapping(t_uint256,t_uint256)"
					}
				],
				"types": {
					"t_address": {
						"encoding": "inplace",
						"label": "address",
						"numberOfBytes": "20"
					},
					"t_array(t_struct(Order)234_storage)dyn_storage": {
						"base": "t_struct(Order)234_storage",
						"encoding": "dynamic_array",
						"label": "struct Market.Order[]",
						"numberOfBytes": "32"
					},
					"t_contract(IERC20)85": {
						"encoding": "inplace",
						"label": "contract IERC20",
						"numberOfBytes": "20"
					},
					"t_contract(IERC721)202": {
						"encoding": "inplace",
						"label": "contract IERC721",
						"numberOfBytes": "20"
					},
					"t_mapping(t_uint256,t_struct(Order)234_storage)": {
						"encoding": "mapping",
						"key": "t_uint256",
						"label": "mapping(uint256 => struct Market.Order)",
						"numberOfBytes": "32",
						"value": "t_struct(Order)234_storage"
					},
					"t_mapping(t_uint256,t_uint256)": {
						"encoding": "mapping",
						"key": "t_uint256",
						"label": "mapping(uint256 => uint256)",
						"numberOfBytes": "32",
						"value": "t_uint256"
					},
					"t_struct(Order)234_storage": {
						"encoding": "inplace",
						"label": "struct Market.Order",
						"members": [
							{
								"astId": 229,
								"contract": "contracts/nft-market.sol:Market",
								"label": "seller",
								"offset": 0,
								"slot": "0",
								"type": "t_address"
							},
							{
								"astId": 231,
								"contract": "contracts/nft-market.sol:Market",
								"label": "tokenId",
								"offset": 0,
								"slot": "1",
								"type": "t_uint256"
							},
							{
								"astId": 233,
								"contract": "contracts/nft-market.sol:Market",
								"label": "price",
								"offset": 0,
								"slot": "2",
								"type": "t_uint256"
							}
						],
						"numberOfBytes": "96"
					},
					"t_uint256": {
						"encoding": "inplace",
						"label": "uint256",
						"numberOfBytes": "32"
					}
				}
			},
			"userdoc": {
				"kind": "user",
				"methods": {},
				"version": 1
			}
		}
	}
}