{
	"contracts/nft-market.sol": {
		"Market": {
			"abi": [
				{
					"inputs": [
						{
							"internalType": "address",
							"name": "_erc20",
							"type": "address"
						},
						{
							"internalType": "address",
							"name": "_erc721",
							"type": "address"
						}
					],
					"stateMutability": "nonpayable",
					"type": "constructor"
				},
				{
					"anonymous": false,
					"inputs": [
						{
							"indexed": false,
							"internalType": "address",
							"name": "seller",
							"type": "address"
						},
						{
							"indexed": false,
							"internalType": "address",
							"name": "buyer",
							"type": "address"
						},
						{
							"indexed": false,
							"internalType": "uint256",
							"name": "tokenId",
							"type": "uint256"
						},
						{
							"indexed": false,
							"internalType": "uint256",
							"name": "price",
							"type": "uint256"
						}
					],
					"name": "Deal",
					"type": "event"
				},
				{
					"anonymous": false,
					"inputs": [
						{
							"indexed": false,
							"internalType": "address",
							"name": "seller",
							"type": "address"
						},
						{
							"indexed": false,
							"internalType": "uint256",
							"name": "tokenId",
							"type": "uint256"
						},
						{
							"indexed": false,
							"internalType": "uint256",
							"name": "price",
							"type": "uint256"
						}
					],
					"name": "NewOrder",
					"type": "event"
				},
				{
					"anonymous": false,
					"inputs": [
						{
							"indexed": false,
							"internalType": "address",
							"name": "seller",
							"type": "address"
						},
						{
							"indexed": false,
							"internalType": "uint256",
							"name": "tokenId",
							"type": "uint256"
						}
					],
					"name": "OrderCancelled",
					"type": "event"
				},
				{
					"anonymous": false,
					"inputs": [
						{
							"indexed": false,
							"internalType": "address",
							"name": "seller",
							"type": "address"
						},
						{
							"indexed": false,
							"internalType": "uint256",
							"name": "tokenId",
							"type": "uint256"
						},
						{
							"indexed": false,
							"internalType": "uint256",
							"name": "previousPrice",
							"type": "uint256"
						},
						{
							"indexed": false,
							"internalType": "uint256",
							"name": "price",
							"type": "uint256"
						}
					],
					"name": "PriceChanged",
					"type": "event"
				},
				{
					"inputs": [
						{
							"internalType": "uint256",
							"name": "_tokenId",
							"type": "uint256"
						}
					],
					"name": "buy",
					"outputs": [],
					"stateMutability": "nonpayable",
					"type": "function"
				},
				{
					"inputs": [
						{
							"internalType": "uint256",
							"name": "_tokenId",
							"type": "uint256"
						}
					],
					"name": "cancelOrder",
					"outputs": [],
					"stateMutability": "nonpayable",
					"type": "function"
				},
				{
					"inputs": [
						{
							"internalType": "uint256",
							"name": "_tokenId",
							"type": "uint256"
						},
						{
							"internalType": "uint256",
							"name": "_price",
							"type": "uint256"
						}
					],
					"name": "changePrice",
					"outputs": [],
					"stateMutability": "nonpayable",
					"type": "function"
				},
				{
					"inputs": [],
					"name": "erc20",
					"outputs": [
						{
							"internalType": "contract IERC20",
							"name": "",
							"type": "address"
						}
					],
					"stateMutability": "view",
					"type": "function"
				},
				{
					"inputs": [],
					"name": "erc721",
					"outputs": [
						{
							"internalType": "contract IERC721",
							"name": "",
							"type": "address"
						}
					],
					"stateMutability": "view",
					"type": "function"
				},
				{
					"inputs": [],
					"name": "getAllNFTs",
					"outputs": [
						{
							"components": [
								{
									"internalType": "address",
									"name": "seller",
									"type": "address"
								},
								{
									"internalType": "uint256",
									"name": "tokenId",
									"type": "uint256"
								},
								{
									"internalType": "uint256",
									"name": "price",
									"type": "uint256"
								}
							],
							"internalType": "struct Market.Order[]",
							"name": "",
							"type": "tuple[]"
						}
					],
					"stateMutability": "view",
					"type": "function"
				},
				{
					"inputs": [],
					"name": "getMyNFTs",
					"outputs": [
						{
							"components": [
								{
									"internalType": "address",
									"name": "seller",
									"type": "address"
								},
								{
									"internalType": "uint256",
									"name": "tokenId",
									"type": "uint256"
								},
								{
									"internalType": "uint256",
									"name": "price",
									"type": "uint256"
								}
							],
							"internalType": "struct Market.Order[]",
							"name": "",
							"type": "tuple[]"
						}
					],
					"stateMutability": "view",
					"type": "function"
				},
				{
					"inputs": [],
					"name": "getOrderLength",
					"outputs": [
						{
							"internalType": "uint256",
							"name": "",
							"type": "uint256"
						}
					],
					"stateMutability": "view",
					"type": "function"
				},
				{
					"inputs": [
						{
							"internalType": "uint256",
							"name": "",
							"type": "uint256"
						}
					],
					"name": "idToOrderIndex",
					"outputs": [
						{
							"internalType": "uint256",
							"name": "",
							"type": "uint256"
						}
					],
					"stateMutability": "view",
					"type": "function"
				},
				{
					"inputs": [
						{
							"internalType": "uint256",
							"name": "_tokenId",
							"type": "uint256"
						}
					],
					"name": "isListed",
					"outputs": [
						{
							"internalType": "bool",
							"name": "",
							"type": "bool"
						}
					],
					"stateMutability": "view",
					"type": "function"
				},
				{
					"inputs": [
						{
							"internalType": "address",
							"name": "operator",
							"type": "address"
						},
						{
							"internalType": "address",
							"name": "from",
							"type": "address"
						},
						{
							"internalType": "uint256",
							"name": "tokenId",
							"type": "uint256"
						},
						{
							"internalType": "bytes",
							"name": "data",
							"type": "bytes"
						}
					],
					"name": "onERC721Received",
					"outputs": [
						{
							"internalType": "bytes4",
							"name": "",
							"type": "bytes4"
						}
					],
					"stateMutability": "nonpayable",
					"type": "function"
				},
				{
					"inputs": [
						{
							"internalType": "uint256",
							"name": "",
							"type": "uint256"
						}
					],
					"name": "orderOfId",
					"outputs": [
						{
							"internalType": "address",
							"name": "seller",
							"type": "address"
						},
						{
							"internalType": "uint256",
							"name": "tokenId",
							"type": "uint256"
						},
						{
							"internalType": "uint256",
							"name": "price",
							"type": "uint256"
						}
					],
					"stateMutability": "view",
					"type": "function"
				},
				{
					"inputs": [
						{
							"internalType": "uint256",
							"name": "",
							"type": "uint256"
						}
					],
					"name": "orders",
					"outputs": [
						{
							"internalType": "address",
							"name": "seller",
							"type": "address"
						},
						{
							"internalType": "uint256",
							"name": "tokenId",
							"type": "uint256"
						},
						{
							"internalType": "uint256",
							"name": "price",
							"type": "uint256"
						}
					],
					"stateMutability": "view",
					"type": "function"
				},
				{
					"inputs": [
						{
							"internalType": "bytes",
							"name": "_bytes",
							"type": "bytes"
						},
						{
							"internalType": "uint256",
							"name": "_start",
							"type": "uint256"
						}
					],
					"name": "toUint256",
					"outputs": [
						{
							"internalType": "uint256",
							"name": "",
							"type": "uint256"
						}
					],
					"stateMutability": "pure",
					"type": "function"
				}
			],
			"devdoc": {
				"kind": "dev",
				"methods": {},
				"version": 1
			},
			"evm": {
				"assembly": "    /* \"contracts/nft-market.sol\":172:5056  contract Market {... */\n  mstore(0x40, 0x80)\n    /* \"contracts/nft-market.sol\":937:1167  constructor(address _erc20, address _erc721) {... */\n  callvalue\n  dup1\n  iszero\n  tag_1\n  jumpi\n  0x00\n  dup1\n  revert\ntag_1:\n  pop\n  mload(0x40)\n  sub(codesize, bytecodeSize)\n  dup1\n  bytecodeSize\n  dup4\n  codecopy\n  dup2\n  dup2\n  add\n  0x40\n  mstore\n  dup2\n  add\n  swap1\n  tag_2\n  swap2\n  swap1\n  tag_3\n  jump\t// in\ntag_2:\n    /* \"contracts/nft-market.sol\":1018:1019  0 */\n  0x00\n    /* \"contracts/nft-market.sol\":1000:1020  _erc20 != address(0) */\n  0xffffffffffffffffffffffffffffffffffffffff\n  and\n    /* \"contracts/nft-market.sol\":1000:1006  _erc20 */\n  dup3\n    /* \"contracts/nft-market.sol\":1000:1020  _erc20 != address(0) */\n  0xffffffffffffffffffffffffffffffffffffffff\n  and\n  sub\n    /* \"contracts/nft-market.sol\":992:1037  require(_erc20 != address(0), \"zero address\") */\n  tag_6\n  jumpi\n  mload(0x40)\n  0x08c379a000000000000000000000000000000000000000000000000000000000\n  dup2\n  mstore\n  0x04\n  add\n  tag_7\n  swap1\n  tag_8\n  jump\t// in\ntag_7:\n  mload(0x40)\n  dup1\n  swap2\n  sub\n  swap1\n  revert\ntag_6:\n    /* \"contracts/nft-market.sol\":1074:1075  0 */\n  0x00\n    /* \"contracts/nft-market.sol\":1055:1076  _erc721 != address(0) */\n  0xffffffffffffffffffffffffffffffffffffffff\n  and\n    /* \"contracts/nft-market.sol\":1055:1062  _erc721 */\n  dup2\n    /* \"contracts/nft-market.sol\":1055:1076  _erc721 != address(0) */\n  0xffffffffffffffffffffffffffffffffffffffff\n  and\n  sub\n    /* \"contracts/nft-market.sol\":1047:1093  require(_erc721 != address(0), \"zero address\") */\n  tag_9\n  jumpi\n  mload(0x40)\n  0x08c379a000000000000000000000000000000000000000000000000000000000\n  dup2\n  mstore\n  0x04\n  add\n  tag_10\n  swap1\n  tag_8\n  jump\t// in\ntag_10:\n  mload(0x40)\n  dup1\n  swap2\n  sub\n  swap1\n  revert\ntag_9:\n    /* \"contracts/nft-market.sol\":1118:1124  _erc20 */\n  dup2\n    /* \"contracts/nft-market.sol\":1103:1108  erc20 */\n  0x00\n  dup1\n    /* \"contracts/nft-market.sol\":1103:1125  erc20 = IERC20(_erc20) */\n  0x0100\n  exp\n  dup2\n  sload\n  dup2\n  0xffffffffffffffffffffffffffffffffffffffff\n  mul\n  not\n  and\n  swap1\n  dup4\n  0xffffffffffffffffffffffffffffffffffffffff\n  and\n  mul\n  or\n  swap1\n  sstore\n  pop\n    /* \"contracts/nft-market.sol\":1152:1159  _erc721 */\n  dup1\n    /* \"contracts/nft-market.sol\":1135:1141  erc721 */\n  0x01\n  0x00\n    /* \"contracts/nft-market.sol\":1135:1160  erc721 = IERC721(_erc721) */\n  0x0100\n  exp\n  dup2\n  sload\n  dup2\n  0xffffffffffffffffffffffffffffffffffffffff\n  mul\n  not\n  and\n  swap1\n  dup4\n  0xffffffffffffffffffffffffffffffffffffffff\n  and\n  mul\n  or\n  swap1\n  sstore\n  pop\n    /* \"contracts/nft-market.sol\":937:1167  constructor(address _erc20, address _erc721) {... */\n  pop\n  pop\n    /* \"contracts/nft-market.sol\":172:5056  contract Market {... */\n  jump(tag_11)\n    /* \"#utility.yul\":88:205   */\ntag_13:\n    /* \"#utility.yul\":197:198   */\n  0x00\n    /* \"#utility.yul\":194:195   */\n  dup1\n    /* \"#utility.yul\":187:199   */\n  revert\n    /* \"#utility.yul\":334:460   */\ntag_15:\n    /* \"#utility.yul\":371:378   */\n  0x00\n    /* \"#utility.yul\":411:453   */\n  0xffffffffffffffffffffffffffffffffffffffff\n    /* \"#utility.yul\":404:409   */\n  dup3\n    /* \"#utility.yul\":400:454   */\n  and\n    /* \"#utility.yul\":389:454   */\n  swap1\n  pop\n    /* \"#utility.yul\":334:460   */\n  swap2\n  swap1\n  pop\n  jump\t// out\n    /* \"#utility.yul\":466:562   */\ntag_16:\n    /* \"#utility.yul\":503:510   */\n  0x00\n    /* \"#utility.yul\":532:556   */\n  tag_28\n    /* \"#utility.yul\":550:555   */\n  dup3\n    /* \"#utility.yul\":532:556   */\n  tag_15\n  jump\t// in\ntag_28:\n    /* \"#utility.yul\":521:556   */\n  swap1\n  pop\n    /* \"#utility.yul\":466:562   */\n  swap2\n  swap1\n  pop\n  jump\t// out\n    /* \"#utility.yul\":568:690   */\ntag_17:\n    /* \"#utility.yul\":641:665   */\n  tag_30\n    /* \"#utility.yul\":659:664   */\n  dup2\n    /* \"#utility.yul\":641:665   */\n  tag_16\n  jump\t// in\ntag_30:\n    /* \"#utility.yul\":634:639   */\n  dup2\n    /* \"#utility.yul\":631:666   */\n  eq\n    /* \"#utility.yul\":621:684   */\n  tag_31\n  jumpi\n    /* \"#utility.yul\":680:681   */\n  0x00\n    /* \"#utility.yul\":677:678   */\n  dup1\n    /* \"#utility.yul\":670:682   */\n  revert\n    /* \"#utility.yul\":621:684   */\ntag_31:\n    /* \"#utility.yul\":568:690   */\n  pop\n  jump\t// out\n    /* \"#utility.yul\":696:839   */\ntag_18:\n    /* \"#utility.yul\":753:758   */\n  0x00\n    /* \"#utility.yul\":784:790   */\n  dup2\n    /* \"#utility.yul\":778:791   */\n  mload\n    /* \"#utility.yul\":769:791   */\n  swap1\n  pop\n    /* \"#utility.yul\":800:833   */\n  tag_33\n    /* \"#utility.yul\":827:832   */\n  dup2\n    /* \"#utility.yul\":800:833   */\n  tag_17\n  jump\t// in\ntag_33:\n    /* \"#utility.yul\":696:839   */\n  swap3\n  swap2\n  pop\n  pop\n  jump\t// out\n    /* \"#utility.yul\":845:1352   */\ntag_3:\n    /* \"#utility.yul\":924:930   */\n  0x00\n    /* \"#utility.yul\":932:938   */\n  dup1\n    /* \"#utility.yul\":981:983   */\n  0x40\n    /* \"#utility.yul\":969:978   */\n  dup4\n    /* \"#utility.yul\":960:967   */\n  dup6\n    /* \"#utility.yul\":956:979   */\n  sub\n    /* \"#utility.yul\":952:984   */\n  slt\n    /* \"#utility.yul\":949:1068   */\n  iszero\n  tag_35\n  jumpi\n    /* \"#utility.yul\":987:1066   */\n  tag_36\n  tag_13\n  jump\t// in\ntag_36:\n    /* \"#utility.yul\":949:1068   */\ntag_35:\n    /* \"#utility.yul\":1107:1108   */\n  0x00\n    /* \"#utility.yul\":1132:1196   */\n  tag_37\n    /* \"#utility.yul\":1188:1195   */\n  dup6\n    /* \"#utility.yul\":1179:1185   */\n  dup3\n    /* \"#utility.yul\":1168:1177   */\n  dup7\n    /* \"#utility.yul\":1164:1186   */\n  add\n    /* \"#utility.yul\":1132:1196   */\n  tag_18\n  jump\t// in\ntag_37:\n    /* \"#utility.yul\":1122:1196   */\n  swap3\n  pop\n    /* \"#utility.yul\":1078:1206   */\n  pop\n    /* \"#utility.yul\":1245:1247   */\n  0x20\n    /* \"#utility.yul\":1271:1335   */\n  tag_38\n    /* \"#utility.yul\":1327:1334   */\n  dup6\n    /* \"#utility.yul\":1318:1324   */\n  dup3\n    /* \"#utility.yul\":1307:1316   */\n  dup7\n    /* \"#utility.yul\":1303:1325   */\n  add\n    /* \"#utility.yul\":1271:1335   */\n  tag_18\n  jump\t// in\ntag_38:\n    /* \"#utility.yul\":1261:1335   */\n  swap2\n  pop\n    /* \"#utility.yul\":1216:1345   */\n  pop\n    /* \"#utility.yul\":845:1352   */\n  swap3\n  pop\n  swap3\n  swap1\n  pop\n  jump\t// out\n    /* \"#utility.yul\":1358:1527   */\ntag_19:\n    /* \"#utility.yul\":1442:1453   */\n  0x00\n    /* \"#utility.yul\":1476:1482   */\n  dup3\n    /* \"#utility.yul\":1471:1474   */\n  dup3\n    /* \"#utility.yul\":1464:1483   */\n  mstore\n    /* \"#utility.yul\":1516:1520   */\n  0x20\n    /* \"#utility.yul\":1511:1514   */\n  dup3\n    /* \"#utility.yul\":1507:1521   */\n  add\n    /* \"#utility.yul\":1492:1521   */\n  swap1\n  pop\n    /* \"#utility.yul\":1358:1527   */\n  swap3\n  swap2\n  pop\n  pop\n  jump\t// out\n    /* \"#utility.yul\":1533:1695   */\ntag_20:\n    /* \"#utility.yul\":1673:1687   */\n  0x7a65726f20616464726573730000000000000000000000000000000000000000\n    /* \"#utility.yul\":1669:1670   */\n  0x00\n    /* \"#utility.yul\":1661:1667   */\n  dup3\n    /* \"#utility.yul\":1657:1671   */\n  add\n    /* \"#utility.yul\":1650:1688   */\n  mstore\n    /* \"#utility.yul\":1533:1695   */\n  pop\n  jump\t// out\n    /* \"#utility.yul\":1701:2067   */\ntag_21:\n    /* \"#utility.yul\":1843:1846   */\n  0x00\n    /* \"#utility.yul\":1864:1931   */\n  tag_42\n    /* \"#utility.yul\":1928:1930   */\n  0x0c\n    /* \"#utility.yul\":1923:1926   */\n  dup4\n    /* \"#utility.yul\":1864:1931   */\n  tag_19\n  jump\t// in\ntag_42:\n    /* \"#utility.yul\":1857:1931   */\n  swap2\n  pop\n    /* \"#utility.yul\":1940:2033   */\n  tag_43\n    /* \"#utility.yul\":2029:2032   */\n  dup3\n    /* \"#utility.yul\":1940:2033   */\n  tag_20\n  jump\t// in\ntag_43:\n    /* \"#utility.yul\":2058:2060   */\n  0x20\n    /* \"#utility.yul\":2053:2056   */\n  dup3\n    /* \"#utility.yul\":2049:2061   */\n  add\n    /* \"#utility.yul\":2042:2061   */\n  swap1\n  pop\n    /* \"#utility.yul\":1701:2067   */\n  swap2\n  swap1\n  pop\n  jump\t// out\n    /* \"#utility.yul\":2073:2492   */\ntag_8:\n    /* \"#utility.yul\":2239:2243   */\n  0x00\n    /* \"#utility.yul\":2277:2279   */\n  0x20\n    /* \"#utility.yul\":2266:2275   */\n  dup3\n    /* \"#utility.yul\":2262:2280   */\n  add\n    /* \"#utility.yul\":2254:2280   */\n  swap1\n  pop\n    /* \"#utility.yul\":2326:2335   */\n  dup2\n    /* \"#utility.yul\":2320:2324   */\n  dup2\n    /* \"#utility.yul\":2316:2336   */\n  sub\n    /* \"#utility.yul\":2312:2313   */\n  0x00\n    /* \"#utility.yul\":2301:2310   */\n  dup4\n    /* \"#utility.yul\":2297:2314   */\n  add\n    /* \"#utility.yul\":2290:2337   */\n  mstore\n    /* \"#utility.yul\":2354:2485   */\n  tag_45\n    /* \"#utility.yul\":2480:2484   */\n  dup2\n    /* \"#utility.yul\":2354:2485   */\n  tag_21\n  jump\t// in\ntag_45:\n    /* \"#utility.yul\":2346:2485   */\n  swap1\n  pop\n    /* \"#utility.yul\":2073:2492   */\n  swap2\n  swap1\n  pop\n  jump\t// out\n    /* \"contracts/nft-market.sol\":172:5056  contract Market {... */\ntag_11:\n  dataSize(sub_0)\n  dup1\n  dataOffset(sub_0)\n  0x00\n  codecopy\n  0x00\n  return\nstop\n\nsub_0: assembly {\n        /* \"contracts/nft-market.sol\":172:5056  contract Market {... */\n      mstore(0x40, 0x80)\n      callvalue\n      dup1\n      iszero\n      tag_1\n      jumpi\n      0x00\n      dup1\n      revert\n    tag_1:\n      pop\n      jumpi(tag_2, lt(calldatasize, 0x04))\n      shr(0xe0, calldataload(0x00))\n      dup1\n      0xb3de019c\n      gt\n      tag_17\n      jumpi\n      dup1\n      0xd96a094a\n      gt\n      tag_18\n      jumpi\n      dup1\n      0xd96a094a\n      eq\n      tag_13\n      jumpi\n      dup1\n      0xda694df0\n      eq\n      tag_14\n      jumpi\n      dup1\n      0xe0391b09\n      eq\n      tag_15\n      jumpi\n      dup1\n      0xfcce4883\n      eq\n      tag_16\n      jumpi\n      jump(tag_2)\n    tag_18:\n      dup1\n      0xb3de019c\n      eq\n      tag_10\n      jumpi\n      dup1\n      0xb5cdf924\n      eq\n      tag_11\n      jumpi\n      dup1\n      0xbca6ce64\n      eq\n      tag_12\n      jumpi\n      jump(tag_2)\n    tag_17:\n      dup1\n      0x629cb2e4\n      gt\n      tag_19\n      jumpi\n      dup1\n      0x629cb2e4\n      eq\n      tag_6\n      jumpi\n      dup1\n      0x785e9e86\n      eq\n      tag_7\n      jumpi\n      dup1\n      0x9d4971b7\n      eq\n      tag_8\n      jumpi\n      dup1\n      0xa85c38ef\n      eq\n      tag_9\n      jumpi\n      jump(tag_2)\n    tag_19:\n      dup1\n      0x150b7a02\n      eq\n      tag_3\n      jumpi\n      dup1\n      0x394a9077\n      eq\n      tag_4\n      jumpi\n      dup1\n      0x514fcac7\n      eq\n      tag_5\n      jumpi\n    tag_2:\n      0x00\n      dup1\n      revert\n        /* \"contracts/nft-market.sol\":2703:3414  function onERC721Received(... */\n    tag_3:\n      tag_20\n      0x04\n      dup1\n      calldatasize\n      sub\n      dup2\n      add\n      swap1\n      tag_21\n      swap2\n      swap1\n      tag_22\n      jump\t// in\n    tag_21:\n      tag_23\n      jump\t// in\n    tag_20:\n      mload(0x40)\n      tag_24\n      swap2\n      swap1\n      tag_25\n      jump\t// in\n    tag_24:\n      mload(0x40)\n      dup1\n      swap2\n      sub\n      swap1\n      return\n        /* \"contracts/nft-market.sol\":414:456  mapping(uint256 => Order) public orderOfId */\n    tag_4:\n      tag_26\n      0x04\n      dup1\n      calldatasize\n      sub\n      dup2\n      add\n      swap1\n      tag_27\n      swap2\n      swap1\n      tag_28\n      jump\t// in\n    tag_27:\n      tag_29\n      jump\t// in\n    tag_26:\n      mload(0x40)\n      tag_30\n      swap4\n      swap3\n      swap2\n      swap1\n      tag_31\n      jump\t// in\n    tag_30:\n      mload(0x40)\n      dup1\n      swap2\n      sub\n      swap1\n      return\n        /* \"contracts/nft-market.sol\":1731:2065  function cancelOrder(uint256 _tokenId) external {... */\n    tag_5:\n      tag_32\n      0x04\n      dup1\n      calldatasize\n      sub\n      dup2\n      add\n      swap1\n      tag_33\n      swap2\n      swap1\n      tag_28\n      jump\t// in\n    tag_33:\n      tag_34\n      jump\t// in\n    tag_32:\n      stop\n        /* \"contracts/nft-market.sol\":4685:5054  function getMyNFTs() external view returns (Order[] memory) {... */\n    tag_6:\n      tag_35\n      tag_36\n      jump\t// in\n    tag_35:\n      mload(0x40)\n      tag_37\n      swap2\n      swap1\n      tag_38\n      jump\t// in\n    tag_37:\n      mload(0x40)\n      dup1\n      swap2\n      sub\n      swap1\n      return\n        /* \"contracts/nft-market.sol\":194:213  IERC20 public erc20 */\n    tag_7:\n      tag_39\n      tag_40\n      jump\t// in\n    tag_39:\n      mload(0x40)\n      tag_41\n      swap2\n      swap1\n      tag_42\n      jump\t// in\n    tag_41:\n      mload(0x40)\n      dup1\n      swap2\n      sub\n      swap1\n      return\n        /* \"contracts/nft-market.sol\":4487:4582  function getOrderLength() external view returns (uint256) {... */\n    tag_8:\n      tag_43\n      tag_44\n      jump\t// in\n    tag_43:\n      mload(0x40)\n      tag_45\n      swap2\n      swap1\n      tag_46\n      jump\t// in\n    tag_45:\n      mload(0x40)\n      dup1\n      swap2\n      sub\n      swap1\n      return\n        /* \"contracts/nft-market.sol\":483:504  Order[] public orders */\n    tag_9:\n      tag_47\n      0x04\n      dup1\n      calldatasize\n      sub\n      dup2\n      add\n      swap1\n      tag_48\n      swap2\n      swap1\n      tag_28\n      jump\t// in\n    tag_48:\n      tag_49\n      jump\t// in\n    tag_47:\n      mload(0x40)\n      tag_50\n      swap4\n      swap3\n      swap2\n      swap1\n      tag_31\n      jump\t// in\n    tag_50:\n      mload(0x40)\n      dup1\n      swap2\n      sub\n      swap1\n      return\n        /* \"contracts/nft-market.sol\":2071:2564  function changePrice(uint256 _tokenId, uint256 _price) external {... */\n    tag_10:\n      tag_51\n      0x04\n      dup1\n      calldatasize\n      sub\n      dup2\n      add\n      swap1\n      tag_52\n      swap2\n      swap1\n      tag_53\n      jump\t// in\n    tag_52:\n      tag_54\n      jump\t// in\n    tag_51:\n      stop\n        /* \"contracts/nft-market.sol\":4072:4481  function toUint256(... */\n    tag_11:\n      tag_55\n      0x04\n      dup1\n      calldatasize\n      sub\n      dup2\n      add\n      swap1\n      tag_56\n      swap2\n      swap1\n      tag_57\n      jump\t// in\n    tag_56:\n      tag_58\n      jump\t// in\n    tag_55:\n      mload(0x40)\n      tag_59\n      swap2\n      swap1\n      tag_46\n      jump\t// in\n    tag_59:\n      mload(0x40)\n      dup1\n      swap2\n      sub\n      swap1\n      return\n        /* \"contracts/nft-market.sol\":219:240  IERC721 public erc721 */\n    tag_12:\n      tag_60\n      tag_61\n      jump\t// in\n    tag_60:\n      mload(0x40)\n      tag_62\n      swap2\n      swap1\n      tag_63\n      jump\t// in\n    tag_62:\n      mload(0x40)\n      dup1\n      swap2\n      sub\n      swap1\n      return\n        /* \"contracts/nft-market.sol\":1173:1725  function buy(uint256 _tokenId) external {... */\n    tag_13:\n      tag_64\n      0x04\n      dup1\n      calldatasize\n      sub\n      dup2\n      add\n      swap1\n      tag_65\n      swap2\n      swap1\n      tag_28\n      jump\t// in\n    tag_65:\n      tag_66\n      jump\t// in\n    tag_64:\n      stop\n        /* \"contracts/nft-market.sol\":510:559  mapping(uint256 => uint256) public idToOrderIndex */\n    tag_14:\n      tag_67\n      0x04\n      dup1\n      calldatasize\n      sub\n      dup2\n      add\n      swap1\n      tag_68\n      swap2\n      swap1\n      tag_28\n      jump\t// in\n    tag_68:\n      tag_69\n      jump\t// in\n    tag_67:\n      mload(0x40)\n      tag_70\n      swap2\n      swap1\n      tag_46\n      jump\t// in\n    tag_70:\n      mload(0x40)\n      dup1\n      swap2\n      sub\n      swap1\n      return\n        /* \"contracts/nft-market.sol\":4588:4679  function getAllNFTs() external view returns (Order[] memory) {... */\n    tag_15:\n      tag_71\n      tag_72\n      jump\t// in\n    tag_71:\n      mload(0x40)\n      tag_73\n      swap2\n      swap1\n      tag_38\n      jump\t// in\n    tag_73:\n      mload(0x40)\n      dup1\n      swap2\n      sub\n      swap1\n      return\n        /* \"contracts/nft-market.sol\":2570:2697  function isListed(uint256 _tokenId) public view returns (bool) {... */\n    tag_16:\n      tag_74\n      0x04\n      dup1\n      calldatasize\n      sub\n      dup2\n      add\n      swap1\n      tag_75\n      swap2\n      swap1\n      tag_28\n      jump\t// in\n    tag_75:\n      tag_76\n      jump\t// in\n    tag_74:\n      mload(0x40)\n      tag_77\n      swap2\n      swap1\n      tag_78\n      jump\t// in\n    tag_77:\n      mload(0x40)\n      dup1\n      swap2\n      sub\n      swap1\n      return\n        /* \"contracts/nft-market.sol\":2703:3414  function onERC721Received(... */\n    tag_23:\n        /* \"contracts/nft-market.sol\":2855:2861  bytes4 */\n      0x00\n        /* \"contracts/nft-market.sol\":2903:2909  erc721 */\n      0x01\n      0x00\n      swap1\n      sload\n      swap1\n      0x0100\n      exp\n      swap1\n      div\n      0xffffffffffffffffffffffffffffffffffffffff\n      and\n        /* \"contracts/nft-market.sol\":2881:2910  msg.sender == address(erc721) */\n      0xffffffffffffffffffffffffffffffffffffffff\n      and\n        /* \"contracts/nft-market.sol\":2881:2891  msg.sender */\n      caller\n        /* \"contracts/nft-market.sol\":2881:2910  msg.sender == address(erc721) */\n      0xffffffffffffffffffffffffffffffffffffffff\n      and\n      eq\n        /* \"contracts/nft-market.sol\":2873:2929  require(msg.sender == address(erc721), \"invalid sender\") */\n      tag_80\n      jumpi\n      mload(0x40)\n      0x08c379a000000000000000000000000000000000000000000000000000000000\n      dup2\n      mstore\n      0x04\n      add\n      tag_81\n      swap1\n      tag_82\n      jump\t// in\n    tag_81:\n      mload(0x40)\n      dup1\n      swap2\n      sub\n      swap1\n      revert\n    tag_80:\n        /* \"contracts/nft-market.sol\":2995:2999  this */\n      address\n        /* \"contracts/nft-market.sol\":2960:3000  erc721.ownerOf(tokenId) == address(this) */\n      0xffffffffffffffffffffffffffffffffffffffff\n      and\n        /* \"contracts/nft-market.sol\":2960:2966  erc721 */\n      0x01\n      0x00\n      swap1\n      sload\n      swap1\n      0x0100\n      exp\n      swap1\n      div\n      0xffffffffffffffffffffffffffffffffffffffff\n      and\n        /* \"contracts/nft-market.sol\":2960:2974  erc721.ownerOf */\n      0xffffffffffffffffffffffffffffffffffffffff\n      and\n      0x6352211e\n        /* \"contracts/nft-market.sol\":2975:2982  tokenId */\n      dup7\n        /* \"contracts/nft-market.sol\":2960:2983  erc721.ownerOf(tokenId) */\n      mload(0x40)\n      dup3\n      0xffffffff\n      and\n      0xe0\n      shl\n      dup2\n      mstore\n      0x04\n      add\n      tag_83\n      swap2\n      swap1\n      tag_46\n      jump\t// in\n    tag_83:\n      0x20\n      mload(0x40)\n      dup1\n      dup4\n      sub\n      dup2\n      dup7\n      gas\n      staticcall\n      iszero\n      dup1\n      iszero\n      tag_85\n      jumpi\n      returndatasize\n      0x00\n      dup1\n      returndatacopy\n      revert(0x00, returndatasize)\n    tag_85:\n      pop\n      pop\n      pop\n      pop\n      mload(0x40)\n      returndatasize\n      not(0x1f)\n      0x1f\n      dup3\n      add\n      and\n      dup3\n      add\n      dup1\n      0x40\n      mstore\n      pop\n      dup2\n      add\n      swap1\n      tag_86\n      swap2\n      swap1\n      tag_87\n      jump\t// in\n    tag_86:\n        /* \"contracts/nft-market.sol\":2960:3000  erc721.ownerOf(tokenId) == address(this) */\n      0xffffffffffffffffffffffffffffffffffffffff\n      and\n      eq\n        /* \"contracts/nft-market.sol\":2939:3052  require(... */\n      tag_88\n      jumpi\n      mload(0x40)\n      0x08c379a000000000000000000000000000000000000000000000000000000000\n      dup2\n      mstore\n      0x04\n      add\n      tag_89\n      swap1\n      tag_90\n      jump\t// in\n    tag_89:\n      mload(0x40)\n      dup1\n      swap2\n      sub\n      swap1\n      revert\n    tag_88:\n        /* \"contracts/nft-market.sol\":3062:3075  uint256 price */\n      0x00\n        /* \"contracts/nft-market.sol\":3078:3096  toUint256(data, 0) */\n      tag_91\n        /* \"contracts/nft-market.sol\":3088:3092  data */\n      dup5\n      dup5\n        /* \"contracts/nft-market.sol\":3078:3096  toUint256(data, 0) */\n      dup1\n      dup1\n      0x1f\n      add\n      0x20\n      dup1\n      swap2\n      div\n      mul\n      0x20\n      add\n      mload(0x40)\n      swap1\n      dup2\n      add\n      0x40\n      mstore\n      dup1\n      swap4\n      swap3\n      swap2\n      swap1\n      dup2\n      dup2\n      mstore\n      0x20\n      add\n      dup4\n      dup4\n      dup1\n      dup3\n      dup5\n      calldatacopy\n      0x00\n      dup2\n      dup5\n      add\n      mstore\n      not(0x1f)\n      0x1f\n      dup3\n      add\n      and\n      swap1\n      pop\n      dup1\n      dup4\n      add\n      swap3\n      pop\n      pop\n      pop\n      pop\n      pop\n      pop\n      pop\n        /* \"contracts/nft-market.sol\":3094:3095  0 */\n      0x00\n        /* \"contracts/nft-market.sol\":3078:3087  toUint256 */\n      tag_58\n        /* \"contracts/nft-market.sol\":3078:3096  toUint256(data, 0) */\n      jump\t// in\n    tag_91:\n        /* \"contracts/nft-market.sol\":3062:3096  uint256 price = toUint256(data, 0) */\n      swap1\n      pop\n        /* \"contracts/nft-market.sol\":3122:3123  0 */\n      0x00\n        /* \"contracts/nft-market.sol\":3114:3119  price */\n      dup2\n        /* \"contracts/nft-market.sol\":3114:3123  price > 0 */\n      gt\n        /* \"contracts/nft-market.sol\":3106:3141  require(price > 0, \"price is zero\") */\n      tag_92\n      jumpi\n      mload(0x40)\n      0x08c379a000000000000000000000000000000000000000000000000000000000\n      dup2\n      mstore\n      0x04\n      add\n      tag_93\n      swap1\n      tag_94\n      jump\t// in\n    tag_93:\n      mload(0x40)\n      dup1\n      swap2\n      sub\n      swap1\n      revert\n    tag_92:\n        /* \"contracts/nft-market.sol\":3169:3175  orders */\n      0x03\n        /* \"contracts/nft-market.sol\":3181:3208  Order(from, tokenId, price) */\n      mload(0x40)\n      dup1\n      0x60\n      add\n      0x40\n      mstore\n      dup1\n        /* \"contracts/nft-market.sol\":3187:3191  from */\n      dup9\n        /* \"contracts/nft-market.sol\":3181:3208  Order(from, tokenId, price) */\n      0xffffffffffffffffffffffffffffffffffffffff\n      and\n      dup2\n      mstore\n      0x20\n      add\n        /* \"contracts/nft-market.sol\":3193:3200  tokenId */\n      dup8\n        /* \"contracts/nft-market.sol\":3181:3208  Order(from, tokenId, price) */\n      dup2\n      mstore\n      0x20\n      add\n        /* \"contracts/nft-market.sol\":3202:3207  price */\n      dup4\n        /* \"contracts/nft-market.sol\":3181:3208  Order(from, tokenId, price) */\n      dup2\n      mstore\n      pop\n        /* \"contracts/nft-market.sol\":3169:3209  orders.push(Order(from, tokenId, price)) */\n      swap1\n      dup1\n      0x01\n      dup2\n      sload\n      add\n      dup1\n      dup3\n      sstore\n      dup1\n      swap2\n      pop\n      pop\n      0x01\n      swap1\n      sub\n      swap1\n      0x00\n      mstore\n      keccak256(0x00, 0x20)\n      swap1\n      0x03\n      mul\n      add\n      0x00\n      swap1\n      swap2\n      swap1\n      swap2\n      swap1\n      swap2\n      pop\n      0x00\n      dup3\n      add\n      mload\n      dup2\n      0x00\n      add\n      exp(0x0100, 0x00)\n      dup2\n      sload\n      dup2\n      0xffffffffffffffffffffffffffffffffffffffff\n      mul\n      not\n      and\n      swap1\n      dup4\n      0xffffffffffffffffffffffffffffffffffffffff\n      and\n      mul\n      or\n      swap1\n      sstore\n      pop\n      0x20\n      dup3\n      add\n      mload\n      dup2\n      0x01\n      add\n      sstore\n      0x40\n      dup3\n      add\n      mload\n      dup2\n      0x02\n      add\n      sstore\n      pop\n      pop\n        /* \"contracts/nft-market.sol\":3240:3267  Order(from, tokenId, price) */\n      mload(0x40)\n      dup1\n      0x60\n      add\n      0x40\n      mstore\n      dup1\n        /* \"contracts/nft-market.sol\":3246:3250  from */\n      dup8\n        /* \"contracts/nft-market.sol\":3240:3267  Order(from, tokenId, price) */\n      0xffffffffffffffffffffffffffffffffffffffff\n      and\n      dup2\n      mstore\n      0x20\n      add\n        /* \"contracts/nft-market.sol\":3252:3259  tokenId */\n      dup7\n        /* \"contracts/nft-market.sol\":3240:3267  Order(from, tokenId, price) */\n      dup2\n      mstore\n      0x20\n      add\n        /* \"contracts/nft-market.sol\":3261:3266  price */\n      dup3\n        /* \"contracts/nft-market.sol\":3240:3267  Order(from, tokenId, price) */\n      dup2\n      mstore\n      pop\n        /* \"contracts/nft-market.sol\":3219:3228  orderOfId */\n      0x02\n        /* \"contracts/nft-market.sol\":3219:3237  orderOfId[tokenId] */\n      0x00\n        /* \"contracts/nft-market.sol\":3229:3236  tokenId */\n      dup8\n        /* \"contracts/nft-market.sol\":3219:3237  orderOfId[tokenId] */\n      dup2\n      mstore\n      0x20\n      add\n      swap1\n      dup2\n      mstore\n      0x20\n      add\n      0x00\n      keccak256\n        /* \"contracts/nft-market.sol\":3219:3267  orderOfId[tokenId] = Order(from, tokenId, price) */\n      0x00\n      dup3\n      add\n      mload\n      dup2\n      0x00\n      add\n      exp(0x0100, 0x00)\n      dup2\n      sload\n      dup2\n      0xffffffffffffffffffffffffffffffffffffffff\n      mul\n      not\n      and\n      swap1\n      dup4\n      0xffffffffffffffffffffffffffffffffffffffff\n      and\n      mul\n      or\n      swap1\n      sstore\n      pop\n      0x20\n      dup3\n      add\n      mload\n      dup2\n      0x01\n      add\n      sstore\n      0x40\n      dup3\n      add\n      mload\n      dup2\n      0x02\n      add\n      sstore\n      swap1\n      pop\n      pop\n        /* \"contracts/nft-market.sol\":3319:3320  1 */\n      0x01\n        /* \"contracts/nft-market.sol\":3303:3309  orders */\n      0x03\n        /* \"contracts/nft-market.sol\":3303:3316  orders.length */\n      dup1\n      sload\n      swap1\n      pop\n        /* \"contracts/nft-market.sol\":3303:3320  orders.length - 1 */\n      tag_96\n      swap2\n      swap1\n      tag_97\n      jump\t// in\n    tag_96:\n        /* \"contracts/nft-market.sol\":3277:3291  idToOrderIndex */\n      0x04\n        /* \"contracts/nft-market.sol\":3277:3300  idToOrderIndex[tokenId] */\n      0x00\n        /* \"contracts/nft-market.sol\":3292:3299  tokenId */\n      dup8\n        /* \"contracts/nft-market.sol\":3277:3300  idToOrderIndex[tokenId] */\n      dup2\n      mstore\n      0x20\n      add\n      swap1\n      dup2\n      mstore\n      0x20\n      add\n      0x00\n      keccak256\n        /* \"contracts/nft-market.sol\":3277:3320  idToOrderIndex[tokenId] = orders.length - 1 */\n      dup2\n      swap1\n      sstore\n      pop\n        /* \"contracts/nft-market.sol\":3335:3365  NewOrder(from, tokenId, price) */\n      0xd5b509e657d5ec37ae4bdcab658b7340c0453bb630516d26623359a34c1cecf3\n        /* \"contracts/nft-market.sol\":3344:3348  from */\n      dup7\n        /* \"contracts/nft-market.sol\":3350:3357  tokenId */\n      dup7\n        /* \"contracts/nft-market.sol\":3359:3364  price */\n      dup4\n        /* \"contracts/nft-market.sol\":3335:3365  NewOrder(from, tokenId, price) */\n      mload(0x40)\n      tag_98\n      swap4\n      swap3\n      swap2\n      swap1\n      tag_31\n      jump\t// in\n    tag_98:\n      mload(0x40)\n      dup1\n      swap2\n      sub\n      swap1\n      log1\n        /* \"contracts/nft-market.sol\":299:309  0x150b7a02 */\n      0x150b7a02\n        /* \"contracts/nft-market.sol\":3383:3407  MAGIC_ON_ERC721_RECEIVED */\n      0xe0\n      shl\n        /* \"contracts/nft-market.sol\":3376:3407  return MAGIC_ON_ERC721_RECEIVED */\n      swap2\n      pop\n      pop\n        /* \"contracts/nft-market.sol\":2703:3414  function onERC721Received(... */\n      swap6\n      swap5\n      pop\n      pop\n      pop\n      pop\n      pop\n      jump\t// out\n        /* \"contracts/nft-market.sol\":414:456  mapping(uint256 => Order) public orderOfId */\n    tag_29:\n      mstore(0x20, 0x02)\n      dup1\n      0x00\n      mstore\n      keccak256(0x00, 0x40)\n      0x00\n      swap2\n      pop\n      swap1\n      pop\n      dup1\n      0x00\n      add\n      0x00\n      swap1\n      sload\n      swap1\n      0x0100\n      exp\n      swap1\n      div\n      0xffffffffffffffffffffffffffffffffffffffff\n      and\n      swap1\n      dup1\n      0x01\n      add\n      sload\n      swap1\n      dup1\n      0x02\n      add\n      sload\n      swap1\n      pop\n      dup4\n      jump\t// out\n        /* \"contracts/nft-market.sol\":1731:2065  function cancelOrder(uint256 _tokenId) external {... */\n    tag_34:\n        /* \"contracts/nft-market.sol\":1789:1803  address seller */\n      0x00\n        /* \"contracts/nft-market.sol\":1806:1815  orderOfId */\n      0x02\n        /* \"contracts/nft-market.sol\":1806:1825  orderOfId[_tokenId] */\n      0x00\n        /* \"contracts/nft-market.sol\":1816:1824  _tokenId */\n      dup4\n        /* \"contracts/nft-market.sol\":1806:1825  orderOfId[_tokenId] */\n      dup2\n      mstore\n      0x20\n      add\n      swap1\n      dup2\n      mstore\n      0x20\n      add\n      0x00\n      keccak256\n        /* \"contracts/nft-market.sol\":1806:1832  orderOfId[_tokenId].seller */\n      0x00\n      add\n      0x00\n      swap1\n      sload\n      swap1\n      0x0100\n      exp\n      swap1\n      div\n      0xffffffffffffffffffffffffffffffffffffffff\n      and\n        /* \"contracts/nft-market.sol\":1789:1832  address seller = orderOfId[_tokenId].seller */\n      swap1\n      pop\n        /* \"contracts/nft-market.sol\":1860:1870  msg.sender */\n      caller\n        /* \"contracts/nft-market.sol\":1850:1870  seller == msg.sender */\n      0xffffffffffffffffffffffffffffffffffffffff\n      and\n        /* \"contracts/nft-market.sol\":1850:1856  seller */\n      dup2\n        /* \"contracts/nft-market.sol\":1850:1870  seller == msg.sender */\n      0xffffffffffffffffffffffffffffffffffffffff\n      and\n      eq\n        /* \"contracts/nft-market.sol\":1842:1889  require(seller == msg.sender, \"not the seller\") */\n      tag_100\n      jumpi\n      mload(0x40)\n      0x08c379a000000000000000000000000000000000000000000000000000000000\n      dup2\n      mstore\n      0x04\n      add\n      tag_101\n      swap1\n      tag_102\n      jump\t// in\n    tag_101:\n      mload(0x40)\n      dup1\n      swap2\n      sub\n      swap1\n      revert\n    tag_100:\n        /* \"contracts/nft-market.sol\":1899:1905  erc721 */\n      0x01\n      0x00\n      swap1\n      sload\n      swap1\n      0x0100\n      exp\n      swap1\n      div\n      0xffffffffffffffffffffffffffffffffffffffff\n      and\n        /* \"contracts/nft-market.sol\":1899:1922  erc721.safeTransferFrom */\n      0xffffffffffffffffffffffffffffffffffffffff\n      and\n      0x42842e0e\n        /* \"contracts/nft-market.sol\":1931:1935  this */\n      address\n        /* \"contracts/nft-market.sol\":1938:1944  seller */\n      dup4\n        /* \"contracts/nft-market.sol\":1946:1954  _tokenId */\n      dup6\n        /* \"contracts/nft-market.sol\":1899:1955  erc721.safeTransferFrom(address(this), seller, _tokenId) */\n      mload(0x40)\n      dup5\n      0xffffffff\n      and\n      0xe0\n      shl\n      dup2\n      mstore\n      0x04\n      add\n      tag_103\n      swap4\n      swap3\n      swap2\n      swap1\n      tag_104\n      jump\t// in\n    tag_103:\n      0x00\n      mload(0x40)\n      dup1\n      dup4\n      sub\n      dup2\n      0x00\n      dup8\n      dup1\n      extcodesize\n      iszero\n      dup1\n      iszero\n      tag_105\n      jumpi\n      0x00\n      dup1\n      revert\n    tag_105:\n      pop\n      gas\n      call\n      iszero\n      dup1\n      iszero\n      tag_107\n      jumpi\n      returndatasize\n      0x00\n      dup1\n      returndatacopy\n      revert(0x00, returndatasize)\n    tag_107:\n      pop\n      pop\n      pop\n      pop\n        /* \"contracts/nft-market.sol\":1990:2011  removeOrder(_tokenId) */\n      tag_108\n        /* \"contracts/nft-market.sol\":2002:2010  _tokenId */\n      dup3\n        /* \"contracts/nft-market.sol\":1990:2001  removeOrder */\n      tag_109\n        /* \"contracts/nft-market.sol\":1990:2011  removeOrder(_tokenId) */\n      jump\t// in\n    tag_108:\n        /* \"contracts/nft-market.sol\":2026:2058  OrderCancelled(seller, _tokenId) */\n      0xdd003742fb214507783ce004fe55f5ac14f89c6de4a7cd7487e47eb091c62265\n        /* \"contracts/nft-market.sol\":2041:2047  seller */\n      dup2\n        /* \"contracts/nft-market.sol\":2049:2057  _tokenId */\n      dup4\n        /* \"contracts/nft-market.sol\":2026:2058  OrderCancelled(seller, _tokenId) */\n      mload(0x40)\n      tag_110\n      swap3\n      swap2\n      swap1\n      tag_111\n      jump\t// in\n    tag_110:\n      mload(0x40)\n      dup1\n      swap2\n      sub\n      swap1\n      log1\n        /* \"contracts/nft-market.sol\":1779:2065  {... */\n      pop\n        /* \"contracts/nft-market.sol\":1731:2065  function cancelOrder(uint256 _tokenId) external {... */\n      pop\n      jump\t// out\n        /* \"contracts/nft-market.sol\":4685:5054  function getMyNFTs() external view returns (Order[] memory) {... */\n    tag_36:\n        /* \"contracts/nft-market.sol\":4729:4743  Order[] memory */\n      0x60\n        /* \"contracts/nft-market.sol\":4755:4769  uint256 length */\n      0x00\n        /* \"contracts/nft-market.sol\":4772:4778  orders */\n      0x03\n        /* \"contracts/nft-market.sol\":4772:4785  orders.length */\n      dup1\n      sload\n      swap1\n      pop\n        /* \"contracts/nft-market.sol\":4755:4785  uint256 length = orders.length */\n      swap1\n      pop\n        /* \"contracts/nft-market.sol\":4795:4817  Order[] memory _orders */\n      0x00\n        /* \"contracts/nft-market.sol\":4832:4838  length */\n      dup2\n        /* \"contracts/nft-market.sol\":4820:4839  new Order[](length) */\n      0xffffffffffffffff\n      dup2\n      gt\n      iszero\n      tag_113\n      jumpi\n      tag_114\n      tag_115\n      jump\t// in\n    tag_114:\n    tag_113:\n      mload(0x40)\n      swap1\n      dup1\n      dup3\n      mstore\n      dup1\n      0x20\n      mul\n      0x20\n      add\n      dup3\n      add\n      0x40\n      mstore\n      dup1\n      iszero\n      tag_116\n      jumpi\n      dup2\n      0x20\n      add\n    tag_117:\n      tag_118\n      tag_119\n      jump\t// in\n    tag_118:\n      dup2\n      mstore\n      0x20\n      add\n      swap1\n      0x01\n      swap1\n      sub\n      swap1\n      dup2\n      tag_117\n      jumpi\n      swap1\n      pop\n    tag_116:\n      pop\n        /* \"contracts/nft-market.sol\":4795:4839  Order[] memory _orders = new Order[](length) */\n      swap1\n      pop\n        /* \"contracts/nft-market.sol\":4849:4862  uint256 count */\n      0x00\n        /* \"contracts/nft-market.sol\":4881:4890  uint256 i */\n      dup1\n        /* \"contracts/nft-market.sol\":4876:5024  for (uint256 i = 0; i < length; i++) {... */\n    tag_120:\n        /* \"contracts/nft-market.sol\":4900:4906  length */\n      dup4\n        /* \"contracts/nft-market.sol\":4896:4897  i */\n      dup2\n        /* \"contracts/nft-market.sol\":4896:4906  i < length */\n      lt\n        /* \"contracts/nft-market.sol\":4876:5024  for (uint256 i = 0; i < length; i++) {... */\n      iszero\n      tag_121\n      jumpi\n        /* \"contracts/nft-market.sol\":4983:4989  orders */\n      0x03\n        /* \"contracts/nft-market.sol\":4990:4991  i */\n      dup2\n        /* \"contracts/nft-market.sol\":4983:4992  orders[i] */\n      dup2\n      sload\n      dup2\n      lt\n      tag_123\n      jumpi\n      tag_124\n      tag_125\n      jump\t// in\n    tag_124:\n    tag_123:\n      swap1\n      0x00\n      mstore\n      keccak256(0x00, 0x20)\n      swap1\n      0x03\n      mul\n      add\n        /* \"contracts/nft-market.sol\":4966:4992  _orders[count] = orders[i] */\n      mload(0x40)\n      dup1\n      0x60\n      add\n      0x40\n      mstore\n      swap1\n      dup2\n      0x00\n      dup3\n      add\n      0x00\n      swap1\n      sload\n      swap1\n      0x0100\n      exp\n      swap1\n      div\n      0xffffffffffffffffffffffffffffffffffffffff\n      and\n      0xffffffffffffffffffffffffffffffffffffffff\n      and\n      0xffffffffffffffffffffffffffffffffffffffff\n      and\n      dup2\n      mstore\n      0x20\n      add\n      0x01\n      dup3\n      add\n      sload\n      dup2\n      mstore\n      0x20\n      add\n      0x02\n      dup3\n      add\n      sload\n      dup2\n      mstore\n      pop\n      pop\n        /* \"contracts/nft-market.sol\":4966:4973  _orders */\n      dup4\n        /* \"contracts/nft-market.sol\":4974:4979  count */\n      dup4\n        /* \"contracts/nft-market.sol\":4966:4980  _orders[count] */\n      dup2\n      mload\n      dup2\n      lt\n      tag_127\n      jumpi\n      tag_128\n      tag_125\n      jump\t// in\n    tag_128:\n    tag_127:\n      0x20\n      mul\n      0x20\n      add\n      add\n        /* \"contracts/nft-market.sol\":4966:4992  _orders[count] = orders[i] */\n      dup2\n      swap1\n      mstore\n      pop\n        /* \"contracts/nft-market.sol\":5006:5013  count++ */\n      dup2\n      dup1\n      tag_129\n      swap1\n      tag_130\n      jump\t// in\n    tag_129:\n      swap3\n      pop\n      pop\n        /* \"contracts/nft-market.sol\":4908:4911  i++ */\n      dup1\n      dup1\n      0x01\n      add\n      swap2\n      pop\n      pop\n        /* \"contracts/nft-market.sol\":4876:5024  for (uint256 i = 0; i < length; i++) {... */\n      jump(tag_120)\n    tag_121:\n      pop\n        /* \"contracts/nft-market.sol\":5040:5047  _orders */\n      dup2\n        /* \"contracts/nft-market.sol\":5033:5047  return _orders */\n      swap4\n      pop\n      pop\n      pop\n      pop\n        /* \"contracts/nft-market.sol\":4685:5054  function getMyNFTs() external view returns (Order[] memory) {... */\n      swap1\n      jump\t// out\n        /* \"contracts/nft-market.sol\":194:213  IERC20 public erc20 */\n    tag_40:\n      0x00\n      dup1\n      sload\n      swap1\n      0x0100\n      exp\n      swap1\n      div\n      0xffffffffffffffffffffffffffffffffffffffff\n      and\n      dup2\n      jump\t// out\n        /* \"contracts/nft-market.sol\":4487:4582  function getOrderLength() external view returns (uint256) {... */\n    tag_44:\n        /* \"contracts/nft-market.sol\":4536:4543  uint256 */\n      0x00\n        /* \"contracts/nft-market.sol\":4562:4568  orders */\n      0x03\n        /* \"contracts/nft-market.sol\":4562:4575  orders.length */\n      dup1\n      sload\n      swap1\n      pop\n        /* \"contracts/nft-market.sol\":4555:4575  return orders.length */\n      swap1\n      pop\n        /* \"contracts/nft-market.sol\":4487:4582  function getOrderLength() external view returns (uint256) {... */\n      swap1\n      jump\t// out\n        /* \"contracts/nft-market.sol\":483:504  Order[] public orders */\n    tag_49:\n      0x03\n      dup2\n      dup2\n      sload\n      dup2\n      lt\n      tag_132\n      jumpi\n      0x00\n      dup1\n      revert\n    tag_132:\n      swap1\n      0x00\n      mstore\n      keccak256(0x00, 0x20)\n      swap1\n      0x03\n      mul\n      add\n      0x00\n      swap2\n      pop\n      swap1\n      pop\n      dup1\n      0x00\n      add\n      0x00\n      swap1\n      sload\n      swap1\n      0x0100\n      exp\n      swap1\n      div\n      0xffffffffffffffffffffffffffffffffffffffff\n      and\n      swap1\n      dup1\n      0x01\n      add\n      sload\n      swap1\n      dup1\n      0x02\n      add\n      sload\n      swap1\n      pop\n      dup4\n      jump\t// out\n        /* \"contracts/nft-market.sol\":2071:2564  function changePrice(uint256 _tokenId, uint256 _price) external {... */\n    tag_54:\n        /* \"contracts/nft-market.sol\":2145:2159  address seller */\n      0x00\n        /* \"contracts/nft-market.sol\":2162:2171  orderOfId */\n      0x02\n        /* \"contracts/nft-market.sol\":2162:2181  orderOfId[_tokenId] */\n      0x00\n        /* \"contracts/nft-market.sol\":2172:2180  _tokenId */\n      dup5\n        /* \"contracts/nft-market.sol\":2162:2181  orderOfId[_tokenId] */\n      dup2\n      mstore\n      0x20\n      add\n      swap1\n      dup2\n      mstore\n      0x20\n      add\n      0x00\n      keccak256\n        /* \"contracts/nft-market.sol\":2162:2188  orderOfId[_tokenId].seller */\n      0x00\n      add\n      0x00\n      swap1\n      sload\n      swap1\n      0x0100\n      exp\n      swap1\n      div\n      0xffffffffffffffffffffffffffffffffffffffff\n      and\n        /* \"contracts/nft-market.sol\":2145:2188  address seller = orderOfId[_tokenId].seller */\n      swap1\n      pop\n        /* \"contracts/nft-market.sol\":2216:2226  msg.sender */\n      caller\n        /* \"contracts/nft-market.sol\":2206:2226  seller == msg.sender */\n      0xffffffffffffffffffffffffffffffffffffffff\n      and\n        /* \"contracts/nft-market.sol\":2206:2212  seller */\n      dup2\n        /* \"contracts/nft-market.sol\":2206:2226  seller == msg.sender */\n      0xffffffffffffffffffffffffffffffffffffffff\n      and\n      eq\n        /* \"contracts/nft-market.sol\":2198:2245  require(seller == msg.sender, \"not the seller\") */\n      tag_135\n      jumpi\n      mload(0x40)\n      0x08c379a000000000000000000000000000000000000000000000000000000000\n      dup2\n      mstore\n      0x04\n      add\n      tag_136\n      swap1\n      tag_102\n      jump\t// in\n    tag_136:\n      mload(0x40)\n      dup1\n      swap2\n      sub\n      swap1\n      revert\n    tag_135:\n        /* \"contracts/nft-market.sol\":2272:2273  0 */\n      0x00\n        /* \"contracts/nft-market.sol\":2263:2269  _price */\n      dup3\n        /* \"contracts/nft-market.sol\":2263:2273  _price > 0 */\n      gt\n        /* \"contracts/nft-market.sol\":2255:2291  require(_price > 0, \"price is zero\") */\n      tag_137\n      jumpi\n      mload(0x40)\n      0x08c379a000000000000000000000000000000000000000000000000000000000\n      dup2\n      mstore\n      0x04\n      add\n      tag_138\n      swap1\n      tag_94\n      jump\t// in\n    tag_138:\n      mload(0x40)\n      dup1\n      swap2\n      sub\n      swap1\n      revert\n    tag_137:\n        /* \"contracts/nft-market.sol\":2301:2322  uint256 previousPrice */\n      0x00\n        /* \"contracts/nft-market.sol\":2325:2334  orderOfId */\n      0x02\n        /* \"contracts/nft-market.sol\":2325:2344  orderOfId[_tokenId] */\n      0x00\n        /* \"contracts/nft-market.sol\":2335:2343  _tokenId */\n      dup6\n        /* \"contracts/nft-market.sol\":2325:2344  orderOfId[_tokenId] */\n      dup2\n      mstore\n      0x20\n      add\n      swap1\n      dup2\n      mstore\n      0x20\n      add\n      0x00\n      keccak256\n        /* \"contracts/nft-market.sol\":2325:2350  orderOfId[_tokenId].price */\n      0x02\n      add\n      sload\n        /* \"contracts/nft-market.sol\":2301:2350  uint256 previousPrice = orderOfId[_tokenId].price */\n      swap1\n      pop\n        /* \"contracts/nft-market.sol\":2388:2394  _price */\n      dup3\n        /* \"contracts/nft-market.sol\":2360:2369  orderOfId */\n      0x02\n        /* \"contracts/nft-market.sol\":2360:2379  orderOfId[_tokenId] */\n      0x00\n        /* \"contracts/nft-market.sol\":2370:2378  _tokenId */\n      dup7\n        /* \"contracts/nft-market.sol\":2360:2379  orderOfId[_tokenId] */\n      dup2\n      mstore\n      0x20\n      add\n      swap1\n      dup2\n      mstore\n      0x20\n      add\n      0x00\n      keccak256\n        /* \"contracts/nft-market.sol\":2360:2385  orderOfId[_tokenId].price */\n      0x02\n      add\n        /* \"contracts/nft-market.sol\":2360:2394  orderOfId[_tokenId].price = _price */\n      dup2\n      swap1\n      sstore\n      pop\n        /* \"contracts/nft-market.sol\":2405:2424  Order storage order */\n      0x00\n        /* \"contracts/nft-market.sol\":2427:2433  orders */\n      0x03\n        /* \"contracts/nft-market.sol\":2434:2448  idToOrderIndex */\n      0x04\n        /* \"contracts/nft-market.sol\":2434:2458  idToOrderIndex[_tokenId] */\n      0x00\n        /* \"contracts/nft-market.sol\":2449:2457  _tokenId */\n      dup8\n        /* \"contracts/nft-market.sol\":2434:2458  idToOrderIndex[_tokenId] */\n      dup2\n      mstore\n      0x20\n      add\n      swap1\n      dup2\n      mstore\n      0x20\n      add\n      0x00\n      keccak256\n      sload\n        /* \"contracts/nft-market.sol\":2427:2459  orders[idToOrderIndex[_tokenId]] */\n      dup2\n      sload\n      dup2\n      lt\n      tag_139\n      jumpi\n      tag_140\n      tag_125\n      jump\t// in\n    tag_140:\n    tag_139:\n      swap1\n      0x00\n      mstore\n      keccak256(0x00, 0x20)\n      swap1\n      0x03\n      mul\n      add\n        /* \"contracts/nft-market.sol\":2405:2459  Order storage order = orders[idToOrderIndex[_tokenId]] */\n      swap1\n      pop\n        /* \"contracts/nft-market.sol\":2483:2489  _price */\n      dup4\n        /* \"contracts/nft-market.sol\":2469:2474  order */\n      dup2\n        /* \"contracts/nft-market.sol\":2469:2480  order.price */\n      0x02\n      add\n        /* \"contracts/nft-market.sol\":2469:2489  order.price = _price */\n      dup2\n      swap1\n      sstore\n      pop\n        /* \"contracts/nft-market.sol\":2504:2557  PriceChanged(seller, _tokenId, previousPrice, _price) */\n      0xdac6aecd066304d15a41e8e590fc5ab5bf93634f43cba363f743d5e158d79988\n        /* \"contracts/nft-market.sol\":2517:2523  seller */\n      dup4\n        /* \"contracts/nft-market.sol\":2525:2533  _tokenId */\n      dup7\n        /* \"contracts/nft-market.sol\":2535:2548  previousPrice */\n      dup5\n        /* \"contracts/nft-market.sol\":2550:2556  _price */\n      dup8\n        /* \"contracts/nft-market.sol\":2504:2557  PriceChanged(seller, _tokenId, previousPrice, _price) */\n      mload(0x40)\n      tag_142\n      swap5\n      swap4\n      swap3\n      swap2\n      swap1\n      tag_143\n      jump\t// in\n    tag_142:\n      mload(0x40)\n      dup1\n      swap2\n      sub\n      swap1\n      log1\n        /* \"contracts/nft-market.sol\":2135:2564  {... */\n      pop\n      pop\n      pop\n        /* \"contracts/nft-market.sol\":2071:2564  function changePrice(uint256 _tokenId, uint256 _price) external {... */\n      pop\n      pop\n      jump\t// out\n        /* \"contracts/nft-market.sol\":4072:4481  function toUint256(... */\n    tag_58:\n        /* \"contracts/nft-market.sol\":4171:4178  uint256 */\n      0x00\n        /* \"contracts/nft-market.sol\":4213:4219  _start */\n      dup2\n        /* \"contracts/nft-market.sol\":4207:4209  32 */\n      0x20\n        /* \"contracts/nft-market.sol\":4198:4204  _start */\n      dup4\n        /* \"contracts/nft-market.sol\":4198:4209  _start + 32 */\n      tag_145\n      swap2\n      swap1\n      tag_146\n      jump\t// in\n    tag_145:\n        /* \"contracts/nft-market.sol\":4198:4219  _start + 32 >= _start */\n      lt\n      iszero\n        /* \"contracts/nft-market.sol\":4190:4250  require(_start + 32 >= _start, \"Market: toUint256_overflow\") */\n      tag_147\n      jumpi\n      mload(0x40)\n      0x08c379a000000000000000000000000000000000000000000000000000000000\n      dup2\n      mstore\n      0x04\n      add\n      tag_148\n      swap1\n      tag_149\n      jump\t// in\n    tag_148:\n      mload(0x40)\n      dup1\n      swap2\n      sub\n      swap1\n      revert\n    tag_147:\n        /* \"contracts/nft-market.sol\":4294:4296  32 */\n      0x20\n        /* \"contracts/nft-market.sol\":4285:4291  _start */\n      dup3\n        /* \"contracts/nft-market.sol\":4285:4296  _start + 32 */\n      tag_150\n      swap2\n      swap1\n      tag_146\n      jump\t// in\n    tag_150:\n        /* \"contracts/nft-market.sol\":4268:4274  _bytes */\n      dup4\n        /* \"contracts/nft-market.sol\":4268:4281  _bytes.length */\n      mload\n        /* \"contracts/nft-market.sol\":4268:4296  _bytes.length >= _start + 32 */\n      lt\n      iszero\n        /* \"contracts/nft-market.sol\":4260:4330  require(_bytes.length >= _start + 32, \"Market: toUint256_outOfBounds\") */\n      tag_151\n      jumpi\n      mload(0x40)\n      0x08c379a000000000000000000000000000000000000000000000000000000000\n      dup2\n      mstore\n      0x04\n      add\n      tag_152\n      swap1\n      tag_153\n      jump\t// in\n    tag_152:\n      mload(0x40)\n      dup1\n      swap2\n      sub\n      swap1\n      revert\n    tag_151:\n        /* \"contracts/nft-market.sol\":4340:4356  uint256 tempUint */\n      0x00\n        /* \"contracts/nft-market.sol\":4431:4437  _start */\n      dup3\n        /* \"contracts/nft-market.sol\":4424:4428  0x20 */\n      0x20\n        /* \"contracts/nft-market.sol\":4416:4422  _bytes */\n      dup6\n        /* \"contracts/nft-market.sol\":4412:4429  add(_bytes, 0x20) */\n      add\n        /* \"contracts/nft-market.sol\":4408:4438  add(add(_bytes, 0x20), _start) */\n      add\n        /* \"contracts/nft-market.sol\":4402:4439  mload(add(add(_bytes, 0x20), _start)) */\n      mload\n        /* \"contracts/nft-market.sol\":4390:4439  tempUint := mload(add(add(_bytes, 0x20), _start)) */\n      swap1\n      pop\n        /* \"contracts/nft-market.sol\":4466:4474  tempUint */\n      dup1\n        /* \"contracts/nft-market.sol\":4459:4474  return tempUint */\n      swap2\n      pop\n      pop\n        /* \"contracts/nft-market.sol\":4072:4481  function toUint256(... */\n      swap3\n      swap2\n      pop\n      pop\n      jump\t// out\n        /* \"contracts/nft-market.sol\":219:240  IERC721 public erc721 */\n    tag_61:\n      0x01\n      0x00\n      swap1\n      sload\n      swap1\n      0x0100\n      exp\n      swap1\n      div\n      0xffffffffffffffffffffffffffffffffffffffff\n      and\n      dup2\n      jump\t// out\n        /* \"contracts/nft-market.sol\":1173:1725  function buy(uint256 _tokenId) external {... */\n    tag_66:\n        /* \"contracts/nft-market.sol\":1223:1237  address seller */\n      0x00\n        /* \"contracts/nft-market.sol\":1240:1249  orderOfId */\n      0x02\n        /* \"contracts/nft-market.sol\":1240:1259  orderOfId[_tokenId] */\n      0x00\n        /* \"contracts/nft-market.sol\":1250:1258  _tokenId */\n      dup4\n        /* \"contracts/nft-market.sol\":1240:1259  orderOfId[_tokenId] */\n      dup2\n      mstore\n      0x20\n      add\n      swap1\n      dup2\n      mstore\n      0x20\n      add\n      0x00\n      keccak256\n        /* \"contracts/nft-market.sol\":1240:1266  orderOfId[_tokenId].seller */\n      0x00\n      add\n      0x00\n      swap1\n      sload\n      swap1\n      0x0100\n      exp\n      swap1\n      div\n      0xffffffffffffffffffffffffffffffffffffffff\n      and\n        /* \"contracts/nft-market.sol\":1223:1266  address seller = orderOfId[_tokenId].seller */\n      swap1\n      pop\n        /* \"contracts/nft-market.sol\":1276:1289  address buyer */\n      0x00\n        /* \"contracts/nft-market.sol\":1292:1302  msg.sender */\n      caller\n        /* \"contracts/nft-market.sol\":1276:1302  address buyer = msg.sender */\n      swap1\n      pop\n        /* \"contracts/nft-market.sol\":1312:1325  uint256 price */\n      0x00\n        /* \"contracts/nft-market.sol\":1328:1337  orderOfId */\n      0x02\n        /* \"contracts/nft-market.sol\":1328:1347  orderOfId[_tokenId] */\n      0x00\n        /* \"contracts/nft-market.sol\":1338:1346  _tokenId */\n      dup6\n        /* \"contracts/nft-market.sol\":1328:1347  orderOfId[_tokenId] */\n      dup2\n      mstore\n      0x20\n      add\n      swap1\n      dup2\n      mstore\n      0x20\n      add\n      0x00\n      keccak256\n        /* \"contracts/nft-market.sol\":1328:1353  orderOfId[_tokenId].price */\n      0x02\n      add\n      sload\n        /* \"contracts/nft-market.sol\":1312:1353  uint256 price = orderOfId[_tokenId].price */\n      swap1\n      pop\n        /* \"contracts/nft-market.sol\":1382:1387  buyer */\n      dup2\n        /* \"contracts/nft-market.sol\":1372:1387  seller != buyer */\n      0xffffffffffffffffffffffffffffffffffffffff\n      and\n        /* \"contracts/nft-market.sol\":1372:1378  seller */\n      dup4\n        /* \"contracts/nft-market.sol\":1372:1387  seller != buyer */\n      0xffffffffffffffffffffffffffffffffffffffff\n      and\n      sub\n        /* \"contracts/nft-market.sol\":1364:1421  require(seller != buyer, \"seller and buyer are the same\") */\n      tag_155\n      jumpi\n      mload(0x40)\n      0x08c379a000000000000000000000000000000000000000000000000000000000\n      dup2\n      mstore\n      0x04\n      add\n      tag_156\n      swap1\n      tag_157\n      jump\t// in\n    tag_156:\n      mload(0x40)\n      dup1\n      swap2\n      sub\n      swap1\n      revert\n    tag_155:\n        /* \"contracts/nft-market.sol\":1447:1448  0 */\n      0x00\n        /* \"contracts/nft-market.sol\":1439:1444  price */\n      dup2\n        /* \"contracts/nft-market.sol\":1439:1448  price > 0 */\n      gt\n        /* \"contracts/nft-market.sol\":1431:1466  require(price > 0, \"price is zero\") */\n      tag_158\n      jumpi\n      mload(0x40)\n      0x08c379a000000000000000000000000000000000000000000000000000000000\n      dup2\n      mstore\n      0x04\n      add\n      tag_159\n      swap1\n      tag_94\n      jump\t// in\n    tag_159:\n      mload(0x40)\n      dup1\n      swap2\n      sub\n      swap1\n      revert\n    tag_158:\n        /* \"contracts/nft-market.sol\":1485:1490  erc20 */\n      0x00\n      dup1\n      sload\n      swap1\n      0x0100\n      exp\n      swap1\n      div\n      0xffffffffffffffffffffffffffffffffffffffff\n      and\n        /* \"contracts/nft-market.sol\":1485:1503  erc20.transferFrom */\n      0xffffffffffffffffffffffffffffffffffffffff\n      and\n      0x23b872dd\n        /* \"contracts/nft-market.sol\":1504:1509  buyer */\n      dup4\n        /* \"contracts/nft-market.sol\":1511:1517  seller */\n      dup6\n        /* \"contracts/nft-market.sol\":1519:1524  price */\n      dup5\n        /* \"contracts/nft-market.sol\":1485:1525  erc20.transferFrom(buyer, seller, price) */\n      mload(0x40)\n      dup5\n      0xffffffff\n      and\n      0xe0\n      shl\n      dup2\n      mstore\n      0x04\n      add\n      tag_160\n      swap4\n      swap3\n      swap2\n      swap1\n      tag_104\n      jump\t// in\n    tag_160:\n      0x20\n      mload(0x40)\n      dup1\n      dup4\n      sub\n      dup2\n      0x00\n      dup8\n      gas\n      call\n      iszero\n      dup1\n      iszero\n      tag_162\n      jumpi\n      returndatasize\n      0x00\n      dup1\n      returndatacopy\n      revert(0x00, returndatasize)\n    tag_162:\n      pop\n      pop\n      pop\n      pop\n      mload(0x40)\n      returndatasize\n      not(0x1f)\n      0x1f\n      dup3\n      add\n      and\n      dup3\n      add\n      dup1\n      0x40\n      mstore\n      pop\n      dup2\n      add\n      swap1\n      tag_163\n      swap2\n      swap1\n      tag_164\n      jump\t// in\n    tag_163:\n        /* \"contracts/nft-market.sol\":1477:1545  require(erc20.transferFrom(buyer, seller, price), \"transfer failed\") */\n      tag_165\n      jumpi\n      mload(0x40)\n      0x08c379a000000000000000000000000000000000000000000000000000000000\n      dup2\n      mstore\n      0x04\n      add\n      tag_166\n      swap1\n      tag_167\n      jump\t// in\n    tag_166:\n      mload(0x40)\n      dup1\n      swap2\n      sub\n      swap1\n      revert\n    tag_165:\n        /* \"contracts/nft-market.sol\":1555:1561  erc721 */\n      0x01\n      0x00\n      swap1\n      sload\n      swap1\n      0x0100\n      exp\n      swap1\n      div\n      0xffffffffffffffffffffffffffffffffffffffff\n      and\n        /* \"contracts/nft-market.sol\":1555:1578  erc721.safeTransferFrom */\n      0xffffffffffffffffffffffffffffffffffffffff\n      and\n      0x42842e0e\n        /* \"contracts/nft-market.sol\":1587:1591  this */\n      address\n        /* \"contracts/nft-market.sol\":1594:1599  buyer */\n      dup5\n        /* \"contracts/nft-market.sol\":1601:1609  _tokenId */\n      dup8\n        /* \"contracts/nft-market.sol\":1555:1610  erc721.safeTransferFrom(address(this), buyer, _tokenId) */\n      mload(0x40)\n      dup5\n      0xffffffff\n      and\n      0xe0\n      shl\n      dup2\n      mstore\n      0x04\n      add\n      tag_168\n      swap4\n      swap3\n      swap2\n      swap1\n      tag_104\n      jump\t// in\n    tag_168:\n      0x00\n      mload(0x40)\n      dup1\n      dup4\n      sub\n      dup2\n      0x00\n      dup8\n      dup1\n      extcodesize\n      iszero\n      dup1\n      iszero\n      tag_169\n      jumpi\n      0x00\n      dup1\n      revert\n    tag_169:\n      pop\n      gas\n      call\n      iszero\n      dup1\n      iszero\n      tag_171\n      jumpi\n      returndatasize\n      0x00\n      dup1\n      returndatacopy\n      revert(0x00, returndatasize)\n    tag_171:\n      pop\n      pop\n      pop\n      pop\n        /* \"contracts/nft-market.sol\":1646:1667  removeOrder(_tokenId) */\n      tag_172\n        /* \"contracts/nft-market.sol\":1658:1666  _tokenId */\n      dup5\n        /* \"contracts/nft-market.sol\":1646:1657  removeOrder */\n      tag_109\n        /* \"contracts/nft-market.sol\":1646:1667  removeOrder(_tokenId) */\n      jump\t// in\n    tag_172:\n        /* \"contracts/nft-market.sol\":1682:1718  Deal(seller, buyer, _tokenId, price) */\n      0x424d5e5f0192c7dacdbe646ca31b00299146d883d76a95ef5cddbac7cd342eab\n        /* \"contracts/nft-market.sol\":1687:1693  seller */\n      dup4\n        /* \"contracts/nft-market.sol\":1695:1700  buyer */\n      dup4\n        /* \"contracts/nft-market.sol\":1702:1710  _tokenId */\n      dup7\n        /* \"contracts/nft-market.sol\":1712:1717  price */\n      dup5\n        /* \"contracts/nft-market.sol\":1682:1718  Deal(seller, buyer, _tokenId, price) */\n      mload(0x40)\n      tag_173\n      swap5\n      swap4\n      swap3\n      swap2\n      swap1\n      tag_174\n      jump\t// in\n    tag_173:\n      mload(0x40)\n      dup1\n      swap2\n      sub\n      swap1\n      log1\n        /* \"contracts/nft-market.sol\":1213:1725  {... */\n      pop\n      pop\n      pop\n        /* \"contracts/nft-market.sol\":1173:1725  function buy(uint256 _tokenId) external {... */\n      pop\n      jump\t// out\n        /* \"contracts/nft-market.sol\":510:559  mapping(uint256 => uint256) public idToOrderIndex */\n    tag_69:\n      mstore(0x20, 0x04)\n      dup1\n      0x00\n      mstore\n      keccak256(0x00, 0x40)\n      0x00\n      swap2\n      pop\n      swap1\n      pop\n      sload\n      dup2\n      jump\t// out\n        /* \"contracts/nft-market.sol\":4588:4679  function getAllNFTs() external view returns (Order[] memory) {... */\n    tag_72:\n        /* \"contracts/nft-market.sol\":4633:4647  Order[] memory */\n      0x60\n        /* \"contracts/nft-market.sol\":4666:4672  orders */\n      0x03\n        /* \"contracts/nft-market.sol\":4659:4672  return orders */\n      dup1\n      sload\n      dup1\n      0x20\n      mul\n      0x20\n      add\n      mload(0x40)\n      swap1\n      dup2\n      add\n      0x40\n      mstore\n      dup1\n      swap3\n      swap2\n      swap1\n      dup2\n      dup2\n      mstore\n      0x20\n      add\n      0x00\n      swap1\n    tag_176:\n      dup3\n      dup3\n      lt\n      iszero\n      tag_177\n      jumpi\n      dup4\n      dup3\n      swap1\n      0x00\n      mstore\n      keccak256(0x00, 0x20)\n      swap1\n      0x03\n      mul\n      add\n      mload(0x40)\n      dup1\n      0x60\n      add\n      0x40\n      mstore\n      swap1\n      dup2\n      0x00\n      dup3\n      add\n      0x00\n      swap1\n      sload\n      swap1\n      0x0100\n      exp\n      swap1\n      div\n      0xffffffffffffffffffffffffffffffffffffffff\n      and\n      0xffffffffffffffffffffffffffffffffffffffff\n      and\n      0xffffffffffffffffffffffffffffffffffffffff\n      and\n      dup2\n      mstore\n      0x20\n      add\n      0x01\n      dup3\n      add\n      sload\n      dup2\n      mstore\n      0x20\n      add\n      0x02\n      dup3\n      add\n      sload\n      dup2\n      mstore\n      pop\n      pop\n      dup2\n      mstore\n      0x20\n      add\n      swap1\n      0x01\n      add\n      swap1\n      jump(tag_176)\n    tag_177:\n      pop\n      pop\n      pop\n      pop\n      swap1\n      pop\n        /* \"contracts/nft-market.sol\":4588:4679  function getAllNFTs() external view returns (Order[] memory) {... */\n      swap1\n      jump\t// out\n        /* \"contracts/nft-market.sol\":2570:2697  function isListed(uint256 _tokenId) public view returns (bool) {... */\n    tag_76:\n        /* \"contracts/nft-market.sol\":2627:2631  bool */\n      0x00\n        /* \"contracts/nft-market.sol\":2688:2689  0 */\n      dup1\n        /* \"contracts/nft-market.sol\":2650:2690  orderOfId[_tokenId].seller != address(0) */\n      0xffffffffffffffffffffffffffffffffffffffff\n      and\n        /* \"contracts/nft-market.sol\":2650:2659  orderOfId */\n      0x02\n        /* \"contracts/nft-market.sol\":2650:2669  orderOfId[_tokenId] */\n      0x00\n        /* \"contracts/nft-market.sol\":2660:2668  _tokenId */\n      dup5\n        /* \"contracts/nft-market.sol\":2650:2669  orderOfId[_tokenId] */\n      dup2\n      mstore\n      0x20\n      add\n      swap1\n      dup2\n      mstore\n      0x20\n      add\n      0x00\n      keccak256\n        /* \"contracts/nft-market.sol\":2650:2676  orderOfId[_tokenId].seller */\n      0x00\n      add\n      0x00\n      swap1\n      sload\n      swap1\n      0x0100\n      exp\n      swap1\n      div\n      0xffffffffffffffffffffffffffffffffffffffff\n      and\n        /* \"contracts/nft-market.sol\":2650:2690  orderOfId[_tokenId].seller != address(0) */\n      0xffffffffffffffffffffffffffffffffffffffff\n      and\n      eq\n      iszero\n        /* \"contracts/nft-market.sol\":2643:2690  return orderOfId[_tokenId].seller != address(0) */\n      swap1\n      pop\n        /* \"contracts/nft-market.sol\":2570:2697  function isListed(uint256 _tokenId) public view returns (bool) {... */\n      swap2\n      swap1\n      pop\n      jump\t// out\n        /* \"contracts/nft-market.sol\":3420:3948  function removeOrder(uint256 _tokenId) internal {... */\n    tag_109:\n        /* \"contracts/nft-market.sol\":3560:3573  uint256 index */\n      0x00\n        /* \"contracts/nft-market.sol\":3576:3590  idToOrderIndex */\n      0x04\n        /* \"contracts/nft-market.sol\":3576:3600  idToOrderIndex[_tokenId] */\n      0x00\n        /* \"contracts/nft-market.sol\":3591:3599  _tokenId */\n      dup4\n        /* \"contracts/nft-market.sol\":3576:3600  idToOrderIndex[_tokenId] */\n      dup2\n      mstore\n      0x20\n      add\n      swap1\n      dup2\n      mstore\n      0x20\n      add\n      0x00\n      keccak256\n      sload\n        /* \"contracts/nft-market.sol\":3560:3600  uint256 index = idToOrderIndex[_tokenId] */\n      swap1\n      pop\n        /* \"contracts/nft-market.sol\":3610:3627  uint256 lastIndex */\n      0x00\n        /* \"contracts/nft-market.sol\":3646:3647  1 */\n      0x01\n        /* \"contracts/nft-market.sol\":3630:3636  orders */\n      0x03\n        /* \"contracts/nft-market.sol\":3630:3643  orders.length */\n      dup1\n      sload\n      swap1\n      pop\n        /* \"contracts/nft-market.sol\":3630:3647  orders.length - 1 */\n      tag_181\n      swap2\n      swap1\n      tag_97\n      jump\t// in\n    tag_181:\n        /* \"contracts/nft-market.sol\":3610:3647  uint256 lastIndex = orders.length - 1 */\n      swap1\n      pop\n        /* \"contracts/nft-market.sol\":3670:3679  lastIndex */\n      dup1\n        /* \"contracts/nft-market.sol\":3661:3666  index */\n      dup3\n        /* \"contracts/nft-market.sol\":3661:3679  index != lastIndex */\n      eq\n        /* \"contracts/nft-market.sol\":3657:3843  if (index != lastIndex) {... */\n      tag_182\n      jumpi\n        /* \"contracts/nft-market.sol\":3695:3718  Order storage lastOrder */\n      0x00\n        /* \"contracts/nft-market.sol\":3721:3727  orders */\n      0x03\n        /* \"contracts/nft-market.sol\":3728:3737  lastIndex */\n      dup3\n        /* \"contracts/nft-market.sol\":3721:3738  orders[lastIndex] */\n      dup2\n      sload\n      dup2\n      lt\n      tag_183\n      jumpi\n      tag_184\n      tag_125\n      jump\t// in\n    tag_184:\n    tag_183:\n      swap1\n      0x00\n      mstore\n      keccak256(0x00, 0x20)\n      swap1\n      0x03\n      mul\n      add\n        /* \"contracts/nft-market.sol\":3695:3738  Order storage lastOrder = orders[lastIndex] */\n      swap1\n      pop\n        /* \"contracts/nft-market.sol\":3788:3793  index */\n      dup3\n        /* \"contracts/nft-market.sol\":3752:3766  idToOrderIndex */\n      0x04\n        /* \"contracts/nft-market.sol\":3752:3785  idToOrderIndex[lastOrder.tokenId] */\n      0x00\n        /* \"contracts/nft-market.sol\":3767:3776  lastOrder */\n      dup4\n        /* \"contracts/nft-market.sol\":3767:3784  lastOrder.tokenId */\n      0x01\n      add\n      sload\n        /* \"contracts/nft-market.sol\":3752:3785  idToOrderIndex[lastOrder.tokenId] */\n      dup2\n      mstore\n      0x20\n      add\n      swap1\n      dup2\n      mstore\n      0x20\n      add\n      0x00\n      keccak256\n        /* \"contracts/nft-market.sol\":3752:3793  idToOrderIndex[lastOrder.tokenId] = index */\n      dup2\n      swap1\n      sstore\n      pop\n        /* \"contracts/nft-market.sol\":3823:3832  lastOrder */\n      dup1\n        /* \"contracts/nft-market.sol\":3807:3813  orders */\n      0x03\n        /* \"contracts/nft-market.sol\":3814:3819  index */\n      dup5\n        /* \"contracts/nft-market.sol\":3807:3820  orders[index] */\n      dup2\n      sload\n      dup2\n      lt\n      tag_186\n      jumpi\n      tag_187\n      tag_125\n      jump\t// in\n    tag_187:\n    tag_186:\n      swap1\n      0x00\n      mstore\n      keccak256(0x00, 0x20)\n      swap1\n      0x03\n      mul\n      add\n        /* \"contracts/nft-market.sol\":3807:3832  orders[index] = lastOrder */\n      0x00\n      dup3\n      add\n      0x00\n      swap1\n      sload\n      swap1\n      0x0100\n      exp\n      swap1\n      div\n      0xffffffffffffffffffffffffffffffffffffffff\n      and\n      dup2\n      0x00\n      add\n      exp(0x0100, 0x00)\n      dup2\n      sload\n      dup2\n      0xffffffffffffffffffffffffffffffffffffffff\n      mul\n      not\n      and\n      swap1\n      dup4\n      0xffffffffffffffffffffffffffffffffffffffff\n      and\n      mul\n      or\n      swap1\n      sstore\n      pop\n      0x01\n      dup3\n      add\n      sload\n      dup2\n      0x01\n      add\n      sstore\n      0x02\n      dup3\n      add\n      sload\n      dup2\n      0x02\n      add\n      sstore\n      swap1\n      pop\n      pop\n        /* \"contracts/nft-market.sol\":3681:3843  {... */\n      pop\n        /* \"contracts/nft-market.sol\":3657:3843  if (index != lastIndex) {... */\n    tag_182:\n        /* \"contracts/nft-market.sol\":3852:3858  orders */\n      0x03\n        /* \"contracts/nft-market.sol\":3852:3864  orders.pop() */\n      dup1\n      sload\n      dup1\n      tag_189\n      jumpi\n      tag_190\n      tag_191\n      jump\t// in\n    tag_190:\n    tag_189:\n      0x01\n      swap1\n      sub\n      dup2\n      dup2\n      swap1\n      0x00\n      mstore\n      keccak256(0x00, 0x20)\n      swap1\n      0x03\n      mul\n      add\n      0x00\n      dup1\n      dup3\n      add\n      exp(0x0100, 0x00)\n      dup2\n      sload\n      swap1\n      0xffffffffffffffffffffffffffffffffffffffff\n      mul\n      not\n      and\n      swap1\n      sstore\n      0x01\n      dup3\n      add\n      0x00\n      swap1\n      sstore\n      0x02\n      dup3\n      add\n      0x00\n      swap1\n      sstore\n      pop\n      pop\n      swap1\n      sstore\n        /* \"contracts/nft-market.sol\":3881:3890  orderOfId */\n      0x02\n        /* \"contracts/nft-market.sol\":3881:3900  orderOfId[_tokenId] */\n      0x00\n        /* \"contracts/nft-market.sol\":3891:3899  _tokenId */\n      dup5\n        /* \"contracts/nft-market.sol\":3881:3900  orderOfId[_tokenId] */\n      dup2\n      mstore\n      0x20\n      add\n      swap1\n      dup2\n      mstore\n      0x20\n      add\n      0x00\n      keccak256\n      0x00\n        /* \"contracts/nft-market.sol\":3874:3900  delete orderOfId[_tokenId] */\n      dup1\n      dup3\n      add\n      exp(0x0100, 0x00)\n      dup2\n      sload\n      swap1\n      0xffffffffffffffffffffffffffffffffffffffff\n      mul\n      not\n      and\n      swap1\n      sstore\n      0x01\n      dup3\n      add\n      0x00\n      swap1\n      sstore\n      0x02\n      dup3\n      add\n      0x00\n      swap1\n      sstore\n      pop\n      pop\n        /* \"contracts/nft-market.sol\":3917:3931  idToOrderIndex */\n      0x04\n        /* \"contracts/nft-market.sol\":3917:3941  idToOrderIndex[_tokenId] */\n      0x00\n        /* \"contracts/nft-market.sol\":3932:3940  _tokenId */\n      dup5\n        /* \"contracts/nft-market.sol\":3917:3941  idToOrderIndex[_tokenId] */\n      dup2\n      mstore\n      0x20\n      add\n      swap1\n      dup2\n      mstore\n      0x20\n      add\n      0x00\n      keccak256\n        /* \"contracts/nft-market.sol\":3910:3941  delete idToOrderIndex[_tokenId] */\n      0x00\n      swap1\n      sstore\n        /* \"contracts/nft-market.sol\":3468:3948  {... */\n      pop\n      pop\n        /* \"contracts/nft-market.sol\":3420:3948  function removeOrder(uint256 _tokenId) internal {... */\n      pop\n      jump\t// out\n    tag_119:\n      mload(0x40)\n      dup1\n      0x60\n      add\n      0x40\n      mstore\n      dup1\n      and(0xffffffffffffffffffffffffffffffffffffffff, 0x00)\n      dup2\n      mstore\n      0x20\n      add\n      0x00\n      dup2\n      mstore\n      0x20\n      add\n      0x00\n      dup2\n      mstore\n      pop\n      swap1\n      jump\t// out\n        /* \"#utility.yul\":7:82   */\n    tag_193:\n        /* \"#utility.yul\":40:46   */\n      0x00\n        /* \"#utility.yul\":73:75   */\n      0x40\n        /* \"#utility.yul\":67:76   */\n      mload\n        /* \"#utility.yul\":57:76   */\n      swap1\n      pop\n        /* \"#utility.yul\":7:82   */\n      swap1\n      jump\t// out\n        /* \"#utility.yul\":88:205   */\n    tag_194:\n        /* \"#utility.yul\":197:198   */\n      0x00\n        /* \"#utility.yul\":194:195   */\n      dup1\n        /* \"#utility.yul\":187:199   */\n      revert\n        /* \"#utility.yul\":211:328   */\n    tag_195:\n        /* \"#utility.yul\":320:321   */\n      0x00\n        /* \"#utility.yul\":317:318   */\n      dup1\n        /* \"#utility.yul\":310:322   */\n      revert\n        /* \"#utility.yul\":334:460   */\n    tag_196:\n        /* \"#utility.yul\":371:378   */\n      0x00\n        /* \"#utility.yul\":411:453   */\n      0xffffffffffffffffffffffffffffffffffffffff\n        /* \"#utility.yul\":404:409   */\n      dup3\n        /* \"#utility.yul\":400:454   */\n      and\n        /* \"#utility.yul\":389:454   */\n      swap1\n      pop\n        /* \"#utility.yul\":334:460   */\n      swap2\n      swap1\n      pop\n      jump\t// out\n        /* \"#utility.yul\":466:562   */\n    tag_197:\n        /* \"#utility.yul\":503:510   */\n      0x00\n        /* \"#utility.yul\":532:556   */\n      tag_264\n        /* \"#utility.yul\":550:555   */\n      dup3\n        /* \"#utility.yul\":532:556   */\n      tag_196\n      jump\t// in\n    tag_264:\n        /* \"#utility.yul\":521:556   */\n      swap1\n      pop\n        /* \"#utility.yul\":466:562   */\n      swap2\n      swap1\n      pop\n      jump\t// out\n        /* \"#utility.yul\":568:690   */\n    tag_198:\n        /* \"#utility.yul\":641:665   */\n      tag_266\n        /* \"#utility.yul\":659:664   */\n      dup2\n        /* \"#utility.yul\":641:665   */\n      tag_197\n      jump\t// in\n    tag_266:\n        /* \"#utility.yul\":634:639   */\n      dup2\n        /* \"#utility.yul\":631:666   */\n      eq\n        /* \"#utility.yul\":621:684   */\n      tag_267\n      jumpi\n        /* \"#utility.yul\":680:681   */\n      0x00\n        /* \"#utility.yul\":677:678   */\n      dup1\n        /* \"#utility.yul\":670:682   */\n      revert\n        /* \"#utility.yul\":621:684   */\n    tag_267:\n        /* \"#utility.yul\":568:690   */\n      pop\n      jump\t// out\n        /* \"#utility.yul\":696:835   */\n    tag_199:\n        /* \"#utility.yul\":742:747   */\n      0x00\n        /* \"#utility.yul\":780:786   */\n      dup2\n        /* \"#utility.yul\":767:787   */\n      calldataload\n        /* \"#utility.yul\":758:787   */\n      swap1\n      pop\n        /* \"#utility.yul\":796:829   */\n      tag_269\n        /* \"#utility.yul\":823:828   */\n      dup2\n        /* \"#utility.yul\":796:829   */\n      tag_198\n      jump\t// in\n    tag_269:\n        /* \"#utility.yul\":696:835   */\n      swap3\n      swap2\n      pop\n      pop\n      jump\t// out\n        /* \"#utility.yul\":841:918   */\n    tag_200:\n        /* \"#utility.yul\":878:885   */\n      0x00\n        /* \"#utility.yul\":907:912   */\n      dup2\n        /* \"#utility.yul\":896:912   */\n      swap1\n      pop\n        /* \"#utility.yul\":841:918   */\n      swap2\n      swap1\n      pop\n      jump\t// out\n        /* \"#utility.yul\":924:1046   */\n    tag_201:\n        /* \"#utility.yul\":997:1021   */\n      tag_272\n        /* \"#utility.yul\":1015:1020   */\n      dup2\n        /* \"#utility.yul\":997:1021   */\n      tag_200\n      jump\t// in\n    tag_272:\n        /* \"#utility.yul\":990:995   */\n      dup2\n        /* \"#utility.yul\":987:1022   */\n      eq\n        /* \"#utility.yul\":977:1040   */\n      tag_273\n      jumpi\n        /* \"#utility.yul\":1036:1037   */\n      0x00\n        /* \"#utility.yul\":1033:1034   */\n      dup1\n        /* \"#utility.yul\":1026:1038   */\n      revert\n        /* \"#utility.yul\":977:1040   */\n    tag_273:\n        /* \"#utility.yul\":924:1046   */\n      pop\n      jump\t// out\n        /* \"#utility.yul\":1052:1191   */\n    tag_202:\n        /* \"#utility.yul\":1098:1103   */\n      0x00\n        /* \"#utility.yul\":1136:1142   */\n      dup2\n        /* \"#utility.yul\":1123:1143   */\n      calldataload\n        /* \"#utility.yul\":1114:1143   */\n      swap1\n      pop\n        /* \"#utility.yul\":1152:1185   */\n      tag_275\n        /* \"#utility.yul\":1179:1184   */\n      dup2\n        /* \"#utility.yul\":1152:1185   */\n      tag_201\n      jump\t// in\n    tag_275:\n        /* \"#utility.yul\":1052:1191   */\n      swap3\n      swap2\n      pop\n      pop\n      jump\t// out\n        /* \"#utility.yul\":1197:1314   */\n    tag_203:\n        /* \"#utility.yul\":1306:1307   */\n      0x00\n        /* \"#utility.yul\":1303:1304   */\n      dup1\n        /* \"#utility.yul\":1296:1308   */\n      revert\n        /* \"#utility.yul\":1320:1437   */\n    tag_204:\n        /* \"#utility.yul\":1429:1430   */\n      0x00\n        /* \"#utility.yul\":1426:1427   */\n      dup1\n        /* \"#utility.yul\":1419:1431   */\n      revert\n        /* \"#utility.yul\":1443:1560   */\n    tag_205:\n        /* \"#utility.yul\":1552:1553   */\n      0x00\n        /* \"#utility.yul\":1549:1550   */\n      dup1\n        /* \"#utility.yul\":1542:1554   */\n      revert\n        /* \"#utility.yul\":1579:2131   */\n    tag_206:\n        /* \"#utility.yul\":1636:1644   */\n      0x00\n        /* \"#utility.yul\":1646:1652   */\n      dup1\n        /* \"#utility.yul\":1696:1699   */\n      dup4\n        /* \"#utility.yul\":1689:1693   */\n      0x1f\n        /* \"#utility.yul\":1681:1687   */\n      dup5\n        /* \"#utility.yul\":1677:1694   */\n      add\n        /* \"#utility.yul\":1673:1700   */\n      slt\n        /* \"#utility.yul\":1663:1785   */\n      tag_280\n      jumpi\n        /* \"#utility.yul\":1704:1783   */\n      tag_281\n      tag_203\n      jump\t// in\n    tag_281:\n        /* \"#utility.yul\":1663:1785   */\n    tag_280:\n        /* \"#utility.yul\":1817:1823   */\n      dup3\n        /* \"#utility.yul\":1804:1824   */\n      calldataload\n        /* \"#utility.yul\":1794:1824   */\n      swap1\n      pop\n        /* \"#utility.yul\":1847:1865   */\n      0xffffffffffffffff\n        /* \"#utility.yul\":1839:1845   */\n      dup2\n        /* \"#utility.yul\":1836:1866   */\n      gt\n        /* \"#utility.yul\":1833:1950   */\n      iszero\n      tag_282\n      jumpi\n        /* \"#utility.yul\":1869:1948   */\n      tag_283\n      tag_204\n      jump\t// in\n    tag_283:\n        /* \"#utility.yul\":1833:1950   */\n    tag_282:\n        /* \"#utility.yul\":1983:1987   */\n      0x20\n        /* \"#utility.yul\":1975:1981   */\n      dup4\n        /* \"#utility.yul\":1971:1988   */\n      add\n        /* \"#utility.yul\":1959:1988   */\n      swap2\n      pop\n        /* \"#utility.yul\":2037:2040   */\n      dup4\n        /* \"#utility.yul\":2029:2033   */\n      0x01\n        /* \"#utility.yul\":2021:2027   */\n      dup3\n        /* \"#utility.yul\":2017:2034   */\n      mul\n        /* \"#utility.yul\":2007:2015   */\n      dup4\n        /* \"#utility.yul\":2003:2035   */\n      add\n        /* \"#utility.yul\":2000:2041   */\n      gt\n        /* \"#utility.yul\":1997:2125   */\n      iszero\n      tag_284\n      jumpi\n        /* \"#utility.yul\":2044:2123   */\n      tag_285\n      tag_205\n      jump\t// in\n    tag_285:\n        /* \"#utility.yul\":1997:2125   */\n    tag_284:\n        /* \"#utility.yul\":1579:2131   */\n      swap3\n      pop\n      swap3\n      swap1\n      pop\n      jump\t// out\n        /* \"#utility.yul\":2137:3100   */\n    tag_22:\n        /* \"#utility.yul\":2234:2240   */\n      0x00\n        /* \"#utility.yul\":2242:2248   */\n      dup1\n        /* \"#utility.yul\":2250:2256   */\n      0x00\n        /* \"#utility.yul\":2258:2264   */\n      dup1\n        /* \"#utility.yul\":2266:2272   */\n      0x00\n        /* \"#utility.yul\":2315:2318   */\n      0x80\n        /* \"#utility.yul\":2303:2312   */\n      dup7\n        /* \"#utility.yul\":2294:2301   */\n      dup9\n        /* \"#utility.yul\":2290:2313   */\n      sub\n        /* \"#utility.yul\":2286:2319   */\n      slt\n        /* \"#utility.yul\":2283:2403   */\n      iszero\n      tag_287\n      jumpi\n        /* \"#utility.yul\":2322:2401   */\n      tag_288\n      tag_194\n      jump\t// in\n    tag_288:\n        /* \"#utility.yul\":2283:2403   */\n    tag_287:\n        /* \"#utility.yul\":2442:2443   */\n      0x00\n        /* \"#utility.yul\":2467:2520   */\n      tag_289\n        /* \"#utility.yul\":2512:2519   */\n      dup9\n        /* \"#utility.yul\":2503:2509   */\n      dup3\n        /* \"#utility.yul\":2492:2501   */\n      dup10\n        /* \"#utility.yul\":2488:2510   */\n      add\n        /* \"#utility.yul\":2467:2520   */\n      tag_199\n      jump\t// in\n    tag_289:\n        /* \"#utility.yul\":2457:2520   */\n      swap6\n      pop\n        /* \"#utility.yul\":2413:2530   */\n      pop\n        /* \"#utility.yul\":2569:2571   */\n      0x20\n        /* \"#utility.yul\":2595:2648   */\n      tag_290\n        /* \"#utility.yul\":2640:2647   */\n      dup9\n        /* \"#utility.yul\":2631:2637   */\n      dup3\n        /* \"#utility.yul\":2620:2629   */\n      dup10\n        /* \"#utility.yul\":2616:2638   */\n      add\n        /* \"#utility.yul\":2595:2648   */\n      tag_199\n      jump\t// in\n    tag_290:\n        /* \"#utility.yul\":2585:2648   */\n      swap5\n      pop\n        /* \"#utility.yul\":2540:2658   */\n      pop\n        /* \"#utility.yul\":2697:2699   */\n      0x40\n        /* \"#utility.yul\":2723:2776   */\n      tag_291\n        /* \"#utility.yul\":2768:2775   */\n      dup9\n        /* \"#utility.yul\":2759:2765   */\n      dup3\n        /* \"#utility.yul\":2748:2757   */\n      dup10\n        /* \"#utility.yul\":2744:2766   */\n      add\n        /* \"#utility.yul\":2723:2776   */\n      tag_202\n      jump\t// in\n    tag_291:\n        /* \"#utility.yul\":2713:2776   */\n      swap4\n      pop\n        /* \"#utility.yul\":2668:2786   */\n      pop\n        /* \"#utility.yul\":2853:2855   */\n      0x60\n        /* \"#utility.yul\":2842:2851   */\n      dup7\n        /* \"#utility.yul\":2838:2856   */\n      add\n        /* \"#utility.yul\":2825:2857   */\n      calldataload\n        /* \"#utility.yul\":2884:2902   */\n      0xffffffffffffffff\n        /* \"#utility.yul\":2876:2882   */\n      dup2\n        /* \"#utility.yul\":2873:2903   */\n      gt\n        /* \"#utility.yul\":2870:2987   */\n      iszero\n      tag_292\n      jumpi\n        /* \"#utility.yul\":2906:2985   */\n      tag_293\n      tag_195\n      jump\t// in\n    tag_293:\n        /* \"#utility.yul\":2870:2987   */\n    tag_292:\n        /* \"#utility.yul\":3019:3083   */\n      tag_294\n        /* \"#utility.yul\":3075:3082   */\n      dup9\n        /* \"#utility.yul\":3066:3072   */\n      dup3\n        /* \"#utility.yul\":3055:3064   */\n      dup10\n        /* \"#utility.yul\":3051:3073   */\n      add\n        /* \"#utility.yul\":3019:3083   */\n      tag_206\n      jump\t// in\n    tag_294:\n        /* \"#utility.yul\":3001:3083   */\n      swap3\n      pop\n      swap3\n      pop\n        /* \"#utility.yul\":2796:3093   */\n      pop\n        /* \"#utility.yul\":2137:3100   */\n      swap3\n      swap6\n      pop\n      swap3\n      swap6\n      swap1\n      swap4\n      pop\n      jump\t// out\n        /* \"#utility.yul\":3106:3255   */\n    tag_207:\n        /* \"#utility.yul\":3142:3149   */\n      0x00\n        /* \"#utility.yul\":3182:3248   */\n      0xffffffff00000000000000000000000000000000000000000000000000000000\n        /* \"#utility.yul\":3175:3180   */\n      dup3\n        /* \"#utility.yul\":3171:3249   */\n      and\n        /* \"#utility.yul\":3160:3249   */\n      swap1\n      pop\n        /* \"#utility.yul\":3106:3255   */\n      swap2\n      swap1\n      pop\n      jump\t// out\n        /* \"#utility.yul\":3261:3376   */\n    tag_208:\n        /* \"#utility.yul\":3346:3369   */\n      tag_297\n        /* \"#utility.yul\":3363:3368   */\n      dup2\n        /* \"#utility.yul\":3346:3369   */\n      tag_207\n      jump\t// in\n    tag_297:\n        /* \"#utility.yul\":3341:3344   */\n      dup3\n        /* \"#utility.yul\":3334:3370   */\n      mstore\n        /* \"#utility.yul\":3261:3376   */\n      pop\n      pop\n      jump\t// out\n        /* \"#utility.yul\":3382:3600   */\n    tag_25:\n        /* \"#utility.yul\":3473:3477   */\n      0x00\n        /* \"#utility.yul\":3511:3513   */\n      0x20\n        /* \"#utility.yul\":3500:3509   */\n      dup3\n        /* \"#utility.yul\":3496:3514   */\n      add\n        /* \"#utility.yul\":3488:3514   */\n      swap1\n      pop\n        /* \"#utility.yul\":3524:3593   */\n      tag_299\n        /* \"#utility.yul\":3590:3591   */\n      0x00\n        /* \"#utility.yul\":3579:3588   */\n      dup4\n        /* \"#utility.yul\":3575:3592   */\n      add\n        /* \"#utility.yul\":3566:3572   */\n      dup5\n        /* \"#utility.yul\":3524:3593   */\n      tag_208\n      jump\t// in\n    tag_299:\n        /* \"#utility.yul\":3382:3600   */\n      swap3\n      swap2\n      pop\n      pop\n      jump\t// out\n        /* \"#utility.yul\":3606:3935   */\n    tag_28:\n        /* \"#utility.yul\":3665:3671   */\n      0x00\n        /* \"#utility.yul\":3714:3716   */\n      0x20\n        /* \"#utility.yul\":3702:3711   */\n      dup3\n        /* \"#utility.yul\":3693:3700   */\n      dup5\n        /* \"#utility.yul\":3689:3712   */\n      sub\n        /* \"#utility.yul\":3685:3717   */\n      slt\n        /* \"#utility.yul\":3682:3801   */\n      iszero\n      tag_301\n      jumpi\n        /* \"#utility.yul\":3720:3799   */\n      tag_302\n      tag_194\n      jump\t// in\n    tag_302:\n        /* \"#utility.yul\":3682:3801   */\n    tag_301:\n        /* \"#utility.yul\":3840:3841   */\n      0x00\n        /* \"#utility.yul\":3865:3918   */\n      tag_303\n        /* \"#utility.yul\":3910:3917   */\n      dup5\n        /* \"#utility.yul\":3901:3907   */\n      dup3\n        /* \"#utility.yul\":3890:3899   */\n      dup6\n        /* \"#utility.yul\":3886:3908   */\n      add\n        /* \"#utility.yul\":3865:3918   */\n      tag_202\n      jump\t// in\n    tag_303:\n        /* \"#utility.yul\":3855:3918   */\n      swap2\n      pop\n        /* \"#utility.yul\":3811:3928   */\n      pop\n        /* \"#utility.yul\":3606:3935   */\n      swap3\n      swap2\n      pop\n      pop\n      jump\t// out\n        /* \"#utility.yul\":3941:4059   */\n    tag_209:\n        /* \"#utility.yul\":4028:4052   */\n      tag_305\n        /* \"#utility.yul\":4046:4051   */\n      dup2\n        /* \"#utility.yul\":4028:4052   */\n      tag_197\n      jump\t// in\n    tag_305:\n        /* \"#utility.yul\":4023:4026   */\n      dup3\n        /* \"#utility.yul\":4016:4053   */\n      mstore\n        /* \"#utility.yul\":3941:4059   */\n      pop\n      pop\n      jump\t// out\n        /* \"#utility.yul\":4065:4183   */\n    tag_210:\n        /* \"#utility.yul\":4152:4176   */\n      tag_307\n        /* \"#utility.yul\":4170:4175   */\n      dup2\n        /* \"#utility.yul\":4152:4176   */\n      tag_200\n      jump\t// in\n    tag_307:\n        /* \"#utility.yul\":4147:4150   */\n      dup3\n        /* \"#utility.yul\":4140:4177   */\n      mstore\n        /* \"#utility.yul\":4065:4183   */\n      pop\n      pop\n      jump\t// out\n        /* \"#utility.yul\":4189:4631   */\n    tag_31:\n        /* \"#utility.yul\":4338:4342   */\n      0x00\n        /* \"#utility.yul\":4376:4378   */\n      0x60\n        /* \"#utility.yul\":4365:4374   */\n      dup3\n        /* \"#utility.yul\":4361:4379   */\n      add\n        /* \"#utility.yul\":4353:4379   */\n      swap1\n      pop\n        /* \"#utility.yul\":4389:4460   */\n      tag_309\n        /* \"#utility.yul\":4457:4458   */\n      0x00\n        /* \"#utility.yul\":4446:4455   */\n      dup4\n        /* \"#utility.yul\":4442:4459   */\n      add\n        /* \"#utility.yul\":4433:4439   */\n      dup7\n        /* \"#utility.yul\":4389:4460   */\n      tag_209\n      jump\t// in\n    tag_309:\n        /* \"#utility.yul\":4470:4542   */\n      tag_310\n        /* \"#utility.yul\":4538:4540   */\n      0x20\n        /* \"#utility.yul\":4527:4536   */\n      dup4\n        /* \"#utility.yul\":4523:4541   */\n      add\n        /* \"#utility.yul\":4514:4520   */\n      dup6\n        /* \"#utility.yul\":4470:4542   */\n      tag_210\n      jump\t// in\n    tag_310:\n        /* \"#utility.yul\":4552:4624   */\n      tag_311\n        /* \"#utility.yul\":4620:4622   */\n      0x40\n        /* \"#utility.yul\":4609:4618   */\n      dup4\n        /* \"#utility.yul\":4605:4623   */\n      add\n        /* \"#utility.yul\":4596:4602   */\n      dup5\n        /* \"#utility.yul\":4552:4624   */\n      tag_210\n      jump\t// in\n    tag_311:\n        /* \"#utility.yul\":4189:4631   */\n      swap5\n      swap4\n      pop\n      pop\n      pop\n      pop\n      jump\t// out\n        /* \"#utility.yul\":4637:4773   */\n    tag_211:\n        /* \"#utility.yul\":4726:4732   */\n      0x00\n        /* \"#utility.yul\":4760:4765   */\n      dup2\n        /* \"#utility.yul\":4754:4766   */\n      mload\n        /* \"#utility.yul\":4744:4766   */\n      swap1\n      pop\n        /* \"#utility.yul\":4637:4773   */\n      swap2\n      swap1\n      pop\n      jump\t// out\n        /* \"#utility.yul\":4779:4985   */\n    tag_212:\n        /* \"#utility.yul\":4900:4911   */\n      0x00\n        /* \"#utility.yul\":4934:4940   */\n      dup3\n        /* \"#utility.yul\":4929:4932   */\n      dup3\n        /* \"#utility.yul\":4922:4941   */\n      mstore\n        /* \"#utility.yul\":4974:4978   */\n      0x20\n        /* \"#utility.yul\":4969:4972   */\n      dup3\n        /* \"#utility.yul\":4965:4979   */\n      add\n        /* \"#utility.yul\":4950:4979   */\n      swap1\n      pop\n        /* \"#utility.yul\":4779:4985   */\n      swap3\n      swap2\n      pop\n      pop\n      jump\t// out\n        /* \"#utility.yul\":4991:5145   */\n    tag_213:\n        /* \"#utility.yul\":5080:5084   */\n      0x00\n        /* \"#utility.yul\":5103:5106   */\n      dup2\n        /* \"#utility.yul\":5095:5106   */\n      swap1\n      pop\n        /* \"#utility.yul\":5133:5137   */\n      0x20\n        /* \"#utility.yul\":5128:5131   */\n      dup3\n        /* \"#utility.yul\":5124:5138   */\n      add\n        /* \"#utility.yul\":5116:5138   */\n      swap1\n      pop\n        /* \"#utility.yul\":4991:5145   */\n      swap2\n      swap1\n      pop\n      jump\t// out\n        /* \"#utility.yul\":5151:5259   */\n    tag_214:\n        /* \"#utility.yul\":5228:5252   */\n      tag_316\n        /* \"#utility.yul\":5246:5251   */\n      dup2\n        /* \"#utility.yul\":5228:5252   */\n      tag_197\n      jump\t// in\n    tag_316:\n        /* \"#utility.yul\":5223:5226   */\n      dup3\n        /* \"#utility.yul\":5216:5253   */\n      mstore\n        /* \"#utility.yul\":5151:5259   */\n      pop\n      pop\n      jump\t// out\n        /* \"#utility.yul\":5265:5373   */\n    tag_215:\n        /* \"#utility.yul\":5342:5366   */\n      tag_318\n        /* \"#utility.yul\":5360:5365   */\n      dup2\n        /* \"#utility.yul\":5342:5366   */\n      tag_200\n      jump\t// in\n    tag_318:\n        /* \"#utility.yul\":5337:5340   */\n      dup3\n        /* \"#utility.yul\":5330:5367   */\n      mstore\n        /* \"#utility.yul\":5265:5373   */\n      pop\n      pop\n      jump\t// out\n        /* \"#utility.yul\":5429:6100   */\n    tag_216:\n        /* \"#utility.yul\":5560:5564   */\n      0x60\n        /* \"#utility.yul\":5555:5558   */\n      dup3\n        /* \"#utility.yul\":5551:5565   */\n      add\n        /* \"#utility.yul\":5649:5653   */\n      0x00\n        /* \"#utility.yul\":5642:5647   */\n      dup3\n        /* \"#utility.yul\":5638:5654   */\n      add\n        /* \"#utility.yul\":5632:5655   */\n      mload\n        /* \"#utility.yul\":5668:5731   */\n      tag_320\n        /* \"#utility.yul\":5725:5729   */\n      0x00\n        /* \"#utility.yul\":5720:5723   */\n      dup6\n        /* \"#utility.yul\":5716:5730   */\n      add\n        /* \"#utility.yul\":5702:5714   */\n      dup3\n        /* \"#utility.yul\":5668:5731   */\n      tag_214\n      jump\t// in\n    tag_320:\n        /* \"#utility.yul\":5575:5741   */\n      pop\n        /* \"#utility.yul\":5826:5830   */\n      0x20\n        /* \"#utility.yul\":5819:5824   */\n      dup3\n        /* \"#utility.yul\":5815:5831   */\n      add\n        /* \"#utility.yul\":5809:5832   */\n      mload\n        /* \"#utility.yul\":5845:5908   */\n      tag_321\n        /* \"#utility.yul\":5902:5906   */\n      0x20\n        /* \"#utility.yul\":5897:5900   */\n      dup6\n        /* \"#utility.yul\":5893:5907   */\n      add\n        /* \"#utility.yul\":5879:5891   */\n      dup3\n        /* \"#utility.yul\":5845:5908   */\n      tag_215\n      jump\t// in\n    tag_321:\n        /* \"#utility.yul\":5751:5918   */\n      pop\n        /* \"#utility.yul\":6001:6005   */\n      0x40\n        /* \"#utility.yul\":5994:5999   */\n      dup3\n        /* \"#utility.yul\":5990:6006   */\n      add\n        /* \"#utility.yul\":5984:6007   */\n      mload\n        /* \"#utility.yul\":6020:6083   */\n      tag_322\n        /* \"#utility.yul\":6077:6081   */\n      0x40\n        /* \"#utility.yul\":6072:6075   */\n      dup6\n        /* \"#utility.yul\":6068:6082   */\n      add\n        /* \"#utility.yul\":6054:6066   */\n      dup3\n        /* \"#utility.yul\":6020:6083   */\n      tag_215\n      jump\t// in\n    tag_322:\n        /* \"#utility.yul\":5928:6093   */\n      pop\n        /* \"#utility.yul\":5529:6100   */\n      pop\n        /* \"#utility.yul\":5429:6100   */\n      pop\n      pop\n      jump\t// out\n        /* \"#utility.yul\":6106:6373   */\n    tag_217:\n        /* \"#utility.yul\":6219:6229   */\n      0x00\n        /* \"#utility.yul\":6240:6330   */\n      tag_324\n        /* \"#utility.yul\":6326:6329   */\n      dup4\n        /* \"#utility.yul\":6318:6324   */\n      dup4\n        /* \"#utility.yul\":6240:6330   */\n      tag_216\n      jump\t// in\n    tag_324:\n        /* \"#utility.yul\":6362:6366   */\n      0x60\n        /* \"#utility.yul\":6357:6360   */\n      dup4\n        /* \"#utility.yul\":6353:6367   */\n      add\n        /* \"#utility.yul\":6339:6367   */\n      swap1\n      pop\n        /* \"#utility.yul\":6106:6373   */\n      swap3\n      swap2\n      pop\n      pop\n      jump\t// out\n        /* \"#utility.yul\":6379:6514   */\n    tag_218:\n        /* \"#utility.yul\":6471:6475   */\n      0x00\n        /* \"#utility.yul\":6503:6507   */\n      0x20\n        /* \"#utility.yul\":6498:6501   */\n      dup3\n        /* \"#utility.yul\":6494:6508   */\n      add\n        /* \"#utility.yul\":6486:6508   */\n      swap1\n      pop\n        /* \"#utility.yul\":6379:6514   */\n      swap2\n      swap1\n      pop\n      jump\t// out\n        /* \"#utility.yul\":6574:7482   */\n    tag_219:\n        /* \"#utility.yul\":6737:6740   */\n      0x00\n        /* \"#utility.yul\":6766:6842   */\n      tag_327\n        /* \"#utility.yul\":6836:6841   */\n      dup3\n        /* \"#utility.yul\":6766:6842   */\n      tag_211\n      jump\t// in\n    tag_327:\n        /* \"#utility.yul\":6858:6966   */\n      tag_328\n        /* \"#utility.yul\":6959:6965   */\n      dup2\n        /* \"#utility.yul\":6954:6957   */\n      dup6\n        /* \"#utility.yul\":6858:6966   */\n      tag_212\n      jump\t// in\n    tag_328:\n        /* \"#utility.yul\":6851:6966   */\n      swap4\n      pop\n        /* \"#utility.yul\":6990:7068   */\n      tag_329\n        /* \"#utility.yul\":7062:7067   */\n      dup4\n        /* \"#utility.yul\":6990:7068   */\n      tag_213\n      jump\t// in\n    tag_329:\n        /* \"#utility.yul\":7091:7098   */\n      dup1\n        /* \"#utility.yul\":7122:7123   */\n      0x00\n        /* \"#utility.yul\":7107:7457   */\n    tag_330:\n        /* \"#utility.yul\":7132:7138   */\n      dup4\n        /* \"#utility.yul\":7129:7130   */\n      dup2\n        /* \"#utility.yul\":7126:7139   */\n      lt\n        /* \"#utility.yul\":7107:7457   */\n      iszero\n      tag_332\n      jumpi\n        /* \"#utility.yul\":7208:7214   */\n      dup2\n        /* \"#utility.yul\":7202:7215   */\n      mload\n        /* \"#utility.yul\":7235:7342   */\n      tag_333\n        /* \"#utility.yul\":7338:7341   */\n      dup9\n        /* \"#utility.yul\":7323:7336   */\n      dup3\n        /* \"#utility.yul\":7235:7342   */\n      tag_217\n      jump\t// in\n    tag_333:\n        /* \"#utility.yul\":7228:7342   */\n      swap8\n      pop\n        /* \"#utility.yul\":7365:7447   */\n      tag_334\n        /* \"#utility.yul\":7440:7446   */\n      dup4\n        /* \"#utility.yul\":7365:7447   */\n      tag_218\n      jump\t// in\n    tag_334:\n        /* \"#utility.yul\":7355:7447   */\n      swap3\n      pop\n        /* \"#utility.yul\":7167:7457   */\n      pop\n        /* \"#utility.yul\":7154:7155   */\n      0x01\n        /* \"#utility.yul\":7151:7152   */\n      dup2\n        /* \"#utility.yul\":7147:7156   */\n      add\n        /* \"#utility.yul\":7142:7156   */\n      swap1\n      pop\n        /* \"#utility.yul\":7107:7457   */\n      jump(tag_330)\n    tag_332:\n        /* \"#utility.yul\":7111:7125   */\n      pop\n        /* \"#utility.yul\":7473:7476   */\n      dup6\n        /* \"#utility.yul\":7466:7476   */\n      swap4\n      pop\n        /* \"#utility.yul\":6742:7482   */\n      pop\n      pop\n      pop\n        /* \"#utility.yul\":6574:7482   */\n      swap3\n      swap2\n      pop\n      pop\n      jump\t// out\n        /* \"#utility.yul\":7488:7949   */\n    tag_38:\n        /* \"#utility.yul\":7675:7679   */\n      0x00\n        /* \"#utility.yul\":7713:7715   */\n      0x20\n        /* \"#utility.yul\":7702:7711   */\n      dup3\n        /* \"#utility.yul\":7698:7716   */\n      add\n        /* \"#utility.yul\":7690:7716   */\n      swap1\n      pop\n        /* \"#utility.yul\":7762:7771   */\n      dup2\n        /* \"#utility.yul\":7756:7760   */\n      dup2\n        /* \"#utility.yul\":7752:7772   */\n      sub\n        /* \"#utility.yul\":7748:7749   */\n      0x00\n        /* \"#utility.yul\":7737:7746   */\n      dup4\n        /* \"#utility.yul\":7733:7750   */\n      add\n        /* \"#utility.yul\":7726:7773   */\n      mstore\n        /* \"#utility.yul\":7790:7942   */\n      tag_336\n        /* \"#utility.yul\":7937:7941   */\n      dup2\n        /* \"#utility.yul\":7928:7934   */\n      dup5\n        /* \"#utility.yul\":7790:7942   */\n      tag_219\n      jump\t// in\n    tag_336:\n        /* \"#utility.yul\":7782:7942   */\n      swap1\n      pop\n        /* \"#utility.yul\":7488:7949   */\n      swap3\n      swap2\n      pop\n      pop\n      jump\t// out\n        /* \"#utility.yul\":7955:8015   */\n    tag_220:\n        /* \"#utility.yul\":7983:7986   */\n      0x00\n        /* \"#utility.yul\":8004:8009   */\n      dup2\n        /* \"#utility.yul\":7997:8009   */\n      swap1\n      pop\n        /* \"#utility.yul\":7955:8015   */\n      swap2\n      swap1\n      pop\n      jump\t// out\n        /* \"#utility.yul\":8021:8163   */\n    tag_221:\n        /* \"#utility.yul\":8071:8080   */\n      0x00\n        /* \"#utility.yul\":8104:8157   */\n      tag_339\n        /* \"#utility.yul\":8122:8156   */\n      tag_340\n        /* \"#utility.yul\":8131:8155   */\n      tag_341\n        /* \"#utility.yul\":8149:8154   */\n      dup5\n        /* \"#utility.yul\":8131:8155   */\n      tag_196\n      jump\t// in\n    tag_341:\n        /* \"#utility.yul\":8122:8156   */\n      tag_220\n      jump\t// in\n    tag_340:\n        /* \"#utility.yul\":8104:8157   */\n      tag_196\n      jump\t// in\n    tag_339:\n        /* \"#utility.yul\":8091:8157   */\n      swap1\n      pop\n        /* \"#utility.yul\":8021:8163   */\n      swap2\n      swap1\n      pop\n      jump\t// out\n        /* \"#utility.yul\":8169:8295   */\n    tag_222:\n        /* \"#utility.yul\":8219:8228   */\n      0x00\n        /* \"#utility.yul\":8252:8289   */\n      tag_343\n        /* \"#utility.yul\":8283:8288   */\n      dup3\n        /* \"#utility.yul\":8252:8289   */\n      tag_221\n      jump\t// in\n    tag_343:\n        /* \"#utility.yul\":8239:8289   */\n      swap1\n      pop\n        /* \"#utility.yul\":8169:8295   */\n      swap2\n      swap1\n      pop\n      jump\t// out\n        /* \"#utility.yul\":8301:8440   */\n    tag_223:\n        /* \"#utility.yul\":8364:8373   */\n      0x00\n        /* \"#utility.yul\":8397:8434   */\n      tag_345\n        /* \"#utility.yul\":8428:8433   */\n      dup3\n        /* \"#utility.yul\":8397:8434   */\n      tag_222\n      jump\t// in\n    tag_345:\n        /* \"#utility.yul\":8384:8434   */\n      swap1\n      pop\n        /* \"#utility.yul\":8301:8440   */\n      swap2\n      swap1\n      pop\n      jump\t// out\n        /* \"#utility.yul\":8446:8603   */\n    tag_224:\n        /* \"#utility.yul\":8546:8596   */\n      tag_347\n        /* \"#utility.yul\":8590:8595   */\n      dup2\n        /* \"#utility.yul\":8546:8596   */\n      tag_223\n      jump\t// in\n    tag_347:\n        /* \"#utility.yul\":8541:8544   */\n      dup3\n        /* \"#utility.yul\":8534:8597   */\n      mstore\n        /* \"#utility.yul\":8446:8603   */\n      pop\n      pop\n      jump\t// out\n        /* \"#utility.yul\":8609:8857   */\n    tag_42:\n        /* \"#utility.yul\":8715:8719   */\n      0x00\n        /* \"#utility.yul\":8753:8755   */\n      0x20\n        /* \"#utility.yul\":8742:8751   */\n      dup3\n        /* \"#utility.yul\":8738:8756   */\n      add\n        /* \"#utility.yul\":8730:8756   */\n      swap1\n      pop\n        /* \"#utility.yul\":8766:8850   */\n      tag_349\n        /* \"#utility.yul\":8847:8848   */\n      0x00\n        /* \"#utility.yul\":8836:8845   */\n      dup4\n        /* \"#utility.yul\":8832:8849   */\n      add\n        /* \"#utility.yul\":8823:8829   */\n      dup5\n        /* \"#utility.yul\":8766:8850   */\n      tag_224\n      jump\t// in\n    tag_349:\n        /* \"#utility.yul\":8609:8857   */\n      swap3\n      swap2\n      pop\n      pop\n      jump\t// out\n        /* \"#utility.yul\":8863:9085   */\n    tag_46:\n        /* \"#utility.yul\":8956:8960   */\n      0x00\n        /* \"#utility.yul\":8994:8996   */\n      0x20\n        /* \"#utility.yul\":8983:8992   */\n      dup3\n        /* \"#utility.yul\":8979:8997   */\n      add\n        /* \"#utility.yul\":8971:8997   */\n      swap1\n      pop\n        /* \"#utility.yul\":9007:9078   */\n      tag_351\n        /* \"#utility.yul\":9075:9076   */\n      0x00\n        /* \"#utility.yul\":9064:9073   */\n      dup4\n        /* \"#utility.yul\":9060:9077   */\n      add\n        /* \"#utility.yul\":9051:9057   */\n      dup5\n        /* \"#utility.yul\":9007:9078   */\n      tag_210\n      jump\t// in\n    tag_351:\n        /* \"#utility.yul\":8863:9085   */\n      swap3\n      swap2\n      pop\n      pop\n      jump\t// out\n        /* \"#utility.yul\":9091:9565   */\n    tag_53:\n        /* \"#utility.yul\":9159:9165   */\n      0x00\n        /* \"#utility.yul\":9167:9173   */\n      dup1\n        /* \"#utility.yul\":9216:9218   */\n      0x40\n        /* \"#utility.yul\":9204:9213   */\n      dup4\n        /* \"#utility.yul\":9195:9202   */\n      dup6\n        /* \"#utility.yul\":9191:9214   */\n      sub\n        /* \"#utility.yul\":9187:9219   */\n      slt\n        /* \"#utility.yul\":9184:9303   */\n      iszero\n      tag_353\n      jumpi\n        /* \"#utility.yul\":9222:9301   */\n      tag_354\n      tag_194\n      jump\t// in\n    tag_354:\n        /* \"#utility.yul\":9184:9303   */\n    tag_353:\n        /* \"#utility.yul\":9342:9343   */\n      0x00\n        /* \"#utility.yul\":9367:9420   */\n      tag_355\n        /* \"#utility.yul\":9412:9419   */\n      dup6\n        /* \"#utility.yul\":9403:9409   */\n      dup3\n        /* \"#utility.yul\":9392:9401   */\n      dup7\n        /* \"#utility.yul\":9388:9410   */\n      add\n        /* \"#utility.yul\":9367:9420   */\n      tag_202\n      jump\t// in\n    tag_355:\n        /* \"#utility.yul\":9357:9420   */\n      swap3\n      pop\n        /* \"#utility.yul\":9313:9430   */\n      pop\n        /* \"#utility.yul\":9469:9471   */\n      0x20\n        /* \"#utility.yul\":9495:9548   */\n      tag_356\n        /* \"#utility.yul\":9540:9547   */\n      dup6\n        /* \"#utility.yul\":9531:9537   */\n      dup3\n        /* \"#utility.yul\":9520:9529   */\n      dup7\n        /* \"#utility.yul\":9516:9538   */\n      add\n        /* \"#utility.yul\":9495:9548   */\n      tag_202\n      jump\t// in\n    tag_356:\n        /* \"#utility.yul\":9485:9548   */\n      swap2\n      pop\n        /* \"#utility.yul\":9440:9558   */\n      pop\n        /* \"#utility.yul\":9091:9565   */\n      swap3\n      pop\n      swap3\n      swap1\n      pop\n      jump\t// out\n        /* \"#utility.yul\":9571:9688   */\n    tag_225:\n        /* \"#utility.yul\":9680:9681   */\n      0x00\n        /* \"#utility.yul\":9677:9678   */\n      dup1\n        /* \"#utility.yul\":9670:9682   */\n      revert\n        /* \"#utility.yul\":9694:9796   */\n    tag_226:\n        /* \"#utility.yul\":9735:9741   */\n      0x00\n        /* \"#utility.yul\":9786:9788   */\n      0x1f\n        /* \"#utility.yul\":9782:9789   */\n      not\n        /* \"#utility.yul\":9777:9779   */\n      0x1f\n        /* \"#utility.yul\":9770:9775   */\n      dup4\n        /* \"#utility.yul\":9766:9780   */\n      add\n        /* \"#utility.yul\":9762:9790   */\n      and\n        /* \"#utility.yul\":9752:9790   */\n      swap1\n      pop\n        /* \"#utility.yul\":9694:9796   */\n      swap2\n      swap1\n      pop\n      jump\t// out\n        /* \"#utility.yul\":9802:9982   */\n    tag_115:\n        /* \"#utility.yul\":9850:9927   */\n      0x4e487b7100000000000000000000000000000000000000000000000000000000\n        /* \"#utility.yul\":9847:9848   */\n      0x00\n        /* \"#utility.yul\":9840:9928   */\n      mstore\n        /* \"#utility.yul\":9947:9951   */\n      0x41\n        /* \"#utility.yul\":9944:9945   */\n      0x04\n        /* \"#utility.yul\":9937:9952   */\n      mstore\n        /* \"#utility.yul\":9971:9975   */\n      0x24\n        /* \"#utility.yul\":9968:9969   */\n      0x00\n        /* \"#utility.yul\":9961:9976   */\n      revert\n        /* \"#utility.yul\":9988:10269   */\n    tag_227:\n        /* \"#utility.yul\":10071:10098   */\n      tag_361\n        /* \"#utility.yul\":10093:10097   */\n      dup3\n        /* \"#utility.yul\":10071:10098   */\n      tag_226\n      jump\t// in\n    tag_361:\n        /* \"#utility.yul\":10063:10069   */\n      dup2\n        /* \"#utility.yul\":10059:10099   */\n      add\n        /* \"#utility.yul\":10201:10207   */\n      dup2\n        /* \"#utility.yul\":10189:10199   */\n      dup2\n        /* \"#utility.yul\":10186:10208   */\n      lt\n        /* \"#utility.yul\":10165:10183   */\n      0xffffffffffffffff\n        /* \"#utility.yul\":10153:10163   */\n      dup3\n        /* \"#utility.yul\":10150:10184   */\n      gt\n        /* \"#utility.yul\":10147:10209   */\n      or\n        /* \"#utility.yul\":10144:10232   */\n      iszero\n      tag_362\n      jumpi\n        /* \"#utility.yul\":10212:10230   */\n      tag_363\n      tag_115\n      jump\t// in\n    tag_363:\n        /* \"#utility.yul\":10144:10232   */\n    tag_362:\n        /* \"#utility.yul\":10252:10262   */\n      dup1\n        /* \"#utility.yul\":10248:10250   */\n      0x40\n        /* \"#utility.yul\":10241:10263   */\n      mstore\n        /* \"#utility.yul\":10031:10269   */\n      pop\n        /* \"#utility.yul\":9988:10269   */\n      pop\n      pop\n      jump\t// out\n        /* \"#utility.yul\":10275:10404   */\n    tag_228:\n        /* \"#utility.yul\":10309:10315   */\n      0x00\n        /* \"#utility.yul\":10336:10356   */\n      tag_365\n      tag_193\n      jump\t// in\n    tag_365:\n        /* \"#utility.yul\":10326:10356   */\n      swap1\n      pop\n        /* \"#utility.yul\":10365:10398   */\n      tag_366\n        /* \"#utility.yul\":10393:10397   */\n      dup3\n        /* \"#utility.yul\":10385:10391   */\n      dup3\n        /* \"#utility.yul\":10365:10398   */\n      tag_227\n      jump\t// in\n    tag_366:\n        /* \"#utility.yul\":10275:10404   */\n      swap2\n      swap1\n      pop\n      jump\t// out\n        /* \"#utility.yul\":10410:10717   */\n    tag_229:\n        /* \"#utility.yul\":10471:10475   */\n      0x00\n        /* \"#utility.yul\":10561:10579   */\n      0xffffffffffffffff\n        /* \"#utility.yul\":10553:10559   */\n      dup3\n        /* \"#utility.yul\":10550:10580   */\n      gt\n        /* \"#utility.yul\":10547:10603   */\n      iszero\n      tag_368\n      jumpi\n        /* \"#utility.yul\":10583:10601   */\n      tag_369\n      tag_115\n      jump\t// in\n    tag_369:\n        /* \"#utility.yul\":10547:10603   */\n    tag_368:\n        /* \"#utility.yul\":10621:10650   */\n      tag_370\n        /* \"#utility.yul\":10643:10649   */\n      dup3\n        /* \"#utility.yul\":10621:10650   */\n      tag_226\n      jump\t// in\n    tag_370:\n        /* \"#utility.yul\":10613:10650   */\n      swap1\n      pop\n        /* \"#utility.yul\":10705:10709   */\n      0x20\n        /* \"#utility.yul\":10699:10703   */\n      dup2\n        /* \"#utility.yul\":10695:10710   */\n      add\n        /* \"#utility.yul\":10687:10710   */\n      swap1\n      pop\n        /* \"#utility.yul\":10410:10717   */\n      swap2\n      swap1\n      pop\n      jump\t// out\n        /* \"#utility.yul\":10723:10869   */\n    tag_230:\n        /* \"#utility.yul\":10820:10826   */\n      dup3\n        /* \"#utility.yul\":10815:10818   */\n      dup2\n        /* \"#utility.yul\":10810:10813   */\n      dup4\n        /* \"#utility.yul\":10797:10827   */\n      calldatacopy\n        /* \"#utility.yul\":10861:10862   */\n      0x00\n        /* \"#utility.yul\":10852:10858   */\n      dup4\n        /* \"#utility.yul\":10847:10850   */\n      dup4\n        /* \"#utility.yul\":10843:10859   */\n      add\n        /* \"#utility.yul\":10836:10863   */\n      mstore\n        /* \"#utility.yul\":10723:10869   */\n      pop\n      pop\n      pop\n      jump\t// out\n        /* \"#utility.yul\":10875:11298   */\n    tag_231:\n        /* \"#utility.yul\":10952:10957   */\n      0x00\n        /* \"#utility.yul\":10977:11042   */\n      tag_373\n        /* \"#utility.yul\":10993:11041   */\n      tag_374\n        /* \"#utility.yul\":11034:11040   */\n      dup5\n        /* \"#utility.yul\":10993:11041   */\n      tag_229\n      jump\t// in\n    tag_374:\n        /* \"#utility.yul\":10977:11042   */\n      tag_228\n      jump\t// in\n    tag_373:\n        /* \"#utility.yul\":10968:11042   */\n      swap1\n      pop\n        /* \"#utility.yul\":11065:11071   */\n      dup3\n        /* \"#utility.yul\":11058:11063   */\n      dup2\n        /* \"#utility.yul\":11051:11072   */\n      mstore\n        /* \"#utility.yul\":11103:11107   */\n      0x20\n        /* \"#utility.yul\":11096:11101   */\n      dup2\n        /* \"#utility.yul\":11092:11108   */\n      add\n        /* \"#utility.yul\":11141:11144   */\n      dup5\n        /* \"#utility.yul\":11132:11138   */\n      dup5\n        /* \"#utility.yul\":11127:11130   */\n      dup5\n        /* \"#utility.yul\":11123:11139   */\n      add\n        /* \"#utility.yul\":11120:11145   */\n      gt\n        /* \"#utility.yul\":11117:11229   */\n      iszero\n      tag_375\n      jumpi\n        /* \"#utility.yul\":11148:11227   */\n      tag_376\n      tag_225\n      jump\t// in\n    tag_376:\n        /* \"#utility.yul\":11117:11229   */\n    tag_375:\n        /* \"#utility.yul\":11238:11292   */\n      tag_377\n        /* \"#utility.yul\":11285:11291   */\n      dup5\n        /* \"#utility.yul\":11280:11283   */\n      dup3\n        /* \"#utility.yul\":11275:11278   */\n      dup6\n        /* \"#utility.yul\":11238:11292   */\n      tag_230\n      jump\t// in\n    tag_377:\n        /* \"#utility.yul\":10958:11298   */\n      pop\n        /* \"#utility.yul\":10875:11298   */\n      swap4\n      swap3\n      pop\n      pop\n      pop\n      jump\t// out\n        /* \"#utility.yul\":11317:11655   */\n    tag_232:\n        /* \"#utility.yul\":11372:11377   */\n      0x00\n        /* \"#utility.yul\":11421:11424   */\n      dup3\n        /* \"#utility.yul\":11414:11418   */\n      0x1f\n        /* \"#utility.yul\":11406:11412   */\n      dup4\n        /* \"#utility.yul\":11402:11419   */\n      add\n        /* \"#utility.yul\":11398:11425   */\n      slt\n        /* \"#utility.yul\":11388:11510   */\n      tag_379\n      jumpi\n        /* \"#utility.yul\":11429:11508   */\n      tag_380\n      tag_203\n      jump\t// in\n    tag_380:\n        /* \"#utility.yul\":11388:11510   */\n    tag_379:\n        /* \"#utility.yul\":11546:11552   */\n      dup2\n        /* \"#utility.yul\":11533:11553   */\n      calldataload\n        /* \"#utility.yul\":11571:11649   */\n      tag_381\n        /* \"#utility.yul\":11645:11648   */\n      dup5\n        /* \"#utility.yul\":11637:11643   */\n      dup3\n        /* \"#utility.yul\":11630:11634   */\n      0x20\n        /* \"#utility.yul\":11622:11628   */\n      dup7\n        /* \"#utility.yul\":11618:11635   */\n      add\n        /* \"#utility.yul\":11571:11649   */\n      tag_231\n      jump\t// in\n    tag_381:\n        /* \"#utility.yul\":11562:11649   */\n      swap2\n      pop\n        /* \"#utility.yul\":11378:11655   */\n      pop\n        /* \"#utility.yul\":11317:11655   */\n      swap3\n      swap2\n      pop\n      pop\n      jump\t// out\n        /* \"#utility.yul\":11661:12313   */\n    tag_57:\n        /* \"#utility.yul\":11738:11744   */\n      0x00\n        /* \"#utility.yul\":11746:11752   */\n      dup1\n        /* \"#utility.yul\":11795:11797   */\n      0x40\n        /* \"#utility.yul\":11783:11792   */\n      dup4\n        /* \"#utility.yul\":11774:11781   */\n      dup6\n        /* \"#utility.yul\":11770:11793   */\n      sub\n        /* \"#utility.yul\":11766:11798   */\n      slt\n        /* \"#utility.yul\":11763:11882   */\n      iszero\n      tag_383\n      jumpi\n        /* \"#utility.yul\":11801:11880   */\n      tag_384\n      tag_194\n      jump\t// in\n    tag_384:\n        /* \"#utility.yul\":11763:11882   */\n    tag_383:\n        /* \"#utility.yul\":11949:11950   */\n      0x00\n        /* \"#utility.yul\":11938:11947   */\n      dup4\n        /* \"#utility.yul\":11934:11951   */\n      add\n        /* \"#utility.yul\":11921:11952   */\n      calldataload\n        /* \"#utility.yul\":11979:11997   */\n      0xffffffffffffffff\n        /* \"#utility.yul\":11971:11977   */\n      dup2\n        /* \"#utility.yul\":11968:11998   */\n      gt\n        /* \"#utility.yul\":11965:12082   */\n      iszero\n      tag_385\n      jumpi\n        /* \"#utility.yul\":12001:12080   */\n      tag_386\n      tag_195\n      jump\t// in\n    tag_386:\n        /* \"#utility.yul\":11965:12082   */\n    tag_385:\n        /* \"#utility.yul\":12106:12168   */\n      tag_387\n        /* \"#utility.yul\":12160:12167   */\n      dup6\n        /* \"#utility.yul\":12151:12157   */\n      dup3\n        /* \"#utility.yul\":12140:12149   */\n      dup7\n        /* \"#utility.yul\":12136:12158   */\n      add\n        /* \"#utility.yul\":12106:12168   */\n      tag_232\n      jump\t// in\n    tag_387:\n        /* \"#utility.yul\":12096:12168   */\n      swap3\n      pop\n        /* \"#utility.yul\":11892:12178   */\n      pop\n        /* \"#utility.yul\":12217:12219   */\n      0x20\n        /* \"#utility.yul\":12243:12296   */\n      tag_388\n        /* \"#utility.yul\":12288:12295   */\n      dup6\n        /* \"#utility.yul\":12279:12285   */\n      dup3\n        /* \"#utility.yul\":12268:12277   */\n      dup7\n        /* \"#utility.yul\":12264:12286   */\n      add\n        /* \"#utility.yul\":12243:12296   */\n      tag_202\n      jump\t// in\n    tag_388:\n        /* \"#utility.yul\":12233:12296   */\n      swap2\n      pop\n        /* \"#utility.yul\":12188:12306   */\n      pop\n        /* \"#utility.yul\":11661:12313   */\n      swap3\n      pop\n      swap3\n      swap1\n      pop\n      jump\t// out\n        /* \"#utility.yul\":12319:12460   */\n    tag_233:\n        /* \"#utility.yul\":12384:12393   */\n      0x00\n        /* \"#utility.yul\":12417:12454   */\n      tag_390\n        /* \"#utility.yul\":12448:12453   */\n      dup3\n        /* \"#utility.yul\":12417:12454   */\n      tag_222\n      jump\t// in\n    tag_390:\n        /* \"#utility.yul\":12404:12454   */\n      swap1\n      pop\n        /* \"#utility.yul\":12319:12460   */\n      swap2\n      swap1\n      pop\n      jump\t// out\n        /* \"#utility.yul\":12466:12627   */\n    tag_234:\n        /* \"#utility.yul\":12568:12620   */\n      tag_392\n        /* \"#utility.yul\":12614:12619   */\n      dup2\n        /* \"#utility.yul\":12568:12620   */\n      tag_233\n      jump\t// in\n    tag_392:\n        /* \"#utility.yul\":12563:12566   */\n      dup3\n        /* \"#utility.yul\":12556:12621   */\n      mstore\n        /* \"#utility.yul\":12466:12627   */\n      pop\n      pop\n      jump\t// out\n        /* \"#utility.yul\":12633:12885   */\n    tag_63:\n        /* \"#utility.yul\":12741:12745   */\n      0x00\n        /* \"#utility.yul\":12779:12781   */\n      0x20\n        /* \"#utility.yul\":12768:12777   */\n      dup3\n        /* \"#utility.yul\":12764:12782   */\n      add\n        /* \"#utility.yul\":12756:12782   */\n      swap1\n      pop\n        /* \"#utility.yul\":12792:12878   */\n      tag_394\n        /* \"#utility.yul\":12875:12876   */\n      0x00\n        /* \"#utility.yul\":12864:12873   */\n      dup4\n        /* \"#utility.yul\":12860:12877   */\n      add\n        /* \"#utility.yul\":12851:12857   */\n      dup5\n        /* \"#utility.yul\":12792:12878   */\n      tag_234\n      jump\t// in\n    tag_394:\n        /* \"#utility.yul\":12633:12885   */\n      swap3\n      swap2\n      pop\n      pop\n      jump\t// out\n        /* \"#utility.yul\":12891:12981   */\n    tag_235:\n        /* \"#utility.yul\":12925:12932   */\n      0x00\n        /* \"#utility.yul\":12968:12973   */\n      dup2\n        /* \"#utility.yul\":12961:12974   */\n      iszero\n        /* \"#utility.yul\":12954:12975   */\n      iszero\n        /* \"#utility.yul\":12943:12975   */\n      swap1\n      pop\n        /* \"#utility.yul\":12891:12981   */\n      swap2\n      swap1\n      pop\n      jump\t// out\n        /* \"#utility.yul\":12987:13096   */\n    tag_236:\n        /* \"#utility.yul\":13068:13089   */\n      tag_397\n        /* \"#utility.yul\":13083:13088   */\n      dup2\n        /* \"#utility.yul\":13068:13089   */\n      tag_235\n      jump\t// in\n    tag_397:\n        /* \"#utility.yul\":13063:13066   */\n      dup3\n        /* \"#utility.yul\":13056:13090   */\n      mstore\n        /* \"#utility.yul\":12987:13096   */\n      pop\n      pop\n      jump\t// out\n        /* \"#utility.yul\":13102:13312   */\n    tag_78:\n        /* \"#utility.yul\":13189:13193   */\n      0x00\n        /* \"#utility.yul\":13227:13229   */\n      0x20\n        /* \"#utility.yul\":13216:13225   */\n      dup3\n        /* \"#utility.yul\":13212:13230   */\n      add\n        /* \"#utility.yul\":13204:13230   */\n      swap1\n      pop\n        /* \"#utility.yul\":13240:13305   */\n      tag_399\n        /* \"#utility.yul\":13302:13303   */\n      0x00\n        /* \"#utility.yul\":13291:13300   */\n      dup4\n        /* \"#utility.yul\":13287:13304   */\n      add\n        /* \"#utility.yul\":13278:13284   */\n      dup5\n        /* \"#utility.yul\":13240:13305   */\n      tag_236\n      jump\t// in\n    tag_399:\n        /* \"#utility.yul\":13102:13312   */\n      swap3\n      swap2\n      pop\n      pop\n      jump\t// out\n        /* \"#utility.yul\":13318:13487   */\n    tag_237:\n        /* \"#utility.yul\":13402:13413   */\n      0x00\n        /* \"#utility.yul\":13436:13442   */\n      dup3\n        /* \"#utility.yul\":13431:13434   */\n      dup3\n        /* \"#utility.yul\":13424:13443   */\n      mstore\n        /* \"#utility.yul\":13476:13480   */\n      0x20\n        /* \"#utility.yul\":13471:13474   */\n      dup3\n        /* \"#utility.yul\":13467:13481   */\n      add\n        /* \"#utility.yul\":13452:13481   */\n      swap1\n      pop\n        /* \"#utility.yul\":13318:13487   */\n      swap3\n      swap2\n      pop\n      pop\n      jump\t// out\n        /* \"#utility.yul\":13493:13657   */\n    tag_238:\n        /* \"#utility.yul\":13633:13649   */\n      0x696e76616c69642073656e646572000000000000000000000000000000000000\n        /* \"#utility.yul\":13629:13630   */\n      0x00\n        /* \"#utility.yul\":13621:13627   */\n      dup3\n        /* \"#utility.yul\":13617:13631   */\n      add\n        /* \"#utility.yul\":13610:13650   */\n      mstore\n        /* \"#utility.yul\":13493:13657   */\n      pop\n      jump\t// out\n        /* \"#utility.yul\":13663:14029   */\n    tag_239:\n        /* \"#utility.yul\":13805:13808   */\n      0x00\n        /* \"#utility.yul\":13826:13893   */\n      tag_403\n        /* \"#utility.yul\":13890:13892   */\n      0x0e\n        /* \"#utility.yul\":13885:13888   */\n      dup4\n        /* \"#utility.yul\":13826:13893   */\n      tag_237\n      jump\t// in\n    tag_403:\n        /* \"#utility.yul\":13819:13893   */\n      swap2\n      pop\n        /* \"#utility.yul\":13902:13995   */\n      tag_404\n        /* \"#utility.yul\":13991:13994   */\n      dup3\n        /* \"#utility.yul\":13902:13995   */\n      tag_238\n      jump\t// in\n    tag_404:\n        /* \"#utility.yul\":14020:14022   */\n      0x20\n        /* \"#utility.yul\":14015:14018   */\n      dup3\n        /* \"#utility.yul\":14011:14023   */\n      add\n        /* \"#utility.yul\":14004:14023   */\n      swap1\n      pop\n        /* \"#utility.yul\":13663:14029   */\n      swap2\n      swap1\n      pop\n      jump\t// out\n        /* \"#utility.yul\":14035:14454   */\n    tag_82:\n        /* \"#utility.yul\":14201:14205   */\n      0x00\n        /* \"#utility.yul\":14239:14241   */\n      0x20\n        /* \"#utility.yul\":14228:14237   */\n      dup3\n        /* \"#utility.yul\":14224:14242   */\n      add\n        /* \"#utility.yul\":14216:14242   */\n      swap1\n      pop\n        /* \"#utility.yul\":14288:14297   */\n      dup2\n        /* \"#utility.yul\":14282:14286   */\n      dup2\n        /* \"#utility.yul\":14278:14298   */\n      sub\n        /* \"#utility.yul\":14274:14275   */\n      0x00\n        /* \"#utility.yul\":14263:14272   */\n      dup4\n        /* \"#utility.yul\":14259:14276   */\n      add\n        /* \"#utility.yul\":14252:14299   */\n      mstore\n        /* \"#utility.yul\":14316:14447   */\n      tag_406\n        /* \"#utility.yul\":14442:14446   */\n      dup2\n        /* \"#utility.yul\":14316:14447   */\n      tag_239\n      jump\t// in\n    tag_406:\n        /* \"#utility.yul\":14308:14447   */\n      swap1\n      pop\n        /* \"#utility.yul\":14035:14454   */\n      swap2\n      swap1\n      pop\n      jump\t// out\n        /* \"#utility.yul\":14460:14603   */\n    tag_240:\n        /* \"#utility.yul\":14517:14522   */\n      0x00\n        /* \"#utility.yul\":14548:14554   */\n      dup2\n        /* \"#utility.yul\":14542:14555   */\n      mload\n        /* \"#utility.yul\":14533:14555   */\n      swap1\n      pop\n        /* \"#utility.yul\":14564:14597   */\n      tag_408\n        /* \"#utility.yul\":14591:14596   */\n      dup2\n        /* \"#utility.yul\":14564:14597   */\n      tag_198\n      jump\t// in\n    tag_408:\n        /* \"#utility.yul\":14460:14603   */\n      swap3\n      swap2\n      pop\n      pop\n      jump\t// out\n        /* \"#utility.yul\":14609:14960   */\n    tag_87:\n        /* \"#utility.yul\":14679:14685   */\n      0x00\n        /* \"#utility.yul\":14728:14730   */\n      0x20\n        /* \"#utility.yul\":14716:14725   */\n      dup3\n        /* \"#utility.yul\":14707:14714   */\n      dup5\n        /* \"#utility.yul\":14703:14726   */\n      sub\n        /* \"#utility.yul\":14699:14731   */\n      slt\n        /* \"#utility.yul\":14696:14815   */\n      iszero\n      tag_410\n      jumpi\n        /* \"#utility.yul\":14734:14813   */\n      tag_411\n      tag_194\n      jump\t// in\n    tag_411:\n        /* \"#utility.yul\":14696:14815   */\n    tag_410:\n        /* \"#utility.yul\":14854:14855   */\n      0x00\n        /* \"#utility.yul\":14879:14943   */\n      tag_412\n        /* \"#utility.yul\":14935:14942   */\n      dup5\n        /* \"#utility.yul\":14926:14932   */\n      dup3\n        /* \"#utility.yul\":14915:14924   */\n      dup6\n        /* \"#utility.yul\":14911:14933   */\n      add\n        /* \"#utility.yul\":14879:14943   */\n      tag_240\n      jump\t// in\n    tag_412:\n        /* \"#utility.yul\":14869:14943   */\n      swap2\n      pop\n        /* \"#utility.yul\":14825:14953   */\n      pop\n        /* \"#utility.yul\":14609:14960   */\n      swap3\n      swap2\n      pop\n      pop\n      jump\t// out\n        /* \"#utility.yul\":14966:15142   */\n    tag_241:\n        /* \"#utility.yul\":15106:15134   */\n      0x6e6f74206f776e6564206279207468697320636f6e7472616374000000000000\n        /* \"#utility.yul\":15102:15103   */\n      0x00\n        /* \"#utility.yul\":15094:15100   */\n      dup3\n        /* \"#utility.yul\":15090:15104   */\n      add\n        /* \"#utility.yul\":15083:15135   */\n      mstore\n        /* \"#utility.yul\":14966:15142   */\n      pop\n      jump\t// out\n        /* \"#utility.yul\":15148:15514   */\n    tag_242:\n        /* \"#utility.yul\":15290:15293   */\n      0x00\n        /* \"#utility.yul\":15311:15378   */\n      tag_415\n        /* \"#utility.yul\":15375:15377   */\n      0x1a\n        /* \"#utility.yul\":15370:15373   */\n      dup4\n        /* \"#utility.yul\":15311:15378   */\n      tag_237\n      jump\t// in\n    tag_415:\n        /* \"#utility.yul\":15304:15378   */\n      swap2\n      pop\n        /* \"#utility.yul\":15387:15480   */\n      tag_416\n        /* \"#utility.yul\":15476:15479   */\n      dup3\n        /* \"#utility.yul\":15387:15480   */\n      tag_241\n      jump\t// in\n    tag_416:\n        /* \"#utility.yul\":15505:15507   */\n      0x20\n        /* \"#utility.yul\":15500:15503   */\n      dup3\n        /* \"#utility.yul\":15496:15508   */\n      add\n        /* \"#utility.yul\":15489:15508   */\n      swap1\n      pop\n        /* \"#utility.yul\":15148:15514   */\n      swap2\n      swap1\n      pop\n      jump\t// out\n        /* \"#utility.yul\":15520:15939   */\n    tag_90:\n        /* \"#utility.yul\":15686:15690   */\n      0x00\n        /* \"#utility.yul\":15724:15726   */\n      0x20\n        /* \"#utility.yul\":15713:15722   */\n      dup3\n        /* \"#utility.yul\":15709:15727   */\n      add\n        /* \"#utility.yul\":15701:15727   */\n      swap1\n      pop\n        /* \"#utility.yul\":15773:15782   */\n      dup2\n        /* \"#utility.yul\":15767:15771   */\n      dup2\n        /* \"#utility.yul\":15763:15783   */\n      sub\n        /* \"#utility.yul\":15759:15760   */\n      0x00\n        /* \"#utility.yul\":15748:15757   */\n      dup4\n        /* \"#utility.yul\":15744:15761   */\n      add\n        /* \"#utility.yul\":15737:15784   */\n      mstore\n        /* \"#utility.yul\":15801:15932   */\n      tag_418\n        /* \"#utility.yul\":15927:15931   */\n      dup2\n        /* \"#utility.yul\":15801:15932   */\n      tag_242\n      jump\t// in\n    tag_418:\n        /* \"#utility.yul\":15793:15932   */\n      swap1\n      pop\n        /* \"#utility.yul\":15520:15939   */\n      swap2\n      swap1\n      pop\n      jump\t// out\n        /* \"#utility.yul\":15945:16108   */\n    tag_243:\n        /* \"#utility.yul\":16085:16100   */\n      0x7072696365206973207a65726f00000000000000000000000000000000000000\n        /* \"#utility.yul\":16081:16082   */\n      0x00\n        /* \"#utility.yul\":16073:16079   */\n      dup3\n        /* \"#utility.yul\":16069:16083   */\n      add\n        /* \"#utility.yul\":16062:16101   */\n      mstore\n        /* \"#utility.yul\":15945:16108   */\n      pop\n      jump\t// out\n        /* \"#utility.yul\":16114:16480   */\n    tag_244:\n        /* \"#utility.yul\":16256:16259   */\n      0x00\n        /* \"#utility.yul\":16277:16344   */\n      tag_421\n        /* \"#utility.yul\":16341:16343   */\n      0x0d\n        /* \"#utility.yul\":16336:16339   */\n      dup4\n        /* \"#utility.yul\":16277:16344   */\n      tag_237\n      jump\t// in\n    tag_421:\n        /* \"#utility.yul\":16270:16344   */\n      swap2\n      pop\n        /* \"#utility.yul\":16353:16446   */\n      tag_422\n        /* \"#utility.yul\":16442:16445   */\n      dup3\n        /* \"#utility.yul\":16353:16446   */\n      tag_243\n      jump\t// in\n    tag_422:\n        /* \"#utility.yul\":16471:16473   */\n      0x20\n        /* \"#utility.yul\":16466:16469   */\n      dup3\n        /* \"#utility.yul\":16462:16474   */\n      add\n        /* \"#utility.yul\":16455:16474   */\n      swap1\n      pop\n        /* \"#utility.yul\":16114:16480   */\n      swap2\n      swap1\n      pop\n      jump\t// out\n        /* \"#utility.yul\":16486:16905   */\n    tag_94:\n        /* \"#utility.yul\":16652:16656   */\n      0x00\n        /* \"#utility.yul\":16690:16692   */\n      0x20\n        /* \"#utility.yul\":16679:16688   */\n      dup3\n        /* \"#utility.yul\":16675:16693   */\n      add\n        /* \"#utility.yul\":16667:16693   */\n      swap1\n      pop\n        /* \"#utility.yul\":16739:16748   */\n      dup2\n        /* \"#utility.yul\":16733:16737   */\n      dup2\n        /* \"#utility.yul\":16729:16749   */\n      sub\n        /* \"#utility.yul\":16725:16726   */\n      0x00\n        /* \"#utility.yul\":16714:16723   */\n      dup4\n        /* \"#utility.yul\":16710:16727   */\n      add\n        /* \"#utility.yul\":16703:16750   */\n      mstore\n        /* \"#utility.yul\":16767:16898   */\n      tag_424\n        /* \"#utility.yul\":16893:16897   */\n      dup2\n        /* \"#utility.yul\":16767:16898   */\n      tag_244\n      jump\t// in\n    tag_424:\n        /* \"#utility.yul\":16759:16898   */\n      swap1\n      pop\n        /* \"#utility.yul\":16486:16905   */\n      swap2\n      swap1\n      pop\n      jump\t// out\n        /* \"#utility.yul\":16911:17091   */\n    tag_245:\n        /* \"#utility.yul\":16959:17036   */\n      0x4e487b7100000000000000000000000000000000000000000000000000000000\n        /* \"#utility.yul\":16956:16957   */\n      0x00\n        /* \"#utility.yul\":16949:17037   */\n      mstore\n        /* \"#utility.yul\":17056:17060   */\n      0x11\n        /* \"#utility.yul\":17053:17054   */\n      0x04\n        /* \"#utility.yul\":17046:17061   */\n      mstore\n        /* \"#utility.yul\":17080:17084   */\n      0x24\n        /* \"#utility.yul\":17077:17078   */\n      0x00\n        /* \"#utility.yul\":17070:17085   */\n      revert\n        /* \"#utility.yul\":17097:17291   */\n    tag_97:\n        /* \"#utility.yul\":17137:17141   */\n      0x00\n        /* \"#utility.yul\":17157:17177   */\n      tag_427\n        /* \"#utility.yul\":17175:17176   */\n      dup3\n        /* \"#utility.yul\":17157:17177   */\n      tag_200\n      jump\t// in\n    tag_427:\n        /* \"#utility.yul\":17152:17177   */\n      swap2\n      pop\n        /* \"#utility.yul\":17191:17211   */\n      tag_428\n        /* \"#utility.yul\":17209:17210   */\n      dup4\n        /* \"#utility.yul\":17191:17211   */\n      tag_200\n      jump\t// in\n    tag_428:\n        /* \"#utility.yul\":17186:17211   */\n      swap3\n      pop\n        /* \"#utility.yul\":17235:17236   */\n      dup3\n        /* \"#utility.yul\":17232:17233   */\n      dup3\n        /* \"#utility.yul\":17228:17237   */\n      sub\n        /* \"#utility.yul\":17220:17237   */\n      swap1\n      pop\n        /* \"#utility.yul\":17259:17260   */\n      dup2\n        /* \"#utility.yul\":17253:17257   */\n      dup2\n        /* \"#utility.yul\":17250:17261   */\n      gt\n        /* \"#utility.yul\":17247:17284   */\n      iszero\n      tag_429\n      jumpi\n        /* \"#utility.yul\":17264:17282   */\n      tag_430\n      tag_245\n      jump\t// in\n    tag_430:\n        /* \"#utility.yul\":17247:17284   */\n    tag_429:\n        /* \"#utility.yul\":17097:17291   */\n      swap3\n      swap2\n      pop\n      pop\n      jump\t// out\n        /* \"#utility.yul\":17297:17461   */\n    tag_246:\n        /* \"#utility.yul\":17437:17453   */\n      0x6e6f74207468652073656c6c6572000000000000000000000000000000000000\n        /* \"#utility.yul\":17433:17434   */\n      0x00\n        /* \"#utility.yul\":17425:17431   */\n      dup3\n        /* \"#utility.yul\":17421:17435   */\n      add\n        /* \"#utility.yul\":17414:17454   */\n      mstore\n        /* \"#utility.yul\":17297:17461   */\n      pop\n      jump\t// out\n        /* \"#utility.yul\":17467:17833   */\n    tag_247:\n        /* \"#utility.yul\":17609:17612   */\n      0x00\n        /* \"#utility.yul\":17630:17697   */\n      tag_433\n        /* \"#utility.yul\":17694:17696   */\n      0x0e\n        /* \"#utility.yul\":17689:17692   */\n      dup4\n        /* \"#utility.yul\":17630:17697   */\n      tag_237\n      jump\t// in\n    tag_433:\n        /* \"#utility.yul\":17623:17697   */\n      swap2\n      pop\n        /* \"#utility.yul\":17706:17799   */\n      tag_434\n        /* \"#utility.yul\":17795:17798   */\n      dup3\n        /* \"#utility.yul\":17706:17799   */\n      tag_246\n      jump\t// in\n    tag_434:\n        /* \"#utility.yul\":17824:17826   */\n      0x20\n        /* \"#utility.yul\":17819:17822   */\n      dup3\n        /* \"#utility.yul\":17815:17827   */\n      add\n        /* \"#utility.yul\":17808:17827   */\n      swap1\n      pop\n        /* \"#utility.yul\":17467:17833   */\n      swap2\n      swap1\n      pop\n      jump\t// out\n        /* \"#utility.yul\":17839:18258   */\n    tag_102:\n        /* \"#utility.yul\":18005:18009   */\n      0x00\n        /* \"#utility.yul\":18043:18045   */\n      0x20\n        /* \"#utility.yul\":18032:18041   */\n      dup3\n        /* \"#utility.yul\":18028:18046   */\n      add\n        /* \"#utility.yul\":18020:18046   */\n      swap1\n      pop\n        /* \"#utility.yul\":18092:18101   */\n      dup2\n        /* \"#utility.yul\":18086:18090   */\n      dup2\n        /* \"#utility.yul\":18082:18102   */\n      sub\n        /* \"#utility.yul\":18078:18079   */\n      0x00\n        /* \"#utility.yul\":18067:18076   */\n      dup4\n        /* \"#utility.yul\":18063:18080   */\n      add\n        /* \"#utility.yul\":18056:18103   */\n      mstore\n        /* \"#utility.yul\":18120:18251   */\n      tag_436\n        /* \"#utility.yul\":18246:18250   */\n      dup2\n        /* \"#utility.yul\":18120:18251   */\n      tag_247\n      jump\t// in\n    tag_436:\n        /* \"#utility.yul\":18112:18251   */\n      swap1\n      pop\n        /* \"#utility.yul\":17839:18258   */\n      swap2\n      swap1\n      pop\n      jump\t// out\n        /* \"#utility.yul\":18264:18706   */\n    tag_104:\n        /* \"#utility.yul\":18413:18417   */\n      0x00\n        /* \"#utility.yul\":18451:18453   */\n      0x60\n        /* \"#utility.yul\":18440:18449   */\n      dup3\n        /* \"#utility.yul\":18436:18454   */\n      add\n        /* \"#utility.yul\":18428:18454   */\n      swap1\n      pop\n        /* \"#utility.yul\":18464:18535   */\n      tag_438\n        /* \"#utility.yul\":18532:18533   */\n      0x00\n        /* \"#utility.yul\":18521:18530   */\n      dup4\n        /* \"#utility.yul\":18517:18534   */\n      add\n        /* \"#utility.yul\":18508:18514   */\n      dup7\n        /* \"#utility.yul\":18464:18535   */\n      tag_209\n      jump\t// in\n    tag_438:\n        /* \"#utility.yul\":18545:18617   */\n      tag_439\n        /* \"#utility.yul\":18613:18615   */\n      0x20\n        /* \"#utility.yul\":18602:18611   */\n      dup4\n        /* \"#utility.yul\":18598:18616   */\n      add\n        /* \"#utility.yul\":18589:18595   */\n      dup6\n        /* \"#utility.yul\":18545:18617   */\n      tag_209\n      jump\t// in\n    tag_439:\n        /* \"#utility.yul\":18627:18699   */\n      tag_440\n        /* \"#utility.yul\":18695:18697   */\n      0x40\n        /* \"#utility.yul\":18684:18693   */\n      dup4\n        /* \"#utility.yul\":18680:18698   */\n      add\n        /* \"#utility.yul\":18671:18677   */\n      dup5\n        /* \"#utility.yul\":18627:18699   */\n      tag_210\n      jump\t// in\n    tag_440:\n        /* \"#utility.yul\":18264:18706   */\n      swap5\n      swap4\n      pop\n      pop\n      pop\n      pop\n      jump\t// out\n        /* \"#utility.yul\":18712:19044   */\n    tag_111:\n        /* \"#utility.yul\":18833:18837   */\n      0x00\n        /* \"#utility.yul\":18871:18873   */\n      0x40\n        /* \"#utility.yul\":18860:18869   */\n      dup3\n        /* \"#utility.yul\":18856:18874   */\n      add\n        /* \"#utility.yul\":18848:18874   */\n      swap1\n      pop\n        /* \"#utility.yul\":18884:18955   */\n      tag_442\n        /* \"#utility.yul\":18952:18953   */\n      0x00\n        /* \"#utility.yul\":18941:18950   */\n      dup4\n        /* \"#utility.yul\":18937:18954   */\n      add\n        /* \"#utility.yul\":18928:18934   */\n      dup6\n        /* \"#utility.yul\":18884:18955   */\n      tag_209\n      jump\t// in\n    tag_442:\n        /* \"#utility.yul\":18965:19037   */\n      tag_443\n        /* \"#utility.yul\":19033:19035   */\n      0x20\n        /* \"#utility.yul\":19022:19031   */\n      dup4\n        /* \"#utility.yul\":19018:19036   */\n      add\n        /* \"#utility.yul\":19009:19015   */\n      dup5\n        /* \"#utility.yul\":18965:19037   */\n      tag_210\n      jump\t// in\n    tag_443:\n        /* \"#utility.yul\":18712:19044   */\n      swap4\n      swap3\n      pop\n      pop\n      pop\n      jump\t// out\n        /* \"#utility.yul\":19050:19230   */\n    tag_125:\n        /* \"#utility.yul\":19098:19175   */\n      0x4e487b7100000000000000000000000000000000000000000000000000000000\n        /* \"#utility.yul\":19095:19096   */\n      0x00\n        /* \"#utility.yul\":19088:19176   */\n      mstore\n        /* \"#utility.yul\":19195:19199   */\n      0x32\n        /* \"#utility.yul\":19192:19193   */\n      0x04\n        /* \"#utility.yul\":19185:19200   */\n      mstore\n        /* \"#utility.yul\":19219:19223   */\n      0x24\n        /* \"#utility.yul\":19216:19217   */\n      0x00\n        /* \"#utility.yul\":19209:19224   */\n      revert\n        /* \"#utility.yul\":19236:19469   */\n    tag_130:\n        /* \"#utility.yul\":19275:19278   */\n      0x00\n        /* \"#utility.yul\":19298:19322   */\n      tag_446\n        /* \"#utility.yul\":19316:19321   */\n      dup3\n        /* \"#utility.yul\":19298:19322   */\n      tag_200\n      jump\t// in\n    tag_446:\n        /* \"#utility.yul\":19289:19322   */\n      swap2\n      pop\n        /* \"#utility.yul\":19344:19410   */\n      0xffffffffffffffffffffffffffffffffffffffffffffffffffffffffffffffff\n        /* \"#utility.yul\":19337:19342   */\n      dup3\n        /* \"#utility.yul\":19334:19411   */\n      sub\n        /* \"#utility.yul\":19331:19434   */\n      tag_447\n      jumpi\n        /* \"#utility.yul\":19414:19432   */\n      tag_448\n      tag_245\n      jump\t// in\n    tag_448:\n        /* \"#utility.yul\":19331:19434   */\n    tag_447:\n        /* \"#utility.yul\":19461:19462   */\n      0x01\n        /* \"#utility.yul\":19454:19459   */\n      dup3\n        /* \"#utility.yul\":19450:19463   */\n      add\n        /* \"#utility.yul\":19443:19463   */\n      swap1\n      pop\n        /* \"#utility.yul\":19236:19469   */\n      swap2\n      swap1\n      pop\n      jump\t// out\n        /* \"#utility.yul\":19475:20028   */\n    tag_143:\n        /* \"#utility.yul\":19652:19656   */\n      0x00\n        /* \"#utility.yul\":19690:19693   */\n      0x80\n        /* \"#utility.yul\":19679:19688   */\n      dup3\n        /* \"#utility.yul\":19675:19694   */\n      add\n        /* \"#utility.yul\":19667:19694   */\n      swap1\n      pop\n        /* \"#utility.yul\":19704:19775   */\n      tag_450\n        /* \"#utility.yul\":19772:19773   */\n      0x00\n        /* \"#utility.yul\":19761:19770   */\n      dup4\n        /* \"#utility.yul\":19757:19774   */\n      add\n        /* \"#utility.yul\":19748:19754   */\n      dup8\n        /* \"#utility.yul\":19704:19775   */\n      tag_209\n      jump\t// in\n    tag_450:\n        /* \"#utility.yul\":19785:19857   */\n      tag_451\n        /* \"#utility.yul\":19853:19855   */\n      0x20\n        /* \"#utility.yul\":19842:19851   */\n      dup4\n        /* \"#utility.yul\":19838:19856   */\n      add\n        /* \"#utility.yul\":19829:19835   */\n      dup7\n        /* \"#utility.yul\":19785:19857   */\n      tag_210\n      jump\t// in\n    tag_451:\n        /* \"#utility.yul\":19867:19939   */\n      tag_452\n        /* \"#utility.yul\":19935:19937   */\n      0x40\n        /* \"#utility.yul\":19924:19933   */\n      dup4\n        /* \"#utility.yul\":19920:19938   */\n      add\n        /* \"#utility.yul\":19911:19917   */\n      dup6\n        /* \"#utility.yul\":19867:19939   */\n      tag_210\n      jump\t// in\n    tag_452:\n        /* \"#utility.yul\":19949:20021   */\n      tag_453\n        /* \"#utility.yul\":20017:20019   */\n      0x60\n        /* \"#utility.yul\":20006:20015   */\n      dup4\n        /* \"#utility.yul\":20002:20020   */\n      add\n        /* \"#utility.yul\":19993:19999   */\n      dup5\n        /* \"#utility.yul\":19949:20021   */\n      tag_210\n      jump\t// in\n    tag_453:\n        /* \"#utility.yul\":19475:20028   */\n      swap6\n      swap5\n      pop\n      pop\n      pop\n      pop\n      pop\n      jump\t// out\n        /* \"#utility.yul\":20034:20225   */\n    tag_146:\n        /* \"#utility.yul\":20074:20077   */\n      0x00\n        /* \"#utility.yul\":20093:20113   */\n      tag_455\n        /* \"#utility.yul\":20111:20112   */\n      dup3\n        /* \"#utility.yul\":20093:20113   */\n      tag_200\n      jump\t// in\n    tag_455:\n        /* \"#utility.yul\":20088:20113   */\n      swap2\n      pop\n        /* \"#utility.yul\":20127:20147   */\n      tag_456\n        /* \"#utility.yul\":20145:20146   */\n      dup4\n        /* \"#utility.yul\":20127:20147   */\n      tag_200\n      jump\t// in\n    tag_456:\n        /* \"#utility.yul\":20122:20147   */\n      swap3\n      pop\n        /* \"#utility.yul\":20170:20171   */\n      dup3\n        /* \"#utility.yul\":20167:20168   */\n      dup3\n        /* \"#utility.yul\":20163:20172   */\n      add\n        /* \"#utility.yul\":20156:20172   */\n      swap1\n      pop\n        /* \"#utility.yul\":20191:20194   */\n      dup1\n        /* \"#utility.yul\":20188:20189   */\n      dup3\n        /* \"#utility.yul\":20185:20195   */\n      gt\n        /* \"#utility.yul\":20182:20218   */\n      iszero\n      tag_457\n      jumpi\n        /* \"#utility.yul\":20198:20216   */\n      tag_458\n      tag_245\n      jump\t// in\n    tag_458:\n        /* \"#utility.yul\":20182:20218   */\n    tag_457:\n        /* \"#utility.yul\":20034:20225   */\n      swap3\n      swap2\n      pop\n      pop\n      jump\t// out\n        /* \"#utility.yul\":20231:20407   */\n    tag_248:\n        /* \"#utility.yul\":20371:20399   */\n      0x4d61726b65743a20746f55696e743235365f6f766572666c6f77000000000000\n        /* \"#utility.yul\":20367:20368   */\n      0x00\n        /* \"#utility.yul\":20359:20365   */\n      dup3\n        /* \"#utility.yul\":20355:20369   */\n      add\n        /* \"#utility.yul\":20348:20400   */\n      mstore\n        /* \"#utility.yul\":20231:20407   */\n      pop\n      jump\t// out\n        /* \"#utility.yul\":20413:20779   */\n    tag_249:\n        /* \"#utility.yul\":20555:20558   */\n      0x00\n        /* \"#utility.yul\":20576:20643   */\n      tag_461\n        /* \"#utility.yul\":20640:20642   */\n      0x1a\n        /* \"#utility.yul\":20635:20638   */\n      dup4\n        /* \"#utility.yul\":20576:20643   */\n      tag_237\n      jump\t// in\n    tag_461:\n        /* \"#utility.yul\":20569:20643   */\n      swap2\n      pop\n        /* \"#utility.yul\":20652:20745   */\n      tag_462\n        /* \"#utility.yul\":20741:20744   */\n      dup3\n        /* \"#utility.yul\":20652:20745   */\n      tag_248\n      jump\t// in\n    tag_462:\n        /* \"#utility.yul\":20770:20772   */\n      0x20\n        /* \"#utility.yul\":20765:20768   */\n      dup3\n        /* \"#utility.yul\":20761:20773   */\n      add\n        /* \"#utility.yul\":20754:20773   */\n      swap1\n      pop\n        /* \"#utility.yul\":20413:20779   */\n      swap2\n      swap1\n      pop\n      jump\t// out\n        /* \"#utility.yul\":20785:21204   */\n    tag_149:\n        /* \"#utility.yul\":20951:20955   */\n      0x00\n        /* \"#utility.yul\":20989:20991   */\n      0x20\n        /* \"#utility.yul\":20978:20987   */\n      dup3\n        /* \"#utility.yul\":20974:20992   */\n      add\n        /* \"#utility.yul\":20966:20992   */\n      swap1\n      pop\n        /* \"#utility.yul\":21038:21047   */\n      dup2\n        /* \"#utility.yul\":21032:21036   */\n      dup2\n        /* \"#utility.yul\":21028:21048   */\n      sub\n        /* \"#utility.yul\":21024:21025   */\n      0x00\n        /* \"#utility.yul\":21013:21022   */\n      dup4\n        /* \"#utility.yul\":21009:21026   */\n      add\n        /* \"#utility.yul\":21002:21049   */\n      mstore\n        /* \"#utility.yul\":21066:21197   */\n      tag_464\n        /* \"#utility.yul\":21192:21196   */\n      dup2\n        /* \"#utility.yul\":21066:21197   */\n      tag_249\n      jump\t// in\n    tag_464:\n        /* \"#utility.yul\":21058:21197   */\n      swap1\n      pop\n        /* \"#utility.yul\":20785:21204   */\n      swap2\n      swap1\n      pop\n      jump\t// out\n        /* \"#utility.yul\":21210:21389   */\n    tag_250:\n        /* \"#utility.yul\":21350:21381   */\n      0x4d61726b65743a20746f55696e743235365f6f75744f66426f756e6473000000\n        /* \"#utility.yul\":21346:21347   */\n      0x00\n        /* \"#utility.yul\":21338:21344   */\n      dup3\n        /* \"#utility.yul\":21334:21348   */\n      add\n        /* \"#utility.yul\":21327:21382   */\n      mstore\n        /* \"#utility.yul\":21210:21389   */\n      pop\n      jump\t// out\n        /* \"#utility.yul\":21395:21761   */\n    tag_251:\n        /* \"#utility.yul\":21537:21540   */\n      0x00\n        /* \"#utility.yul\":21558:21625   */\n      tag_467\n        /* \"#utility.yul\":21622:21624   */\n      0x1d\n        /* \"#utility.yul\":21617:21620   */\n      dup4\n        /* \"#utility.yul\":21558:21625   */\n      tag_237\n      jump\t// in\n    tag_467:\n        /* \"#utility.yul\":21551:21625   */\n      swap2\n      pop\n        /* \"#utility.yul\":21634:21727   */\n      tag_468\n        /* \"#utility.yul\":21723:21726   */\n      dup3\n        /* \"#utility.yul\":21634:21727   */\n      tag_250\n      jump\t// in\n    tag_468:\n        /* \"#utility.yul\":21752:21754   */\n      0x20\n        /* \"#utility.yul\":21747:21750   */\n      dup3\n        /* \"#utility.yul\":21743:21755   */\n      add\n        /* \"#utility.yul\":21736:21755   */\n      swap1\n      pop\n        /* \"#utility.yul\":21395:21761   */\n      swap2\n      swap1\n      pop\n      jump\t// out\n        /* \"#utility.yul\":21767:22186   */\n    tag_153:\n        /* \"#utility.yul\":21933:21937   */\n      0x00\n        /* \"#utility.yul\":21971:21973   */\n      0x20\n        /* \"#utility.yul\":21960:21969   */\n      dup3\n        /* \"#utility.yul\":21956:21974   */\n      add\n        /* \"#utility.yul\":21948:21974   */\n      swap1\n      pop\n        /* \"#utility.yul\":22020:22029   */\n      dup2\n        /* \"#utility.yul\":22014:22018   */\n      dup2\n        /* \"#utility.yul\":22010:22030   */\n      sub\n        /* \"#utility.yul\":22006:22007   */\n      0x00\n        /* \"#utility.yul\":21995:22004   */\n      dup4\n        /* \"#utility.yul\":21991:22008   */\n      add\n        /* \"#utility.yul\":21984:22031   */\n      mstore\n        /* \"#utility.yul\":22048:22179   */\n      tag_470\n        /* \"#utility.yul\":22174:22178   */\n      dup2\n        /* \"#utility.yul\":22048:22179   */\n      tag_251\n      jump\t// in\n    tag_470:\n        /* \"#utility.yul\":22040:22179   */\n      swap1\n      pop\n        /* \"#utility.yul\":21767:22186   */\n      swap2\n      swap1\n      pop\n      jump\t// out\n        /* \"#utility.yul\":22192:22371   */\n    tag_252:\n        /* \"#utility.yul\":22332:22363   */\n      0x73656c6c657220616e6420627579657220617265207468652073616d65000000\n        /* \"#utility.yul\":22328:22329   */\n      0x00\n        /* \"#utility.yul\":22320:22326   */\n      dup3\n        /* \"#utility.yul\":22316:22330   */\n      add\n        /* \"#utility.yul\":22309:22364   */\n      mstore\n        /* \"#utility.yul\":22192:22371   */\n      pop\n      jump\t// out\n        /* \"#utility.yul\":22377:22743   */\n    tag_253:\n        /* \"#utility.yul\":22519:22522   */\n      0x00\n        /* \"#utility.yul\":22540:22607   */\n      tag_473\n        /* \"#utility.yul\":22604:22606   */\n      0x1d\n        /* \"#utility.yul\":22599:22602   */\n      dup4\n        /* \"#utility.yul\":22540:22607   */\n      tag_237\n      jump\t// in\n    tag_473:\n        /* \"#utility.yul\":22533:22607   */\n      swap2\n      pop\n        /* \"#utility.yul\":22616:22709   */\n      tag_474\n        /* \"#utility.yul\":22705:22708   */\n      dup3\n        /* \"#utility.yul\":22616:22709   */\n      tag_252\n      jump\t// in\n    tag_474:\n        /* \"#utility.yul\":22734:22736   */\n      0x20\n        /* \"#utility.yul\":22729:22732   */\n      dup3\n        /* \"#utility.yul\":22725:22737   */\n      add\n        /* \"#utility.yul\":22718:22737   */\n      swap1\n      pop\n        /* \"#utility.yul\":22377:22743   */\n      swap2\n      swap1\n      pop\n      jump\t// out\n        /* \"#utility.yul\":22749:23168   */\n    tag_157:\n        /* \"#utility.yul\":22915:22919   */\n      0x00\n        /* \"#utility.yul\":22953:22955   */\n      0x20\n        /* \"#utility.yul\":22942:22951   */\n      dup3\n        /* \"#utility.yul\":22938:22956   */\n      add\n        /* \"#utility.yul\":22930:22956   */\n      swap1\n      pop\n        /* \"#utility.yul\":23002:23011   */\n      dup2\n        /* \"#utility.yul\":22996:23000   */\n      dup2\n        /* \"#utility.yul\":22992:23012   */\n      sub\n        /* \"#utility.yul\":22988:22989   */\n      0x00\n        /* \"#utility.yul\":22977:22986   */\n      dup4\n        /* \"#utility.yul\":22973:22990   */\n      add\n        /* \"#utility.yul\":22966:23013   */\n      mstore\n        /* \"#utility.yul\":23030:23161   */\n      tag_476\n        /* \"#utility.yul\":23156:23160   */\n      dup2\n        /* \"#utility.yul\":23030:23161   */\n      tag_253\n      jump\t// in\n    tag_476:\n        /* \"#utility.yul\":23022:23161   */\n      swap1\n      pop\n        /* \"#utility.yul\":22749:23168   */\n      swap2\n      swap1\n      pop\n      jump\t// out\n        /* \"#utility.yul\":23174:23290   */\n    tag_254:\n        /* \"#utility.yul\":23244:23265   */\n      tag_478\n        /* \"#utility.yul\":23259:23264   */\n      dup2\n        /* \"#utility.yul\":23244:23265   */\n      tag_235\n      jump\t// in\n    tag_478:\n        /* \"#utility.yul\":23237:23242   */\n      dup2\n        /* \"#utility.yul\":23234:23266   */\n      eq\n        /* \"#utility.yul\":23224:23284   */\n      tag_479\n      jumpi\n        /* \"#utility.yul\":23280:23281   */\n      0x00\n        /* \"#utility.yul\":23277:23278   */\n      dup1\n        /* \"#utility.yul\":23270:23282   */\n      revert\n        /* \"#utility.yul\":23224:23284   */\n    tag_479:\n        /* \"#utility.yul\":23174:23290   */\n      pop\n      jump\t// out\n        /* \"#utility.yul\":23296:23433   */\n    tag_255:\n        /* \"#utility.yul\":23350:23355   */\n      0x00\n        /* \"#utility.yul\":23381:23387   */\n      dup2\n        /* \"#utility.yul\":23375:23388   */\n      mload\n        /* \"#utility.yul\":23366:23388   */\n      swap1\n      pop\n        /* \"#utility.yul\":23397:23427   */\n      tag_481\n        /* \"#utility.yul\":23421:23426   */\n      dup2\n        /* \"#utility.yul\":23397:23427   */\n      tag_254\n      jump\t// in\n    tag_481:\n        /* \"#utility.yul\":23296:23433   */\n      swap3\n      swap2\n      pop\n      pop\n      jump\t// out\n        /* \"#utility.yul\":23439:23784   */\n    tag_164:\n        /* \"#utility.yul\":23506:23512   */\n      0x00\n        /* \"#utility.yul\":23555:23557   */\n      0x20\n        /* \"#utility.yul\":23543:23552   */\n      dup3\n        /* \"#utility.yul\":23534:23541   */\n      dup5\n        /* \"#utility.yul\":23530:23553   */\n      sub\n        /* \"#utility.yul\":23526:23558   */\n      slt\n        /* \"#utility.yul\":23523:23642   */\n      iszero\n      tag_483\n      jumpi\n        /* \"#utility.yul\":23561:23640   */\n      tag_484\n      tag_194\n      jump\t// in\n    tag_484:\n        /* \"#utility.yul\":23523:23642   */\n    tag_483:\n        /* \"#utility.yul\":23681:23682   */\n      0x00\n        /* \"#utility.yul\":23706:23767   */\n      tag_485\n        /* \"#utility.yul\":23759:23766   */\n      dup5\n        /* \"#utility.yul\":23750:23756   */\n      dup3\n        /* \"#utility.yul\":23739:23748   */\n      dup6\n        /* \"#utility.yul\":23735:23757   */\n      add\n        /* \"#utility.yul\":23706:23767   */\n      tag_255\n      jump\t// in\n    tag_485:\n        /* \"#utility.yul\":23696:23767   */\n      swap2\n      pop\n        /* \"#utility.yul\":23652:23777   */\n      pop\n        /* \"#utility.yul\":23439:23784   */\n      swap3\n      swap2\n      pop\n      pop\n      jump\t// out\n        /* \"#utility.yul\":23790:23955   */\n    tag_256:\n        /* \"#utility.yul\":23930:23947   */\n      0x7472616e73666572206661696c65640000000000000000000000000000000000\n        /* \"#utility.yul\":23926:23927   */\n      0x00\n        /* \"#utility.yul\":23918:23924   */\n      dup3\n        /* \"#utility.yul\":23914:23928   */\n      add\n        /* \"#utility.yul\":23907:23948   */\n      mstore\n        /* \"#utility.yul\":23790:23955   */\n      pop\n      jump\t// out\n        /* \"#utility.yul\":23961:24327   */\n    tag_257:\n        /* \"#utility.yul\":24103:24106   */\n      0x00\n        /* \"#utility.yul\":24124:24191   */\n      tag_488\n        /* \"#utility.yul\":24188:24190   */\n      0x0f\n        /* \"#utility.yul\":24183:24186   */\n      dup4\n        /* \"#utility.yul\":24124:24191   */\n      tag_237\n      jump\t// in\n    tag_488:\n        /* \"#utility.yul\":24117:24191   */\n      swap2\n      pop\n        /* \"#utility.yul\":24200:24293   */\n      tag_489\n        /* \"#utility.yul\":24289:24292   */\n      dup3\n        /* \"#utility.yul\":24200:24293   */\n      tag_256\n      jump\t// in\n    tag_489:\n        /* \"#utility.yul\":24318:24320   */\n      0x20\n        /* \"#utility.yul\":24313:24316   */\n      dup3\n        /* \"#utility.yul\":24309:24321   */\n      add\n        /* \"#utility.yul\":24302:24321   */\n      swap1\n      pop\n        /* \"#utility.yul\":23961:24327   */\n      swap2\n      swap1\n      pop\n      jump\t// out\n        /* \"#utility.yul\":24333:24752   */\n    tag_167:\n        /* \"#utility.yul\":24499:24503   */\n      0x00\n        /* \"#utility.yul\":24537:24539   */\n      0x20\n        /* \"#utility.yul\":24526:24535   */\n      dup3\n        /* \"#utility.yul\":24522:24540   */\n      add\n        /* \"#utility.yul\":24514:24540   */\n      swap1\n      pop\n        /* \"#utility.yul\":24586:24595   */\n      dup2\n        /* \"#utility.yul\":24580:24584   */\n      dup2\n        /* \"#utility.yul\":24576:24596   */\n      sub\n        /* \"#utility.yul\":24572:24573   */\n      0x00\n        /* \"#utility.yul\":24561:24570   */\n      dup4\n        /* \"#utility.yul\":24557:24574   */\n      add\n        /* \"#utility.yul\":24550:24597   */\n      mstore\n        /* \"#utility.yul\":24614:24745   */\n      tag_491\n        /* \"#utility.yul\":24740:24744   */\n      dup2\n        /* \"#utility.yul\":24614:24745   */\n      tag_257\n      jump\t// in\n    tag_491:\n        /* \"#utility.yul\":24606:24745   */\n      swap1\n      pop\n        /* \"#utility.yul\":24333:24752   */\n      swap2\n      swap1\n      pop\n      jump\t// out\n        /* \"#utility.yul\":24758:25311   */\n    tag_174:\n        /* \"#utility.yul\":24935:24939   */\n      0x00\n        /* \"#utility.yul\":24973:24976   */\n      0x80\n        /* \"#utility.yul\":24962:24971   */\n      dup3\n        /* \"#utility.yul\":24958:24977   */\n      add\n        /* \"#utility.yul\":24950:24977   */\n      swap1\n      pop\n        /* \"#utility.yul\":24987:25058   */\n      tag_493\n        /* \"#utility.yul\":25055:25056   */\n      0x00\n        /* \"#utility.yul\":25044:25053   */\n      dup4\n        /* \"#utility.yul\":25040:25057   */\n      add\n        /* \"#utility.yul\":25031:25037   */\n      dup8\n        /* \"#utility.yul\":24987:25058   */\n      tag_209\n      jump\t// in\n    tag_493:\n        /* \"#utility.yul\":25068:25140   */\n      tag_494\n        /* \"#utility.yul\":25136:25138   */\n      0x20\n        /* \"#utility.yul\":25125:25134   */\n      dup4\n        /* \"#utility.yul\":25121:25139   */\n      add\n        /* \"#utility.yul\":25112:25118   */\n      dup7\n        /* \"#utility.yul\":25068:25140   */\n      tag_209\n      jump\t// in\n    tag_494:\n        /* \"#utility.yul\":25150:25222   */\n      tag_495\n        /* \"#utility.yul\":25218:25220   */\n      0x40\n        /* \"#utility.yul\":25207:25216   */\n      dup4\n        /* \"#utility.yul\":25203:25221   */\n      add\n        /* \"#utility.yul\":25194:25200   */\n      dup6\n        /* \"#utility.yul\":25150:25222   */\n      tag_210\n      jump\t// in\n    tag_495:\n        /* \"#utility.yul\":25232:25304   */\n      tag_496\n        /* \"#utility.yul\":25300:25302   */\n      0x60\n        /* \"#utility.yul\":25289:25298   */\n      dup4\n        /* \"#utility.yul\":25285:25303   */\n      add\n        /* \"#utility.yul\":25276:25282   */\n      dup5\n        /* \"#utility.yul\":25232:25304   */\n      tag_210\n      jump\t// in\n    tag_496:\n        /* \"#utility.yul\":24758:25311   */\n      swap6\n      swap5\n      pop\n      pop\n      pop\n      pop\n      pop\n      jump\t// out\n        /* \"#utility.yul\":25317:25497   */\n    tag_191:\n        /* \"#utility.yul\":25365:25442   */\n      0x4e487b7100000000000000000000000000000000000000000000000000000000\n        /* \"#utility.yul\":25362:25363   */\n      0x00\n        /* \"#utility.yul\":25355:25443   */\n      mstore\n        /* \"#utility.yul\":25462:25466   */\n      0x31\n        /* \"#utility.yul\":25459:25460   */\n      0x04\n        /* \"#utility.yul\":25452:25467   */\n      mstore\n        /* \"#utility.yul\":25486:25490   */\n      0x24\n        /* \"#utility.yul\":25483:25484   */\n      0x00\n        /* \"#utility.yul\":25476:25491   */\n      revert\n\n    auxdata: 0xa2646970667358221220597b3382a8b7ceb8ca80380d3082e2f83d687eb8e5e4a5282f3b2bf905e9e00c64736f6c63430008160033\n}\n",
				"bytecode": {
					"linkReferences": {},
					"object": "608060405234801562000010575f80fd5b506040516200221338038062002213833981810160405281019062000036919062000204565b5f73ffffffffffffffffffffffffffffffffffffffff168273ffffffffffffffffffffffffffffffffffffffff1603620000a7576040517f08c379a00000000000000000000000000000000000000000000000000000000081526004016200009e90620002a7565b60405180910390fd5b5f73ffffffffffffffffffffffffffffffffffffffff168173ffffffffffffffffffffffffffffffffffffffff160362000118576040517f08c379a00000000000000000000000000000000000000000000000000000000081526004016200010f90620002a7565b60405180910390fd5b815f806101000a81548173ffffffffffffffffffffffffffffffffffffffff021916908373ffffffffffffffffffffffffffffffffffffffff1602179055508060015f6101000a81548173ffffffffffffffffffffffffffffffffffffffff021916908373ffffffffffffffffffffffffffffffffffffffff1602179055505050620002c7565b5f80fd5b5f73ffffffffffffffffffffffffffffffffffffffff82169050919050565b5f620001ce82620001a3565b9050919050565b620001e081620001c2565b8114620001eb575f80fd5b50565b5f81519050620001fe81620001d5565b92915050565b5f80604083850312156200021d576200021c6200019f565b5b5f6200022c85828601620001ee565b92505060206200023f85828601620001ee565b9150509250929050565b5f82825260208201905092915050565b7f7a65726f206164647265737300000000000000000000000000000000000000005f82015250565b5f6200028f600c8362000249565b91506200029c8262000259565b602082019050919050565b5f6020820190508181035f830152620002c08162000281565b9050919050565b611f3e80620002d55f395ff3fe608060405234801561000f575f80fd5b50600436106100e8575f3560e01c8063b3de019c1161008a578063d96a094a11610064578063d96a094a14610260578063da694df01461027c578063e0391b09146102ac578063fcce4883146102ca576100e8565b8063b3de019c146101f6578063b5cdf92414610212578063bca6ce6414610242576100e8565b8063629cb2e4116100c6578063629cb2e41461016a578063785e9e86146101885780639d4971b7146101a6578063a85c38ef146101c4576100e8565b8063150b7a02146100ec578063394a90771461011c578063514fcac71461014e575b5f80fd5b610106600480360381019061010191906113ca565b6102fa565b6040516101139190611488565b60405180910390f35b610136600480360381019061013191906114a1565b6106e8565b604051610145939291906114ea565b60405180910390f35b610168600480360381019061016391906114a1565b61072d565b005b6101726108a2565b60405161017f9190611625565b60405180910390f35b6101906109e5565b60405161019d91906116a0565b60405180910390f35b6101ae610a08565b6040516101bb91906116b9565b60405180910390f35b6101de60048036038101906101d991906114a1565b610a14565b6040516101ed939291906114ea565b60405180910390f35b610210600480360381019061020b91906116d2565b610a68565b005b61022c60048036038101906102279190611848565b610c00565b60405161023991906116b9565b60405180910390f35b61024a610cb4565b60405161025791906118c2565b60405180910390f35b61027a600480360381019061027591906114a1565b610cd9565b005b610296600480360381019061029191906114a1565b610f8d565b6040516102a391906116b9565b60405180910390f35b6102b4610fa2565b6040516102c19190611625565b60405180910390f35b6102e460048036038101906102df91906114a1565b611066565b6040516102f191906118f5565b60405180910390f35b5f60015f9054906101000a900473ffffffffffffffffffffffffffffffffffffffff1673ffffffffffffffffffffffffffffffffffffffff163373ffffffffffffffffffffffffffffffffffffffff161461038a576040517f08c379a000000000000000000000000000000000000000000000000000000000815260040161038190611968565b60405180910390fd5b3073ffffffffffffffffffffffffffffffffffffffff1660015f9054906101000a900473ffffffffffffffffffffffffffffffffffffffff1673ffffffffffffffffffffffffffffffffffffffff16636352211e866040518263ffffffff1660e01b81526004016103fb91906116b9565b602060405180830381865afa158015610416573d5f803e3d5ffd5b505050506040513d601f19601f8201168201806040525081019061043a919061199a565b73ffffffffffffffffffffffffffffffffffffffff1614610490576040517f08c379a000000000000000000000000000000000000000000000000000000000815260040161048790611a0f565b60405180910390fd5b5f6104de84848080601f0160208091040260200160405190810160405280939291908181526020018383808284375f81840152601f19601f820116905080830192505050505050505f610c00565b90505f8111610522576040517f08c379a000000000000000000000000000000000000000000000000000000000815260040161051990611a77565b60405180910390fd5b600360405180606001604052808873ffffffffffffffffffffffffffffffffffffffff16815260200187815260200183815250908060018154018082558091505060019003905f5260205f2090600302015f909190919091505f820151815f015f6101000a81548173ffffffffffffffffffffffffffffffffffffffff021916908373ffffffffffffffffffffffffffffffffffffffff1602179055506020820151816001015560408201518160020155505060405180606001604052808773ffffffffffffffffffffffffffffffffffffffff1681526020018681526020018281525060025f8781526020019081526020015f205f820151815f015f6101000a81548173ffffffffffffffffffffffffffffffffffffffff021916908373ffffffffffffffffffffffffffffffffffffffff160217905550602082015181600101556040820151816002015590505060016003805490506106849190611ac2565b60045f8781526020019081526020015f20819055507fd5b509e657d5ec37ae4bdcab658b7340c0453bb630516d26623359a34c1cecf38686836040516106cc939291906114ea565b60405180910390a163150b7a0260e01b91505095945050505050565b6002602052805f5260405f205f91509050805f015f9054906101000a900473ffffffffffffffffffffffffffffffffffffffff16908060010154908060020154905083565b5f60025f8381526020019081526020015f205f015f9054906101000a900473ffffffffffffffffffffffffffffffffffffffff1690503373ffffffffffffffffffffffffffffffffffffffff168173ffffffffffffffffffffffffffffffffffffffff16146107d1576040517f08c379a00000000000000000000000000000000000000000000000000000000081526004016107c890611b3f565b60405180910390fd5b60015f9054906101000a900473ffffffffffffffffffffffffffffffffffffffff1673ffffffffffffffffffffffffffffffffffffffff166342842e0e3083856040518463ffffffff1660e01b815260040161082f93929190611b5d565b5f604051808303815f87803b158015610846575f80fd5b505af1158015610858573d5f803e3d5ffd5b50505050610865826110d0565b7fdd003742fb214507783ce004fe55f5ac14f89c6de4a7cd7487e47eb091c622658183604051610896929190611b92565b60405180910390a15050565b60605f60038054905090505f8167ffffffffffffffff8111156108c8576108c7611724565b5b60405190808252806020026020018201604052801561090157816020015b6108ee611297565b8152602001906001900390816108e65790505b5090505f805b838110156109db576003818154811061092357610922611bb9565b5b905f5260205f2090600302016040518060600160405290815f82015f9054906101000a900473ffffffffffffffffffffffffffffffffffffffff1673ffffffffffffffffffffffffffffffffffffffff1673ffffffffffffffffffffffffffffffffffffffff168152602001600182015481526020016002820154815250508383815181106109b5576109b4611bb9565b5b602002602001018190525081806109cb90611be6565b9250508080600101915050610907565b5081935050505090565b5f8054906101000a900473ffffffffffffffffffffffffffffffffffffffff1681565b5f600380549050905090565b60038181548110610a23575f80fd5b905f5260205f2090600302015f91509050805f015f9054906101000a900473ffffffffffffffffffffffffffffffffffffffff16908060010154908060020154905083565b5f60025f8481526020019081526020015f205f015f9054906101000a900473ffffffffffffffffffffffffffffffffffffffff1690503373ffffffffffffffffffffffffffffffffffffffff168173ffffffffffffffffffffffffffffffffffffffff1614610b0c576040517f08c379a0000000000000000000000000000000000000000000000000000000008152600401610b0390611b3f565b60405180910390fd5b5f8211610b4e576040517f08c379a0000000000000000000000000000000000000000000000000000000008152600401610b4590611a77565b60405180910390fd5b5f60025f8581526020019081526020015f206002015490508260025f8681526020019081526020015f20600201819055505f600360045f8781526020019081526020015f205481548110610ba557610ba4611bb9565b5b905f5260205f20906003020190508381600201819055507fdac6aecd066304d15a41e8e590fc5ab5bf93634f43cba363f743d5e158d7998883868487604051610bf19493929190611c2d565b60405180910390a15050505050565b5f81602083610c0f9190611c70565b1015610c50576040517f08c379a0000000000000000000000000000000000000000000000000000000008152600401610c4790611ced565b60405180910390fd5b602082610c5d9190611c70565b83511015610ca0576040517f08c379a0000000000000000000000000000000000000000000000000000000008152600401610c9790611d55565b60405180910390fd5b5f8260208501015190508091505092915050565b60015f9054906101000a900473ffffffffffffffffffffffffffffffffffffffff1681565b5f60025f8381526020019081526020015f205f015f9054906101000a900473ffffffffffffffffffffffffffffffffffffffff1690505f3390505f60025f8581526020019081526020015f206002015490508173ffffffffffffffffffffffffffffffffffffffff168373ffffffffffffffffffffffffffffffffffffffff1603610d99576040517f08c379a0000000000000000000000000000000000000000000000000000000008152600401610d9090611dbd565b60405180910390fd5b5f8111610ddb576040517f08c379a0000000000000000000000000000000000000000000000000000000008152600401610dd290611a77565b60405180910390fd5b5f8054906101000a900473ffffffffffffffffffffffffffffffffffffffff1673ffffffffffffffffffffffffffffffffffffffff166323b872dd8385846040518463ffffffff1660e01b8152600401610e3793929190611b5d565b6020604051808303815f875af1158015610e53573d5f803e3d5ffd5b505050506040513d601f19601f82011682018060405250810190610e779190611e05565b610eb6576040517f08c379a0000000000000000000000000000000000000000000000000000000008152600401610ead90611e7a565b60405180910390fd5b60015f9054906101000a900473ffffffffffffffffffffffffffffffffffffffff1673ffffffffffffffffffffffffffffffffffffffff166342842e0e3084876040518463ffffffff1660e01b8152600401610f1493929190611b5d565b5f604051808303815f87803b158015610f2b575f80fd5b505af1158015610f3d573d5f803e3d5ffd5b50505050610f4a846110d0565b7f424d5e5f0192c7dacdbe646ca31b00299146d883d76a95ef5cddbac7cd342eab83838684604051610f7f9493929190611e98565b60405180910390a150505050565b6004602052805f5260405f205f915090505481565b60606003805480602002602001604051908101604052809291908181526020015f905b8282101561105d578382905f5260205f2090600302016040518060600160405290815f82015f9054906101000a900473ffffffffffffffffffffffffffffffffffffffff1673ffffffffffffffffffffffffffffffffffffffff1673ffffffffffffffffffffffffffffffffffffffff1681526020016001820154815260200160028201548152505081526020019060010190610fc5565b50505050905090565b5f8073ffffffffffffffffffffffffffffffffffffffff1660025f8481526020019081526020015f205f015f9054906101000a900473ffffffffffffffffffffffffffffffffffffffff1673ffffffffffffffffffffffffffffffffffffffff1614159050919050565b5f60045f8381526020019081526020015f205490505f60016003805490506110f89190611ac2565b90508082146111db575f6003828154811061111657611115611bb9565b5b905f5260205f20906003020190508260045f836001015481526020019081526020015f2081905550806003848154811061115357611152611bb9565b5b905f5260205f2090600302015f82015f9054906101000a900473ffffffffffffffffffffffffffffffffffffffff16815f015f6101000a81548173ffffffffffffffffffffffffffffffffffffffff021916908373ffffffffffffffffffffffffffffffffffffffff1602179055506001820154816001015560028201548160020155905050505b60038054806111ed576111ec611edb565b5b600190038181905f5260205f2090600302015f8082015f6101000a81549073ffffffffffffffffffffffffffffffffffffffff0219169055600182015f9055600282015f90555050905560025f8481526020019081526020015f205f8082015f6101000a81549073ffffffffffffffffffffffffffffffffffffffff0219169055600182015f9055600282015f9055505060045f8481526020019081526020015f205f9055505050565b60405180606001604052805f73ffffffffffffffffffffffffffffffffffffffff1681526020015f81526020015f81525090565b5f604051905090565b5f80fd5b5f80fd5b5f73ffffffffffffffffffffffffffffffffffffffff82169050919050565b5f611305826112dc565b9050919050565b611315816112fb565b811461131f575f80fd5b50565b5f813590506113308161130c565b92915050565b5f819050919050565b61134881611336565b8114611352575f80fd5b50565b5f813590506113638161133f565b92915050565b5f80fd5b5f80fd5b5f80fd5b5f8083601f84011261138a57611389611369565b5b8235905067ffffffffffffffff8111156113a7576113a661136d565b5b6020830191508360018202830111156113c3576113c2611371565b5b9250929050565b5f805f805f608086880312156113e3576113e26112d4565b5b5f6113f088828901611322565b955050602061140188828901611322565b945050604061141288828901611355565b935050606086013567ffffffffffffffff811115611433576114326112d8565b5b61143f88828901611375565b92509250509295509295909350565b5f7fffffffff0000000000000000000000000000000000000000000000000000000082169050919050565b6114828161144e565b82525050565b5f60208201905061149b5f830184611479565b92915050565b5f602082840312156114b6576114b56112d4565b5b5f6114c384828501611355565b91505092915050565b6114d5816112fb565b82525050565b6114e481611336565b82525050565b5f6060820190506114fd5f8301866114cc565b61150a60208301856114db565b61151760408301846114db565b949350505050565b5f81519050919050565b5f82825260208201905092915050565b5f819050602082019050919050565b611551816112fb565b82525050565b61156081611336565b82525050565b606082015f82015161157a5f850182611548565b50602082015161158d6020850182611557565b5060408201516115a06040850182611557565b50505050565b5f6115b18383611566565b60608301905092915050565b5f602082019050919050565b5f6115d38261151f565b6115dd8185611529565b93506115e883611539565b805f5b838110156116185781516115ff88826115a6565b975061160a836115bd565b9250506001810190506115eb565b5085935050505092915050565b5f6020820190508181035f83015261163d81846115c9565b905092915050565b5f819050919050565b5f61166861166361165e846112dc565b611645565b6112dc565b9050919050565b5f6116798261164e565b9050919050565b5f61168a8261166f565b9050919050565b61169a81611680565b82525050565b5f6020820190506116b35f830184611691565b92915050565b5f6020820190506116cc5f8301846114db565b92915050565b5f80604083850312156116e8576116e76112d4565b5b5f6116f585828601611355565b925050602061170685828601611355565b9150509250929050565b5f80fd5b5f601f19601f8301169050919050565b7f4e487b71000000000000000000000000000000000000000000000000000000005f52604160045260245ffd5b61175a82611714565b810181811067ffffffffffffffff8211171561177957611778611724565b5b80604052505050565b5f61178b6112cb565b90506117978282611751565b919050565b5f67ffffffffffffffff8211156117b6576117b5611724565b5b6117bf82611714565b9050602081019050919050565b828183375f83830152505050565b5f6117ec6117e78461179c565b611782565b90508281526020810184848401111561180857611807611710565b5b6118138482856117cc565b509392505050565b5f82601f83011261182f5761182e611369565b5b813561183f8482602086016117da565b91505092915050565b5f806040838503121561185e5761185d6112d4565b5b5f83013567ffffffffffffffff81111561187b5761187a6112d8565b5b6118878582860161181b565b925050602061189885828601611355565b9150509250929050565b5f6118ac8261166f565b9050919050565b6118bc816118a2565b82525050565b5f6020820190506118d55f8301846118b3565b92915050565b5f8115159050919050565b6118ef816118db565b82525050565b5f6020820190506119085f8301846118e6565b92915050565b5f82825260208201905092915050565b7f696e76616c69642073656e6465720000000000000000000000000000000000005f82015250565b5f611952600e8361190e565b915061195d8261191e565b602082019050919050565b5f6020820190508181035f83015261197f81611946565b9050919050565b5f815190506119948161130c565b92915050565b5f602082840312156119af576119ae6112d4565b5b5f6119bc84828501611986565b91505092915050565b7f6e6f74206f776e6564206279207468697320636f6e74726163740000000000005f82015250565b5f6119f9601a8361190e565b9150611a04826119c5565b602082019050919050565b5f6020820190508181035f830152611a26816119ed565b9050919050565b7f7072696365206973207a65726f000000000000000000000000000000000000005f82015250565b5f611a61600d8361190e565b9150611a6c82611a2d565b602082019050919050565b5f6020820190508181035f830152611a8e81611a55565b9050919050565b7f4e487b71000000000000000000000000000000000000000000000000000000005f52601160045260245ffd5b5f611acc82611336565b9150611ad783611336565b9250828203905081811115611aef57611aee611a95565b5b92915050565b7f6e6f74207468652073656c6c65720000000000000000000000000000000000005f82015250565b5f611b29600e8361190e565b9150611b3482611af5565b602082019050919050565b5f6020820190508181035f830152611b5681611b1d565b9050919050565b5f606082019050611b705f8301866114cc565b611b7d60208301856114cc565b611b8a60408301846114db565b949350505050565b5f604082019050611ba55f8301856114cc565b611bb260208301846114db565b9392505050565b7f4e487b71000000000000000000000000000000000000000000000000000000005f52603260045260245ffd5b5f611bf082611336565b91507fffffffffffffffffffffffffffffffffffffffffffffffffffffffffffffffff8203611c2257611c21611a95565b5b600182019050919050565b5f608082019050611c405f8301876114cc565b611c4d60208301866114db565b611c5a60408301856114db565b611c6760608301846114db565b95945050505050565b5f611c7a82611336565b9150611c8583611336565b9250828201905080821115611c9d57611c9c611a95565b5b92915050565b7f4d61726b65743a20746f55696e743235365f6f766572666c6f770000000000005f82015250565b5f611cd7601a8361190e565b9150611ce282611ca3565b602082019050919050565b5f6020820190508181035f830152611d0481611ccb565b9050919050565b7f4d61726b65743a20746f55696e743235365f6f75744f66426f756e64730000005f82015250565b5f611d3f601d8361190e565b9150611d4a82611d0b565b602082019050919050565b5f6020820190508181035f830152611d6c81611d33565b9050919050565b7f73656c6c657220616e6420627579657220617265207468652073616d650000005f82015250565b5f611da7601d8361190e565b9150611db282611d73565b602082019050919050565b5f6020820190508181035f830152611dd481611d9b565b9050919050565b611de4816118db565b8114611dee575f80fd5b50565b5f81519050611dff81611ddb565b92915050565b5f60208284031215611e1a57611e196112d4565b5b5f611e2784828501611df1565b91505092915050565b7f7472616e73666572206661696c656400000000000000000000000000000000005f82015250565b5f611e64600f8361190e565b9150611e6f82611e30565b602082019050919050565b5f6020820190508181035f830152611e9181611e58565b9050919050565b5f608082019050611eab5f8301876114cc565b611eb860208301866114cc565b611ec560408301856114db565b611ed260608301846114db565b95945050505050565b7f4e487b71000000000000000000000000000000000000000000000000000000005f52603160045260245ffdfea2646970667358221220597b3382a8b7ceb8ca80380d3082e2f83d687eb8e5e4a5282f3b2bf905e9e00c64736f6c63430008160033",
					"opcodes": "PUSH1 0x80 PUSH1 0x40 MSTORE CALLVALUE DUP1 ISZERO PUSH3 0x10 JUMPI PUSH0 DUP1 REVERT JUMPDEST POP PUSH1 0x40 MLOAD PUSH3 0x2213 CODESIZE SUB DUP1 PUSH3 0x2213 DUP4 CODECOPY DUP2 DUP2 ADD PUSH1 0x40 MSTORE DUP2 ADD SWAP1 PUSH3 0x36 SWAP2 SWAP1 PUSH3 0x204 JUMP JUMPDEST PUSH0 PUSH20 0xFFFFFFFFFFFFFFFFFFFFFFFFFFFFFFFFFFFFFFFF AND DUP3 PUSH20 0xFFFFFFFFFFFFFFFFFFFFFFFFFFFFFFFFFFFFFFFF AND SUB PUSH3 0xA7 JUMPI PUSH1 0x40 MLOAD PUSH32 0x8C379A000000000000000000000000000000000000000000000000000000000 DUP2 MSTORE PUSH1 0x4 ADD PUSH3 0x9E SWAP1 PUSH3 0x2A7 JUMP JUMPDEST PUSH1 0x40 MLOAD DUP1 SWAP2 SUB SWAP1 REVERT JUMPDEST PUSH0 PUSH20 0xFFFFFFFFFFFFFFFFFFFFFFFFFFFFFFFFFFFFFFFF AND DUP2 PUSH20 0xFFFFFFFFFFFFFFFFFFFFFFFFFFFFFFFFFFFFFFFF AND SUB PUSH3 0x118 JUMPI PUSH1 0x40 MLOAD PUSH32 0x8C379A000000000000000000000000000000000000000000000000000000000 DUP2 MSTORE PUSH1 0x4 ADD PUSH3 0x10F SWAP1 PUSH3 0x2A7 JUMP JUMPDEST PUSH1 0x40 MLOAD DUP1 SWAP2 SUB SWAP1 REVERT JUMPDEST DUP2 PUSH0 DUP1 PUSH2 0x100 EXP DUP2 SLOAD DUP2 PUSH20 0xFFFFFFFFFFFFFFFFFFFFFFFFFFFFFFFFFFFFFFFF MUL NOT AND SWAP1 DUP4 PUSH20 0xFFFFFFFFFFFFFFFFFFFFFFFFFFFFFFFFFFFFFFFF AND MUL OR SWAP1 SSTORE POP DUP1 PUSH1 0x1 PUSH0 PUSH2 0x100 EXP DUP2 SLOAD DUP2 PUSH20 0xFFFFFFFFFFFFFFFFFFFFFFFFFFFFFFFFFFFFFFFF MUL NOT AND SWAP1 DUP4 PUSH20 0xFFFFFFFFFFFFFFFFFFFFFFFFFFFFFFFFFFFFFFFF AND MUL OR SWAP1 SSTORE POP POP POP PUSH3 0x2C7 JUMP JUMPDEST PUSH0 DUP1 REVERT JUMPDEST PUSH0 PUSH20 0xFFFFFFFFFFFFFFFFFFFFFFFFFFFFFFFFFFFFFFFF DUP3 AND SWAP1 POP SWAP2 SWAP1 POP JUMP JUMPDEST PUSH0 PUSH3 0x1CE DUP3 PUSH3 0x1A3 JUMP JUMPDEST SWAP1 POP SWAP2 SWAP1 POP JUMP JUMPDEST PUSH3 0x1E0 DUP2 PUSH3 0x1C2 JUMP JUMPDEST DUP2 EQ PUSH3 0x1EB JUMPI PUSH0 DUP1 REVERT JUMPDEST POP JUMP JUMPDEST PUSH0 DUP2 MLOAD SWAP1 POP PUSH3 0x1FE DUP2 PUSH3 0x1D5 JUMP JUMPDEST SWAP3 SWAP2 POP POP JUMP JUMPDEST PUSH0 DUP1 PUSH1 0x40 DUP4 DUP6 SUB SLT ISZERO PUSH3 0x21D JUMPI PUSH3 0x21C PUSH3 0x19F JUMP JUMPDEST JUMPDEST PUSH0 PUSH3 0x22C DUP6 DUP3 DUP7 ADD PUSH3 0x1EE JUMP JUMPDEST SWAP3 POP POP PUSH1 0x20 PUSH3 0x23F DUP6 DUP3 DUP7 ADD PUSH3 0x1EE JUMP JUMPDEST SWAP2 POP POP SWAP3 POP SWAP3 SWAP1 POP JUMP JUMPDEST PUSH0 DUP3 DUP3 MSTORE PUSH1 0x20 DUP3 ADD SWAP1 POP SWAP3 SWAP2 POP POP JUMP JUMPDEST PUSH32 0x7A65726F20616464726573730000000000000000000000000000000000000000 PUSH0 DUP3 ADD MSTORE POP JUMP JUMPDEST PUSH0 PUSH3 0x28F PUSH1 0xC DUP4 PUSH3 0x249 JUMP JUMPDEST SWAP2 POP PUSH3 0x29C DUP3 PUSH3 0x259 JUMP JUMPDEST PUSH1 0x20 DUP3 ADD SWAP1 POP SWAP2 SWAP1 POP JUMP JUMPDEST PUSH0 PUSH1 0x20 DUP3 ADD SWAP1 POP DUP2 DUP2 SUB PUSH0 DUP4 ADD MSTORE PUSH3 0x2C0 DUP2 PUSH3 0x281 JUMP JUMPDEST SWAP1 POP SWAP2 SWAP1 POP JUMP JUMPDEST PUSH2 0x1F3E DUP1 PUSH3 0x2D5 PUSH0 CODECOPY PUSH0 RETURN INVALID PUSH1 0x80 PUSH1 0x40 MSTORE CALLVALUE DUP1 ISZERO PUSH2 0xF JUMPI PUSH0 DUP1 REVERT JUMPDEST POP PUSH1 0x4 CALLDATASIZE LT PUSH2 0xE8 JUMPI PUSH0 CALLDATALOAD PUSH1 0xE0 SHR DUP1 PUSH4 0xB3DE019C GT PUSH2 0x8A JUMPI DUP1 PUSH4 0xD96A094A GT PUSH2 0x64 JUMPI DUP1 PUSH4 0xD96A094A EQ PUSH2 0x260 JUMPI DUP1 PUSH4 0xDA694DF0 EQ PUSH2 0x27C JUMPI DUP1 PUSH4 0xE0391B09 EQ PUSH2 0x2AC JUMPI DUP1 PUSH4 0xFCCE4883 EQ PUSH2 0x2CA JUMPI PUSH2 0xE8 JUMP JUMPDEST DUP1 PUSH4 0xB3DE019C EQ PUSH2 0x1F6 JUMPI DUP1 PUSH4 0xB5CDF924 EQ PUSH2 0x212 JUMPI DUP1 PUSH4 0xBCA6CE64 EQ PUSH2 0x242 JUMPI PUSH2 0xE8 JUMP JUMPDEST DUP1 PUSH4 0x629CB2E4 GT PUSH2 0xC6 JUMPI DUP1 PUSH4 0x629CB2E4 EQ PUSH2 0x16A JUMPI DUP1 PUSH4 0x785E9E86 EQ PUSH2 0x188 JUMPI DUP1 PUSH4 0x9D4971B7 EQ PUSH2 0x1A6 JUMPI DUP1 PUSH4 0xA85C38EF EQ PUSH2 0x1C4 JUMPI PUSH2 0xE8 JUMP JUMPDEST DUP1 PUSH4 0x150B7A02 EQ PUSH2 0xEC JUMPI DUP1 PUSH4 0x394A9077 EQ PUSH2 0x11C JUMPI DUP1 PUSH4 0x514FCAC7 EQ PUSH2 0x14E JUMPI JUMPDEST PUSH0 DUP1 REVERT JUMPDEST PUSH2 0x106 PUSH1 0x4 DUP1 CALLDATASIZE SUB DUP2 ADD SWAP1 PUSH2 0x101 SWAP2 SWAP1 PUSH2 0x13CA JUMP JUMPDEST PUSH2 0x2FA JUMP JUMPDEST PUSH1 0x40 MLOAD PUSH2 0x113 SWAP2 SWAP1 PUSH2 0x1488 JUMP JUMPDEST PUSH1 0x40 MLOAD DUP1 SWAP2 SUB SWAP1 RETURN JUMPDEST PUSH2 0x136 PUSH1 0x4 DUP1 CALLDATASIZE SUB DUP2 ADD SWAP1 PUSH2 0x131 SWAP2 SWAP1 PUSH2 0x14A1 JUMP JUMPDEST PUSH2 0x6E8 JUMP JUMPDEST PUSH1 0x40 MLOAD PUSH2 0x145 SWAP4 SWAP3 SWAP2 SWAP1 PUSH2 0x14EA JUMP JUMPDEST PUSH1 0x40 MLOAD DUP1 SWAP2 SUB SWAP1 RETURN JUMPDEST PUSH2 0x168 PUSH1 0x4 DUP1 CALLDATASIZE SUB DUP2 ADD SWAP1 PUSH2 0x163 SWAP2 SWAP1 PUSH2 0x14A1 JUMP JUMPDEST PUSH2 0x72D JUMP JUMPDEST STOP JUMPDEST PUSH2 0x172 PUSH2 0x8A2 JUMP JUMPDEST PUSH1 0x40 MLOAD PUSH2 0x17F SWAP2 SWAP1 PUSH2 0x1625 JUMP JUMPDEST PUSH1 0x40 MLOAD DUP1 SWAP2 SUB SWAP1 RETURN JUMPDEST PUSH2 0x190 PUSH2 0x9E5 JUMP JUMPDEST PUSH1 0x40 MLOAD PUSH2 0x19D SWAP2 SWAP1 PUSH2 0x16A0 JUMP JUMPDEST PUSH1 0x40 MLOAD DUP1 SWAP2 SUB SWAP1 RETURN JUMPDEST PUSH2 0x1AE PUSH2 0xA08 JUMP JUMPDEST PUSH1 0x40 MLOAD PUSH2 0x1BB SWAP2 SWAP1 PUSH2 0x16B9 JUMP JUMPDEST PUSH1 0x40 MLOAD DUP1 SWAP2 SUB SWAP1 RETURN JUMPDEST PUSH2 0x1DE PUSH1 0x4 DUP1 CALLDATASIZE SUB DUP2 ADD SWAP1 PUSH2 0x1D9 SWAP2 SWAP1 PUSH2 0x14A1 JUMP JUMPDEST PUSH2 0xA14 JUMP JUMPDEST PUSH1 0x40 MLOAD PUSH2 0x1ED SWAP4 SWAP3 SWAP2 SWAP1 PUSH2 0x14EA JUMP JUMPDEST PUSH1 0x40 MLOAD DUP1 SWAP2 SUB SWAP1 RETURN JUMPDEST PUSH2 0x210 PUSH1 0x4 DUP1 CALLDATASIZE SUB DUP2 ADD SWAP1 PUSH2 0x20B SWAP2 SWAP1 PUSH2 0x16D2 JUMP JUMPDEST PUSH2 0xA68 JUMP JUMPDEST STOP JUMPDEST PUSH2 0x22C PUSH1 0x4 DUP1 CALLDATASIZE SUB DUP2 ADD SWAP1 PUSH2 0x227 SWAP2 SWAP1 PUSH2 0x1848 JUMP JUMPDEST PUSH2 0xC00 JUMP JUMPDEST PUSH1 0x40 MLOAD PUSH2 0x239 SWAP2 SWAP1 PUSH2 0x16B9 JUMP JUMPDEST PUSH1 0x40 MLOAD DUP1 SWAP2 SUB SWAP1 RETURN JUMPDEST PUSH2 0x24A PUSH2 0xCB4 JUMP JUMPDEST PUSH1 0x40 MLOAD PUSH2 0x257 SWAP2 SWAP1 PUSH2 0x18C2 JUMP JUMPDEST PUSH1 0x40 MLOAD DUP1 SWAP2 SUB SWAP1 RETURN JUMPDEST PUSH2 0x27A PUSH1 0x4 DUP1 CALLDATASIZE SUB DUP2 ADD SWAP1 PUSH2 0x275 SWAP2 SWAP1 PUSH2 0x14A1 JUMP JUMPDEST PUSH2 0xCD9 JUMP JUMPDEST STOP JUMPDEST PUSH2 0x296 PUSH1 0x4 DUP1 CALLDATASIZE SUB DUP2 ADD SWAP1 PUSH2 0x291 SWAP2 SWAP1 PUSH2 0x14A1 JUMP JUMPDEST PUSH2 0xF8D JUMP JUMPDEST PUSH1 0x40 MLOAD PUSH2 0x2A3 SWAP2 SWAP1 PUSH2 0x16B9 JUMP JUMPDEST PUSH1 0x40 MLOAD DUP1 SWAP2 SUB SWAP1 RETURN JUMPDEST PUSH2 0x2B4 PUSH2 0xFA2 JUMP JUMPDEST PUSH1 0x40 MLOAD PUSH2 0x2C1 SWAP2 SWAP1 PUSH2 0x1625 JUMP JUMPDEST PUSH1 0x40 MLOAD DUP1 SWAP2 SUB SWAP1 RETURN JUMPDEST PUSH2 0x2E4 PUSH1 0x4 DUP1 CALLDATASIZE SUB DUP2 ADD SWAP1 PUSH2 0x2DF SWAP2 SWAP1 PUSH2 0x14A1 JUMP JUMPDEST PUSH2 0x1066 JUMP JUMPDEST PUSH1 0x40 MLOAD PUSH2 0x2F1 SWAP2 SWAP1 PUSH2 0x18F5 JUMP JUMPDEST PUSH1 0x40 MLOAD DUP1 SWAP2 SUB SWAP1 RETURN JUMPDEST PUSH0 PUSH1 0x1 PUSH0 SWAP1 SLOAD SWAP1 PUSH2 0x100 EXP SWAP1 DIV PUSH20 0xFFFFFFFFFFFFFFFFFFFFFFFFFFFFFFFFFFFFFFFF AND PUSH20 0xFFFFFFFFFFFFFFFFFFFFFFFFFFFFFFFFFFFFFFFF AND CALLER PUSH20 0xFFFFFFFFFFFFFFFFFFFFFFFFFFFFFFFFFFFFFFFF AND EQ PUSH2 0x38A JUMPI PUSH1 0x40 MLOAD PUSH32 0x8C379A000000000000000000000000000000000000000000000000000000000 DUP2 MSTORE PUSH1 0x4 ADD PUSH2 0x381 SWAP1 PUSH2 0x1968 JUMP JUMPDEST PUSH1 0x40 MLOAD DUP1 SWAP2 SUB SWAP1 REVERT JUMPDEST ADDRESS PUSH20 0xFFFFFFFFFFFFFFFFFFFFFFFFFFFFFFFFFFFFFFFF AND PUSH1 0x1 PUSH0 SWAP1 SLOAD SWAP1 PUSH2 0x100 EXP SWAP1 DIV PUSH20 0xFFFFFFFFFFFFFFFFFFFFFFFFFFFFFFFFFFFFFFFF AND PUSH20 0xFFFFFFFFFFFFFFFFFFFFFFFFFFFFFFFFFFFFFFFF AND PUSH4 0x6352211E DUP7 PUSH1 0x40 MLOAD DUP3 PUSH4 0xFFFFFFFF AND PUSH1 0xE0 SHL DUP2 MSTORE PUSH1 0x4 ADD PUSH2 0x3FB SWAP2 SWAP1 PUSH2 0x16B9 JUMP JUMPDEST PUSH1 0x20 PUSH1 0x40 MLOAD DUP1 DUP4 SUB DUP2 DUP7 GAS STATICCALL ISZERO DUP1 ISZERO PUSH2 0x416 JUMPI RETURNDATASIZE PUSH0 DUP1 RETURNDATACOPY RETURNDATASIZE PUSH0 REVERT JUMPDEST POP POP POP POP PUSH1 0x40 MLOAD RETURNDATASIZE PUSH1 0x1F NOT PUSH1 0x1F DUP3 ADD AND DUP3 ADD DUP1 PUSH1 0x40 MSTORE POP DUP2 ADD SWAP1 PUSH2 0x43A SWAP2 SWAP1 PUSH2 0x199A JUMP JUMPDEST PUSH20 0xFFFFFFFFFFFFFFFFFFFFFFFFFFFFFFFFFFFFFFFF AND EQ PUSH2 0x490 JUMPI PUSH1 0x40 MLOAD PUSH32 0x8C379A000000000000000000000000000000000000000000000000000000000 DUP2 MSTORE PUSH1 0x4 ADD PUSH2 0x487 SWAP1 PUSH2 0x1A0F JUMP JUMPDEST PUSH1 0x40 MLOAD DUP1 SWAP2 SUB SWAP1 REVERT JUMPDEST PUSH0 PUSH2 0x4DE DUP5 DUP5 DUP1 DUP1 PUSH1 0x1F ADD PUSH1 0x20 DUP1 SWAP2 DIV MUL PUSH1 0x20 ADD PUSH1 0x40 MLOAD SWAP1 DUP2 ADD PUSH1 0x40 MSTORE DUP1 SWAP4 SWAP3 SWAP2 SWAP1 DUP2 DUP2 MSTORE PUSH1 0x20 ADD DUP4 DUP4 DUP1 DUP3 DUP5 CALLDATACOPY PUSH0 DUP2 DUP5 ADD MSTORE PUSH1 0x1F NOT PUSH1 0x1F DUP3 ADD AND SWAP1 POP DUP1 DUP4 ADD SWAP3 POP POP POP POP POP POP POP PUSH0 PUSH2 0xC00 JUMP JUMPDEST SWAP1 POP PUSH0 DUP2 GT PUSH2 0x522 JUMPI PUSH1 0x40 MLOAD PUSH32 0x8C379A000000000000000000000000000000000000000000000000000000000 DUP2 MSTORE PUSH1 0x4 ADD PUSH2 0x519 SWAP1 PUSH2 0x1A77 JUMP JUMPDEST PUSH1 0x40 MLOAD DUP1 SWAP2 SUB SWAP1 REVERT JUMPDEST PUSH1 0x3 PUSH1 0x40 MLOAD DUP1 PUSH1 0x60 ADD PUSH1 0x40 MSTORE DUP1 DUP9 PUSH20 0xFFFFFFFFFFFFFFFFFFFFFFFFFFFFFFFFFFFFFFFF AND DUP2 MSTORE PUSH1 0x20 ADD DUP8 DUP2 MSTORE PUSH1 0x20 ADD DUP4 DUP2 MSTORE POP SWAP1 DUP1 PUSH1 0x1 DUP2 SLOAD ADD DUP1 DUP3 SSTORE DUP1 SWAP2 POP POP PUSH1 0x1 SWAP1 SUB SWAP1 PUSH0 MSTORE PUSH1 0x20 PUSH0 KECCAK256 SWAP1 PUSH1 0x3 MUL ADD PUSH0 SWAP1 SWAP2 SWAP1 SWAP2 SWAP1 SWAP2 POP PUSH0 DUP3 ADD MLOAD DUP2 PUSH0 ADD PUSH0 PUSH2 0x100 EXP DUP2 SLOAD DUP2 PUSH20 0xFFFFFFFFFFFFFFFFFFFFFFFFFFFFFFFFFFFFFFFF MUL NOT AND SWAP1 DUP4 PUSH20 0xFFFFFFFFFFFFFFFFFFFFFFFFFFFFFFFFFFFFFFFF AND MUL OR SWAP1 SSTORE POP PUSH1 0x20 DUP3 ADD MLOAD DUP2 PUSH1 0x1 ADD SSTORE PUSH1 0x40 DUP3 ADD MLOAD DUP2 PUSH1 0x2 ADD SSTORE POP POP PUSH1 0x40 MLOAD DUP1 PUSH1 0x60 ADD PUSH1 0x40 MSTORE DUP1 DUP8 PUSH20 0xFFFFFFFFFFFFFFFFFFFFFFFFFFFFFFFFFFFFFFFF AND DUP2 MSTORE PUSH1 0x20 ADD DUP7 DUP2 MSTORE PUSH1 0x20 ADD DUP3 DUP2 MSTORE POP PUSH1 0x2 PUSH0 DUP8 DUP2 MSTORE PUSH1 0x20 ADD SWAP1 DUP2 MSTORE PUSH1 0x20 ADD PUSH0 KECCAK256 PUSH0 DUP3 ADD MLOAD DUP2 PUSH0 ADD PUSH0 PUSH2 0x100 EXP DUP2 SLOAD DUP2 PUSH20 0xFFFFFFFFFFFFFFFFFFFFFFFFFFFFFFFFFFFFFFFF MUL NOT AND SWAP1 DUP4 PUSH20 0xFFFFFFFFFFFFFFFFFFFFFFFFFFFFFFFFFFFFFFFF AND MUL OR SWAP1 SSTORE POP PUSH1 0x20 DUP3 ADD MLOAD DUP2 PUSH1 0x1 ADD SSTORE PUSH1 0x40 DUP3 ADD MLOAD DUP2 PUSH1 0x2 ADD SSTORE SWAP1 POP POP PUSH1 0x1 PUSH1 0x3 DUP1 SLOAD SWAP1 POP PUSH2 0x684 SWAP2 SWAP1 PUSH2 0x1AC2 JUMP JUMPDEST PUSH1 0x4 PUSH0 DUP8 DUP2 MSTORE PUSH1 0x20 ADD SWAP1 DUP2 MSTORE PUSH1 0x20 ADD PUSH0 KECCAK256 DUP2 SWAP1 SSTORE POP PUSH32 0xD5B509E657D5EC37AE4BDCAB658B7340C0453BB630516D26623359A34C1CECF3 DUP7 DUP7 DUP4 PUSH1 0x40 MLOAD PUSH2 0x6CC SWAP4 SWAP3 SWAP2 SWAP1 PUSH2 0x14EA JUMP JUMPDEST PUSH1 0x40 MLOAD DUP1 SWAP2 SUB SWAP1 LOG1 PUSH4 0x150B7A02 PUSH1 0xE0 SHL SWAP2 POP POP SWAP6 SWAP5 POP POP POP POP POP JUMP JUMPDEST PUSH1 0x2 PUSH1 0x20 MSTORE DUP1 PUSH0 MSTORE PUSH1 0x40 PUSH0 KECCAK256 PUSH0 SWAP2 POP SWAP1 POP DUP1 PUSH0 ADD PUSH0 SWAP1 SLOAD SWAP1 PUSH2 0x100 EXP SWAP1 DIV PUSH20 0xFFFFFFFFFFFFFFFFFFFFFFFFFFFFFFFFFFFFFFFF AND SWAP1 DUP1 PUSH1 0x1 ADD SLOAD SWAP1 DUP1 PUSH1 0x2 ADD SLOAD SWAP1 POP DUP4 JUMP JUMPDEST PUSH0 PUSH1 0x2 PUSH0 DUP4 DUP2 MSTORE PUSH1 0x20 ADD SWAP1 DUP2 MSTORE PUSH1 0x20 ADD PUSH0 KECCAK256 PUSH0 ADD PUSH0 SWAP1 SLOAD SWAP1 PUSH2 0x100 EXP SWAP1 DIV PUSH20 0xFFFFFFFFFFFFFFFFFFFFFFFFFFFFFFFFFFFFFFFF AND SWAP1 POP CALLER PUSH20 0xFFFFFFFFFFFFFFFFFFFFFFFFFFFFFFFFFFFFFFFF AND DUP2 PUSH20 0xFFFFFFFFFFFFFFFFFFFFFFFFFFFFFFFFFFFFFFFF AND EQ PUSH2 0x7D1 JUMPI PUSH1 0x40 MLOAD PUSH32 0x8C379A000000000000000000000000000000000000000000000000000000000 DUP2 MSTORE PUSH1 0x4 ADD PUSH2 0x7C8 SWAP1 PUSH2 0x1B3F JUMP JUMPDEST PUSH1 0x40 MLOAD DUP1 SWAP2 SUB SWAP1 REVERT JUMPDEST PUSH1 0x1 PUSH0 SWAP1 SLOAD SWAP1 PUSH2 0x100 EXP SWAP1 DIV PUSH20 0xFFFFFFFFFFFFFFFFFFFFFFFFFFFFFFFFFFFFFFFF AND PUSH20 0xFFFFFFFFFFFFFFFFFFFFFFFFFFFFFFFFFFFFFFFF AND PUSH4 0x42842E0E ADDRESS DUP4 DUP6 PUSH1 0x40 MLOAD DUP5 PUSH4 0xFFFFFFFF AND PUSH1 0xE0 SHL DUP2 MSTORE PUSH1 0x4 ADD PUSH2 0x82F SWAP4 SWAP3 SWAP2 SWAP1 PUSH2 0x1B5D JUMP JUMPDEST PUSH0 PUSH1 0x40 MLOAD DUP1 DUP4 SUB DUP2 PUSH0 DUP8 DUP1 EXTCODESIZE ISZERO DUP1 ISZERO PUSH2 0x846 JUMPI PUSH0 DUP1 REVERT JUMPDEST POP GAS CALL ISZERO DUP1 ISZERO PUSH2 0x858 JUMPI RETURNDATASIZE PUSH0 DUP1 RETURNDATACOPY RETURNDATASIZE PUSH0 REVERT JUMPDEST POP POP POP POP PUSH2 0x865 DUP3 PUSH2 0x10D0 JUMP JUMPDEST PUSH32 0xDD003742FB214507783CE004FE55F5AC14F89C6DE4A7CD7487E47EB091C62265 DUP2 DUP4 PUSH1 0x40 MLOAD PUSH2 0x896 SWAP3 SWAP2 SWAP1 PUSH2 0x1B92 JUMP JUMPDEST PUSH1 0x40 MLOAD DUP1 SWAP2 SUB SWAP1 LOG1 POP POP JUMP JUMPDEST PUSH1 0x60 PUSH0 PUSH1 0x3 DUP1 SLOAD SWAP1 POP SWAP1 POP PUSH0 DUP2 PUSH8 0xFFFFFFFFFFFFFFFF DUP2 GT ISZERO PUSH2 0x8C8 JUMPI PUSH2 0x8C7 PUSH2 0x1724 JUMP JUMPDEST JUMPDEST PUSH1 0x40 MLOAD SWAP1 DUP1 DUP3 MSTORE DUP1 PUSH1 0x20 MUL PUSH1 0x20 ADD DUP3 ADD PUSH1 0x40 MSTORE DUP1 ISZERO PUSH2 0x901 JUMPI DUP2 PUSH1 0x20 ADD JUMPDEST PUSH2 0x8EE PUSH2 0x1297 JUMP JUMPDEST DUP2 MSTORE PUSH1 0x20 ADD SWAP1 PUSH1 0x1 SWAP1 SUB SWAP1 DUP2 PUSH2 0x8E6 JUMPI SWAP1 POP JUMPDEST POP SWAP1 POP PUSH0 DUP1 JUMPDEST DUP4 DUP2 LT ISZERO PUSH2 0x9DB JUMPI PUSH1 0x3 DUP2 DUP2 SLOAD DUP2 LT PUSH2 0x923 JUMPI PUSH2 0x922 PUSH2 0x1BB9 JUMP JUMPDEST JUMPDEST SWAP1 PUSH0 MSTORE PUSH1 0x20 PUSH0 KECCAK256 SWAP1 PUSH1 0x3 MUL ADD PUSH1 0x40 MLOAD DUP1 PUSH1 0x60 ADD PUSH1 0x40 MSTORE SWAP1 DUP2 PUSH0 DUP3 ADD PUSH0 SWAP1 SLOAD SWAP1 PUSH2 0x100 EXP SWAP1 DIV PUSH20 0xFFFFFFFFFFFFFFFFFFFFFFFFFFFFFFFFFFFFFFFF AND PUSH20 0xFFFFFFFFFFFFFFFFFFFFFFFFFFFFFFFFFFFFFFFF AND PUSH20 0xFFFFFFFFFFFFFFFFFFFFFFFFFFFFFFFFFFFFFFFF AND DUP2 MSTORE PUSH1 0x20 ADD PUSH1 0x1 DUP3 ADD SLOAD DUP2 MSTORE PUSH1 0x20 ADD PUSH1 0x2 DUP3 ADD SLOAD DUP2 MSTORE POP POP DUP4 DUP4 DUP2 MLOAD DUP2 LT PUSH2 0x9B5 JUMPI PUSH2 0x9B4 PUSH2 0x1BB9 JUMP JUMPDEST JUMPDEST PUSH1 0x20 MUL PUSH1 0x20 ADD ADD DUP2 SWAP1 MSTORE POP DUP2 DUP1 PUSH2 0x9CB SWAP1 PUSH2 0x1BE6 JUMP JUMPDEST SWAP3 POP POP DUP1 DUP1 PUSH1 0x1 ADD SWAP2 POP POP PUSH2 0x907 JUMP JUMPDEST POP DUP2 SWAP4 POP POP POP POP SWAP1 JUMP JUMPDEST PUSH0 DUP1 SLOAD SWAP1 PUSH2 0x100 EXP SWAP1 DIV PUSH20 0xFFFFFFFFFFFFFFFFFFFFFFFFFFFFFFFFFFFFFFFF AND DUP2 JUMP JUMPDEST PUSH0 PUSH1 0x3 DUP1 SLOAD SWAP1 POP SWAP1 POP SWAP1 JUMP JUMPDEST PUSH1 0x3 DUP2 DUP2 SLOAD DUP2 LT PUSH2 0xA23 JUMPI PUSH0 DUP1 REVERT JUMPDEST SWAP1 PUSH0 MSTORE PUSH1 0x20 PUSH0 KECCAK256 SWAP1 PUSH1 0x3 MUL ADD PUSH0 SWAP2 POP SWAP1 POP DUP1 PUSH0 ADD PUSH0 SWAP1 SLOAD SWAP1 PUSH2 0x100 EXP SWAP1 DIV PUSH20 0xFFFFFFFFFFFFFFFFFFFFFFFFFFFFFFFFFFFFFFFF AND SWAP1 DUP1 PUSH1 0x1 ADD SLOAD SWAP1 DUP1 PUSH1 0x2 ADD SLOAD SWAP1 POP DUP4 JUMP JUMPDEST PUSH0 PUSH1 0x2 PUSH0 DUP5 DUP2 MSTORE PUSH1 0x20 ADD SWAP1 DUP2 MSTORE PUSH1 0x20 ADD PUSH0 KECCAK256 PUSH0 ADD PUSH0 SWAP1 SLOAD SWAP1 PUSH2 0x100 EXP SWAP1 DIV PUSH20 0xFFFFFFFFFFFFFFFFFFFFFFFFFFFFFFFFFFFFFFFF AND SWAP1 POP CALLER PUSH20 0xFFFFFFFFFFFFFFFFFFFFFFFFFFFFFFFFFFFFFFFF AND DUP2 PUSH20 0xFFFFFFFFFFFFFFFFFFFFFFFFFFFFFFFFFFFFFFFF AND EQ PUSH2 0xB0C JUMPI PUSH1 0x40 MLOAD PUSH32 0x8C379A000000000000000000000000000000000000000000000000000000000 DUP2 MSTORE PUSH1 0x4 ADD PUSH2 0xB03 SWAP1 PUSH2 0x1B3F JUMP JUMPDEST PUSH1 0x40 MLOAD DUP1 SWAP2 SUB SWAP1 REVERT JUMPDEST PUSH0 DUP3 GT PUSH2 0xB4E JUMPI PUSH1 0x40 MLOAD PUSH32 0x8C379A000000000000000000000000000000000000000000000000000000000 DUP2 MSTORE PUSH1 0x4 ADD PUSH2 0xB45 SWAP1 PUSH2 0x1A77 JUMP JUMPDEST PUSH1 0x40 MLOAD DUP1 SWAP2 SUB SWAP1 REVERT JUMPDEST PUSH0 PUSH1 0x2 PUSH0 DUP6 DUP2 MSTORE PUSH1 0x20 ADD SWAP1 DUP2 MSTORE PUSH1 0x20 ADD PUSH0 KECCAK256 PUSH1 0x2 ADD SLOAD SWAP1 POP DUP3 PUSH1 0x2 PUSH0 DUP7 DUP2 MSTORE PUSH1 0x20 ADD SWAP1 DUP2 MSTORE PUSH1 0x20 ADD PUSH0 KECCAK256 PUSH1 0x2 ADD DUP2 SWAP1 SSTORE POP PUSH0 PUSH1 0x3 PUSH1 0x4 PUSH0 DUP8 DUP2 MSTORE PUSH1 0x20 ADD SWAP1 DUP2 MSTORE PUSH1 0x20 ADD PUSH0 KECCAK256 SLOAD DUP2 SLOAD DUP2 LT PUSH2 0xBA5 JUMPI PUSH2 0xBA4 PUSH2 0x1BB9 JUMP JUMPDEST JUMPDEST SWAP1 PUSH0 MSTORE PUSH1 0x20 PUSH0 KECCAK256 SWAP1 PUSH1 0x3 MUL ADD SWAP1 POP DUP4 DUP2 PUSH1 0x2 ADD DUP2 SWAP1 SSTORE POP PUSH32 0xDAC6AECD066304D15A41E8E590FC5AB5BF93634F43CBA363F743D5E158D79988 DUP4 DUP7 DUP5 DUP8 PUSH1 0x40 MLOAD PUSH2 0xBF1 SWAP5 SWAP4 SWAP3 SWAP2 SWAP1 PUSH2 0x1C2D JUMP JUMPDEST PUSH1 0x40 MLOAD DUP1 SWAP2 SUB SWAP1 LOG1 POP POP POP POP POP JUMP JUMPDEST PUSH0 DUP2 PUSH1 0x20 DUP4 PUSH2 0xC0F SWAP2 SWAP1 PUSH2 0x1C70 JUMP JUMPDEST LT ISZERO PUSH2 0xC50 JUMPI PUSH1 0x40 MLOAD PUSH32 0x8C379A000000000000000000000000000000000000000000000000000000000 DUP2 MSTORE PUSH1 0x4 ADD PUSH2 0xC47 SWAP1 PUSH2 0x1CED JUMP JUMPDEST PUSH1 0x40 MLOAD DUP1 SWAP2 SUB SWAP1 REVERT JUMPDEST PUSH1 0x20 DUP3 PUSH2 0xC5D SWAP2 SWAP1 PUSH2 0x1C70 JUMP JUMPDEST DUP4 MLOAD LT ISZERO PUSH2 0xCA0 JUMPI PUSH1 0x40 MLOAD PUSH32 0x8C379A000000000000000000000000000000000000000000000000000000000 DUP2 MSTORE PUSH1 0x4 ADD PUSH2 0xC97 SWAP1 PUSH2 0x1D55 JUMP JUMPDEST PUSH1 0x40 MLOAD DUP1 SWAP2 SUB SWAP1 REVERT JUMPDEST PUSH0 DUP3 PUSH1 0x20 DUP6 ADD ADD MLOAD SWAP1 POP DUP1 SWAP2 POP POP SWAP3 SWAP2 POP POP JUMP JUMPDEST PUSH1 0x1 PUSH0 SWAP1 SLOAD SWAP1 PUSH2 0x100 EXP SWAP1 DIV PUSH20 0xFFFFFFFFFFFFFFFFFFFFFFFFFFFFFFFFFFFFFFFF AND DUP2 JUMP JUMPDEST PUSH0 PUSH1 0x2 PUSH0 DUP4 DUP2 MSTORE PUSH1 0x20 ADD SWAP1 DUP2 MSTORE PUSH1 0x20 ADD PUSH0 KECCAK256 PUSH0 ADD PUSH0 SWAP1 SLOAD SWAP1 PUSH2 0x100 EXP SWAP1 DIV PUSH20 0xFFFFFFFFFFFFFFFFFFFFFFFFFFFFFFFFFFFFFFFF AND SWAP1 POP PUSH0 CALLER SWAP1 POP PUSH0 PUSH1 0x2 PUSH0 DUP6 DUP2 MSTORE PUSH1 0x20 ADD SWAP1 DUP2 MSTORE PUSH1 0x20 ADD PUSH0 KECCAK256 PUSH1 0x2 ADD SLOAD SWAP1 POP DUP2 PUSH20 0xFFFFFFFFFFFFFFFFFFFFFFFFFFFFFFFFFFFFFFFF AND DUP4 PUSH20 0xFFFFFFFFFFFFFFFFFFFFFFFFFFFFFFFFFFFFFFFF AND SUB PUSH2 0xD99 JUMPI PUSH1 0x40 MLOAD PUSH32 0x8C379A000000000000000000000000000000000000000000000000000000000 DUP2 MSTORE PUSH1 0x4 ADD PUSH2 0xD90 SWAP1 PUSH2 0x1DBD JUMP JUMPDEST PUSH1 0x40 MLOAD DUP1 SWAP2 SUB SWAP1 REVERT JUMPDEST PUSH0 DUP2 GT PUSH2 0xDDB JUMPI PUSH1 0x40 MLOAD PUSH32 0x8C379A000000000000000000000000000000000000000000000000000000000 DUP2 MSTORE PUSH1 0x4 ADD PUSH2 0xDD2 SWAP1 PUSH2 0x1A77 JUMP JUMPDEST PUSH1 0x40 MLOAD DUP1 SWAP2 SUB SWAP1 REVERT JUMPDEST PUSH0 DUP1 SLOAD SWAP1 PUSH2 0x100 EXP SWAP1 DIV PUSH20 0xFFFFFFFFFFFFFFFFFFFFFFFFFFFFFFFFFFFFFFFF AND PUSH20 0xFFFFFFFFFFFFFFFFFFFFFFFFFFFFFFFFFFFFFFFF AND PUSH4 0x23B872DD DUP4 DUP6 DUP5 PUSH1 0x40 MLOAD DUP5 PUSH4 0xFFFFFFFF AND PUSH1 0xE0 SHL DUP2 MSTORE PUSH1 0x4 ADD PUSH2 0xE37 SWAP4 SWAP3 SWAP2 SWAP1 PUSH2 0x1B5D JUMP JUMPDEST PUSH1 0x20 PUSH1 0x40 MLOAD DUP1 DUP4 SUB DUP2 PUSH0 DUP8 GAS CALL ISZERO DUP1 ISZERO PUSH2 0xE53 JUMPI RETURNDATASIZE PUSH0 DUP1 RETURNDATACOPY RETURNDATASIZE PUSH0 REVERT JUMPDEST POP POP POP POP PUSH1 0x40 MLOAD RETURNDATASIZE PUSH1 0x1F NOT PUSH1 0x1F DUP3 ADD AND DUP3 ADD DUP1 PUSH1 0x40 MSTORE POP DUP2 ADD SWAP1 PUSH2 0xE77 SWAP2 SWAP1 PUSH2 0x1E05 JUMP JUMPDEST PUSH2 0xEB6 JUMPI PUSH1 0x40 MLOAD PUSH32 0x8C379A000000000000000000000000000000000000000000000000000000000 DUP2 MSTORE PUSH1 0x4 ADD PUSH2 0xEAD SWAP1 PUSH2 0x1E7A JUMP JUMPDEST PUSH1 0x40 MLOAD DUP1 SWAP2 SUB SWAP1 REVERT JUMPDEST PUSH1 0x1 PUSH0 SWAP1 SLOAD SWAP1 PUSH2 0x100 EXP SWAP1 DIV PUSH20 0xFFFFFFFFFFFFFFFFFFFFFFFFFFFFFFFFFFFFFFFF AND PUSH20 0xFFFFFFFFFFFFFFFFFFFFFFFFFFFFFFFFFFFFFFFF AND PUSH4 0x42842E0E ADDRESS DUP5 DUP8 PUSH1 0x40 MLOAD DUP5 PUSH4 0xFFFFFFFF AND PUSH1 0xE0 SHL DUP2 MSTORE PUSH1 0x4 ADD PUSH2 0xF14 SWAP4 SWAP3 SWAP2 SWAP1 PUSH2 0x1B5D JUMP JUMPDEST PUSH0 PUSH1 0x40 MLOAD DUP1 DUP4 SUB DUP2 PUSH0 DUP8 DUP1 EXTCODESIZE ISZERO DUP1 ISZERO PUSH2 0xF2B JUMPI PUSH0 DUP1 REVERT JUMPDEST POP GAS CALL ISZERO DUP1 ISZERO PUSH2 0xF3D JUMPI RETURNDATASIZE PUSH0 DUP1 RETURNDATACOPY RETURNDATASIZE PUSH0 REVERT JUMPDEST POP POP POP POP PUSH2 0xF4A DUP5 PUSH2 0x10D0 JUMP JUMPDEST PUSH32 0x424D5E5F0192C7DACDBE646CA31B00299146D883D76A95EF5CDDBAC7CD342EAB DUP4 DUP4 DUP7 DUP5 PUSH1 0x40 MLOAD PUSH2 0xF7F SWAP5 SWAP4 SWAP3 SWAP2 SWAP1 PUSH2 0x1E98 JUMP JUMPDEST PUSH1 0x40 MLOAD DUP1 SWAP2 SUB SWAP1 LOG1 POP POP POP POP JUMP JUMPDEST PUSH1 0x4 PUSH1 0x20 MSTORE DUP1 PUSH0 MSTORE PUSH1 0x40 PUSH0 KECCAK256 PUSH0 SWAP2 POP SWAP1 POP SLOAD DUP2 JUMP JUMPDEST PUSH1 0x60 PUSH1 0x3 DUP1 SLOAD DUP1 PUSH1 0x20 MUL PUSH1 0x20 ADD PUSH1 0x40 MLOAD SWAP1 DUP2 ADD PUSH1 0x40 MSTORE DUP1 SWAP3 SWAP2 SWAP1 DUP2 DUP2 MSTORE PUSH1 0x20 ADD PUSH0 SWAP1 JUMPDEST DUP3 DUP3 LT ISZERO PUSH2 0x105D JUMPI DUP4 DUP3 SWAP1 PUSH0 MSTORE PUSH1 0x20 PUSH0 KECCAK256 SWAP1 PUSH1 0x3 MUL ADD PUSH1 0x40 MLOAD DUP1 PUSH1 0x60 ADD PUSH1 0x40 MSTORE SWAP1 DUP2 PUSH0 DUP3 ADD PUSH0 SWAP1 SLOAD SWAP1 PUSH2 0x100 EXP SWAP1 DIV PUSH20 0xFFFFFFFFFFFFFFFFFFFFFFFFFFFFFFFFFFFFFFFF AND PUSH20 0xFFFFFFFFFFFFFFFFFFFFFFFFFFFFFFFFFFFFFFFF AND PUSH20 0xFFFFFFFFFFFFFFFFFFFFFFFFFFFFFFFFFFFFFFFF AND DUP2 MSTORE PUSH1 0x20 ADD PUSH1 0x1 DUP3 ADD SLOAD DUP2 MSTORE PUSH1 0x20 ADD PUSH1 0x2 DUP3 ADD SLOAD DUP2 MSTORE POP POP DUP2 MSTORE PUSH1 0x20 ADD SWAP1 PUSH1 0x1 ADD SWAP1 PUSH2 0xFC5 JUMP JUMPDEST POP POP POP POP SWAP1 POP SWAP1 JUMP JUMPDEST PUSH0 DUP1 PUSH20 0xFFFFFFFFFFFFFFFFFFFFFFFFFFFFFFFFFFFFFFFF AND PUSH1 0x2 PUSH0 DUP5 DUP2 MSTORE PUSH1 0x20 ADD SWAP1 DUP2 MSTORE PUSH1 0x20 ADD PUSH0 KECCAK256 PUSH0 ADD PUSH0 SWAP1 SLOAD SWAP1 PUSH2 0x100 EXP SWAP1 DIV PUSH20 0xFFFFFFFFFFFFFFFFFFFFFFFFFFFFFFFFFFFFFFFF AND PUSH20 0xFFFFFFFFFFFFFFFFFFFFFFFFFFFFFFFFFFFFFFFF AND EQ ISZERO SWAP1 POP SWAP2 SWAP1 POP JUMP JUMPDEST PUSH0 PUSH1 0x4 PUSH0 DUP4 DUP2 MSTORE PUSH1 0x20 ADD SWAP1 DUP2 MSTORE PUSH1 0x20 ADD PUSH0 KECCAK256 SLOAD SWAP1 POP PUSH0 PUSH1 0x1 PUSH1 0x3 DUP1 SLOAD SWAP1 POP PUSH2 0x10F8 SWAP2 SWAP1 PUSH2 0x1AC2 JUMP JUMPDEST SWAP1 POP DUP1 DUP3 EQ PUSH2 0x11DB JUMPI PUSH0 PUSH1 0x3 DUP3 DUP2 SLOAD DUP2 LT PUSH2 0x1116 JUMPI PUSH2 0x1115 PUSH2 0x1BB9 JUMP JUMPDEST JUMPDEST SWAP1 PUSH0 MSTORE PUSH1 0x20 PUSH0 KECCAK256 SWAP1 PUSH1 0x3 MUL ADD SWAP1 POP DUP3 PUSH1 0x4 PUSH0 DUP4 PUSH1 0x1 ADD SLOAD DUP2 MSTORE PUSH1 0x20 ADD SWAP1 DUP2 MSTORE PUSH1 0x20 ADD PUSH0 KECCAK256 DUP2 SWAP1 SSTORE POP DUP1 PUSH1 0x3 DUP5 DUP2 SLOAD DUP2 LT PUSH2 0x1153 JUMPI PUSH2 0x1152 PUSH2 0x1BB9 JUMP JUMPDEST JUMPDEST SWAP1 PUSH0 MSTORE PUSH1 0x20 PUSH0 KECCAK256 SWAP1 PUSH1 0x3 MUL ADD PUSH0 DUP3 ADD PUSH0 SWAP1 SLOAD SWAP1 PUSH2 0x100 EXP SWAP1 DIV PUSH20 0xFFFFFFFFFFFFFFFFFFFFFFFFFFFFFFFFFFFFFFFF AND DUP2 PUSH0 ADD PUSH0 PUSH2 0x100 EXP DUP2 SLOAD DUP2 PUSH20 0xFFFFFFFFFFFFFFFFFFFFFFFFFFFFFFFFFFFFFFFF MUL NOT AND SWAP1 DUP4 PUSH20 0xFFFFFFFFFFFFFFFFFFFFFFFFFFFFFFFFFFFFFFFF AND MUL OR SWAP1 SSTORE POP PUSH1 0x1 DUP3 ADD SLOAD DUP2 PUSH1 0x1 ADD SSTORE PUSH1 0x2 DUP3 ADD SLOAD DUP2 PUSH1 0x2 ADD SSTORE SWAP1 POP POP POP JUMPDEST PUSH1 0x3 DUP1 SLOAD DUP1 PUSH2 0x11ED JUMPI PUSH2 0x11EC PUSH2 0x1EDB JUMP JUMPDEST JUMPDEST PUSH1 0x1 SWAP1 SUB DUP2 DUP2 SWAP1 PUSH0 MSTORE PUSH1 0x20 PUSH0 KECCAK256 SWAP1 PUSH1 0x3 MUL ADD PUSH0 DUP1 DUP3 ADD PUSH0 PUSH2 0x100 EXP DUP2 SLOAD SWAP1 PUSH20 0xFFFFFFFFFFFFFFFFFFFFFFFFFFFFFFFFFFFFFFFF MUL NOT AND SWAP1 SSTORE PUSH1 0x1 DUP3 ADD PUSH0 SWAP1 SSTORE PUSH1 0x2 DUP3 ADD PUSH0 SWAP1 SSTORE POP POP SWAP1 SSTORE PUSH1 0x2 PUSH0 DUP5 DUP2 MSTORE PUSH1 0x20 ADD SWAP1 DUP2 MSTORE PUSH1 0x20 ADD PUSH0 KECCAK256 PUSH0 DUP1 DUP3 ADD PUSH0 PUSH2 0x100 EXP DUP2 SLOAD SWAP1 PUSH20 0xFFFFFFFFFFFFFFFFFFFFFFFFFFFFFFFFFFFFFFFF MUL NOT AND SWAP1 SSTORE PUSH1 0x1 DUP3 ADD PUSH0 SWAP1 SSTORE PUSH1 0x2 DUP3 ADD PUSH0 SWAP1 SSTORE POP POP PUSH1 0x4 PUSH0 DUP5 DUP2 MSTORE PUSH1 0x20 ADD SWAP1 DUP2 MSTORE PUSH1 0x20 ADD PUSH0 KECCAK256 PUSH0 SWAP1 SSTORE POP POP POP JUMP JUMPDEST PUSH1 0x40 MLOAD DUP1 PUSH1 0x60 ADD PUSH1 0x40 MSTORE DUP1 PUSH0 PUSH20 0xFFFFFFFFFFFFFFFFFFFFFFFFFFFFFFFFFFFFFFFF AND DUP2 MSTORE PUSH1 0x20 ADD PUSH0 DUP2 MSTORE PUSH1 0x20 ADD PUSH0 DUP2 MSTORE POP SWAP1 JUMP JUMPDEST PUSH0 PUSH1 0x40 MLOAD SWAP1 POP SWAP1 JUMP JUMPDEST PUSH0 DUP1 REVERT JUMPDEST PUSH0 DUP1 REVERT JUMPDEST PUSH0 PUSH20 0xFFFFFFFFFFFFFFFFFFFFFFFFFFFFFFFFFFFFFFFF DUP3 AND SWAP1 POP SWAP2 SWAP1 POP JUMP JUMPDEST PUSH0 PUSH2 0x1305 DUP3 PUSH2 0x12DC JUMP JUMPDEST SWAP1 POP SWAP2 SWAP1 POP JUMP JUMPDEST PUSH2 0x1315 DUP2 PUSH2 0x12FB JUMP JUMPDEST DUP2 EQ PUSH2 0x131F JUMPI PUSH0 DUP1 REVERT JUMPDEST POP JUMP JUMPDEST PUSH0 DUP2 CALLDATALOAD SWAP1 POP PUSH2 0x1330 DUP2 PUSH2 0x130C JUMP JUMPDEST SWAP3 SWAP2 POP POP JUMP JUMPDEST PUSH0 DUP2 SWAP1 POP SWAP2 SWAP1 POP JUMP JUMPDEST PUSH2 0x1348 DUP2 PUSH2 0x1336 JUMP JUMPDEST DUP2 EQ PUSH2 0x1352 JUMPI PUSH0 DUP1 REVERT JUMPDEST POP JUMP JUMPDEST PUSH0 DUP2 CALLDATALOAD SWAP1 POP PUSH2 0x1363 DUP2 PUSH2 0x133F JUMP JUMPDEST SWAP3 SWAP2 POP POP JUMP JUMPDEST PUSH0 DUP1 REVERT JUMPDEST PUSH0 DUP1 REVERT JUMPDEST PUSH0 DUP1 REVERT JUMPDEST PUSH0 DUP1 DUP4 PUSH1 0x1F DUP5 ADD SLT PUSH2 0x138A JUMPI PUSH2 0x1389 PUSH2 0x1369 JUMP JUMPDEST JUMPDEST DUP3 CALLDATALOAD SWAP1 POP PUSH8 0xFFFFFFFFFFFFFFFF DUP2 GT ISZERO PUSH2 0x13A7 JUMPI PUSH2 0x13A6 PUSH2 0x136D JUMP JUMPDEST JUMPDEST PUSH1 0x20 DUP4 ADD SWAP2 POP DUP4 PUSH1 0x1 DUP3 MUL DUP4 ADD GT ISZERO PUSH2 0x13C3 JUMPI PUSH2 0x13C2 PUSH2 0x1371 JUMP JUMPDEST JUMPDEST SWAP3 POP SWAP3 SWAP1 POP JUMP JUMPDEST PUSH0 DUP1 PUSH0 DUP1 PUSH0 PUSH1 0x80 DUP7 DUP9 SUB SLT ISZERO PUSH2 0x13E3 JUMPI PUSH2 0x13E2 PUSH2 0x12D4 JUMP JUMPDEST JUMPDEST PUSH0 PUSH2 0x13F0 DUP9 DUP3 DUP10 ADD PUSH2 0x1322 JUMP JUMPDEST SWAP6 POP POP PUSH1 0x20 PUSH2 0x1401 DUP9 DUP3 DUP10 ADD PUSH2 0x1322 JUMP JUMPDEST SWAP5 POP POP PUSH1 0x40 PUSH2 0x1412 DUP9 DUP3 DUP10 ADD PUSH2 0x1355 JUMP JUMPDEST SWAP4 POP POP PUSH1 0x60 DUP7 ADD CALLDATALOAD PUSH8 0xFFFFFFFFFFFFFFFF DUP2 GT ISZERO PUSH2 0x1433 JUMPI PUSH2 0x1432 PUSH2 0x12D8 JUMP JUMPDEST JUMPDEST PUSH2 0x143F DUP9 DUP3 DUP10 ADD PUSH2 0x1375 JUMP JUMPDEST SWAP3 POP SWAP3 POP POP SWAP3 SWAP6 POP SWAP3 SWAP6 SWAP1 SWAP4 POP JUMP JUMPDEST PUSH0 PUSH32 0xFFFFFFFF00000000000000000000000000000000000000000000000000000000 DUP3 AND SWAP1 POP SWAP2 SWAP1 POP JUMP JUMPDEST PUSH2 0x1482 DUP2 PUSH2 0x144E JUMP JUMPDEST DUP3 MSTORE POP POP JUMP JUMPDEST PUSH0 PUSH1 0x20 DUP3 ADD SWAP1 POP PUSH2 0x149B PUSH0 DUP4 ADD DUP5 PUSH2 0x1479 JUMP JUMPDEST SWAP3 SWAP2 POP POP JUMP JUMPDEST PUSH0 PUSH1 0x20 DUP3 DUP5 SUB SLT ISZERO PUSH2 0x14B6 JUMPI PUSH2 0x14B5 PUSH2 0x12D4 JUMP JUMPDEST JUMPDEST PUSH0 PUSH2 0x14C3 DUP5 DUP3 DUP6 ADD PUSH2 0x1355 JUMP JUMPDEST SWAP2 POP POP SWAP3 SWAP2 POP POP JUMP JUMPDEST PUSH2 0x14D5 DUP2 PUSH2 0x12FB JUMP JUMPDEST DUP3 MSTORE POP POP JUMP JUMPDEST PUSH2 0x14E4 DUP2 PUSH2 0x1336 JUMP JUMPDEST DUP3 MSTORE POP POP JUMP JUMPDEST PUSH0 PUSH1 0x60 DUP3 ADD SWAP1 POP PUSH2 0x14FD PUSH0 DUP4 ADD DUP7 PUSH2 0x14CC JUMP JUMPDEST PUSH2 0x150A PUSH1 0x20 DUP4 ADD DUP6 PUSH2 0x14DB JUMP JUMPDEST PUSH2 0x1517 PUSH1 0x40 DUP4 ADD DUP5 PUSH2 0x14DB JUMP JUMPDEST SWAP5 SWAP4 POP POP POP POP JUMP JUMPDEST PUSH0 DUP2 MLOAD SWAP1 POP SWAP2 SWAP1 POP JUMP JUMPDEST PUSH0 DUP3 DUP3 MSTORE PUSH1 0x20 DUP3 ADD SWAP1 POP SWAP3 SWAP2 POP POP JUMP JUMPDEST PUSH0 DUP2 SWAP1 POP PUSH1 0x20 DUP3 ADD SWAP1 POP SWAP2 SWAP1 POP JUMP JUMPDEST PUSH2 0x1551 DUP2 PUSH2 0x12FB JUMP JUMPDEST DUP3 MSTORE POP POP JUMP JUMPDEST PUSH2 0x1560 DUP2 PUSH2 0x1336 JUMP JUMPDEST DUP3 MSTORE POP POP JUMP JUMPDEST PUSH1 0x60 DUP3 ADD PUSH0 DUP3 ADD MLOAD PUSH2 0x157A PUSH0 DUP6 ADD DUP3 PUSH2 0x1548 JUMP JUMPDEST POP PUSH1 0x20 DUP3 ADD MLOAD PUSH2 0x158D PUSH1 0x20 DUP6 ADD DUP3 PUSH2 0x1557 JUMP JUMPDEST POP PUSH1 0x40 DUP3 ADD MLOAD PUSH2 0x15A0 PUSH1 0x40 DUP6 ADD DUP3 PUSH2 0x1557 JUMP JUMPDEST POP POP POP POP JUMP JUMPDEST PUSH0 PUSH2 0x15B1 DUP4 DUP4 PUSH2 0x1566 JUMP JUMPDEST PUSH1 0x60 DUP4 ADD SWAP1 POP SWAP3 SWAP2 POP POP JUMP JUMPDEST PUSH0 PUSH1 0x20 DUP3 ADD SWAP1 POP SWAP2 SWAP1 POP JUMP JUMPDEST PUSH0 PUSH2 0x15D3 DUP3 PUSH2 0x151F JUMP JUMPDEST PUSH2 0x15DD DUP2 DUP6 PUSH2 0x1529 JUMP JUMPDEST SWAP4 POP PUSH2 0x15E8 DUP4 PUSH2 0x1539 JUMP JUMPDEST DUP1 PUSH0 JUMPDEST DUP4 DUP2 LT ISZERO PUSH2 0x1618 JUMPI DUP2 MLOAD PUSH2 0x15FF DUP9 DUP3 PUSH2 0x15A6 JUMP JUMPDEST SWAP8 POP PUSH2 0x160A DUP4 PUSH2 0x15BD JUMP JUMPDEST SWAP3 POP POP PUSH1 0x1 DUP2 ADD SWAP1 POP PUSH2 0x15EB JUMP JUMPDEST POP DUP6 SWAP4 POP POP POP POP SWAP3 SWAP2 POP POP JUMP JUMPDEST PUSH0 PUSH1 0x20 DUP3 ADD SWAP1 POP DUP2 DUP2 SUB PUSH0 DUP4 ADD MSTORE PUSH2 0x163D DUP2 DUP5 PUSH2 0x15C9 JUMP JUMPDEST SWAP1 POP SWAP3 SWAP2 POP POP JUMP JUMPDEST PUSH0 DUP2 SWAP1 POP SWAP2 SWAP1 POP JUMP JUMPDEST PUSH0 PUSH2 0x1668 PUSH2 0x1663 PUSH2 0x165E DUP5 PUSH2 0x12DC JUMP JUMPDEST PUSH2 0x1645 JUMP JUMPDEST PUSH2 0x12DC JUMP JUMPDEST SWAP1 POP SWAP2 SWAP1 POP JUMP JUMPDEST PUSH0 PUSH2 0x1679 DUP3 PUSH2 0x164E JUMP JUMPDEST SWAP1 POP SWAP2 SWAP1 POP JUMP JUMPDEST PUSH0 PUSH2 0x168A DUP3 PUSH2 0x166F JUMP JUMPDEST SWAP1 POP SWAP2 SWAP1 POP JUMP JUMPDEST PUSH2 0x169A DUP2 PUSH2 0x1680 JUMP JUMPDEST DUP3 MSTORE POP POP JUMP JUMPDEST PUSH0 PUSH1 0x20 DUP3 ADD SWAP1 POP PUSH2 0x16B3 PUSH0 DUP4 ADD DUP5 PUSH2 0x1691 JUMP JUMPDEST SWAP3 SWAP2 POP POP JUMP JUMPDEST PUSH0 PUSH1 0x20 DUP3 ADD SWAP1 POP PUSH2 0x16CC PUSH0 DUP4 ADD DUP5 PUSH2 0x14DB JUMP JUMPDEST SWAP3 SWAP2 POP POP JUMP JUMPDEST PUSH0 DUP1 PUSH1 0x40 DUP4 DUP6 SUB SLT ISZERO PUSH2 0x16E8 JUMPI PUSH2 0x16E7 PUSH2 0x12D4 JUMP JUMPDEST JUMPDEST PUSH0 PUSH2 0x16F5 DUP6 DUP3 DUP7 ADD PUSH2 0x1355 JUMP JUMPDEST SWAP3 POP POP PUSH1 0x20 PUSH2 0x1706 DUP6 DUP3 DUP7 ADD PUSH2 0x1355 JUMP JUMPDEST SWAP2 POP POP SWAP3 POP SWAP3 SWAP1 POP JUMP JUMPDEST PUSH0 DUP1 REVERT JUMPDEST PUSH0 PUSH1 0x1F NOT PUSH1 0x1F DUP4 ADD AND SWAP1 POP SWAP2 SWAP1 POP JUMP JUMPDEST PUSH32 0x4E487B7100000000000000000000000000000000000000000000000000000000 PUSH0 MSTORE PUSH1 0x41 PUSH1 0x4 MSTORE PUSH1 0x24 PUSH0 REVERT JUMPDEST PUSH2 0x175A DUP3 PUSH2 0x1714 JUMP JUMPDEST DUP2 ADD DUP2 DUP2 LT PUSH8 0xFFFFFFFFFFFFFFFF DUP3 GT OR ISZERO PUSH2 0x1779 JUMPI PUSH2 0x1778 PUSH2 0x1724 JUMP JUMPDEST JUMPDEST DUP1 PUSH1 0x40 MSTORE POP POP POP JUMP JUMPDEST PUSH0 PUSH2 0x178B PUSH2 0x12CB JUMP JUMPDEST SWAP1 POP PUSH2 0x1797 DUP3 DUP3 PUSH2 0x1751 JUMP JUMPDEST SWAP2 SWAP1 POP JUMP JUMPDEST PUSH0 PUSH8 0xFFFFFFFFFFFFFFFF DUP3 GT ISZERO PUSH2 0x17B6 JUMPI PUSH2 0x17B5 PUSH2 0x1724 JUMP JUMPDEST JUMPDEST PUSH2 0x17BF DUP3 PUSH2 0x1714 JUMP JUMPDEST SWAP1 POP PUSH1 0x20 DUP2 ADD SWAP1 POP SWAP2 SWAP1 POP JUMP JUMPDEST DUP3 DUP2 DUP4 CALLDATACOPY PUSH0 DUP4 DUP4 ADD MSTORE POP POP POP JUMP JUMPDEST PUSH0 PUSH2 0x17EC PUSH2 0x17E7 DUP5 PUSH2 0x179C JUMP JUMPDEST PUSH2 0x1782 JUMP JUMPDEST SWAP1 POP DUP3 DUP2 MSTORE PUSH1 0x20 DUP2 ADD DUP5 DUP5 DUP5 ADD GT ISZERO PUSH2 0x1808 JUMPI PUSH2 0x1807 PUSH2 0x1710 JUMP JUMPDEST JUMPDEST PUSH2 0x1813 DUP5 DUP3 DUP6 PUSH2 0x17CC JUMP JUMPDEST POP SWAP4 SWAP3 POP POP POP JUMP JUMPDEST PUSH0 DUP3 PUSH1 0x1F DUP4 ADD SLT PUSH2 0x182F JUMPI PUSH2 0x182E PUSH2 0x1369 JUMP JUMPDEST JUMPDEST DUP2 CALLDATALOAD PUSH2 0x183F DUP5 DUP3 PUSH1 0x20 DUP7 ADD PUSH2 0x17DA JUMP JUMPDEST SWAP2 POP POP SWAP3 SWAP2 POP POP JUMP JUMPDEST PUSH0 DUP1 PUSH1 0x40 DUP4 DUP6 SUB SLT ISZERO PUSH2 0x185E JUMPI PUSH2 0x185D PUSH2 0x12D4 JUMP JUMPDEST JUMPDEST PUSH0 DUP4 ADD CALLDATALOAD PUSH8 0xFFFFFFFFFFFFFFFF DUP2 GT ISZERO PUSH2 0x187B JUMPI PUSH2 0x187A PUSH2 0x12D8 JUMP JUMPDEST JUMPDEST PUSH2 0x1887 DUP6 DUP3 DUP7 ADD PUSH2 0x181B JUMP JUMPDEST SWAP3 POP POP PUSH1 0x20 PUSH2 0x1898 DUP6 DUP3 DUP7 ADD PUSH2 0x1355 JUMP JUMPDEST SWAP2 POP POP SWAP3 POP SWAP3 SWAP1 POP JUMP JUMPDEST PUSH0 PUSH2 0x18AC DUP3 PUSH2 0x166F JUMP JUMPDEST SWAP1 POP SWAP2 SWAP1 POP JUMP JUMPDEST PUSH2 0x18BC DUP2 PUSH2 0x18A2 JUMP JUMPDEST DUP3 MSTORE POP POP JUMP JUMPDEST PUSH0 PUSH1 0x20 DUP3 ADD SWAP1 POP PUSH2 0x18D5 PUSH0 DUP4 ADD DUP5 PUSH2 0x18B3 JUMP JUMPDEST SWAP3 SWAP2 POP POP JUMP JUMPDEST PUSH0 DUP2 ISZERO ISZERO SWAP1 POP SWAP2 SWAP1 POP JUMP JUMPDEST PUSH2 0x18EF DUP2 PUSH2 0x18DB JUMP JUMPDEST DUP3 MSTORE POP POP JUMP JUMPDEST PUSH0 PUSH1 0x20 DUP3 ADD SWAP1 POP PUSH2 0x1908 PUSH0 DUP4 ADD DUP5 PUSH2 0x18E6 JUMP JUMPDEST SWAP3 SWAP2 POP POP JUMP JUMPDEST PUSH0 DUP3 DUP3 MSTORE PUSH1 0x20 DUP3 ADD SWAP1 POP SWAP3 SWAP2 POP POP JUMP JUMPDEST PUSH32 0x696E76616C69642073656E646572000000000000000000000000000000000000 PUSH0 DUP3 ADD MSTORE POP JUMP JUMPDEST PUSH0 PUSH2 0x1952 PUSH1 0xE DUP4 PUSH2 0x190E JUMP JUMPDEST SWAP2 POP PUSH2 0x195D DUP3 PUSH2 0x191E JUMP JUMPDEST PUSH1 0x20 DUP3 ADD SWAP1 POP SWAP2 SWAP1 POP JUMP JUMPDEST PUSH0 PUSH1 0x20 DUP3 ADD SWAP1 POP DUP2 DUP2 SUB PUSH0 DUP4 ADD MSTORE PUSH2 0x197F DUP2 PUSH2 0x1946 JUMP JUMPDEST SWAP1 POP SWAP2 SWAP1 POP JUMP JUMPDEST PUSH0 DUP2 MLOAD SWAP1 POP PUSH2 0x1994 DUP2 PUSH2 0x130C JUMP JUMPDEST SWAP3 SWAP2 POP POP JUMP JUMPDEST PUSH0 PUSH1 0x20 DUP3 DUP5 SUB SLT ISZERO PUSH2 0x19AF JUMPI PUSH2 0x19AE PUSH2 0x12D4 JUMP JUMPDEST JUMPDEST PUSH0 PUSH2 0x19BC DUP5 DUP3 DUP6 ADD PUSH2 0x1986 JUMP JUMPDEST SWAP2 POP POP SWAP3 SWAP2 POP POP JUMP JUMPDEST PUSH32 0x6E6F74206F776E6564206279207468697320636F6E7472616374000000000000 PUSH0 DUP3 ADD MSTORE POP JUMP JUMPDEST PUSH0 PUSH2 0x19F9 PUSH1 0x1A DUP4 PUSH2 0x190E JUMP JUMPDEST SWAP2 POP PUSH2 0x1A04 DUP3 PUSH2 0x19C5 JUMP JUMPDEST PUSH1 0x20 DUP3 ADD SWAP1 POP SWAP2 SWAP1 POP JUMP JUMPDEST PUSH0 PUSH1 0x20 DUP3 ADD SWAP1 POP DUP2 DUP2 SUB PUSH0 DUP4 ADD MSTORE PUSH2 0x1A26 DUP2 PUSH2 0x19ED JUMP JUMPDEST SWAP1 POP SWAP2 SWAP1 POP JUMP JUMPDEST PUSH32 0x7072696365206973207A65726F00000000000000000000000000000000000000 PUSH0 DUP3 ADD MSTORE POP JUMP JUMPDEST PUSH0 PUSH2 0x1A61 PUSH1 0xD DUP4 PUSH2 0x190E JUMP JUMPDEST SWAP2 POP PUSH2 0x1A6C DUP3 PUSH2 0x1A2D JUMP JUMPDEST PUSH1 0x20 DUP3 ADD SWAP1 POP SWAP2 SWAP1 POP JUMP JUMPDEST PUSH0 PUSH1 0x20 DUP3 ADD SWAP1 POP DUP2 DUP2 SUB PUSH0 DUP4 ADD MSTORE PUSH2 0x1A8E DUP2 PUSH2 0x1A55 JUMP JUMPDEST SWAP1 POP SWAP2 SWAP1 POP JUMP JUMPDEST PUSH32 0x4E487B7100000000000000000000000000000000000000000000000000000000 PUSH0 MSTORE PUSH1 0x11 PUSH1 0x4 MSTORE PUSH1 0x24 PUSH0 REVERT JUMPDEST PUSH0 PUSH2 0x1ACC DUP3 PUSH2 0x1336 JUMP JUMPDEST SWAP2 POP PUSH2 0x1AD7 DUP4 PUSH2 0x1336 JUMP JUMPDEST SWAP3 POP DUP3 DUP3 SUB SWAP1 POP DUP2 DUP2 GT ISZERO PUSH2 0x1AEF JUMPI PUSH2 0x1AEE PUSH2 0x1A95 JUMP JUMPDEST JUMPDEST SWAP3 SWAP2 POP POP JUMP JUMPDEST PUSH32 0x6E6F74207468652073656C6C6572000000000000000000000000000000000000 PUSH0 DUP3 ADD MSTORE POP JUMP JUMPDEST PUSH0 PUSH2 0x1B29 PUSH1 0xE DUP4 PUSH2 0x190E JUMP JUMPDEST SWAP2 POP PUSH2 0x1B34 DUP3 PUSH2 0x1AF5 JUMP JUMPDEST PUSH1 0x20 DUP3 ADD SWAP1 POP SWAP2 SWAP1 POP JUMP JUMPDEST PUSH0 PUSH1 0x20 DUP3 ADD SWAP1 POP DUP2 DUP2 SUB PUSH0 DUP4 ADD MSTORE PUSH2 0x1B56 DUP2 PUSH2 0x1B1D JUMP JUMPDEST SWAP1 POP SWAP2 SWAP1 POP JUMP JUMPDEST PUSH0 PUSH1 0x60 DUP3 ADD SWAP1 POP PUSH2 0x1B70 PUSH0 DUP4 ADD DUP7 PUSH2 0x14CC JUMP JUMPDEST PUSH2 0x1B7D PUSH1 0x20 DUP4 ADD DUP6 PUSH2 0x14CC JUMP JUMPDEST PUSH2 0x1B8A PUSH1 0x40 DUP4 ADD DUP5 PUSH2 0x14DB JUMP JUMPDEST SWAP5 SWAP4 POP POP POP POP JUMP JUMPDEST PUSH0 PUSH1 0x40 DUP3 ADD SWAP1 POP PUSH2 0x1BA5 PUSH0 DUP4 ADD DUP6 PUSH2 0x14CC JUMP JUMPDEST PUSH2 0x1BB2 PUSH1 0x20 DUP4 ADD DUP5 PUSH2 0x14DB JUMP JUMPDEST SWAP4 SWAP3 POP POP POP JUMP JUMPDEST PUSH32 0x4E487B7100000000000000000000000000000000000000000000000000000000 PUSH0 MSTORE PUSH1 0x32 PUSH1 0x4 MSTORE PUSH1 0x24 PUSH0 REVERT JUMPDEST PUSH0 PUSH2 0x1BF0 DUP3 PUSH2 0x1336 JUMP JUMPDEST SWAP2 POP PUSH32 0xFFFFFFFFFFFFFFFFFFFFFFFFFFFFFFFFFFFFFFFFFFFFFFFFFFFFFFFFFFFFFFFF DUP3 SUB PUSH2 0x1C22 JUMPI PUSH2 0x1C21 PUSH2 0x1A95 JUMP JUMPDEST JUMPDEST PUSH1 0x1 DUP3 ADD SWAP1 POP SWAP2 SWAP1 POP JUMP JUMPDEST PUSH0 PUSH1 0x80 DUP3 ADD SWAP1 POP PUSH2 0x1C40 PUSH0 DUP4 ADD DUP8 PUSH2 0x14CC JUMP JUMPDEST PUSH2 0x1C4D PUSH1 0x20 DUP4 ADD DUP7 PUSH2 0x14DB JUMP JUMPDEST PUSH2 0x1C5A PUSH1 0x40 DUP4 ADD DUP6 PUSH2 0x14DB JUMP JUMPDEST PUSH2 0x1C67 PUSH1 0x60 DUP4 ADD DUP5 PUSH2 0x14DB JUMP JUMPDEST SWAP6 SWAP5 POP POP POP POP POP JUMP JUMPDEST PUSH0 PUSH2 0x1C7A DUP3 PUSH2 0x1336 JUMP JUMPDEST SWAP2 POP PUSH2 0x1C85 DUP4 PUSH2 0x1336 JUMP JUMPDEST SWAP3 POP DUP3 DUP3 ADD SWAP1 POP DUP1 DUP3 GT ISZERO PUSH2 0x1C9D JUMPI PUSH2 0x1C9C PUSH2 0x1A95 JUMP JUMPDEST JUMPDEST SWAP3 SWAP2 POP POP JUMP JUMPDEST PUSH32 0x4D61726B65743A20746F55696E743235365F6F766572666C6F77000000000000 PUSH0 DUP3 ADD MSTORE POP JUMP JUMPDEST PUSH0 PUSH2 0x1CD7 PUSH1 0x1A DUP4 PUSH2 0x190E JUMP JUMPDEST SWAP2 POP PUSH2 0x1CE2 DUP3 PUSH2 0x1CA3 JUMP JUMPDEST PUSH1 0x20 DUP3 ADD SWAP1 POP SWAP2 SWAP1 POP JUMP JUMPDEST PUSH0 PUSH1 0x20 DUP3 ADD SWAP1 POP DUP2 DUP2 SUB PUSH0 DUP4 ADD MSTORE PUSH2 0x1D04 DUP2 PUSH2 0x1CCB JUMP JUMPDEST SWAP1 POP SWAP2 SWAP1 POP JUMP JUMPDEST PUSH32 0x4D61726B65743A20746F55696E743235365F6F75744F66426F756E6473000000 PUSH0 DUP3 ADD MSTORE POP JUMP JUMPDEST PUSH0 PUSH2 0x1D3F PUSH1 0x1D DUP4 PUSH2 0x190E JUMP JUMPDEST SWAP2 POP PUSH2 0x1D4A DUP3 PUSH2 0x1D0B JUMP JUMPDEST PUSH1 0x20 DUP3 ADD SWAP1 POP SWAP2 SWAP1 POP JUMP JUMPDEST PUSH0 PUSH1 0x20 DUP3 ADD SWAP1 POP DUP2 DUP2 SUB PUSH0 DUP4 ADD MSTORE PUSH2 0x1D6C DUP2 PUSH2 0x1D33 JUMP JUMPDEST SWAP1 POP SWAP2 SWAP1 POP JUMP JUMPDEST PUSH32 0x73656C6C657220616E6420627579657220617265207468652073616D65000000 PUSH0 DUP3 ADD MSTORE POP JUMP JUMPDEST PUSH0 PUSH2 0x1DA7 PUSH1 0x1D DUP4 PUSH2 0x190E JUMP JUMPDEST SWAP2 POP PUSH2 0x1DB2 DUP3 PUSH2 0x1D73 JUMP JUMPDEST PUSH1 0x20 DUP3 ADD SWAP1 POP SWAP2 SWAP1 POP JUMP JUMPDEST PUSH0 PUSH1 0x20 DUP3 ADD SWAP1 POP DUP2 DUP2 SUB PUSH0 DUP4 ADD MSTORE PUSH2 0x1DD4 DUP2 PUSH2 0x1D9B JUMP JUMPDEST SWAP1 POP SWAP2 SWAP1 POP JUMP JUMPDEST PUSH2 0x1DE4 DUP2 PUSH2 0x18DB JUMP JUMPDEST DUP2 EQ PUSH2 0x1DEE JUMPI PUSH0 DUP1 REVERT JUMPDEST POP JUMP JUMPDEST PUSH0 DUP2 MLOAD SWAP1 POP PUSH2 0x1DFF DUP2 PUSH2 0x1DDB JUMP JUMPDEST SWAP3 SWAP2 POP POP JUMP JUMPDEST PUSH0 PUSH1 0x20 DUP3 DUP5 SUB SLT ISZERO PUSH2 0x1E1A JUMPI PUSH2 0x1E19 PUSH2 0x12D4 JUMP JUMPDEST JUMPDEST PUSH0 PUSH2 0x1E27 DUP5 DUP3 DUP6 ADD PUSH2 0x1DF1 JUMP JUMPDEST SWAP2 POP POP SWAP3 SWAP2 POP POP JUMP JUMPDEST PUSH32 0x7472616E73666572206661696C65640000000000000000000000000000000000 PUSH0 DUP3 ADD MSTORE POP JUMP JUMPDEST PUSH0 PUSH2 0x1E64 PUSH1 0xF DUP4 PUSH2 0x190E JUMP JUMPDEST SWAP2 POP PUSH2 0x1E6F DUP3 PUSH2 0x1E30 JUMP JUMPDEST PUSH1 0x20 DUP3 ADD SWAP1 POP SWAP2 SWAP1 POP JUMP JUMPDEST PUSH0 PUSH1 0x20 DUP3 ADD SWAP1 POP DUP2 DUP2 SUB PUSH0 DUP4 ADD MSTORE PUSH2 0x1E91 DUP2 PUSH2 0x1E58 JUMP JUMPDEST SWAP1 POP SWAP2 SWAP1 POP JUMP JUMPDEST PUSH0 PUSH1 0x80 DUP3 ADD SWAP1 POP PUSH2 0x1EAB PUSH0 DUP4 ADD DUP8 PUSH2 0x14CC JUMP JUMPDEST PUSH2 0x1EB8 PUSH1 0x20 DUP4 ADD DUP7 PUSH2 0x14CC JUMP JUMPDEST PUSH2 0x1EC5 PUSH1 0x40 DUP4 ADD DUP6 PUSH2 0x14DB JUMP JUMPDEST PUSH2 0x1ED2 PUSH1 0x60 DUP4 ADD DUP5 PUSH2 0x14DB JUMP JUMPDEST SWAP6 SWAP5 POP POP POP POP POP JUMP JUMPDEST PUSH32 0x4E487B7100000000000000000000000000000000000000000000000000000000 PUSH0 MSTORE PUSH1 0x31 PUSH1 0x4 MSTORE PUSH1 0x24 PUSH0 REVERT INVALID LOG2 PUSH5 0x6970667358 0x22 SLT KECCAK256 MSIZE PUSH28 0x3382A8B7CEB8CA80380D3082E2F83D687EB8E5E4A5282F3B2BF905E9 0xE0 0xC PUSH5 0x736F6C6343 STOP ADDMOD AND STOP CALLER "
				},
				"gasEstimates": {
					"creation": {
						"codeDepositCost": "1599600",
						"executionCost": "infinite",
						"totalCost": "infinite"
					},
					"external": {
						"buy(uint256)": "infinite",
						"cancelOrder(uint256)": "infinite",
						"changePrice(uint256,uint256)": "infinite",
						"erc20()": "infinite",
						"erc721()": "infinite",
						"getAllNFTs()": "infinite",
						"getMyNFTs()": "infinite",
						"getOrderLength()": "2507",
						"idToOrderIndex(uint256)": "infinite",
						"isListed(uint256)": "2924",
						"onERC721Received(address,address,uint256,bytes)": "infinite",
						"orderOfId(uint256)": "infinite",
						"orders(uint256)": "infinite",
						"toUint256(bytes,uint256)": "infinite"
					},
					"internal": {
						"removeOrder(uint256)": "infinite"
					}
				},
				"methodIdentifiers": {
					"buy(uint256)": "d96a094a",
					"cancelOrder(uint256)": "514fcac7",
					"changePrice(uint256,uint256)": "b3de019c",
					"erc20()": "785e9e86",
					"erc721()": "bca6ce64",
					"getAllNFTs()": "e0391b09",
					"getMyNFTs()": "629cb2e4",
					"getOrderLength()": "9d4971b7",
					"idToOrderIndex(uint256)": "da694df0",
					"isListed(uint256)": "fcce4883",
					"onERC721Received(address,address,uint256,bytes)": "150b7a02",
					"orderOfId(uint256)": "394a9077",
					"orders(uint256)": "a85c38ef",
					"toUint256(bytes,uint256)": "b5cdf924"
				}
			},
			"storageLayout": {
				"storage": [
					{
						"astId": 221,
						"contract": "contracts/nft-market.sol:Market",
						"label": "erc20",
						"offset": 0,
						"slot": "0",
						"type": "t_contract(IERC20)85"
					},
					{
						"astId": 224,
						"contract": "contracts/nft-market.sol:Market",
						"label": "erc721",
						"offset": 0,
						"slot": "1",
						"type": "t_contract(IERC721)202"
					},
					{
						"astId": 239,
						"contract": "contracts/nft-market.sol:Market",
						"label": "orderOfId",
						"offset": 0,
						"slot": "2",
						"type": "t_mapping(t_uint256,t_struct(Order)234_storage)"
					},
					{
						"astId": 243,
						"contract": "contracts/nft-market.sol:Market",
						"label": "orders",
						"offset": 0,
						"slot": "3",
						"type": "t_array(t_struct(Order)234_storage)dyn_storage"
					},
					{
						"astId": 247,
						"contract": "contracts/nft-market.sol:Market",
						"label": "idToOrderIndex",
						"offset": 0,
						"slot": "4",
						"type": "t_mapping(t_uint256,t_uint256)"
					}
				],
				"types": {
					"t_address": {
						"encoding": "inplace",
						"label": "address",
						"numberOfBytes": "20"
					},
					"t_array(t_struct(Order)234_storage)dyn_storage": {
						"base": "t_struct(Order)234_storage",
						"encoding": "dynamic_array",
						"label": "struct Market.Order[]",
						"numberOfBytes": "32"
					},
					"t_contract(IERC20)85": {
						"encoding": "inplace",
						"label": "contract IERC20",
						"numberOfBytes": "20"
					},
					"t_contract(IERC721)202": {
						"encoding": "inplace",
						"label": "contract IERC721",
						"numberOfBytes": "20"
					},
					"t_mapping(t_uint256,t_struct(Order)234_storage)": {
						"encoding": "mapping",
						"key": "t_uint256",
						"label": "mapping(uint256 => struct Market.Order)",
						"numberOfBytes": "32",
						"value": "t_struct(Order)234_storage"
					},
					"t_mapping(t_uint256,t_uint256)": {
						"encoding": "mapping",
						"key": "t_uint256",
						"label": "mapping(uint256 => uint256)",
						"numberOfBytes": "32",
						"value": "t_uint256"
					},
					"t_struct(Order)234_storage": {
						"encoding": "inplace",
						"label": "struct Market.Order",
						"members": [
							{
								"astId": 229,
								"contract": "contracts/nft-market.sol:Market",
								"label": "seller",
								"offset": 0,
								"slot": "0",
								"type": "t_address"
							},
							{
								"astId": 231,
								"contract": "contracts/nft-market.sol:Market",
								"label": "tokenId",
								"offset": 0,
								"slot": "1",
								"type": "t_uint256"
							},
							{
								"astId": 233,
								"contract": "contracts/nft-market.sol:Market",
								"label": "price",
								"offset": 0,
								"slot": "2",
								"type": "t_uint256"
							}
						],
						"numberOfBytes": "96"
					},
					"t_uint256": {
						"encoding": "inplace",
						"label": "uint256",
						"numberOfBytes": "32"
					}
				}
			},
			"userdoc": {
				"kind": "user",
				"methods": {},
				"version": 1
			}
		}
	}
}